:10000000000004207903000061030000F90A0000E9
:1000100065030000670300006903000000000000A2
:100020000000000000000000000000006B03000062
:100030006D030000000000006F030000710300006A
:10004000CD19000073030000DD19000073030000E8
:100050007303000073030000CD160000730300005B
:1000600073030000730300007303000073030000B8
:1000700073030000730300007303000073030000A8
:1000800073030000090600007303000073030000FF
:10009000A506000073030000730300007303000053
:1000A0007303000073030000730300007303000078
:1000B0007303000073030000000000000000000054
:1000C0007303000073030000730300007303000058
:1000D0007303000073030000730300007303000048
:1000E00073030000730300007303000000000000AE
:1000F0000000000073030000000000007303000014
:1001000000000000000000000000000000000000EF
:1001100000000000000000000000000000000000DF
:1001200000000000000000000000000000000000CF
:1001300000000000000000000000000000000000BF
:1001400000000000000000000000000000000000AF
:10015000000000000000000000000000000000009F
:10016000000000000000000000000000000000008F
:10017000000000000000000000000000000000007F
:10018000000000000000000000000000000000006F
:10019000000000000000000000000000000000005F
:1001A000000000000000000000000000000000004F
:1001B000000000000000000000000000000000003F
:1001C000000000000000000000000000000000002F
:1001D000000000000000000000000000000000001F
:1001E000000000000000000000000000000000000F
:1001F00000000000000000000000000000000000FF
:10020000364937480A1A02D0072291438D463549AC
:1002100035480A1A06D00722914381F30988022241
:1002200082F3148831483249324A00F045F83248A6
:100230003249334A00F040F832483349334A00F03B
:100240003BF833483349344A00F036F833483449F0
:10025000344A00F031F834483449354A00F02CF87B
:1002600034483549354A00F027F8354835490022E9
:1002700000F02DF834483549002200F028F83448C1
:100280003449091A082903DB0022026004300160A6
:10029000314A90471F482049884205D002680430FF
:1002A00003B4904703BCF7E700208646EC460020E5
:1002B00000212A4A9047FEE7884207D0521A05D00B
:1002C000037801300B700131013AF9D1704788424F
:1002D00002D002700130FAE77047000000000420ED
:1002E00000E0032000000420000004203C30000057
:1002F0000000002018000020D8030000D8030000F0
:10030000C22A00003C300000000000200000002055
:10031000EC2A0000EC2A0000EC2A0000EC2A000085
:10032000EC2A0000EC2A0000EC2A0000EC2A000075
:100330003C3000005430000018000020180000205D
:10034000180000201C0300201C0300201C030020B8
:100350001C0300201C230020A103000055260000E0
:10036000FEE7FEE7FEE7FEE7FEE7FEE7FEE7FEE765
:10037000FEE7FEE7704700BF1048804710484FF087
:100380000701884385460F4880470F48016841F4BC
:1003900070010160BFF34F8FBFF36F8FFFF730BF66
:1003A0000A480B490B4A884207D0521A05D00378F5
:1003B00001300B700131013AF9D17047750300002B
:1003C000000004202527000088ED00E0EC2A000052
:0803D0000000002000000020E5
:1003D80003682F2B10B5044604D907494FF4E87079
:1003E80000F0C2FB23681F2B83BF03F01F032360A9
:1003F80002484FF0A04010BD3E2B00000003005003
:10040800032813B5044603D90849472000F0ACFB7C
:10041800074B02A81B5D40F8043DFFF7D9FF019A7E
:1004280001239340C0F8083502B010BDEC2A000043
:100438003A2B000008B50020FFF7E2FF0120FFF784
:10044800DFFF0220FFF7DCFF0320BDE80840FFF7CD
:10045800D7BF0000F7B5C207054611D5124F0024D3
:100468000326E35D00936846FFF7B2FF009B013463
:1004780003F5E073042C40F82360F2D1FFF7DAFFAC
:10048800AB070FD5094E00240C25A35D019301A8E5
:10049800FFF79EFF019B013403F5E073042C40F83D
:1004A8002350F2D103B0F0BD3A2B0000362B0000E8
:1004B80082B001238DF807309DF80730114B186082
:1004C800596044F2010188429A6012D044F2020154
:1004D800884206D1DA60DA6812889A61DA68526866
:1004E800DA6172B69DF80730002BFBD162B602B014
:1004F80070471A611A6992685A611A6912689A6192
:100508001A69ECE71800002000B583B0029000914A
:10051800019244F2010071466A4600F003F803B004
:1005280000BD000072B6034B1B68DB0700D500BE98
:10053800FFF7BEBFF0ED00E0094A53789178013328
:10054800DBB2994208BF0023117899421FBF03709C
:100558005078182303FB002014BF04300020704794
:100568003800002037B5044600200D4600F0A0FAF8
:100578000DF10700FFF7E0FF90B10570094B9DF8FA
:10058800072044605A700024002000F0A1FA24B922
:10059800054B4FF48012C3F80021204603B030BD4C
:1005A8000424F1E73800002000E100E0024B4FF49A
:1005B8003C6043F001031847702B000038B50C4B22
:1005C8000C4C4FF40032C3F8802001254FF48033DF
:1005D800C4F84833C4F808336560FFF7E7FF064BF3
:1005E800A56000241C60FFF7E1FF044B1C7038BDB8
:1005F80000E100E000100140540100204501002006
:10060800F8B51F4B1F491B680025C1F84051C1F8B8
:100618004451C1F84851C1F84C51C1F80051C1F8D2
:1006280004514BB3D1F8044517490968641A24F0FA
:100638007F442F461A68A24209D8A41A15441A7C86
:10064800DE691AB11F74D3E905209047AEB90F4B84
:100658000F4A197813788B4205D10133DBB2022B8C
:1006680008BF0023137012780A4B43F822500A4B34
:100678004FF48012C3F80021F8BD3346DAE700BF13
:1006880058010020001001405401002050010020B2
:10069800510100204801002000E100E02DE9F74F5A
:1006A8009E4A9F49137809789E4D99423CD0013360
:1006B800DBB2022B08BF002313709B4912789B4BB7
:1006C8000F6853F822003B1823F07F4300220B6089
:1006D8002B6816461446944613B942B12B6006E0BF
:1006E800196881420ED902B12B60091A19604FF0BE
:1006F80001082B68DFF83CA200930027BEB9DFF899
:100708003CB260E0401A0C44D968C3F800C0D3F882
:100718001CE031B13A1922F07F42C3E90121DE61C0
:100728001E4601227346D7E70026B046E1E7344665
:10073800F6697D4A63681268DFF804C2A068991AEE
:1007480021F07F41614500F2A5800144216001222A
:1007580022742A680023C4E90133E361002A40F0C7
:10076800A2802C60CAE75A1C9BF80210D2B29142B0
:100778008BF8002004BF00228BF80020182202FB0F
:1007880003B32A6819799C68022974D003297ED09A
:10079800012918D1217CB1B9DA6862601A69A260AE
:1007A8005A699B69A361624BE2601B78002BC0D039
:1007B8006160BEE79C4200F093809946DB69002B9C
:1007C800F8D1002323749BF800309BF801209A424B
:1007D800C9D12B682FB9009A934202D1B8F1000F02
:1007E80043D0002B79D0D3F800A0524D4E4BD5F80A
:1007F80004751C68DFF84C813E1B98F8003026F021
:100808007F4603369BB94FF48033C5F84433C5F8A7
:100818000433494B4FF400324FF00109C3F88021EB
:100828001A60C5F80090FFF7C1FE88F80090B2453D
:100838002CBF5444A41924F07F44C5F84045D5F88A
:100848000435DB1B23F07F43E41B033324F07F4490
:10085800A3420AD9D5F80435C5F84035FFF7A6FEF6
:10086800354B4FF40032C3F80021314B00221A7087
:1008780003B0BDE8F08F13469146A0E71174D26922
:100888000123002AFAD1002B9DD02A609BE7002380
:100898001946F6E7D31A23F07F43834234BFC31ABD
:1008A8000023236053E721681368994213D8591A23
:1008B8001160E26155E7091AD8691A4638B103464A
:1008C80018688842F7D3401A186018461346216002
:1008D800E061DC6112E71346F2E7FFF76FFEC4E759
:1008E8004C450DD1D3692B6053B90F4801920121B2
:1008F800CAF8081003600E4B1970FFF757FE019AEB
:10090800E1692368C9F81C1011B1086803440B6039
:100918002B689A4218BF012753E700BF50010020F7
:1009280051010020580100205401002048010020F6
:10093800440100200010014000E100E038000020E0
:10094800FEFF7F004501002008B5FFF737FE104B7A
:1009580000200B2218809A700E4B18600E4B1870EE
:100968000E4B18700E4B4FF48012C021C3F8802133
:1009780083F814131A6002F18042A2F56F22C2F8BC
:10098800080583F81113074BD2F804251A6008BD2F
:10099800380000205801002050010020510100209B
:1009A80000E100E054010020074B9B784BB132B1C5
:1009B80028B10368187C20B959745A617047072018
:1009C80070470820704700BF380000202DE9F34128
:1009D8001C4EB37804460D4617468BB380B30429E2
:1009E8002CD9436963B3437C0020012B0CBF884694
:1009F8004FF0000800F05CF80DF10700FFF79CFDD0
:100A0800D0B101230370104B4460D3F80435C0E91A
:100A18000487C0E902359DF8073073700024002070
:100A280000F056F824B9094B4FF48012C3F800219E
:100A3800204602B0BDE8F0810424F0E70724F7E778
:100A48000824F5E7380000200010014000E100E02C
:100A5800064A92783AB130B1426922B10022027452
:100A68000221FFF77FBD0820704700BF3800002033
:100A780072B6024A13680133136070475C010020A4
:100A8800034A1368013B136003B962B6704700BF9D
:100A98005C010020EFF30583C3F308032BB9EFF3E0
:100AA8001480C04300F00100704701207047000027
:100AB80008B5FFF7EFFF012803D00449432000F0F1
:100AC80053F8BDE80840FFF7D3BF00BF762B0000FE
:100AD80008B5FFF7DFFF012803D00449512000F0D3
:100AE80043F8BDE80840FFF7CBBF00BF762B0000F6
:100AF8001EF0040F1CBFEFF309800AE0EFF3088033
:100B08000549064A884201D8904202D88D464FF0DE
:100B18000000034B184700000000042000E00320F9
:100B2800510B0000BFF34F8F0549064BCA6802F40A
:100B3800E0621343CB60BFF34F8F00BFFDE700BFF8
:100B480000ED00E00400FA0508B5054B9A6ADB6A77
:100B5800044B1B68DB0700D500BEFFF7E3FF08BDA9
:100B680000ED00E0F0ED00E007B5ADF80000019100
:100B78006A46002144F20200FFF7D4FC03B05DF896
:100B880004FB50E8002F0B4640E8003C9CF0000FA7
:100B9800F7D110467047026813685268934291BFB4
:100BA800D01A80680130801888BFC01A70470000CA
:100BB80038B50C46054618B904497720FFF7D4FF25
:100BC800AB68A3428CBF601C002038BDD32B00004B
:100BD8002DE9F84303681D685C68A54284BF8368F3
:100BE80001331746884694BF641B5C1BC268416882
:100BF800BC42064605FB02110CD37A43404601F07D
:100C0800D0FEB3683D449D4288BF002533681D600F
:100C1800BDE8F88304FB02F94A46404601F0C1FEEC
:100C2800F26871683C1B624308EB090001F0B9FEE9
:100C380033681C60ECE7000070B50E4614460546A4
:100C480020B90F4940F2D510FFF78EFF26B90C499D
:100C58004FF4EB70FFF788FF84B10020FFF728FFFF
:100C68002846FFF798FF844228BF044622462846B4
:100C78003146FFF7ADFF0020FFF72AFF204670BD81
:100C8800D32B000010B5044620B9094940F2EF10F3
:100C9800FFF76AFF0020FFF70BFF20680C220021F6
:100CA80001F0A8FE0020BDE81040FFF711BF00BF0B
:100CB800D32B000010B5044620B9084940F2FD10B6
:100CC800FFF752FF0020FFF7F3FE2046FFF763FF10
:100CD80004460020FFF7FCFE204610BDD32B000081
:100CE80010B5044620B9064940F20A20FFF73CFF38
:100CF800236818685B68C31A5842584110BD00BF82
:100D0800D32B000038B5044620B9054940F212201B
:100D1800FFF72AFF2046A568FFF7CCFF281A38BD41
:100D2800D32B00002DE9F843044616468846FFF702
:100D3800E9FF2368A5685A680135AD1A8146E2685B
:100D480058686368B54202FB003017D372434146C6
:100D580001F027FE2268A168536833448B4296BF8E
:100D680053680026F61856602046FFF714FF2368DC
:100D78009A68824238BF9860BDE8F88305FB02F79D
:100D88003A46414601F00DFEE2686068751B08EBC3
:100D980007016A4301F005FE2768B1457D60E3D28B
:100DA80079682046FFF704FF3860DDE770B50E4626
:100DB8001446054620B913494FF4B470FFF7D4FE22
:100DC80026B9104940F26910FFF7CEFE84B1002021
:100DD800FFF76EFE2B7C6BB9AB689C4228BF1C46A4
:100DE800284622463146FFF79DFF0020FFF770FE98
:100DF800204670BD2846FFF785FF844228BF044679
:100E0800EEE700BFD32B000043691B68DB6803B122
:100E180018477047012303707047000010B5044657
:100E280018B908499220FFF79FFE2368012B03D0C9
:100E380004499320FFF798FEBFF35F8F00232360D8
:100E480010BD00BF292C000010B4074C0378E35CE8
:100E580023B104305DF8044B01F0B0BA0C305DF8F2
:100E6800044B00F0DFBF00BF8801002010B4074C1E
:100E78000378E35C23B104305DF8044B01F01CBB3C
:100E88000C305DF8044B01F04BB800BF880100201E
:100E980070B50578012D06460C4603D029D3022DDE
:100EA80025D070BD4B69027A1B6841685B68186879
:100EB800FFF77CFF337A834205D903212046BDE83A
:100EC8007040FFF7A1BF29462046FFF79DFF6369E1
:100ED8001B689B6820465A7A5968FFF7C7FF0028A5
:100EE800DFD011499B20BDE87040FFF73DBE294681
:100EF800E4E74B691B685A689D68566800212046DC
:100F0800FFF782FF2A7A29683046FFF795FE002806
:100F1800C7D0C2B229682046FFF796FF0028C0D084
:100F28000149B220DFE700BF992C000010B5044644
:100F380018B907498520FFF717FE01212046FFF75A
:100F480020FEBFF35F8FB0FA80F0400910BD00BFEC
:100F5800292C00000378044AD35C13B1043001F053
:100F68009FBA0C3000F0D0BF8801002003681A78BF
:100F780012B11B6903B11847704700002DE970438F
:100F880004464FF4FA784FF400404FF00009E0FBB4
:100F98000189164600234FF47A724046494601F00B
:100FA80099FC0428054604D8012333700020BDE8C5
:100FB8007083074A00212046FFF7F6FC0028F6D187
:100FC800324629462068BDE87043FFF7FFBC00BFE2
:100FD8001D0E0000F0B50E4689B01546044608B14E
:100FE80001B11AB94149BF20FFF7BEFD63691B680B
:100FF800002B78D12B783BB16B680BB1AB681BB970
:101008003A49C920FFF7B0FD31462022684601F071
:10101800C8FC2B780494991E4A424A41002B8DF84B
:101028001D206946324A204608BF002200F02EFAE9
:101038000646002832D163691D606B6843B1586861
:10104800FFF720FE63691B685B681868FFF71AFEE4
:10105800656915F1080F03D126497220FFF784FD51
:101068000023AB60BFF35F8F67693A1D1D4603D14C
:1010780020497220FFF778FD7D60BFF35F8F6369B9
:1010880003221A73009A013204BF01221A73019ACB
:10109800013206D11A7B22F001021A73304609B0D8
:1010A800F0BD1B681B78022B09D163691B689B681C
:1010B80020465A7A5968FFF7D9FE0646EEE72378A4
:1010C8000D4AD35C53B10D4940F25A20FFF74CFD4D
:1010D80063691B681B78002BE7D1DFE704F10C007C
:1010E80000F0B4FFF4E78526D8E700BF992C00008C
:1010F800990E0000292C000088010020602C0000B7
:101108002DE9F04F0F4685B016469B46044620B998
:1011180052494FF4A670FFF727FD60690368002B5A
:1011280000F09180027B910740F18F80002E5DD006
:1011380007F06042B2F1005F03D01B78022B00F089
:1011480086800430FFF7F2FE002800F0828000233A
:101158008DF80C300E9B5A1C0ED003AA1946A069B4
:10116800FFF70CFF054638B160690430FFF756FEFB
:10117800284605B0BDE8F08FDFF8E0903546636992
:101188001A681378A3BBFF2DA84628BF4FF0FF08A5
:101198005FFA88F239462046FFF756FE18B14946ED
:1011A8006920FFF7E1FCB5EB0805474406D0606904
:1011B800FFF7DCFE9DF80C30002BE0D0BBF1000FF0
:1011C80002D0761BCBF800609DF80C3033B90E9B2B
:1011D800013303D0A3691868FFF73AFC606904304B
:1011E800FFF71CFE15B19DF80C30A3BB0025BFE727
:1011F8005368D2F808A05B68019318462A46394616
:10120800FFF7D4FD80462046FFF7A4FE019B002887
:10121800C9D19AF80820DAF800101846FFF70CFD33
:10122800024628B9019049467820FFF79DFC019AAB
:10123800DAF80010D2B22046FFF706FE0028B2D036
:1012480049467A20ADE7802592E7082590E71025E2
:101258008EE711258CE70D258AE700BF992C000041
:1012680073B50E46044620B92B494FF4FD70FFF7BD
:101278007BFC60690368002B46D0027B920745D54A
:101288001B78002B3ED00430FFF750FE00283FD0DB
:1012980000238DF80430731C0DD001AA3146A069D3
:1012A800FFF76CFE054630B160690430FFF7B6FD04
:1012B800284602B070BD63691B685B685868FFF711
:1012C8000FFD054640B96069FFF750FE9DF80430F0
:1012D800002BF0D0002504E02046FFF73BFE002855
:1012E800F1D19DF804302BB9013603D0A3691868F1
:1012F800FFF7AEFB60690430FFF790FD15B99DF864
:1013080004303BB90025D3E78025D1E70825CFE78E
:101318001125CDE70D25CBE7992C000038B5084CF1
:1013280004F108030546002818BF1C4623682BB1A2
:101338001A6822605B6828469847F7E738BD00BFFF
:101348006801002020B9054B01225A70FFF7E6BF5B
:10135800012802D1014A9070F8E770476001002027
:1013680038B5094C23786BB908486360A3602361DA
:10137800E36000F0DFF8054600F0F2F8012323707F
:10138800284638BD8525FBE7600100204D13000085
:1013980038B51A4C237805461BB91949E920FFF7D7
:1013A800E3FBA37803F0FF00ABB115B16B68012034
:1013B80098470020FFF77CFBE36800200133E360D7
:1013C800FFF786FBE368C3B90D4940F20510BDE895
:1013D8003840FFF7C9BBFFF76BFB25B122691346FD
:1013E8003BB92A602561E368002BE5D100F0DCF801
:1013F800E2E79D42F7D01B68F2E738BD60010020A4
:10140800F12C000008B5054B002808BF184600F06D
:101418002FFA10B9024B01221A7008BD482D00009E
:10142800740100201FB503788DF8003043680193DC
:10143800037A8DF80830C3680393054A054B68465C
:1014480053F8213052F82110984705B05DF804FB95
:1014580078010020800100201FB503788DF8003046
:101468004368019383688DF80830C3680393054A7D
:10147800054B684653F8213052F82110984705B0BB
:101488005DF804FB78010020800100202DE9F0417F
:101498001D4B067843F826201C4B9046012E0A69FE
:1014A80043F8262088B007460C4605D14B7F1BB968
:1014B80017497620FFF758FBDFF860C0637F0CF808
:1014C80006300FCC6D460FC594E80F0085E80F0075
:1014D8003B7804961CF803305BB1B8F1000F0D4A55
:1014E800694608BF0022381D00F06EFE08B0BDE84E
:1014F800F081B8F1000F084A694608BF002207F1D9
:101508000C0000F09DFBF1E780010020780100202D
:10151800492D00002D1400006114000088010020EE
:1015280000F18040002382B0036003680193019BAF
:1015380002B0704710B5044618B90749A220FFF752
:1015480013FB064B187920B901221C601A715871D7
:1015580010BD8520FCE700BF9F2D00008C010020F6
:1015680008B50D4B1B791BB90C49BB20FFF7FCFADA
:101578000B4B1A68D20706D4C02283F80023012235
:10158800C3F880211A604FF080420123C2F8183551
:10159800044A137008BD00BF8C0100209F2D000075
:1015A80000E100E09401002008B5094B1B791BB944
:1015B8000849E520FFF7D8FA4FF48270FFF7B0FF2B
:1015C8004FF080430222C3F8042301229A6008BD29
:1015D8008C0100209F2D0000124B1B6810B573B1C1
:1015E8004FF48070FFF79CFF4FF080430122C3F84F
:1015F80008230D4B587910B95A711B6898470B4B43
:101608001B6873B14FF48270FFF78AFF4FF0804375
:101618000222C3F80823044B01201B68BDE81040D0
:10162800184710BD000100408C0100200401004053
:1016380000F1804000F5C040002382B003600368D9
:101648000193019B02B0704703682F2B10B5044625
:1016580004D907494FF4E870FFF786FA23681F2B6F
:1016680083BF03F01F03236002484FF0A04010BD62
:101678003E2B00000003005013B502AB0C4643F8A4
:10168800040D1846FFF7E0FF019B00EB8300D0F83C
:10169800003723F44033C0F80037D0F8003743EA66
:1016A8000443C0F8003702B010BD00004FF0A0435B
:1016B800D3F810350360024BD3F8103543607047F8
:1016C800000300502DE9F04F00248DB0CDE904440B
:1016D8005D4A5E4E5E4D01211368A2F5C040012BA4
:1016E80080B206D1D6F804330B4202D0FFF7A0FF30
:1016F8000C430432AA424FEA4101EDD1554B1B6815
:10170800012B08D14FF4BE70FFF792FF04A844F0F4
:101718000044FFF7CBFF14F0FF0F1AD04E4F0126FD
:101728000025344210D0AB0003F1804303F5C043D9
:10173800D3F81005D3F8101557F82530C0F3052055
:10174800C1F3014103B198470135082D4FEA460618
:10175800E7D1002C74DA06AF002306937B604FF0C4
:10176800FF33CDE90833DFF8F08000252E4608EB7B
:10177800060393F96040631C4CD0E4B2012324F0C3
:10178800C00A04F0070B03FA0BFB4FEADA010CABB3
:101798005A1812F8103C13EA0B0F3BD008EB0A0357
:1017A800A40993F9303058F82390B9F1000F06D105
:1017B800032C2FD1785C40EA0B00785401E0032C0D
:1017C800F8D003A80192CDF80CA0FFF73DFF0399CC
:1017D800019A01F5E07112F8202C50F8211012EA54
:1017E8000B0FC1F3014105D0022913D1032C0BD1F2
:1017F800214604E003290DD1032C05D102215046CE
:10180800FFF73AFF0135EDB2B9F1000F02D02146DA
:101818005046C8470136042EA9D18DB10AA8FFF752
:1018280045FF049B0A9A9A420B9B02D105998B4269
:1018380006D004920593069A079B0892099394E7A9
:101848000DB0BDE8F08F00BF0061004000600040AF
:10185800206100407C6100409801002000F1804335
:101868001A68002A1BBF0022012000201A60704756
:1018780010B5044618B912496C20FFF775F9114BD9
:101888001A78D2B922784FF08041C2F34002C1F8E9
:101898008025227802F00102C1F878250A4A1168E9
:1018A800C90706D4C02182F800130121C2F88011AB
:1018B800116001221A70002010BD8520FCE700BFCE
:1018C800F42D00001002002000E100E04FF08043FA
:1018D80070B5D3F8044366070ED54FF48470FFF74C
:1018E800BDFF48B1334D2A6822B933494FF483709C
:1018F800FFF73AF92B689847A5060FD54FF48A7079
:10190800FFF7ACFF50B12D4D2A6822B92A494FF490
:101918008770FFF729F92B680020984760060FD5D4
:101928004FF48C70FFF79AFF50B1244D2A6822B902
:10193800214940F21510FFF717F92B680120984745
:1019480021060FD54FF48E70FFF788FF50B11C4D5C
:101958002A6822B918494FF48F70FFF705F92B68E8
:1019680000209847E2050FD54FF49070FFF776FFF7
:1019780050B1134D2A6822B90F4940F22510FFF7DC
:10198800F3F82B6801209847A30511D54FF49270FE
:10199800FFF764FF60B10A4C226822B906494FF488
:1019A8009670FFF7E1F823680220BDE870401847F9
:1019B80070BD00BF04020020F42D000008020020C2
:1019C8000C02002008B5FFF781FFBDE80840FFF7CB
:1019D80003BE000010B5054C22681AB9044951200D
:1019E800FFF7C2F82368BDE810401847140200202A
:1019F800492E000038B50D4628B90C497720FFF765
:101A0800B3F8002038BD0A4B9842FAD10020FFF7FE
:101A18004FF8084B1C7914B901221D601A71002077
:101A2800FFF756F8002CECD01120EBE7492E000008
:101A380000200040140200200023435082B0435885
:101A48000193019B02B070470A4610B54FF48E719E
:101A5800FFF7F2FF136A9168C95C136A01331362D6
:101A6800C0F81C1510BD000003682F2B10B50446E4
:101A780004D907494FF4E870FFF776F823681F2B5D
:101A880083BF03F01F03236002484FF0A04010BD3E
:101A98003E2B000000030050024608B54FF4927137
:101AA8000068FFF7C9FF4FF484711068FFF7C4FF9F
:101AB800136801221A6008BD8B690A4610B54FF4F5
:101AC800847123B9FFF7B8FFD0F8183510BDFFF7B8
:101AD800B3FF536AD168D0F81805C854536A013364
:101AE8005362F3E71FB501238DF80030044BCDE9AD
:101AF8000110D3E900126846904705B05DF804FB71
:101B08001C02002030B54C4AD2F8043313F4007F8D
:101B180085B015464FD0D2F82431002B4BD04FF466
:101B280092711046FFF788FF4FF40173C2F808332B
:101B3800424B93F8291009B9012151603E4902220C
:101B48008DF80020D1F88024C1F8802403929A6986
:101B58000292DA6801920022C3E906226846D3E9B4
:101B6800001290473448D0F81C315BB133490A6AF7
:101B78004B699A420A464BD291F82830002B47D13C
:101B8800FFF762FF2C4AD2F8443193B14FF4A271A7
:101B98001046FFF751FF294B93F8291009B101218D
:101BA80011609A692AB100229A61586AD968FFF7C8
:101BB80099FF05B030BDD5F804335B07D2D5D5F809
:101BC8000831002BCED01D4C1B482146FFF774FF6F
:101BD800636AA2699A422346C4D1E269E1684AB1BC
:101BE8002369E3600023606AA261E3616362FFF72F
:101BF80079FFB7E794F829200AB901226A600E4AEA
:101C08004FF40170C2F8080300229A61586AEEE79F
:101C18004FF48E710848FFF70FFF51690029B1D0C2
:101C28000023029191688DF8003001915361684654
:101C3800D2E900139847A5E7002000401C020020C5
:101C48002DE9F047064686B091460C4619B96F490A
:101C5800AA20FEF789FF35796D4F2C2303FB057306
:101C680093F82A30002B40F0CB806A493068FFF7A0
:101C7800C1FE8046002840F0C68023685A1C15D053
:101C880006A840F8143DFFF7EFFE019A01239340A0
:101C9800C0F8083506A8236840F8183DFFF7E4FEA9
:101CA800009B03F5E073032240F823206368581C67
:101CB8000AD006A840F8103DFFF7D6FE029B03F5B0
:101CC800E0730C2240F823203368A269217DC3F811
:101CD8002425627D0A43C3F86C25D4E90002012952
:101CE800C3F81425C3F80C052DD1A368591C0AD0D4
:101CF80006A840F80C3DFFF7B7FE039B03F5E07319
:101D0800002240F82320E3685A1C15D006A840F8A2
:101D1800043DFFF7A9FE059A01239340C0F8083552
:101D280006A8E36840F8083DFFF79EFE049B03F50C
:101D3800E073032240F82320D4E902213368C3F872
:101D48000815C3F810252C236B43FA18C2F8049021
:101D58002269FA50B9F1000F3ED04FF48E71306805
:101D6800247FFFF769FE4FF4A2713068FFF764FE25
:101D78003368294AC3F804234FEA1339072C4FFA6A
:101D880089FA03D925496B20FEF7EEFEBAF1000F58
:101D9800ACBF0AF16043224B4FEA4414B8BF09F0C4
:101DA8000F09E4B2AABF03F5614303F8094083F8B9
:101DB800004333681B0B03F01F0143F3C40323F0F4
:101DC800604323F0030303F1604303F561430122F9
:101DD8008A40C3F880211A6033680422C3F80025BA
:101DE8002C2303FB05750023C5E9063385F8293044
:101DF8006B61012385F82A30404606B0BDE8F087BC
:101E08004FF00808F8E74FF01108F5E7A02E00009A
:101E18001C0200200D1B000080000200F42E0000B0
:101E280014ED00E02DE9F84F354E07792C2303FB1C
:101E38000763804693F82A30012B8A46934604D0DC
:101E4800304940F21510FEF78FFEBAF1000F04D1A9
:101E58002C494FF48B70FEF787FEBBF1000F04D1BD
:101E6800284940F21710FEF77FFE98F804302C241A
:101E780004FB03635D69002D3ED107FB04694FF441
:101E88008E71C9F82050D8F80000C9F814B0C9F804
:101E980008A089F82850FFF7CFFDD8F800000123E3
:101EA80083604946FFF7D0FDD9F804304C462BBB78
:101EB800D8F80050226A63699A4212D3D8F80030E1
:101EC800D3F81C21002AFBD00122DA6000202C2341
:101ED80003FB076600237361BDE8F88F94F8283088
:101EE80043B9D5F81C31002BF8D049462846FFF7EE
:101EF800ABFDDFE70F20EAE71120EDE72846EBE727
:101F08001C020020A02E00000379044A2C2101FBAA
:101F180003235869003018BF012070471C020020B5
:101F28002DE9F843474E05792C2303FB0563074643
:101F380093F82A30012B8846144604D0424940F2CF
:101F48006910FEF711FEB8F1000F04D13E494FF4B5
:101F5800B570FEF709FE24B93B4940F26B10FEF755
:101F680003FE2C2303FB0563596821B13B684FF43A
:101F78000172C3F808232C2303FB05639A6952B145
:101F8800DA69002A3FD021B13B684FF40172C3F8E7
:101F98000423112035E09C61C3F80C805A62DA6191
:101FA8002C2303FB056393F829301BB912B9384673
:101FB800FFF772FD4FF02C0909FB05683868D8F85F
:101FC8000430002B35D14FF4A271FFF735FDC1461F
:101FD8003868D0F82431D0F80821D0F84441BAB98B
:101FE8000CB9002BF4D02C2202FB05650022AA6153
:101FF80023BB2CBB95F829103B680122B9B11A60A4
:102008000020BDE8F883C3F81080DC610122C7E72F
:10201800002BE8D1002CE6D14946FFF74DFDD8F852
:102028002430D8F818209A42D2D82346DBE75A60E1
:10203800E6E74FF40173C0F80433E1E70320E0E773
:102048000F20DEE71C020020A02E000070B50279E8
:10205800084C2C2505FB0242064692F829303BB96C
:10206800FFF71AFD337905FB0343012283F8292082
:1020780070BD00BF1C0200200023435082B04358AB
:102088000193019B02B0704703682F2B10B50446DB
:1020980004D907494FF4E870FEF766FD23681F2B43
:1020A80083BF03F01F03236002484FF0A04010BD18
:1020B8003E2B0000000300501FB501238DF80030AF
:1020C800054B8DF8080001916846D3E90012904746
:1020D80005B05DF804FB00BF480200207FB5384A10
:1020E800D2F82461002E49D010464FF49271FFF7C0
:1020F800C3FF02238DF80030D2F88034C2F8803450
:102108000393D2F83C358DF808302E4BDA680192EB
:102118000022C3E906226846D3E900129047284AFC
:10212800D2F8443173B14FF4A2711046FFF7A4FFFF
:10213800244B996931B100219961D2F83C05D968DD
:10214800FFF7BAFF1E4AD2F82031ABB14FF49071B5
:102158001046FFF791FF1B4B596969B1D2F84C152E
:102168008DF80810002299688DF8002001915A61B5
:102178006846D3E90012904704B070BDD2F8103118
:10218800002BCCD04FF488711046FFF775FF0D4B2C
:10219800D2F83C0599698842C1D1DC69D96864B133
:1021A800D2F8005225F02005C2F800521A699C6145
:1021B800DA60DE61FFF780FFB1E79C61FAE700BFF4
:1021C80000200040480200202DE9F047054686B06F
:1021D80091460C4619B97349BC20FEF7C5FC2E7907
:1021E800714F242303FB067393F82030002B40F033
:1021F800D3806E492868FFF7FDFB8046002840F031
:10220800CE8023685A1C15D006A840F8143DFFF765
:102218003BFF019A01239340C0F8083506A82368BC
:1022280040F8183DFFF730FF009B03F5E0730322E9
:1022380040F823206368581C0AD006A840F8103DCF
:10224800FFF722FF029B03F5E073002240F82320EA
:102258002B68A269217DC3F82425627D0A43C3F84F
:102268006C25D4E900200129C3F80C25C3F814050E
:102278002DD1A368591C0AD006A840F80C3DFFF7D9
:1022880003FF039B03F5E073002240F82320E36873
:102298005A1C15D006A840F8043DFFF7F5FE059A2C
:1022A80001239340C0F8083506A8E36840F8083DC4
:1022B800FFF7EAFE049B03F5E073032240F82320AE
:1022C800D4E902212B68C3F80815C3F81025242384
:1022D8007343FA18C2F804902269FA50B9F1000F52
:1022E80048D04FF488712868247FFFF7C5FE4FF463
:1022F80090712868FFF7C0FE4FF492712868FFF7C5
:10230800BBFE4FF4A2712868FFF7B6FE2B68284A77
:10231800C3F804234FEA1339072C4FFA89FA03D973
:1023280024496B20FEF720FCBAF1000FACBF0AF17C
:102338006043214B4FEA4414B8BF09F00F09E4B2D7
:10234800AABF03F5614303F8094083F800432B68EB
:102358001B0B03F01F0143F3C40323F0604323F076
:10236800030303F1604303F5614301228A40C3F884
:1023780080211A602B680822C3F80025242303FB58
:1023880006760023C6E906337361012386F82030F8
:10239800404606B0BDE8F0874FF00808F8E74FF070
:1023A8001108F5E7232F000048020020E52000006F
:1023B80010030200F42E000014ED00E02DE9F843AC
:1023C800354D0779242303FB0753064693F820303D
:1023D800012B8846914604D0304940F20D10FEF793
:1023E800C3FBB8F1000F04D12C494FF48770FEF7F6
:1023F800BBFBB9F1000F04D1284940F20F10FEF7DA
:10240800B3FB337913B9B9F5803F04D323494FF4AB
:102418008870FEF7A9FB08F06043B3F1005F34D180
:102428003379242404FB03535A6982BB04FB075401
:102438004FF490713068C4F81490C4F80880FFF71E
:102448001BFE4FF4AC713068FFF716FE3368616904
:10245800A068C3F84405C3F848150121996061686C
:10246800B9B9D3F82011D3F8582149B9002AF8D0BE
:102478000F20242303FB075500236B61BDE8F88375
:10248800002A14BF0F200020F3E71020F6E71120E0
:10249800F4E71046F2E700BF48020020232F0000AF
:1024A8000379044A242101FB03235869003018BF2B
:1024B80001207047480200202DE9F041474E047979
:1024C800242303FB0463054693F82030012B884638
:1024D800174604D0424940F25710FEF745FBB8F1C1
:1024E800000F04D13E494FF4AC70FEF73DFB27B90D
:1024F8003B4940F25910FEF737FB2B7913B9B7F572
:10250800803F04D336494FF4AD70FEF72DFB08F039
:102518006043B3F1005F5FD1242303FB0463596870
:1025280021B12B684FF40472C3F80823242303FB5A
:1025380004639A6952B1DA69002A3BD021B12B6849
:102548004FF40472C3F80423112031E09F61C3F8EB
:102558000C80DA614FF488712868FFF78DFD4FF41D
:10256800A2712868FFF788FD2B68C3F83485C3F883
:10257800387522BB01221A602A79242101FB0261E5
:10258800496819BBD3F81041D3F84411D3F8240192
:1025980014B909B90028F5D0242303FB02660023E7
:1025A800984214BF032018469942B36118BF0F2000
:1025B800BDE8F081C3F81080DF610122CAE7D3F8D3
:1025C800002242F02002C3F80022D5E74FF404723B
:1025D800C3F804230020EBE71020E9E748020020B5
:1025E800232F000020BF40BF20BF70474FF01023AB
:1025F800D3F80433052B21D0114B0122C3F804254D
:10260800D3F80024002AFBD04FF010220521C2F88D
:1026180004130022C3F80425094AD2F80034002B19
:10262800FBD0BFF34F8F0749074BCA6802F4E0623B
:102638001343CB60BFF34F8F00BFFDE7704700BF68
:1026480000E0014000ED00E00400FA0537B5FFF7AF
:10265800CDFFFEF785FE18B1234A7821FDF754FF18
:102668000020FEF7CFFE18B11F4A7A21FDF74CFF74
:102678000020FEF78DFEFEF767F918B11A4A7E2191
:10268800FDF742FF0320FDF7E5FE184A18491948EF
:10269800FEF7A0FC18B1144A8421FDF735FF16484F
:1026A80000F0DBF94FF0FF33009302460023124994
:1026B8001048FEF725FD18B10B4A8D21FDF724FFC0
:1026C8000D4D0C4C284600F0C8F94FF0FF3300932D
:1026D8000246294600232046FEF712FD0021204627
:1026E800FEF7BEFDEEE700BF982F0000F82F0000B0
:1026F800782F00001430000000000020054B1B68F4
:10270800082B01BF044B1868B0FA80F0400918BFC5
:1027180000207047300100103401001008B54FF058
:1027280080430022C3F80C21C3F81021C3F83825D0
:102738004FF0805203F54043D2F80414C3F8201533
:10274800D2F80814C3F82415D2F80C14C3F82815C5
:10275800D2F81014C3F82C15D2F81414C3F8301595
:10276800D2F81814C3F83415D2F81C14C3F840155D
:10277800D2F82014C3F84415D2F82414C3F8481525
:10278800D2F82814C3F84C15D2F82C14C3F85015F5
:10279800D2F83014C3F85415D2F83414C3F86015BD
:1027A800D2F83814C3F86415D2F83C14C3F8681585
:1027B800D2F84014C3F86C15D2F84424C3F8702535
:1027C800FFF79CFF10B1384B384A1A60FFF796FFA5
:1027D80018B1374BFB22C3F81825FFF78FFF48B114
:1027E8003449354B0A681B6822F00F0203F00F03C7
:1027F80013430B60FFF782FF18B1304B4FF40072A0
:102808001A604FF08043D3F80024D20744BF6FF01A
:102818000102C3F800242A4AD2F8883043F470032E
:10282800C2F88830BFF34F8FBFF36F8F4FF010237C
:10283800D3F80022002A03DBD3F80432002B2FDA66
:10284800204B0122C3F80425D3F80024002AFBD02A
:102858004FF010221221C2F80012D3F80024002AE7
:10286800FBD04FF010231222C3F80422154B1A464E
:10287800D3F800140029FBD00021C3F80415D2F8BE
:102888000034002BFBD0BFF34F8F0D490E4BCA68A5
:1028980002F4E0621343CB60BFF34F8F00BFFDE744
:1028A8000A4B0B4A1A6008BD8C5600404881030049
:1028B80000F00040E40E004058020010409602402C
:1028C80000ED00E000E001400400FA0514000020DB
:1028D8000090D00353EA020C61D02DE9F04BB3FA13
:1028E80083F51E0007BFB2FA82F502FA05F403FA6F
:1028F80005F41646C5F120051EBF22FA05F73C432C
:10290800203556EA044C4FEA144418BF0134A34654
:102918004FF00009C846904271EB030C39D30942C5
:1029280007BFB0FA80F700FA07F6B1FA81F701FAA3
:1029380007F6C7F120071EBF20FA07FC46EA0C0677
:102948002037B6FBFBFC7F1B103F07F01F04C4F1C8
:1029580020060CFA04F42CFA06F644BF3446002686
:10296800202FA4BF2646002454EA060C08BF0124E1
:1029780018EB040849EB0609A4FB027CC01B06FB04
:1029880002CC04FB03CC71EB0C01904271EB030CFD
:10299800C5D20B46024649464046BDE8F08BB2FB1D
:1029A800F3F2844640EA010313F0030F18D184467A
:1029B800202A0BD32DE9F007B1E8F807A0E8F807BB
:1029C800A2F12002202AF7D2BDE8F007042A07D393
:1029D80051F8043B40F8043BA2F10402042AF7D260
:1029E800002A05D011F8013B00F8013B013AF9D162
:1029F800604670478446002A2DD010F0030F04D09B
:102A080000F8011B013A26D0F7E7C9B241EA0121D3
:102A180041EA0141202A12D3A2F120022DE9F00354
:102A28000B460C460D460E460F4688468946A0E8DA
:102A3800FA03203AFBD2BDE8F00320320BD0042A77
:102A480005D340F8041B043A05D0042AF9D200F84B
:102A5800011B013AFBD16046704700F1010110F0FB
:102A6800030F11D010F8012B002A23D010F0030F08
:102A78000AD010F8012B002A1CD010F0030F03D045
:102A880010F8012B002A15D02DE970004FF0013203
:102A98004FF0803350F8044BA4EB020525EA0405F7
:102AA8001D4000D1F6E7A0F1040070BC10F8012B1E
:0A2AB800002AFBD1A0EB01007047DB
:102AC400C00200209C020020200000000100000041
:102AD40001000000900200206E020020200000008F
:082AE4000100000001000000E8
:102AEC002F686F6D652F6368656E6762616E672F07
:102AFC004769746875622F6E5246355F53444B5F5D
:102B0C0031352E322E305F393431326239362F6303
:102B1C006F6D706F6E656E74732F626F617264731C
:102B2C002F626F617264732E63000B0C18190D0EFB
:102B3C000F102E2E2F2E2E2F2E2E2F2E2E2F2E2EE2
:102B4C002F2E2E2F6D6F64756C65732F6E726678D9
:102B5C002F68616C2F6E72665F6770696F2E6800EC
:102B6C00000000000338FDD870472F686F6D652F8B
:102B7C006368656E6762616E672F4769746875621A
:102B8C002F6E5246355F53444B5F31352E322E300B
:102B9C005F393431326239362F636F6D706F6E6509
:102BAC006E74732F6C69627261726965732F7574C0
:102BBC00696C2F6170705F7574696C5F706C617497
:102BCC00666F726D2E63002F686F6D652F6368657D
:102BDC006E6762616E672F4769746875622F6E52FB
:102BEC0046355F53444B5F31352E322E305F3934CE
:102BFC0031326239362F636F6D706F6E656E747320
:102C0C002F6C69627261726965732F717565756578
:102C1C002F6E72665F71756575652E63002E2E2F93
:102C2C002E2E2F2E2E2F2E2E2F2E2E2F2E2E2F637E
:102C3C006F6D706F6E656E74732F6C6962726172FA
:102C4C006965732F6D757465782F6E72665F6D7420
:102C5C00782E68002E2E2F2E2E2F2E2E2F2E2E2F2E
:102C6C002E2E2F2E2E2F696E746567726174696F0C
:102C7C006E2F6E7266782F6C65676163792F6E723A
:102C8C00665F6472765F756172742E68002F686F70
:102C9C006D652F6368656E6762616E672F47697437
:102CAC006875622F6E5246355F53444B5F31352E3B
:102CBC00322E305F393431326239362F636F6D709A
:102CCC006F6E656E74732F6C696272617269657375
:102CDC002F73657269616C2F6E72665F73657269B2
:102CEC00616C2E63002F686F6D652F6368656E676E
:102CFC0062616E672F4769746875622F6E52463534
:102D0C005F53444B5F31352E322E305F39343132C4
:102D1C006239362F696E746567726174696F6E2FD4
:102D2C006E7266782F6C65676163792F6E72665F61
:102D3C006472765F636C6F636B2E6300002F686F39
:102D4C006D652F6368656E6762616E672F47697486
:102D5C006875622F6E5246355F53444B5F31352E8A
:102D6C00322E305F393431326239362F696E7465E8
:102D7C0067726174696F6E2F6E7266782F6C6567FF
:102D8C006163792F6E72665F6472765F75617274BF
:102D9C002E63002F686F6D652F6368656E676261C7
:102DAC006E672F4769746875622F6E5246355F5394
:102DBC00444B5F31352E322E305F3934313262392B
:102DCC00362F6D6F64756C65732F6E7266782F6419
:102DDC007269766572732F7372632F6E7266785F89
:102DEC00636C6F636B2E63002F686F6D652F636868
:102DFC00656E6762616E672F4769746875622F6EC6
:102E0C005246355F53444B5F31352E322E305F398D
:102E1C003431326239362F6D6F64756C65732F6E79
:102E2C007266782F647269766572732F7372632F72
:102E3C006E7266785F706F7765722E63002F686FA5
:102E4C006D652F6368656E6762616E672F47697485
:102E5C006875622F6E5246355F53444B5F31352E89
:102E6C00322E305F393431326239362F6D6F6475E2
:102E7C006C65732F6E7266782F64726976657273E7
:102E8C002F7372632F7072732F6E7266785F70720D
:102E9C00732E63002F686F6D652F6368656E6762B4
:102EAC00616E672F4769746875622F6E5246355F85
:102EBC0053444B5F31352E322E305F393431326210
:102ECC0039362F6D6F64756C65732F6E7266782F43
:102EDC00647269766572732F7372632F6E72667883
:102EEC005F756172742E63002E2E2F2E2E2F2E2EB8
:102EFC002F2E2E2F2E2E2F2E2E2F696E746567726D
:102F0C006174696F6E2F6E7266782F6E7266785F61
:102F1C00676C75652E68002F686F6D652F6368652B
:102F2C006E6762616E672F4769746875622F6E52A7
:102F3C0046355F53444B5F31352E322E305F39347A
:102F4C0031326239362F6D6F64756C65732F6E720A
:102F5C0066782F647269766572732F7372632F6E45
:102F6C007266785F75617274652E630022000000D2
:102F7C002A0000000700000005000000000000000F
:102F8C000000000000502700060000002F686F6D45
:102F9C00652F6368656E6762616E672F4769746839
:102FAC0075622F6E5246355F53444B5F31352E326E
:102FBC002E305F393431326239362F6578616D705D
:102FCC006C65732F7065726970686572616C2F73B4
:102FDC00657269616C2F6D61696E2E630000000073
:102FEC006D0200206C0200200101000001000000B5
:102FFC000C300000EC2F000000000000ED2500005C
:10300C00D82A0000C42A0000000000000020004064
:10301C00000000000020004000000000CC02002056
:10302C003830000034300000DC020020FC020020AC
:10303C0048656C6C6F206E72665F73657269616C4B
:08304C00210A0D000090D003E1
:04000003000003797D
:00000001FF
