:020000022000DC
:106000000000042079630200616302006363020000
:10601000656302006763020069630200000000001C
:106020000000000000000000000000006B630200A0
:106030006D630200000000006F63020071630200E4
:106040008585020073630200458A020073630200C3
:106050007363020073630200A1880200736302008D
:1060600073630200736302007363020073630200D0
:1060700073630200736302007363020073630200C0
:1060800073630200417102007363020073630200D4
:10609000DD7102007363020015B602007363020033
:1060A0007363020073630200736302007363020090
:1060B0007363020073630200000000000000000030
:1060C0007363020073630200736302007363020070
:1060D0007363020073630200736302007363020060
:1060E0007363020073630200736302000000000028
:1060F00000000000736302000000000073630200F0
:10610000000000000000000000000000000000008F
:10611000000000000000000000000000000000007F
:10612000000000000000000000000000000000006F
:10613000000000000000000000000000000000005F
:10614000000000000000000000000000000000004F
:10615000000000000000000000000000000000003F
:10616000000000000000000000000000000000002F
:10617000000000000000000000000000000000001F
:10618000000000000000000000000000000000000F
:1061900000000000000000000000000000000000FF
:1061A00000000000000000000000000000000000EF
:1061B00000000000000000000000000000000000DF
:1061C00000000000000000000000000000000000CF
:1061D00000000000000000000000000000000000BF
:1061E00000000000000000000000000000000000AF
:1061F000000000000000000000000000000000009F
:10620000364937480A1A02D0072291438D4635494C
:1062100035480A1A06D00722914381F309880222E1
:1062200082F3148831483249324A00F045F8324846
:106230003249334A00F040F832483349334A00F0DB
:106240003BF833483349344A00F036F83348344990
:10625000344A00F031F834483449354A00F02CF81B
:1062600034483549354A00F027F835483549002289
:1062700000F02DF834483549002200F028F8344861
:106280003449091A082903DB002202600430016046
:10629000314A90471F482049884205D0026804309F
:1062A00003B4904703BCF7E700208646EC46002085
:1062B00000212A4A9047FEE7884207D0521A05D0AB
:1062C000037801300B700131013AF9D170478842EF
:1062D00002D002700130FAE770470000000004208D
:1062E00000E00320000004200000042004D302008A
:1062F000982A0020F82A0020D8630200D863020000
:10630000DCC3020004D30200982A0020982A00204F
:10631000D0C40200D0C40200D0C40200D0C4020025
:10632000D0C40200D0C40200D0C40200D0C4020015
:1063300004D3020064D30200F82A0020F82A0020C7
:10634000F82A0020C43C0020C43C0020C43C0020AB
:10635000C43C0020C45C0020A1630200ED9C02004C
:10636000FEE7FEE7FEE7FEE7FEE7FEE7FEE7FEE705
:10637000FEE7FEE7704700BF1048804710484FF027
:106380000701884385460F4880470F48016841F45C
:1063900070010160BFF34F8FBFF36F8FFFF730BF06
:1063A0000A480B490B4A884207D0521A05D0037895
:1063B00001300B700131013AF9D170477563020069
:1063C00000000420E17F020088ED00E0D0C402005C
:0863D000982A0020982A002001
:1063D8007047000007B5044B0093044A402300F0BF
:1063E80032F803B05DF804FBF9630200F92A0020D3
:1063F8002DE9F84389461446B2B10F4B0F4E0325D9
:10640800002743F00108224609EB0701002003F0AA
:10641800FFFD0744241A48B933782BB14FF47A406A
:10642800C047013D02D13570BDE8F88301233370C0
:10643800002CE8D1F8E700BFD0C40200F82A0020F9
:10644800704703F019BEF0B595B01C4616460846CD
:106458000D4601F0FAFC1A9B0D93CDE9086400245F
:106468002346082205A928460A948DF82C400C9446
:1064780001F009FD079B0293BDF81830ADF80C3008
:10648800BDF81A30ADF80E309DF814308DF8114073
:1064980003F00302012A1DD1BDF81440059EC3F381
:1064A800C203C4F383148DF81030A20008230EA988
:1064B800284601F0E8FCC6F3952608AB009322466F
:1064C80002AB0EA9304600F05DFB284601F0C1FC86
:1064D80015B0F0BD022AF8D1BDF81640C3F3C203C7
:1064E800A4098DF810300827082C264628BF08264E
:1064F8003B4632460EA9284601F0C5FCA41B08AB52
:1065080002AA31460EA8374400F0A0FB002CEBD1BC
:10651800DBE7000008B5FFF794FF0421034800F00B
:106528009FFA034B01225A7108BD00BFC0C4020084
:10653800982A0020037813F0040216D003F003030E
:10654800012B03D0022B09D0012070470A6800886C
:106558000232C0F3831002440A60F5E70B684288F0
:10656800023303EB92130B60EEE71046704700000E
:106578002DE9F04F89B00546861C08A8484C0192C1
:1065880000230F4600F8113D01F022F923683B6013
:10659800D4E901231344226801339B1A04F21C47EF
:1065A80004F5836A04F21448B3421AD3019A00230B
:1065B800002A6DD0012262F3010343F0040365F35E
:1065C80089132168A2689DF80F000A4003320E441F
:1065D80044F82230266001F01FF9012009B0BDE817
:1065E800F08F0121384601F074F9504601F087F91F
:1065F800404601F084F90DF120096068D4F808B02C
:1066080049F8100D00EA0B00033004EB80004946FE
:10661800FFF790FF049BB0B90BEA030204EB820278
:10662800D16805919A1C013303EA0B0B04EB8B0C20
:1066380001F00303012B0492DCF80CB020D0022BEC
:1066480004D083460BE00BEA0300DDE7BDF8163003
:106658009B0903334FEA1B4B02EB93030493404619
:1066680001F050F908B1049B63605946384601F0BF
:1066780030F9D4E901231344226801339B1A93E7C4
:10668800BDF81430C3F383134FEA1B4B1344E5E7FB
:10669800022262F3010343F0040365F39F5390E77A
:1066A8000C2C00200B4B0C48FF2210B59A600022DE
:1066B800C3F81824C3E90022C3F8142483F820245B
:1066C80001F07CFB044610B9044801F025FC204683
:1066D80010BD00BF0C2C002044C40200F4C402000A
:1066E80030B50A4C71B10A4A0A49121BD208002374
:1066F8009A4201D1002030BD31F82350854202D0A2
:106708000133F5E7034654F83300F4E758C40200B0
:10671800C0C40200982A0020094B013903EBC000CD
:10672800032909D8DFE801F00A02040604207047AB
:106738000079704740797047002070470220704701
:1067480058C40200034BD3E90030C31A58425841D9
:10675800704700BF0C2C00202DE9F04387B0FFF7ED
:10676800F1FF0646002840F0FC807F4DC5F818046C
:10677800BFF34F8F6868AC6806AF47F8100D20402C
:10678800033005EB80003946FFF7D4FE029B18B1B1
:10679800D5F81824002A5FD004EA0302991C0133B3
:1067A80005EB8202234005EB8303D268DB68049380
:1067B80002F00303022B0392029162D1BDF80E305E
:1067C8006A484FEA9318B8F1500FC14628BF4FF0F6
:1067D800500969F38F1309F10801ADF80E3001F083
:1067E80005FB0746002800F0A78001F02EFB03A94F
:1067F80000230822384601F03BFB029924EA0106EF
:106808000136B600B14535D95FFA89F97EB3F6B2DB
:10681800A9EB0609214003315FFA89F4B146544EC9
:1068280005EB810108234A46384601F021FB36B1C1
:1068380009F1080322463146384601F019FB029B4C
:1068480008F1030803EB98030293D5F81834002BDA
:106858004BD1D5F810445BE02A689A4204D86A60A4
:10686800304607B0BDE8F08304EA030088E74049F2
:106878003446D7E72140033108234A4605EB810116
:10688800DAE7012B58D1BDF80C303848C3F383112F
:10689800062928BF062161F3891302318900ADF862
:1068A8000C3001F0A3FA0746002845D001F0CDFAD4
:1068B8000023082203A9384601F0DAFA0026BDF8B9
:1068C8000C20C2F38312B31C96424FEA8303BCD256
:1068D80002994A1C21400331029205EB81010422EE
:1068E800384601F0C5FA0136E9E7384601F0B1FA51
:1068F800FFF728FF80F00100C6B2B1E7E3685B79D3
:1069080023B1236839461B6820469847E3681C680A
:10691800002CF3D1384601F09CFA06A800F8114D76
:1069280000F056FFD5F818340BB9029B6B609DF840
:10693800070000F071FFDBE7D5F8104454B90D4BA0
:106948000D480E49C01AC008000440F0020000F0CB
:106958006FF8CDE7236820469B689847E3681C6872
:10696800ECE700267CE700BF0C2C002044C40200A2
:10697800182C002058C4020080C4020000C5020080
:106988002DE9F74F284C80460F46924601A901226F
:1069980018469B46D4F80890FFF7EAFD88B3019D96
:1069A8000026A91C5E4506EB010234D100211F48D0
:1069B80000F064FF80F310006A1C02EA090204EB8D
:1069C8008202000405EA0903033340EA1840D06054
:1069D80014F8232068F3C50204F8232034F8232090
:1069E80066F3891224F8232054F82320012167F341
:1069F8009F2244F8232061F301026FF3820204F816
:106A0800232094F820341BB1FFF7A6FE0028FBD101
:106A180003B0BDE8F08F09EA020204EB82025AF8DB
:106A28002630D3600136BDE70C2C0020283000202A
:106A380000231A46FFF7A4BF13B502AC012344F89C
:106A4800042D2246FFF79CFF02B010BD07B5CDE923
:106A5800002302236A46FFF793FF03B05DF804FBA7
:106A680030B50F49D1F81024002314463CB9C46846
:106A7800237152B9C1F810042260184630BDE46889
:106A880025799D4206D02468F0E7D2681168216014
:106A98001060F2E701330A2BE7D14FF0FF33ECE740
:106AA8000C2C0020094A38B50123D2F8104482F88A
:106AB80020341D4604B938BDE3685D71236820465B
:106AC8005B689847E3681C68F4E700BF0C2C00205B
:106AD800037A052B10B50C460FD0437A23B1084A28
:106AE8000849204600F06FFF0749204600F06BFF79
:106AF8002046BDE8104000F05BBF002AF8D0F3E75D
:106B08004BC5020050C50200FACB0200C38873B51A
:106B180004460D4633B1144A00921449144A2846D3
:106B280000F051FF217A05291CD0637A4BB1A08867
:106B3800FFF7F2FD0F4B104953F82020284600F0CC
:106B480042FF227A0D4BA08853F822600021FFF7FC
:106B5800C7FD0B4903463246284602B0BDE87040DF
:106B680000F031BF02B070BD4BC502005BC502002A
:106B780053C5020018C5020050C5020080C50200B6
:106B880073C502002DE9F04385B01F460C9D002314
:106B980006460C46904695F80C902B7329463846C5
:106BA800FFF7B4FFB8F1060F09D8DFE808F00412C0
:106BB800181F283340003146284600F004FF002201
:106BC80029463846FFF784FF85F80C9005B0BDE8E4
:106BD800F08322683146284600F0F5FEEFE7D4E955
:106BE80000233146284600F0EEFEE8E7A36800934C
:106BF8003146D4E90023284600F0E5FEDFE7E368E4
:106C08000193A36800933146D4E90023284600F095
:106C1800DAFED4E723690293E3680193A36800933B
:106C28003146D4E90023284600F0CDFEC7E7636962
:106C3800039323690293E3680193A36800933146A1
:106C4800D4E90023284600F0BEFEB8E708292DE95C
:106C5800F84F80460E4617461C4636D8002593F84E
:106C68000C901D7319461046FFF750FFDFF87CA003
:106C7800DFF87CB0AE422AD918F8052059462046DC
:106C880000F0A1FE0135082DF4D11649DFF864B0F3
:106C9800204600F098FE0025AE421DD918F805A040
:106CA800504604F019FF002814BF52462E225946B8
:106CB800204600F088FE0135082DEDD1012221463D
:106CC8003846FFF705FF84F80C90BDE8F88F514669
:106CD800204600F078FED5E70349204600F073FE11
:106CE800E9E700BF46C5020044C5020042C50200EC
:106CF8003CC5020048C502002DE9F04F3B4F89B062
:106D080000263B4B1B78F5B2AB4202D809B0BDE870
:106D1800F08F384B196811F835000124A0F12002D2
:106D2800C0F1200304FA02F924FA03F349EA03093B
:106D3800D7E9002304FA00F8CDE9042302EA08029F
:106D480003EA0903134301EBC50B4CD0DDE9042327
:106D580022EA080223EA0903C7E90023079101F0A0
:106D68008BFD0799844611F83500A0F12002C0F187
:106D7800200324FA03F304FA02F21A4304FA00F394
:106D880000931D4B0192DDE90045D3E9002314402F
:106D98001D4022462B465FFA8CF40025CDE90445B8
:106DA800049CA0F12005AC400394049CC0F1200190
:106DB80024FA01F1039C0C43049903948140029145
:106DC800DDE90245AB4208BFA2420CD19BF8011095
:106DD8004B1E59425941A1EB0C02DBF804305142D9
:106DE800514103B1984701368BE700BFF8300020C6
:106DF800C830002000310020F03000202DE9F84F85
:106E08000646244800F0C2FB002841D10123A6F120
:106E18002001C6F1200203FA01FB23FA02F203FA69
:106E280006FA1D4BD3E900014BEA020B00EA0A08F7
:106E380001EA0B0958EA09021F4623D1304601F03E
:106E48001BFD164BB8B1D3E9000140EA0A0441EA38
:106E58000B05C3E90045D7E900234BEA0305104BAE
:106E68000C4819684AEA0204C7E900450022BDE84F
:106E7800F84F00F047BBD3E9000120EA0A0421EAF1
:106E88000B05E6E720EA0A0421EA0B05C3E90045F9
:106E9800BDE8F88FD0300020F8300020F030002016
:106EA800CC300020042A2DE9F34105460C4616464D
:106EB8003AD901F007FCD8B11C4B1D491D601D4B88
:106EC800DFF884801C701C4B00221E600023C1E97F
:106ED80000231A49C1E90023013CE4B20026032734
:106EE800FF2C0CD1164A1748002100F0F9FA03E0EC
:106EF80001F0B0FB0028DFD002B0BDE8F08123B27A
:106F080005EBC30201A992788DF8052015F8330026
:106F18008DF8066042468DF8047001F0DDFB013CF7
:106F2800E4B20028DCD0E7E70720E5E700310020DD
:106F3800F0300020C8300020CC300020F83000208D
:106F4800016D0200E0C50200056E020070B5084D33
:106F5800084E00242B789C4201D3002070BD336872
:106F6800012113F8340001F03DFC0134F2E700BFC1
:106F7800C8300020003100201FB50021039001AA6D
:106F880044F20100CDE9011100F004F805B05DF804
:106F980004FB000010B572B6FFF784FDFFF7DCFBB9
:106FA8000028FBD1104B114C1149E41AE4082404C1
:106FB80044F00100FFF73CFD0E4B1B68DB0700D5D2
:106FC80000BE0D4944F00200FFF732FDBFF34F8FBA
:106FD8000A490B4BCA6802F4E0621343CB60BFF363
:106FE8004F8F00BFFDE700BF58C4020080C40200F5
:106FF800E4C50200F0ED00E0F0C5020000ED00E09D
:107008000400FA0549B152B1531E1A4007D18260F3
:1070180001608380C260104670470E2070470920C7
:10702800704710B58468C2688388121B934208D3DE
:10703800C26813400268D154C3680133C36000209A
:1070480010BD0420FCE78268C3689A420AD08268AF
:10705800838813400268D35C0B70836801338360B4
:107068000020704705207047094A5378917801330A
:10707800DBB2994208BF0023117899421FBF037001
:107088005078182303FB002014BF043000207047F9
:107098000431002073B5054602A8002400F8014D0C
:1070A8000E4600F095FB0DF10600FFF7DDFF90B1ED
:1070B80006700A4B9DF8062045605A709DF8070037
:1070C80000F0AAFB24B9064B4FF48012C3F8002144
:1070D800204602B070BD0424F0E700BF0431002050
:1070E80000E100E0024B4FF43C6043F00103184715
:1070F80000C6020038B50C4B0C4C4FF40032C3F8F4
:10710800802001254FF48033C4F84833C4F808338D
:107118006560FFF7E7FF064BA56000241C60FFF7DA
:10712800E1FF044B1C7038BD00E100E00010014095
:107138002032002011320020F8B51F4B1F491B6870
:107148000025C1F84051C1F84451C1F84851C1F86F
:107158004C51C1F80051C1F804514BB3D1F8044562
:1071680017490968641A24F07F442F461A68A24216
:1071780009D8A41A15441A7CDE691AB11F74D3E918
:1071880005209047AEB90F4B0F4A197813788B42F8
:1071980005D10133DBB2022B08BF0023137012782C
:1071A8000A4B43F822500A4B4FF48012C3F80021CF
:1071B800F8BD3346DAE700BF243200200010014052
:1071C800203200201C3200201D3200201432002002
:1071D80000E100E02DE9F74F9E4A9F4913780978AE
:1071E8009E4D99423CD00133DBB2022B08BF0023ED
:1071F80013709B4912789B4B0F6853F822003B1879
:1072080023F07F4300220B602B68164614469446F1
:1072180013B942B12B6006E0196881420ED902B158
:107228002B60091A19604FF001082B68DFF83CA29F
:1072380000930027BEB9DFF83CB260E0401A0C4466
:10724800D968C3F800C0D3F81CE031B13A1922F06C
:107258007F42C3E90121DE611E4601227346D7E75A
:107268000026B046E1E73446F6697D4A636812684D
:10727800DFF804C2A068991A21F07F41614500F245
:10728800A58001442160012222742A680023C4E9F0
:107298000133E361002A40F0A2802C60CAE75A1C3F
:1072A8009BF80210D2B291428BF8002004BF002252
:1072B8008BF80020182202FB03B32A6819799C680E
:1072C800022974D003297ED0012918D1217CB1B9B3
:1072D800DA6862601A69A2605A699B69A361624BA5
:1072E800E2601B78002BC0D06160BEE79C4200F0D2
:1072F80093809946DB69002BF8D1002323749BF80F
:1073080000309BF801209A42C9D12B682FB9009A06
:10731800934202D1B8F1000F43D0002B79D0D3F8B3
:1073280000A0524D4E4BD5F804751C68DFF84C810F
:107338003E1B98F8003026F07F4603369BB94FF481
:107348008033C5F84433C5F80433494B4FF4003251
:107358004FF00109C3F880211A60C5F80090FFF7C3
:10736800C1FE88F80090B2452CBF5444A41924F0FB
:107378007F44C5F84045D5F80435DB1B23F07F432F
:10738800E41B033324F07F44A3420AD9D5F804351B
:10739800C5F84035FFF7A6FE354B4FF40032C3F869
:1073A8000021314B00221A7003B0BDE8F08F13465C
:1073B8009146A0E71174D2690123002AFAD1002B63
:1073C8009DD02A609BE700231946F6E7D31A23F0DD
:1073D8007F43834234BFC31A0023236053E72168E5
:1073E8001368994213D8591A1160E26155E7091ACE
:1073F800D8691A4638B1034618688842F7D3401A44
:107408001860184613462160E061DC6112E71346F4
:10741800F2E7FFF76FFEC4E74C450DD1D3692B6047
:1074280053B90F4801920121CAF8081003600E4BA6
:107438001970FFF757FE019AE1692368C9F81C1013
:1074480011B1086803440B602B689A4218BF0127E2
:1074580053E700BF1C3200201D32002024320020D8
:107468002032002014320020103200200010014089
:1074780000E100E004310020FEFF7F00113200200F
:1074880008B5FFF737FE104B00200B2218809A70C2
:107498000E4B18600E4B18700E4B18700E4B4FF4B5
:1074A8008012C021C3F8802183F814131A6002F1F6
:1074B8008042A2F56F22C2F8080583F81113074B22
:1074C800D2F804251A6008BD0431002024320020B7
:1074D8001C3200201D32002000E100E02032002094
:1074E800074B9B784BB132B128B10368187C20B99F
:1074F80059745A617047072070470820704700BFC9
:10750800043100202DE9F7431D4FBB7805460E4690
:1075180090469BB390B304292ED9436973B3437C37
:1075280002A80024012B00F8014D0CBF8946A14692
:1075380000F04EF90DF10600FFF796FDD0B10123DA
:107548000370104B4560D3F80435C0E90498C0E9CE
:1075580002369DF806307B709DF8070000F05CF954
:1075680024B9094B4FF48012C3F80021204603B018
:10757800BDE8F0830424EFE70724F7E70824F5E7DC
:10758800043100200010014000E100E0064A927832
:107598003AB130B1426922B1002202740221FFF7E8
:1075A80079BD0820704700BF043100200648074A0B
:1075B80003780749D35C012213B1043001F0B8BE47
:1075C8000C3001F07DBC00BFA02A002094320020BE
:1075D800503200200648074A03780749D35C012245
:1075E80013B1043001F054BE0C3001F013BC00BFDD
:1075F800A02A0020943200205132002037B50578A7
:10760800012D04D035D3022D28D003B030BD4368F6
:107618001F4C19782046FFF704FD78B11D4B0190E7
:107628008DF800501B6868469847A168E368A288EF
:107638005B1A9A420ED3FFF7B9FFE6E7A268E36840
:107648009A42F2D002AB134A03F8080D12681846A2
:107658009047EAE7104B01221A70D6E7C3680193F6
:107668008DF80050FFF7A2FF0A4B1B686846984741
:10767800CBE70A490A48FFF7E6FC10B9FFF7AAFF6B
:10768800C3E702A8032300F8083D024B1B68EEE796
:107698002C320020283200203C32002051320020B9
:1076A80040320020F0B51F46234B89B006461A60C9
:1076B8000C4600293DD08A8820480968FFF7A2FCBB
:1076C800002834D1A289A1681D48FFF79BFC002837
:1076D8002DD11C4D0FCD6C460FC495E80F0084E8E2
:1076E8000F0073690693337C174A18488DF81C708D
:1076F800003318BF01238DF81430737C002B14BF9E
:107708000E2300238DF81530F3680293B3680393B2
:107718003368019369467368009300F0B9FE30B985
:107728000B4B18703368013301D0FFF73FFF09B0E6
:10773800F0BD0720FBE700BF283200202C320020D4
:107748004032002008C6020005760200A02A002068
:107758003C32002070B5084C014608482678FFF7EF
:1077680072FC054636B100232370FFF71FFF08B1EE
:10777800FFF702FC284670BD3C3200202C32002066
:1077880010B501460E48FFF74CFC0446A8B90D4851
:107798000D4A0378D35C63B1043001F0BDFD60B9D4
:1077A8000A490748FFF74FFC38B9BDE81040FFF712
:1077B80011BF0C3001F078FBF1E7204610BD00BF87
:1077C80040320020A02A00209432002051320020AC
:1077D80070B5EFF3108672B60C4A946801239CB911
:1077E80093600B4B0B4DD3F8801029401160C3F800
:1077F8008050D3F8841051604FF0FF32C3F88420D2
:10780800047006B962B670BD0370FAE754320020FE
:1078180000E100E0FC06FFBD084B9A6810B55AB1BC
:1078280050B9EFF3108272B605491C680C605C68A9
:107838004C60986002B962B610BD00BF5432002097
:1078480000E100E001F01F024B090121914000EB2B
:10785800830000F01DB801F01F0301229A404B0974
:1078680000EB8300D14300F029B84B0901F01F0158
:1078780050F82300C84000F00100704750E8002F7E
:107888000B4640E8003C9CF0000FF7D110467047CB
:1078980050E8003F43EA010240E8002C9CF0000F4A
:1078A800F6D11046704750E8002F02EA010340E87D
:1078B800003C9CF0000FF6D11046704750E8003F9E
:1078C80003EA010240E8002C9CF0000FF6D11046B4
:1078D800704750E8003F03EB010240E8002C9CF0A1
:1078E800000FF6D11046704750E8003FA3EB0102A5
:1078F80040E8002C9CF0000FF6D11046704701219B
:10790800FFF7C6BF0021FFF7CEBF10B590B1D0E991
:10791800012301689B1ADBB20A60013BDBB2FF2B33
:10792800026802D10020107110BD11684C1C14604F
:107938000B70F2E70E20F7E737B5054602A80024DA
:1079480000F8014DFFF744FF2A686B6811689942F7
:107958000ED9481E106011F8014CEB68298A01FB0A
:107968000434AB6811791B1ADBB2994238BF137122
:107978009DF80700FFF750FF204603B030BD37B52C
:10798800054602A8002300F8013D0C46FFF720FF3A
:107998002A681368591C1160E968641A298AB4FBBB
:1079A800F1F41C709DF80700FFF736FF03B030BDF7
:1079B800826810B504462AB143690168006998478E
:1079C8000023A36010BD0EB403B5039929B102AA20
:1079D80004AB42F8043D00F06BF802B05DF804EB2C
:1079E80003B07047826830B40468551C8560A154A0
:1079F800D0E901329A4202D330BCFFF7D9BF30BC7C
:107A0800704700002DE9F84F9946DDE90A4317460B
:107A1800824688460A460126BA420FD24E4538BFEA
:107A28004E4613F0010B01D164B900240125B9F1C8
:107A3800010F1AD909F1FF397D43F8E7B2FBF7F2D4
:107A48000136E9E79B070ED5B9F1000F0CBF3025C9
:107A58002025A642EAD2013C29465046FFF7C2FF3C
:107A6800002CF6D1E1E72025F3E7B8FBF5F39F42B8
:107A7800E2D9DFF83890B8FBF5F3504619F803104F
:107A880005FB1388FFF7AEFFB5FBF7F5002DF2D124
:107A9800BBF1000F02D00CB1A64201D3BDE8F88FAC
:107AA80020215046013CFFF79DFFF4E728C602005D
:107AB8002DE9F74F054690460E46002900F03A8119
:107AC80016F8011B002958D0252940F0D18000273D
:107AD80002E047F001071646324612F8013B2D2B0B
:107AE800F7D0302B04D02B2B05D147F00407F2E751
:107AF80047F00207EFE700242A2B06F101021BD109
:107B0800D8F80030191D1B68C8F800101C44164628
:107B180033782E2B1CD101364FF0000A314611F86C
:107B2800012BA2F13000092814D80A2303FB0A23E9
:107B3800A3F1300A0E46F1E712F8013CA3F1300137
:107B48000929E5D80A2101FB0434303C1646D3E75D
:107B58004FF0000A324612F8011B01F0FB006828BA
:107B68001646F8D0692916D054D8582970D00ED89E
:107B780025297DD03378002BA2D12B7B002B00F058
:107B8800D980284603B0BDE8F04FFFF711BF63293D
:107B980068D06429EED1D8F80020D2F80090111DE1
:107BA80089EAE972C8F80010A2EBE9724FF0010BFC
:107BB800092A61DCD34538BFD3462CB1B9F1000F8F
:107BC80001DB790700D5013CBA0702D5BAF1000FED
:107BD80004D0FB0702D4002C54D10024B9F1000FC3
:107BE80058DAC9F100092D212846FFF7FBFE07F0F6
:107BF8000302022A05D1BAF1000F02D1002C4DD19F
:107C08000024CDE9004753460A2249462846FFF793
:107C1800F9FEAFE7732954D016D87029AAD1D8F83D
:107C280000301A1DC8F80020302128461C68FFF7CC
:107C3800D9FE78212846FFF7D5FE00220823CDE992
:107C4800003221461022E1E775292FD0782991D1F9
:107C5800D8F800100A1DC8F80020CDE9004753469F
:107C680010222CE0D8F800301A1D1978C8F8002026
:107C78002846FFF7B7FE7DE70A230BF1010B92FBBD
:107C8800F3F295E7A345A9D220212846013CFFF746
:107C9800A9FEA0E77807AAD52B21A5E7A345B0D26E
:107CA80030212846013CFFF79DFEA7E7D8F80010D1
:107CB800CDE900470A1DC8F8002053460A22096882
:107CC800A4E7D8F800301A1DC8F80020F907D3F83F
:107CD800009012D54F46A7EB090B17F8011B41B9C5
:107CE800A345BFF447AF20212846013CFFF77AFEA1
:107CF800F6E72846FFF776FEEDE7B9F1000F17D053
:107D0800484603F09DFF0746BC4200D954B909F123
:107D1800FF3919F8011F00293FF42CAF2846FFF757
:107D280061FEF6E720212846013CFFF75BFEEBE702
:107D38004F46E9E703B0BDE8F08F2DE9F047B0F80A
:107D480006904479D2F800A09DF8208009FB04F43D
:107D5800043C06460AEB0300A0420F4688BFA4EB8A
:107D6800030A191DC2F800A0B1FBF9F509FB1511AA
:107D78004DB9A9EB0104544528BF5446BAF1000F88
:107D880004D1BDE8F0873668013DF1E704317B197D
:107D980070182246B8F1000F0ED001461846AAEB1B
:107DA800040A03F0CFFED145254436684C464FF00F
:107DB800000128BF5446E1E71946F0E7FFF7A5BDE3
:107DC800F8B546790146721E0546002393422D6890
:107DD80003D30024A64202D8F8BD0133F6E70F68A2
:107DE8002846FFF7CCFD01343946F3E72DE9F8437F
:107DF800068ACD1C0746FFF79FFD043E354404461E
:107E0800B5FBF6F5F0B14FF48073EDB28380C68010
:107E1800013D076081464FF00008A84512D2384658
:107E2800FFF78AFD064648B163790133637108F1AB
:107E38000108C9F8000007608146EEE72046FFF711
:107E4800BFFF34462046BDE8F88301210430FFF720
:107E580040BD10B5012104460430FFF745FD10F080
:107E6800FF0F04D12046BDE81040FFF7A9BF10BDA1
:107E78001FB504AC44F8042D002200922246FFF7F7
:107E88005CFF04B010BD1FB504AC44F8042D0122FA
:107E980000922246FFF751FF04B010BD41DF704742
:107EA800064B10B500241C70054B1C60BFF35F8F98
:107EB8000449054800F039F8204610BD6832002012
:107EC8006C32002038C602006032002007B502A8D4
:107ED800002300F8013DFFF77BFCF1EE103A23F098
:107EE8009F03E1EE103ABFF35F8F0A4B4022C3F8BD
:107EF80084219DF80700FFF78FFC03F06DFB20B18C
:107F0800FFF7CCFF03B05DF804FB20BF40BF20BFE4
:107F1800F8E700BF00E100E0836800225A609A6039
:107F2800C3E90422DA601A6070470B684A68436044
:107F3800934208BF0023016008BF4360704743684D
:107F480043B10268916852680B449342436004BF8E
:107F580000234360704700000D4930B5A1F59472C5
:107F68000225914201D800200EE08B1ADB1093FB0A
:107F7800F5F302EBC30452F83330834205D802D23A
:107F880004F10802EDE7606830BD2146E9E700BF6B
:107F980088C7020008B5FFF7DFFF024B002808BFBB
:107FA800184608BD4DC6020010B50446C0B2FFF71A
:107FB800E7FB204610BD0000054B1B68082B01BFDE
:107FC800044B1868B0FA80F0400918BF00207047C9
:107FD800300100103401001008B54FF08043002232
:107FE800C3F80C21C3F81021C3F838254FF080528C
:107FF80003F54043D2F80414C3F82015D2F8081446
:10800800C3F82415D2F80C14C3F82815D2F81014A4
:10801800C3F82C15D2F81414C3F83015D2F8181474
:10802800C3F83415D2F81C14C3F84015D2F820143C
:10803800C3F84415D2F82414C3F84815D2F8281404
:10804800C3F84C15D2F82C14C3F85015D2F83014D4
:10805800C3F85415D2F83414C3F86015D2F838149C
:10806800C3F86415D2F83C14C3F86815D2F8401464
:10807800C3F86C15D2F84424C3F87025FFF79CFFA9
:1080880010B1384B384A1A60FFF796FF18B1374BD2
:10809800FB22C3F81825FFF78FFF48B13449354B49
:1080A8000A681B6822F00F0203F00F0313430B60EA
:1080B800FFF782FF18B1304B4FF400721A604FF08F
:1080C8008043D3F80024D20744BF6FF00102C3F8FD
:1080D80000242A4AD2F8883043F47003C2F8883062
:1080E800BFF34F8FBFF36F8F4FF01023D3F80022E9
:1080F800002A03DBD3F80432002B2FDA204B0122AD
:10810800C3F80425D3F80024002AFBD04FF010222E
:108118001221C2F80012D3F80024002AFBD04FF035
:1081280010231222C3F80422154B1A46D3F8001460
:108138000029FBD00021C3F80415D2F80034002B25
:10814800FBD0BFF34F8F0D490E4BCA6802F4E062B3
:108158001343CB60BFF34F8F00BFFDE70A4B0B4AB9
:108168001A6008BD8C5600404881030000F00040AA
:10817800E40E0040580200104096024000ED00E076
:1081880000E001400400FA05B42A00200090D00362
:10819800074B1B5C1F2B8ABF064A4FF0A04203F017
:1081A8001F03D2F80405D840C04300F0010070470F
:1081B80046CB020000030050074B1B5C1F2B86BFF9
:1081C80003F01F0305494FF0A041012202FA03F30F
:1081D800C1F80C35704700BF46CB020000030050C1
:1081E800074B1B5C1F2B86BF03F01F0305494FF08D
:1081F800A041012202FA03F3C1F80835704700BF15
:1082080046CB02000003005008B50020FFF7E8FF46
:108218000120FFF7E5FF0220FFF7E2FF0320BDE89A
:108228000840FFF7DDBF08B50020FFF7C5FF0120B4
:10823800FFF7C2FF0220FFF7BFFF0320BDE8084099
:10824800FFF7BABF0A4B185C1F288ABF094B4FF0CB
:10825800A04300F01F00D3F804250121814021EA42
:1082680002000A40C3F80805C3F80C25704700BF90
:1082780046CB020000030050074B1B5C1F2B8ABF34
:10828800064A4FF0A04203F01F03D2F81005D84069
:10829800C04300F00100704742CB020000030050C9
:1082A8000B2809D00C2809D0182809D019280CBF88
:1082B80003204FF0FF3070470020704701207047BF
:1082C80002207047014B185C704700BF42CB020088
:1082D800C20710B504460CD54FF0A0430322C3F8DB
:1082E8003427C3F83827C3F83C27C3F84027FFF7DB
:1082F8008BFFA3070AD54FF0A0430C22C3F82C2705
:10830800C3F83027C3F86027C3F8642710BD0000FE
:1083180038B5084C04F108030546002818BF1C4668
:1083280023682BB11A6822605B6828469847F7E7EC
:1083380038BD00BF7832002020B9054B01225A70A1
:10834800FFF7E6BF012802D1014A9070F8E77047AD
:108358007032002020B9034B01225A70FFF7D8BFB2
:10836800704700BF7032002038B50B4C237883B9B2
:108378000A486360A3602361E36000F0D1F8054612
:1083880003F02AF908B900F0D9F801232370284628
:1083980038BD8525FBE700BF70320020418302000D
:1083A80037B502A80023094C00F8013DFFF710FA81
:1083B800E368013BE360E56815B900F0D3F8A57000
:1083C8009DF80700FFF728FA03B030BD703200208F
:1083D800012813B509D003D303281BD002B010BD60
:1083E8000F4B0122C3F88020F8E702A800230D4CA8
:1083F80000F8013DFFF7ECF923780BB9FFF7B4FF5C
:10840800E3689DF807000133E3600123A370FFF7D9
:1084180003FAE3E700F092F8FFF7C2FFDEE700BFD8
:1084280000E100E0703200201FB503788DF80030BD
:1084380043680193037A8DF80830C3680393054AAB
:10844800054B684653F8213052F82110984705B07B
:108458005DF804FB843200208C3200201FB50378BD
:108468008DF800304368019383688DF80830C3683D
:108478000393054A054B684653F8213052F82110FA
:10848800984705B05DF804FB843200208C32002048
:10849800F0B5194B0678DFF870E043F82620174B43
:1084A80094460A6943F826204B7F0EF806300C469E
:1084B80007460FCC89B06D460FC594E80F0085E8D4
:1084C8000F001EF80630049653B1BCF1000F0C4A99
:1084D800694608BF0022381D00F0F8FD09B0F0BD5C
:1084E800BCF1000F074A694608BF002207F10C00DB
:1084F80000F0B6FBF2E700BF8C3200208432002087
:1085080031840200658402009432002000F180402A
:10851800002382B0036003680193019B02B0704797
:10852800054A13792BB9012110601171537118464E
:1085380070478520704700BF98320020084B1A68A2
:10854800D20706D4C02283F800230122C3F8802171
:108558001A604FF080430122C3F81825704700BF06
:1085680000E100E0044B01221A604FF08042D2F88B
:108578001834DB03FBD470470C000040124B1B6817
:1085880010B573B14FF48070FFF7C0FF4FF0804310
:108598000122C3F808230D4B587910B95A711B688A
:1085A80098470B4B1B6873B14FF48270FFF7AEFF0F
:1085B8004FF080430222C3F80823044B01201B68B4
:1085C800BDE81040184710BD000100409832002057
:1085D8000401004000F1804000F5C040002382B053
:1085E800036003680193019B02B0704703681F2B67
:1085F80083BF03F01F03036001484FF0A04070479A
:108608000003005007B502AB43F8040D1846FFF706
:10861800EDFF019B00EB8300D0F8003723F44033D3
:10862800C0F80037D0F8003743EA0141C0F8001716
:1086380003B05DF804FB0000054B4FF0FF3207283C
:1086480043F8202084BF1B1883F85820704700BFC8
:10865800A032002010B5174C94F86A3043BBFF21B4
:10866800E2180133302B82F83010F9D10021C8B25A
:10867800FFF7E2FF01310C29F9D1062200210E484B
:1086880003F089FA0D4BC02283F806234022C3F871
:1086980080214FF4BE701A60FFF79CFF084B4FF023
:1086A8000042C3F80423012384F86A30002010BD77
:1086B8000820FCE7A03200200433002000E100E09D
:1086C80000600040034B93F86A00003018BF012097
:1086D800704700BFA0320020F7B5404F3B18044652
:1086E80093F93030002B944675DA8B78C3F3400346
:1086F800002B15BF0025082508200C20854202D133
:10870800042003B0F0BD57F8252001324FEA850652
:1087180049D1381947F825C080F8305013B97B196A
:1087280083F858408B785A071BD4D8073DD502A840
:1087380040F8084DFFF75AFF009B00EB8300D0F884
:10874800003723F00203C0F800372548E20804F098
:10875800070C012303FA0CF310F802C043EA0C03D8
:108768008354887891F800C010F002002AD006F1EE
:10877800804303F5C0432402D3F8102522F44F3276
:1087880022F44072C3F810254FEA0C4CD3F8102598
:1087980004F47C540CF4403C44EA0C041443C3F83D
:1087A80010450020ADE70135A8E702A84A7840F84F
:1087B800044DFFF71BFF019B03F5E073920040F89F
:1087C8002320C2E7083D3D4495F8604044EA8C1CEC
:1087D80085F860C095E7082093E700BFA032002025
:1087E8000433002073B5224C2518064695F930202D
:1087F800072A1ADD224492F858309B09032B10D11E
:1088080002A840F8046DFFF7F1FE019AD0F8103580
:10881800D340DB0707D402213046FFF7F3FE02B04E
:1088280070BD012BF7D00321F6E7D3B2072BF6D89A
:10883800930003F1804303F5C043D3F8100540F0DB
:108848000100C3F8100502F14000800080B2FFF774
:10885800C1FE0029E3D095F9303054F82330002BBD
:10886800DDD0012303FA02F2024BC3F80423D6E752
:10887800A03200200060004007B502AB43F8040DA9
:108888001846FFF7B3FE019BD0F81005D84000F05A
:10889800010003B05DF804FB2DE9F04F002489B016
:1088A800CDE902445F4A604E604D01211368A2F58C
:1088B800C040012B80B206D1D6F804330B4202D057
:1088C800FFF788FE0C430432AA424FEA4101EDD17A
:1088D800574B1B68012B0ED14FF4BE70FFF77AFE81
:1088E8004FF0A04344F00044D3F810350293514BA5
:1088F800D3F81035039314F0FF0F1AD04E4F00250C
:108908000126344210D0AB0003F1804303F5C04385
:10891800D3F81005D3F8101557F82530C0F3052003
:10892800C1F3014103B198470135082D4FEA4606C6
:10893800E7D1002C72DA04AE0023049373604FF081
:10894800FF33CDE906333C4F4FF0010800252C4694
:108958007B1993F96020531C47D0D2B222F0C0098A
:1089680008A84FEAD90300EB030B02F007011BF834
:10897800080C08FA01F1084237D007EB0900920900
:1089880090F9300057F820A0BAF1000F05D1032A5A
:108998002BD1F05C0843F05401E0032AF9D001A878
:1089A800CDF80490FFF722FE019B03F5E07350F821
:1089B80023301BF8180C0842C3F3014305D0022BDF
:1089C80013D1032A0BD1114604E0032B0DD1032A3E
:1089D80005D102214846FFF715FE0134E4B2BAF189
:1089E800000F02D011464846D0470135042DAFD1BB
:1089F800A4B14FF0A0430299D3F8102503F54073B2
:108A08009142D3F8103502D10399994206D00292C7
:108A18000393049A059B0692079397E709B0BDE86C
:108A2800F08F00BF006100400060004020610040FE
:108A38007C61004000030050A0320020014B1B68FD
:108A4800184700BF0C3300200D4B984237B50D4630
:108A580010D102A8002300F8013DFEF7B9FE094B2A
:108A68001C7914B901221D601A719DF80700FEF7E0
:108A7800D3FE14B9002003B030BD1120FBE700BFBE
:108A8800002000400C3300200023435082B043589C
:108A98000193019B02B070470A4610B54FF48E71DE
:108AA800FFF7F2FF136A9168C95C136A0133136216
:108AB800C0F81C1510BD024608B54FF49271006845
:108AC800FFF7E2FF4FF484711068FFF7DDFF1368CA
:108AD80001221A6008BD8B690A4610B54FF48471EB
:108AE80023B9FFF7D1FFD0F8183510BDFFF7CCFF39
:108AF800536AD168D0F81805C854536A01335362D1
:108B0800F3E700001FB501238DF80030044BCDE9D1
:108B18000110D3E900126846904705B05DF804FBE0
:108B28001433002030B54C4AD2F8043313F4007FD4
:108B380085B015464FD0D2F82431002B4BD04FF4D6
:108B480092711046FFF7A0FF4FF40173C2F8083383
:108B5800424B93F8291009B9012151603E4902227C
:108B68008DF80020D1F88024C1F8802403929A69F6
:108B78000292DA6801920022C3E906226846D3E924
:108B8800001290473448D0F81C315BB133490A6A67
:108B98004B699A420A464BD291F82830002B47D1AC
:108BA800FFF77AFF2C4AD2F8443193B14FF4A271FF
:108BB8001046FFF769FF294B93F8291009B10121E5
:108BC80011609A692AB100229A61586AD968FFF738
:108BD80099FF05B030BDD5F804335B07D2D5D5F879
:108BE8000831002BCED01D4C1B482146FFF773FFE0
:108BF800636AA2699A422346C4D1E269E1684AB12C
:108C08002369E3600023606AA261E3616362FFF79E
:108C180079FFB7E794F829200AB901226A600E4A59
:108C28004FF40170C2F8080300229A61586AEEE70F
:108C38004FF48E710848FFF727FF51690029B1D01A
:108C48000023029191688DF80030019153616846C4
:108C5800D2E900139847A5E700200040143300200C
:108C68002DE9F843664B047991462C2202FB043225
:108C7800064692F82A200D469846002A40F0BC8005
:108C880060490068FFF7E0FE0746002840F0B6801C
:108C980029684A1C10D01F2987BF01F01F035A4AB0
:108CA8000B464FF0A0420120984003F5E073C2F84C
:108CB8000805032042F823006868431C0DD01F28CC
:108CC8008BBF00F01F0303464F4A4FF0A04203F545
:108CD800E0734FF00C0C42F823C03368AA6995F88A
:108CE80014C0C3F824256A7DBCF1010F4CEA0202C6
:108CF800C3F86C25C3F81405C3F80C152BD1A96863
:108D0800481C0DD01F298BBF01F01F020A463E48A0
:108D18004FF0A04002F5E0724FF0000C40F822C07E
:108D2800E868421C13D01F2887BF00F01F0C364A82
:108D380084464FF0A0424FF0010E0EFA0CFE0CF5DF
:108D4800E07CC2F808E54FF0030E42F82CE0C3F8C7
:108D58000805C3F810152C23634308EB0302C2F877
:108D680004902A6948F80320B9F1000F31D04FF474
:108D78008E7130682D7FFFF787FE30684FF4A2713F
:108D8800FFF782FE3268214BC2F80433120B53B24C
:108D9800002BA8BF03F160404FEA53134FEA451177
:108DA800BABF1B4802F00F0500F561404FEA830384
:108DB800C9B203F16043B4BF415580F8001303F50D
:108DC800614302F01F02012101FA02F2C3F8802177
:108DD8001A6033680422C3F800252C2303FB04839C
:108DE8000022C3E9062283F829205A61012283F868
:108DF8002A203846BDE8F8830827FAE71127F8E75C
:108E0800143300202D8B0200000300508000020064
:108E180014ED00E02DE9F843224F06794FF02C09B4
:108E280009FB067480466569002D37D16261A1602F
:108E380025624FF48E71006884F82850FFF724FEED
:108E4800D8F80000012383602146FFF725FE6368F8
:108E5800A1462BBBD8F80050226A63699A4212D304
:108E6800D8F80030D3F81C21002AFBD00122DA60A0
:108E780000202C2303FB067600237361BDE8F883EA
:108E880094F8283043B9D5F81C31002BF8D049465E
:108E98002846FFF701FEDFE70F20EAE71120EDE79C
:108EA8002846EBE7143300200379044A2C2101FB00
:108EB80003235869003018BF01207047143300207D
:108EC8002DE9F843384E05792C2303FB0563074643
:108ED8005C6824B103684FF40170C3F808032C23BD
:108EE80003FB0563986950B1D86900283ED024B1C6
:108EF8003B684FF40172C3F80423112034E09A61EF
:108F0800D9605862D8612C2303FB056393F8293094
:108F18001BB910B93846FFF7CEFD4FF02C0909FBF5
:108F280005683868D8F80430002B34D14FF4A271A2
:108F3800FFF7AAFDC1463868D0F82431D0F80821D7
:108F4800D0F84441B2B90CB9002BF4D02C2202FB62
:108F580005650022AA611BBB24BB95F829103B6854
:108F68000122B1B11A600020BDE8F8831961DA6105
:108F78000120C8E7002BE9D1002CE7D14946FFF7CB
:108F8800AAFDD8F82430D8F818209A42D3D8234616
:108F9800DCE75A60E7E74FF40173C0F80433E2E70F
:108FA8000320E1E70F20DFE71433002000234350BC
:108FB80082B043580193019B02B070471FB501234B
:108FC8008DF80030054B8DF8080001916846D3E90B
:108FD8000012904705B05DF804FB00BF4033002045
:108FE8007FB5384AD2F82461002E49D010464FF494
:108FF8009271FFF7DBFF02238DF80030D2F880343E
:10900800C2F880340393D2F83C358DF808302E4BE3
:10901800DA6801920022C3E906226846D3E9001201
:109028009047284AD2F8443173B14FF4A2711046E0
:10903800FFF7BCFF244B996931B100219961D2F83F
:109048003C05D968FFF7BAFF1E4AD2F82031ABB108
:109058004FF490711046FFF7A9FF1B4B596969B18E
:10906800D2F84C158DF80810002299688DF8002068
:1090780001915A616846D3E90012904704B070BD67
:10908800D2F81031002BCCD04FF488711046FFF77E
:109098008DFF0D4BD2F83C0599698842C1D1DC6936
:1090A800D96864B1D2F8005225F02005C2F8005200
:1090B8001A699C61DA60DE61FFF780FFB1E79C61A5
:1090C800FAE700BF00200040403300202DE9F843B4
:1090D8006A4B06799146242202FB0632044692F82E
:1090E80020200D469846002A40F0C4806449006854
:1090F800FFF7AAFC0746002840F0BE802868421CFB
:1091080010D01F2887BF00F01F035E4A03464FF0A8
:10911800A0420121994003F5E073C2F80815032124
:1091280042F8231069684B1C0DD01F298BBF01F032
:109138001F030B46534A4FF0A04203F5E0734FF06C
:10914800000C42F823C02368AA6995F814C0C3F834
:1091580024256A7DBCF1010F4CEA0202C3F86C2594
:10916800C3F80C05C3F814152BD1A968481C0DD0F9
:109178001F298BBF01F01F020A4642484FF0A0404A
:1091880002F5E0724FF0000C40F822C0E868421C7B
:1091980013D01F2887BF00F01F0C3A4A84464FF0AF
:1091A800A0424FF0010E0EFA0CFE0CF5E07CC2F85E
:1091B80008E54FF0030E42F82CE0C3F80805C3F8A1
:1091C80010152423734308EB0302C2F804902A699C
:1091D80048F80320B9F1000F3BD04FF4887120689C
:1091E8002D7FFFF7E3FE4FF490712068FFF7DEFE56
:1091F8004FF492712068FFF7D9FE20684FF4A271EE
:10920800FFF7D4FE2268204BC2F80433120B53B286
:10921800002BA8BF03F160404FEA53134FEA4511F2
:10922800BABF1A4802F00F0500F561404FEA830300
:10923800C9B203F16043B4BF415580F8001303F588
:10924800614302F01F02012101FA02F2C3F88021F2
:109258001A6023680822C3F80025242303FB068329
:109268000022C3E906225A61012283F820203846E9
:10927800BDE8F8830827FAE71127F8E7403300200C
:10928800E98F0200000300501003020014ED00E013
:1092980001F06043B3F1005F2DE9F041074632D198
:1092A8001C4B0679242505FB063598466C6964BB7A
:1092B8006A61A96000684FF49071FFF777FE4FF478
:1092C800AC713868FFF772FE3B686A69A968C3F831
:1092D8004415C3F8482501229A606A68BAB9D3F8D8
:1092E8002011D3F8582149B9002AF8D00F20242397
:1092F80003FB068600237361BDE8F081002A14BFD2
:109308000F200020F3E71020F6E71120F4E72046AD
:10931800F2E700BF403300200379044A242101FB0F
:1093280003235869003018BF0120704740330020DC
:10933800F8B501F06043B3F1005F04460F465ED113
:109348000379304D242101FB0351486820B121687D
:109358004FF40476C1F80863242101FB03539E6986
:1093680056B1D969002939D020B123684FF4047265
:10937800C3F80423112030E09A61DF60DE614FF406
:1093880088712068FFF712FE4FF4A2712068FFF77A
:109398000DFE2368C3F83475C3F8382516BB0122BF
:1093A8001A602279242101FB0251496809BBD3F8CC
:1093B8001041D3F84411D3F8240114B909B900288D
:1093C800F5D0242303FB02550023984214BF032041
:1093D80018469942AB6118BF0F20F8BD1F61DA61CA
:1093E8000126CCE7D3F8002242F02002C3F800227D
:1093F800D7E74FF40472C3F804230020EDE71020E8
:10940800EBE700BF403300201F288ABF094B4FF00D
:10941800A04300F01F0003EB8000D0F8003723F4CE
:109428004033C0F80037D0F8003743EA0141C0F8AC
:1094380000177047000300500220FEF703BF00002A
:109448002DE9F04781460D46FEF72AFF032804461A
:1094580004D8012D04D024D3022D2FD0BDE8F087E5
:10946800194D47003A18A918AE5C4A7852B1DFF88E
:109478006880164842464FF40041FEF743F808B9A1
:1094880088F800903B192B449A78114B1A55002EF6
:10949800E4D0104B1B68002BE0D03046BDE8F04705
:1094A80018470A48FEF772F8074B04EB44021344C6
:1094B8009E78074B1B5DB342D0D1E8E7024B00EB27
:1094C80040041C446678E2E7C83300208833002053
:1094D800E1330020DC3300206433002002210078CF
:1094E800FFF7AEBF08B5094B1B7853B10020FEF754
:1094F80077FE0120FEF774FE0320BDE80840FEF762
:109508006FBEBDE80840FEF77FBE00BF6533002090
:10951800F8B57B4C237805461BB100232370FFF771
:10952800E1FF172D00F28880DFE805F00C171743DC
:1095380054657680888D888D959A9A9A9A9AC4C926
:10954800D1D9E4E4FFF7CEFF6E48FEF71FF86E4B63
:10955800002204461A702046F8BD0020FEF718FEC7
:10956800F8B10020FEF73CFE022D0CBF4FF4E1617C
:109578004FF47A61644B1D704FF400404FF4FA7455
:109588000025E0FB01454FF47A7200232046294666
:1095980002F0ACF9002201465A48BDE8F840FDF750
:1095A800B1BFFEF709FE022D0CBFC8214FF4C871E8
:1095B800E0E70020FEF7ECFD40B10020FEF710FECA
:1095C8004FF44871504B03221A70D5E7FEF7F4FDAB
:1095D800C821F7E70020FEF7DBFD38B10020FEF7D1
:1095E800FFFD4FF47A61484B0422EDE7FEF7E4FDF6
:1095F8004FF4C871F7E70020FEF7CAFD48B1002014
:10960800FEF7EEFD404B05221A7041F69A11002232
:10961800C2E7FEF7D1FDF5E70020FEF713FE3A4B4F
:1096280006221A70002240F6CD41B5E70020FEF769
:10963800C3FD354B07221A7000248CE701202070E7
:10964800FEF700FEEEE701202070FEF7FBFD00228A
:109658004FF48041A0E7FEF7E6FD2B4B0C22EAE72A
:109668002A482B4EFDF792FFD5F1110504461CD070
:10967800D8B9012D13D0C8235D434FF400474FF4E8
:10968800FA7000214FF47A720023C7FB050102F03B
:109698002DF9224601461D48FDF734FF04460220F5
:1096A800FEF78AFD0123337055E70220FEF798FD87
:1096B8000023F8E7FFF716FF134B1222BBE7FFF76B
:1096C80011FF0020FEF778FD0F4B1322B3E7FFF7D9
:1096D80009FF0120FEF770FD0B4B1422ABE7FFF7E3
:1096E80001FF0020FEF768FD0120FEF765FD064B2F
:1096F8001522A0E7FEF797FD034B1D709CE700BFFE
:10970800D8330020A8330020E0330020683300203D
:1097180065330020044B1B68DB0703D5034B18781F
:10972800FFF7F6BE704700BFD4330020E0330020B7
:10973800032801D8FEF7A0BD00207047044B1B6822
:1097480013F0010301D0FFF7E3BE1846704700BFCE
:10975800D433002038B51C4B18601C4B10F00204A1
:10976800054619601AD01A4B1A480E221A700F2291
:10977800DA7010229A7111225A72042140F266623C
:10978800FDF790FB044648B9FDF7E0FB044628B90D
:109798000146114A1148FDF7A3FE0446EB0711D50F
:1097A8000120FEF795FD6CB921460D4A0D48FDF7DD
:1097B80097FE044630B90C4A0C480121BDE83840F0
:1097C800FDF78EBE204638BDD4330020DC330020A0
:1097D800C833002068CB0200E59402008CCB02005D
:1097E8001D97020090CB02004194020088CB020032
:1097F800032812D8012A0BD1012908D100F10E0241
:10980800D2B200EB40000C4B1A54002070470022E3
:109818000129F6D009D3022901D007207047064B49
:1098280000EB400018444270EFE7034B00EB4000A8
:1098380018448270E9E700BFC8330020032808B540
:1098480006D8FEF73FFD0321FFF7DEFD002008BD27
:109858000620FCE708B5012202210020FFF7C8FF17
:1098680008B1072810D1072202210120FFF7C0FF05
:1098780008B1072808D100210A220846FFF7B8FFD7
:1098880010B1072808BF002008BD00000388102B6E
:1098980010B502D0112B1ED010BD1A4C2168B1B9D9
:1098A80001220846FFF7A4FF08B1072824D10722A0
:1098B80002210120FFF79CFF08B107281CD10422D0
:1098C80002210020FFF794FF08B1072814D123686C
:1098D80001332360E0E70B4A1368013B1360002B58
:1098E800DAD1FFF7B7FF0028D6D0074B1B68002B4B
:1098F800D2D0BDE810401847034B1B68002BE6D0B8
:109908009847E4E7EC330020E833002008B500204E
:10991800FFF794FF08B1062806D10120FFF78EFF54
:1099280010B1062808BF002008BD00000D4B10B577
:1099380018600C4629B10120FFF7FAFE40B1022356
:109948002370094B1B6853B9BDE81040FFF782BF6D
:10995800FFF7EEFE08B10B23F2E72070F1E70020D5
:1099680010BD00BFE8330020EC33002076DF7047DD
:109978007ADF70477CDF70477FDF70478FDF704783
:10998800B1DF704733DF7047FDF7F6BA08B500203E
:10999800FFF7D4FE08B1FDF7EFFAFFF7B7FF08B1FC
:1099A800FDF7EAFAFFF7EEFF18B1BDE80840FDF74A
:1099B800E3BA08BD0388212B13B504463BD01FD852
:1099C800112B28D0132B3ED0102B32D1264B2748F1
:1099D8002749C01AC008000440F00300FDF728F822
:1099E8000720FFF7ABFE08B1FDF7C6FA214BA188A7
:1099F8002148198001F0C4FBD8B1FDF7BDFA18E081
:109A0800522B28D0562B01D03B2B12D11321A088E2
:109A1800FFF7ACFFF0E7144B14481849C01AC00808
:109A2800000440F00300FDF703F8124B4FF6FF72F5
:109A38001A8002B010BD02A9002321F8043D8088D5
:109A4800FFF79CFFD8E70B4800231A4685210088BA
:109A5800FFF792FFD0E7074800231A461946008807
:109A6800FFF78EFFC8E700BF58C4020080C4020099
:109A7800ACCB0200BE2A002058370020B6CB02002B
:109A88000D4B4A881B889A4214D10A8840F67723DE
:109A98009A420FD18B88094A09480A49033B9BB26D
:109AA8001380094A801AC00800041A4640F00300CF
:109AB800FCF7CCBF704700BFBE2A0020BC2A00209C
:109AC80080C40200C3CB020058C4020008B5037862
:109AD8004BB9054B3B211888FFF748FF18B1BDE883
:109AE8000840FDF749BA08BDBE2A0020072808B576
:109AF80013D00A280DD0042819D10D4B132118882A
:109B0800FFF734FF30F0080311D0BDE80840FDF737
:109B180033BABDE80840FFF739BF054B1A884FF63E
:109B2800FF739A4203D1034800F0EEFEEAE708BD4E
:109B3800BE2A0020E834002008B548B103280BD11C
:109B48000220FFF7FBFD38B1BDE80840FDF714BA65
:109B5800BDE80840FFF71ABF08BD00000378012BD5
:109B6800F7B533D003D3022B30D003B0F0BD194C76
:109B7800194D20782844FDF7EDFD23780133DBB239
:109B88001D44237015F8012C0A2A05D00D2A03D08C
:109B9800124A12889A42E8D8012B14D9104D0E4E59
:109BA800104F237802AA314622F8023D38462B8806
:109BB80001F058FC082806D01328F2D0052802D056
:109BC80008B1FDF7D9F900232370CEE74068FDF707
:109BD800D3F9CAE7E4340020F0330020BC2A00207F
:109BE800BE2A0020C02A00202DE9F041057806464B
:109BF80045BB154C154BDFF85880E41AE4082404DB
:109C080044F00104B28A95420AD33369134413F825
:109C1800013C0D2B16D10A20FDF7B2FD1128F9E7FA
:109C28003369585DFDF7ACFD074648B11128F7D0F8
:109C3800024641462046FCF7FFFE3846FDF79CF9F0
:109C48000135DFE7BDE8F08180C4020058C4020096
:109C580026CC0200FDF790B908B50849084801F07C
:109C68006DF908B1FDF788F9F721054801F07BF98E
:109C780018B1BDE80840FDF77FB908BD899A020010
:109C8800403700204FF01023D3F80433052B21D0A0
:109C9800114B0122C3F80425D3F80024002AFBD075
:109CA8004FF010220521C2F804130022C3F804253E
:109CB800094AD2F80034002BFBD0BFF34F8F074975
:109CC800074BCA6802F4E0621343CB60BFF34F8FBF
:109CD80000BFFDE7704700BF00E0014000ED00E075
:109CE8000400FA0500B5744DB1B0FFF7CBFF0FCDF6
:109CF80005AC0FC495E80300704B714A01934FF40B
:109D0800807384E80300CDE9032302936D4A072397
:109D180001A905A8FDF7C6FC08B1FDF72DF94FF418
:109D280000410020FCF7BEFC08B1FDF725F9FCF75F
:109D3800F1FBFDF7A5FB08B1FDF71EF96249032009
:109D4800FFF708FD08B1FDF717F905A90020FFF78F
:109D5800EDFD08B1FDF710F9FEF7A2F808B1FDF71F
:109D68000BF901F0FDFB08B1FDF706F9002305A981
:109D78000120059301F080FC08B1FDF7FDF805A866
:109D880001F04AFD08B1FDF7F7F811234F488DF8A7
:109D9800043001F055FF4D4982B201A8FFF7EAFDF2
:109DA80008B1FDF7E9F80021082205A801F0F3FE43
:109DB80047494FF0C87305A8CDE90513FFF7D8FD4B
:109DC80008B1FDF7D9F8FFF747FF424B4248059322
:109DD80005A901F0C3F908B1FDF7CEF80422002166
:109DE8000DEB020001F0D7FE3C4B3D48019301A961
:109DF80001F0C4FA08B1FDF7BFF8AC22002105A8AC
:109E080001F0C9FE02238DF8143000238DF81630B6
:109E18000523344A8DF817300123ADF860301992C4
:109E28008DF89030402244F25063CDE9272305A9EC
:109E38002D4B2E482E9300F0A9FB08B1FDF79CF896
:109E480001212A4800F09FFB1C22002105A801F0EF
:109E5800A2FE00234FF42032CDE90532ADF82230BE
:109E68004FF470228DF82430214B07920A93032275
:109E7800204B8DF8202005A80B9300F065FE08B153
:109E8800FDF77AF81C4801F02DFE1C4B1C481D49B3
:109E9800C01AC008000440F00300FCF7C9FD032104
:109EA800124800F0EAFB08B1FDF766F8FCF754FC2D
:109EB800FEF70CF8FAE700BF94CB020064370020E5
:109EC80064380020659B0200F59A0200DFCB02008F
:109ED80010003C009199020058370020F19B0200C5
:109EE800C02A0020B82A0020419B0200E834002044
:109EF800D59A02005D9C0200EBCB020058C4020018
:109F080080C40200FDCB02000369C1688B429DBF7B
:109F18008268D21802F1FF3203F1FF3394BF501A5E
:109F2800581A70472DE9F041D0E902670446F61B3C
:109F38004068964288461546384405D901F002FE25
:109F48003D44E560BDE8F0813246AD1B01F0FAFD05
:109F58002A4608EB0601606801F0F4FDF1E72DE9F7
:109F6800F843C5680646894617464FF00008346925
:109F7800B3687068A54228BFE418013C621B5C1BEB
:109F8800BC4228BF3C46944228BF14464946284450
:109F9800224601F0D7FDB3682544AB4208BF00252F
:109FA8003F1BA044A144F560E1D14046BDE8F883D9
:109FB80010B5114C114AA2610223C4E90433104BB5
:109FC800E361A2644FF400730E4A2362E264002343
:109FD80010220D49A362E01D6362E362A365636515
:109FE800E365226501F00AFE0849204601F006FEF5
:109FF8002023A37110BD00BF6439002051CC02009A
:10A00800EC390020DC3900205ACC02005ECC02007A
:10A01800F8B5184C182300FB033503FB0040254412
:10A02800C46A012C0F46164611D003D3022C1BD04C
:10A0380000240AE02846FFF767FF864205D8324623
:10A0480039462846FFF76EFF34462046F8BD2846B5
:10A05800FFF75AFF8642344628BF0446224639464F
:10A068002846FFF75FFFF0E72846BDE8F840FFF70E
:10A0780076BF00BF64390020FFF79ABF6DDF7047D5
:10A0880079DF70477DDF704764DF70472DE9F74F50
:10A098000C9CBDF834B02788002580468A46914636
:10A0A8002E46B8F80020B2420BDC35B12288013ABE
:10A0B800D21B92B2FF2A39D8DA55002003B0BDE886
:10A0C800F08FD8F8042052F82600019000220DF1F4
:10A0D800030101A8FFF7D8FF0028EFD19DF803205E
:10A0E8004A4521D12288002D14BF0020022002EB0E
:10A0F80009010144594519DC3DB9013292B2228067
:10A1080003F802A022880132228022880DF103017F
:10A118001A4401A8FFF7B8FF0028CFD121889DF87D
:10A1280003200A44228001250136BAE70C20C5E73E
:10A138002DE9F341089CBDF824501746CDE90045A8
:10A1480002220646FFF7A2FF48B9102239463046D8
:10A15800CDE9084502B0BDE8F041FFF797BF02B06E
:10A16800BDE8F0812DE9F04F00231688138090F8A0
:10A178002D3085B007460D46144653B3082E01D836
:10A188000C2026E102A8FFF779FF002840F0218182
:10A1980013880822CA54238801339BB21B222380C8
:10A1A800CA542088013080B2208006220DF10901AE
:10A1B800284401F0C7FC23889DF8082006339BB289
:10A1C80012F0FE0218BF01222380EA5423880133CB
:10A1D8002380BB78FBB123880433B342D0D802A8CC
:10A1E800FFF74EFF002840F0F48023880322EA544A
:10A1F800238801339BB219222380EA542388BDF8AF
:10A20800082001339BB2E9182380EA54120A4A70E5
:10A21800238802332380FA789AB12388D91CB14263
:10A22800AED80221E954238801339BB2012123804F
:10A23800E95423880B449BB22380EA5423880B44B7
:10A2480023807A68AAB12388D91CB14298D8022100
:10A2580092F90020E954238801339BB20A21238014
:10A26800E954238801339BB22380EA5423880133BD
:10A2780023803B89002B40F0A0803B8A5BB1CDE96D
:10A2880000462B460722032107F11000FFF750FF75
:10A29800002840F09E803B8B5BB1CDE900462B4601
:10A2A8001522142107F11800FFF742FF002840F09B
:10A2B80090803A6A002A40F08F80D7F82480B8F15D
:10A2C800000F30D0B8F804302188981C8A1C02444A
:10A2D800B2423FF655AFFE283FF652AF03336B54F8
:10A2E800238801339BB2FF222380EA542388013359
:10A2F8009BB22380B8F80020EA54E918120A4A7081
:10A308002088023080B22080B8F804205AB1D8F8EA
:10A31800081000296AD0284401F014FC2388B8F8F2
:10A3280004201344238097F82C30002B40F09980A8
:10A33800387800284DD03B88012B57D021888A1CBB
:10A34800B2423FF61DAF012805D17B7802330B449A
:10A358009E42FFF415AF023E761A04A9B6B221F860
:10A36800086DA818FFF78EFE98BB3978BDF808204D
:10A37800022900F0BB807B78934202D3B24240F2BC
:10A38800B380012940F0B4809BB29E42C0F0B080F7
:10A39800ADF808300821BDF80830FE2B3FF6F0AEC6
:10A3A80022880133AB542288013292B22280A95408
:10A3B80022881344238000200BE0CDE900462B4679
:10A3C8000622022107F10800FFF7B2FE00283FF439
:10A3D80054AF05B0BDE8F08FB4F800C00CF1060327
:10A3E800B3423FF6CDAE1188052901D80720F0E722
:10A3F8006FF4486E01EB0E039BB24FF27D3E73453E
:10A40800F4D95388052BF1D96FF44860181880B235
:10A418007045EBD94FF6FF70814203D0834201D0DB
:10A428009942E3D8052305F80C30238801339BB201
:10A4380012212380E954238801339BB22380118899
:10A44800E954E818090A4170238802339BB2238033
:10A458005288EA54E918120A4A7023880233238082
:10A468002BE7BB6A002BC1D04FF000094FF00C0A54
:10A478004FF0160B97F82C305FFA89F293427FF66B
:10A4880057AFB96A0AFB02F201EB0208B8F80430C8
:10A49800981CFE283FF674AE208803332B5423887B
:10A4A80001339BB2238005F803B0238801339BB2A4
:10A4B80023808A5AEA54E918120A4A70208802301E
:10A4C80080B22080B8F804205AB1D8F808100029C2
:10A4D8008CD0284401F036FB2388B8F804201344B4
:10A4E800238009F10109C5E7092154E7B242FBD9E4
:10A4F800ADF808604EE770B5C0B14AB116880024BF
:10A50800B44203D305196D789D4208D0A14201D801
:10A5180000200BE0055D01352C44A4B2F0E7A14210
:10A52800F6D9A31C1380005D013880B270BD37B521
:10A5380002AC002324F8023D134622460546FFF7E5
:10A54800DAFF10B1BDF80600284403B030BD72DF51
:10A55800704773DF704774DF704738B501220446CF
:10A568000D46B0F83812D0F83402FFF7E0FF00B11A
:10A57800057004F13C0204F50D7104F15400BDE8C6
:10A588003840FFF7E4BF80F830107047F8B504464C
:10A598000F4600296DD000286BD091F87A301BB196
:10A5A80091F89830002B66D107F178060FCE4FF05E
:10A5B800000C251D84F802C00FC50FCE0FC596E804
:10A5C800070085E8070084F830C0D7F8A430636333
:10A5D800D7F8A830A3634FF6FF7504F50D73C4F8D8
:10A5E8004432A4F848520722614604F24A2001F096
:10A5F800D2FA23780BB984F8545094F8243004F133
:10A608005501C4F8341283B3EE23A4F8383204F5A4
:10A618000E723846FFF7A6FD30BB94F8243004F2DA
:10A62800431107F13C00C4F83C1203B3EE23A4F82D
:10A63800403204F51072FFF795FDA8B9A269A4F895
:10A64800482001236269206484F85000626401464E
:10A6580084F8513084F83C3004F13C0204F1540091
:10A66800FFF775FF00B92370F8BD1F23CDE71F233F
:10A67800DDE70E20F8E70720F6E7F8B50778044687
:10A688000D46002F00F0088100F24A26A17007222B
:10A698000021304601F07FFAE38813B1A378012B3B
:10A6A80004D0E3794BB1A378022B06D1636B9BB13D
:10A6B800012284F8512208209847324604F5147183
:10A6C80012F8013F5BB99142FAD16A1E032A52D8A7
:10A6D800DFE802F0070D111484F85132EDE73B462C
:10A6E800F3E7A2791AB194F8242002B95BB9E279A8
:10A6F8000AB1002B41D1237A002B40D1637A002B79
:10A708000CBF00250425636BA570002B39D0033DD1
:10A71800012D36D86279A2B394F852228ABB84F804
:10A728005422012284F853220720984704F13C055B
:10A7380018220021284601F02EFAE36A0122591E48
:10A74800914284F83C2020D9042B1ED084F8512053
:10A75800002794F824201AB1D7B1A36A84F852309C
:10A76800A178002384F85030042920D8DFE801F0CC
:10A778007C12273A5E000025C5E70225C3E70325BA
:10A78800C1E7002384F85332D0E784F85130E0E77A
:10A798000123E3E7C4F84432C4E910630223012229
:10A7A80084F83C30802384F83120A4F84830A3781A
:10A7B800002B5CD1636B002B6AD1002067E0022379
:10A7C80084F8313062B1072384F83C302369A4F857
:10A7D80048300023C4F84432E36826646364E6E73B
:10A7E8000323F1E763696364A369A4F8483012B1ED
:10A7F800062384F83C306379B3B194F852329BB99C
:10A8080094F8543283B1022384F85030042120464E
:10A81800FFF7A3FE0028CAD1052384F8313004F5D8
:10A828000D73C4F84432C2E70323F6E7E3696364AF
:10A83800236AA4F8483012B1062384F83C306379BF
:10A8480083B194F852326BB994F8543253B102235D
:10A8580084F8503004212046FFF77FFE0028A6D157
:10A868000623DAE70423D8E784F831309FE72A463D
:10A87800D4F8441204F15400FFF769FE38B994F88B
:10A88800301094F85400FFF764FE002892D0F8BD09
:10A8980094F83100984790E70820F8E70388112BCF
:10A8A80010B50C460AD0262B1FD0102B05D1C37B20
:10A8B800012B02D18388A1F8483210BD0022838879
:10A8C80081F85222B1F848229A42F6D10B79002B2E
:10A8D800F3D101212046FFF7D0FE0028EDD0A36B6D
:10A8E800002BEAD0BDE810401847037A013B012B42
:10A8F800E3D889780523013191FBF3F303EB830354
:10A90800C91AC9B2E6E7704738B5044690F854004A
:10A91800FFF721FE012384F85232002384F85432D1
:10A9280084F8503006212046FFF717FE054638B94F
:10A93800A1782046FFF7A1FE10B1A36B03B1984799
:10A94800284638BD75DF704776DF70477ADF704775
:10A958007BDF7047034B1A8882420CBF18460020E1
:10A96800704700BF083C0020024B9B6903B11847A1
:10A97800704700BFEC3B002037B585B22846FFF78B
:10A98800E9FF034670B1164C017A227B91420BD243
:10A9980000F10A012846FFF7D5FFE8B1112801D0D8
:10A9A800FFF7E2FF03B030BD237C0022027243B1FF
:10A9B8003B212846FFF7C8FF30F0080301D0FFF716
:10A9C800D3FF6369002BEDD000228DF80420ADF889
:10A9D800065001A89847E5E71A7A01321A72E1E7AA
:10A9E800EC3B002013B50B46497A0F4C024669B977
:10A9F800D4E901101C7A002C18BF01465868FCF7EE
:10AA080081FD08B1FFF7B0FF02B010BD0021197237
:10AA18006369002BF8D00121ADF806008DF8041009
:10AA280001A89847F0E700BFEC3B00208388B3F506
:10AA3800FA7F28BF6FF4F97230B528BF9C180588D3
:10AA48004A8838BF002495420CD84088904209D3E0
:10AA58008A88A24206D303F2F310904234BF002042
:10AA6800012030BD0020FCE70388112B70B501469A
:10AA780048D002D8102B1ED070BD122B52D0502BAC
:10AA8800FAD12F4BC288DB899A42F5D1038A022B6F
:10AA9800F2D186883046FFF75DFF05460028EBD0E7
:10AAA80001F1120000F05FF930BB6868FCF76EFD39
:10AAB8000028E1D009E0C37B012BDDD14FF6FF7000
:10AAC800FFF748FF054620B90420BDE87040FFF7AE
:10AAD8004BBF1C4A8E880680002303721368C5F892
:10AAE8000A300A30536843601031FFF79FFF144B58
:10AAF8006872DB89002BBFD129463046BDE870401B
:10AB0800FFF770BF8088FFF725FF04460028B3D001
:10AB18004068FCF73BFD08B1FFF726FF4FF6FF73CF
:10AB28002380A9E786883046FFF714FF05460028EA
:10AB3800A2D008310A30FFF779FF6872DCE700BF5E
:10AB4800EC3B00201C3C0020F8B5064650B30546F7
:10AB58000FCD154F3C460FC495E8070084E8070061
:10AB68003068124B3B60B8B1FFF7F0FEC8B93168E6
:10AB78000A681A604A685A600D480E4A4FF6FF7311
:10AB880003800D4B40F8043F0021FCF7A9FC002886
:10AB980014BF0320002004E01846FFF7D9FE002860
:10ABA800EAD0F8BD0E20FCE7EC3B00201C3C00205E
:10ABB800083C002081A90200243C002073B50191C3
:10ABC800019C06466CB100252C46294601A8FCF7D5
:10ABD8004CFE18B106EB440301349D800135142D59
:10ABE800F3D13046346002B070BD00002DE9F04367
:10ABF80003888488112B8DB0064640D01A2B43D089
:10AC0800102B16D1294DAB680CA8DB4340F8303D1A
:10AC180055F8041FFCF752FE009901A8FFF7CEFF74
:10AC28000027019B9F4207D3132C18D90420FCF757
:10AC3800A3F90DB0BDE8F08301AB03EB47034FF078
:10AC48000008B3F8049005EB0800494608F1040829
:10AC5800FCF701FEB8F1740FF5D10137E1E72146A1
:10AC68001348FCF7EFFD21461248FCF7EBFDF37B98
:10AC7800012BDED010482146FCF7E4FDD9E70C484B
:10AC88002146FCF7E8FDD4E7057A0C482D09012D8B
:10AC9800214606D9FCF7D6FD022D21460848F0D0FA
:10ACA800EAE7FCF7D8FD21460548EAE7443C0020DE
:10ACB8004C3C0020483C0020503C0020543C0020E4
:10ACC800583C00201328014602D80248FCF7CDBDA5
:10ACD80000207047483C002010B50446FFF7F2FFFB
:10ACE800002814BF2046142010BD70B5054616462E
:10ACF8000AB90E2070BD002313600028F9D003683C
:10AD0800002BF6D0C38813F003040FD10846FFF7D1
:10AD1800E3FFC0B214280BD02B7983420AD9EB8801
:10AD28002A6800FB032030602046E3E70720E1E7BC
:10AD38000520DFE70420DDE7AADF7047002301389C
:10AD48000B70042806D8DFE800F00306080A0C0098
:10AD580011230B7070472123FBE73123F9E71223F6
:10AD6800F7E72223F5E7007800F001007047F0B517
:10AD78008B7891B005460C46164603B90123032289
:10AD88008DF80E3000212388ADF80C30684600F0AD
:10AD980002FF6946607CFFF7D1FF0DF10101A07C3D
:10ADA800FFF7CCFF9DF80230E27B62F3C303227CFD
:10ADB80062F30413227B62F30003227D002A14BF8E
:10ADC8000222012262F3420300211C2209A88DF805
:10ADD800023000F0E0FE637B13F0300F15D002AFB5
:10ADE80003220021384600F0D6FE0DF10901E07C6F
:10ADF800FFF7A4FF11238DF808309DF80A300E974D
:10AE0800012262F342038DF80A30637B8DF8243007
:10AE18001422A37B8DF82530002104A800F0BBFE86
:10AE280003AB0493A388ADF81C30A368CDF814D005
:10AE38001BB1E288ADF818200893A369002B2ED027
:10AE480001AF03220021384600F0A5FEA3691A8845
:10AE5800ADF82C205A88187BADF82E2039465A6850
:10AE68000A920D97FFF76AFFA3690DF10501587B58
:10AE7800FFF764FFA2699DF80630917A61F3C30376
:10AE8800D17A61F30413117A927B002A61F30003EB
:10AE980014BF0222012262F342038DF80630E369EF
:10AEA80003B10C93334604AA09A92846FFF744FFC7
:10AEB80011B0F0BD90DF7047A5DF7047B5DF704770
:10AEC8007FB50023ADF80810ADF80A106A4602A94C
:10AED800064603930093ADF80430FFF7EBFF0546F1
:10AEE800F8B1114B114CE41AE408FDF753F82404A7
:10AEF80044F00104034632460D492046FBF7A6FDFF
:10AF0800BDF80020BDF8023002B91BB1094920463E
:10AF1800FBF79CFDBDF804201AB107492046FBF752
:10AF28008BFD284604B070BD58C4020098C40200C6
:10AF380065CC0200AFCC0200EECC020088B14FF025
:10AF4800F7130360FB230371F723C38017230381DF
:10AF580041F6FB32002301618372C3728281184675
:10AF680070470E20704730B1A1F11703E02B04D8C9
:10AF78000180002070470E207047072070470000AE
:10AF880013B5034680880C46A0B91A88232A00F016
:10AF9800AF8011D8102A25D0112A54D0A37A4BB1EA
:10AFA800E1880020FFF788FF002840F0A7800123F0
:10AFB800A072E37202B010BD3A2A4ED0552A68D06A
:10AFC800242AEBD11A7A0B694A73002BE6D04DF686
:10AFD8007A21ADF80400ADF80010ADF802008DF844
:10AFE800042081E0DB7B0A790A73012B13D0022B42
:10AFF80014D0E18823898B4205D20020FFF75CFF3B
:10B0080070B90123E372217B637B8B42C6D2002097
:10B01800FFF756FFC2E70B88E380EAE74B88FBE7B8
:10B02800112802D10123A372EDE7FCF7B3FF3C4AD4
:10B038003C4B3D499B1ADB081B04024643F00100C8
:10B04800FBF7FAFCDFE7F723CB8017230B8141F6E8
:10B05800FB338872C8728B81A0E75B89CA889342E8
:10B0680028BF1346172B0A6938BF17230B8162B113
:10B07800C97A51B140F67721ADF80010ADF8020059
:10B08800ADF804306946204690470023E372A37266
:10B0980084E7DB88C988A072172B38BF17238B4237
:10B0A80028BF0B462381FFF709FF60B1FCF772FF49
:10B0B8001B4A1C4B1D499B1ADB081B04024643F024
:10B0C8000100FBF7B9FCE27A002A7FF467AF236935
:10B0D800002B3FF463AF40F67721ADF802202289B8
:10B0E800ADF80010ADF8042069462046984755E7AA
:10B0F800197A237B994228BF194689E711283FF41A
:10B1080059AFFCF747FF064A064B07499B1ADB086D
:10B118001B04024643F00100FBF78EFC4AE700BF20
:10B1280058C4020098C4020044CD020075CD020044
:10B13800B0DF704766DF7047034610B500214088CE
:10B14800FFF7F8FF024608B91A7210BD112801D19D
:10B158000122F9E75B68BDE81040184760B159B1B2
:10B168000378DE2B0AD00B684360DE2303704FF6AA
:10B17800FF734380002070470E20704708207047F7
:10B1880028B10378DE2B04D14180002070470E20BF
:10B19800704708207047F0B5054685B00C46F1B1F8
:10B1A800E8B10B78DE2B1AD182884B889A4204D1F9
:10B1B8000B7A13B10846FFF7BFFF2B88112B32D04B
:10B1C800512B0ED0012B0AD12B7A012B07D1A9883C
:10B1D8006288914203D123722046FFF7ADFF05B084
:10B1E800F0BDAE886388B342F9D1AF79022FF6D1AA
:10B1F800AD7B2B1F022BF2D800211022684600F0ED
:10B20800CAFC052D14BF4FF4C073002369463046AD
:10B218008DF80070ADF80430FFF78AFF0028DED003
:10B2280063689847DBE76388AA889A4204BF4FF6A9
:10B23800FF736380D3E7A8DF7047ADDF7047AEDFE9
:10B24800704762DF704770B505468AB00C46002922
:10B2580063D0002861D00388502B38D0572B73D087
:10B26800102B5AD10AAA0026818842F8246D6069F9
:10B27800FFF73BFD082231460DEB020000F08BFC86
:10B28800022302AA218AA888CDF80CD00293FFF7DE
:10B29800D4FF002841D1A369002B3ED00398FFF7C3
:10B2A80062FD002839D0019B0BB101221A701822C7
:10B2B800002104A800F06FFC02238DF81030AB8841
:10B2C800ADF81830019B05940793A36923E08188A2
:10B2D800606902AAFFF709FD1822002104A800F0FE
:10B2E8005AFCAB88ADF818302189EB88029A05948E
:10B2F8009942079218D12E8A022E15D16AB105F10A
:10B308001200FFF730FD029B48B101221A708DF838
:10B318001060A3690BB104A898470AB070BD1870F3
:10B3280003238DF81030F4E7A2899A42F5D1A36976
:10B33800002BF2D000228DF8102005F1120208929D
:10B348002A8AADF82420E6E78188606902AAFFF717
:10B35800CCFC01460028E0D1029B1B78002BDCD0F6
:10B36800182204A800F017FC01238DF81030AB88D0
:10B37800ADF818300594029BA6E70000F0B5374BEE
:10B388008FB002AA05460E4603F1100C174618683E
:10B398005968144603C4083363452246F7D1002D83
:10B3A80059D0002E57D03368AB6129463846FFF78D
:10B3B80048FF00284DD12A460EA9012412F8023B65
:10B3C80021F8344D20468DF80630FFF734FF002869
:10B3D8003FD10146202206A800F0DDFB2A460223C1
:10B3E800ADF8183012F80C3B8DF81A309DF825305E
:10B3F8001B4E6888079643F00C0306A98DF8244075
:10B408008DF825308DF829408DF82A40FFF7AFFCDC
:10B41800F8B90146202206A800F0BDFB2A460323FE
:10B42800ADF8183012F8043B8DF81A309DF8253025
:10B438006888079643F0100306A98DF824408DF814
:10B4480025308DF829408DF82A408DF82B40FFF7DC
:10B458008EFC0FB0F0BD0E20FBE700BFB1CD02009F
:10B46800F4000100F0B50F4687B016461C460546A5
:10B4780018B301AA19464069FFF737FCD8B94FF647
:10B48800FF739C421BD0019BCBB11B78CBB1338897
:10B49800F42B18D80146102202A800F07CFBAB88D8
:10B4A800ADF8083002A901232046CDE904678DF8DC
:10B4B8000A30FFF7C4FE07B0F0BD0E20FBE70520F9
:10B4C800F9E70820F7E70720F5E710DF70470000E5
:10B4D80013B5044609496846FCF727FD019808B9E1
:10B4E80002B010BDD0E900312046984718B168462F
:10B4F800FCF725FDF2E71120F2E700BFD0CD0200EE
:10B5080013B5044607496846FCF70FFD019B0BB9C4
:10B5180002B010BD2046D3E9002190476846FCF7E9
:10B528000EFDF3E7E8CD02000B4991F816335A09EE
:10B53800EC231341DB0706D5084B9A683AB94FF458
:10B5480080030B60704742F20200FBF715BD1A68D2
:10B5580042F480021A60704700E100E05432002093
:10B56800F7B5184F3C785CBB174E0125204635705F
:10B57800FFF7AEFF112820D02046FFF7C1FF134B7D
:10B588001868019002A800F8054DFCF721F9104948
:10B5980001A8FFF79AFF0446B0FA80F04009387016
:10B5A8009DF80300FCF738F93CB90A4B34701C705D
:10B5B800FFF7BAFF2846FFF7A3FF204603B0F0BD08
:10B5C8000824FAE7BD3C0020BC3C0020C9CD02009D
:10B5D8009D6F0200BE3C0020014B1878704700BFE9
:10B5E800BD3C002007B508496846FCF79EFC019B56
:10B5F80013B903B05DF804FBD3E90020904768460F
:10B60800FCF79DFCF3E700BFDCCD0200FFF7EABFC3
:10B6180060DF704769DF704761DF704730B5114DF3
:10B62800ADF5017D4FF4FA740DF1020103A8ADF8F0
:10B638000240FFF7F1FF70B9294601A8FCF775FC35
:10B64800029B002BF0D003A8D3E90021904701A862
:10B65800FCF775FCF4E7052801D0FBF78DFC0DF528
:10B66800017D30BD6CD00200024B1B780BB1FFF797
:10B67800D5BF7047BF3C002030B5054685B00C46A5
:10B68800002900F0B5805B4B0B600C22002101A85B
:10B6980000F081FA01238DF8063022688DF80450F5
:10B6A800062301A92020ADF80830FFF7B3FF60B1E9
:10B6B800FCF770FC504A514B51499B1ADB081B049C
:10B6C800024643F00100FBF7B7F90C22002101A85C
:10B6D80000F061FA01238DF805302268002301A9E2
:10B6E80040208DF806308DF80730FFF793FF60B1E2
:10B6F800FCF750FC404A414B42499B1ADB081B04AB
:10B70800024643F00100FBF797F90C22002101A83B
:10B7180000F041FAF72322688DF8045001A923208C
:10B72800ADF80630FFF776FF60B1FCF733FC324A1C
:10B73800324B35499B1ADB081B04024643F00100D3
:10B74800FBF77AF90C22002101A800F024FA012065
:10B7580022688DF8040001A9FFF75CFF60B1FCF7CF
:10B7680019FC254A254B29499B1ADB081B0402466C
:10B7780043F00100FBF760F90C22002101A800F05A
:10B788000AFA4FF4B0632268019301A9A120FFF7D8
:10B7980041FF60B1FCF7FEFB174A184B1C499B1A86
:10B7A800DB081B04024643F00100FBF745F90C22B5
:10B7B800002101A800F0EFF99DF8043022686FF32A
:10B7C800000301A9A0208DF80430FFF723FF68B11A
:10B7D800FCF7E0FB084A094B0E499B1ADB081B04DF
:10B7E800024643F00100FBF727F9002005B030BD01
:10B7F8000E20FBE7982A002058C40200A8C40200C3
:10B80800FCCD020042CE02008ECE0200D5CE020050
:10B8180021CF020072CF0200F8B506460768FFF78D
:10B82800F7FE3368BB4205461DD9194B194C1A4916
:10B83800E41AE408240444F002042046FBF7F8F86C
:10B84800336816493A462046FBF700F94FF0805313
:10B858003268D3F80C3112499B0203F100539A1A4B
:10B868002046FBF7E9F825B90E4B01221A70284645
:10B87800F8BD2846FCF78EFB054A064B0A499B1A79
:10B88800DB081B04024643F00100FBF7D5F8EEE79E
:10B8980058C40200A8C40200C5CF0200F4CF0200B9
:10B8A80025D00200BF3C00204FD002004BDF70477C
:10B8B8001FB50D4C01A8FFF7F9FF70B9214602A882
:10B8C800FCF733FB039B002BF4D00198D3E900214C
:10B8D800904702A8FCF733FBF4E7052801D0FBF7F3
:10B8E8004BFB04B010BD00BF84D0020053EA020C29
:10B8F80061D02DE9F04BB3FA83F51E0007BFB2FA09
:10B9080082F502FA05F403FA05F41646C5F1200596
:10B918001EBF22FA05F73C43203556EA044C4FEA8D
:10B92800144418BF0134A3464FF00009C84690429A
:10B9380071EB030C39D3094207BFB0FA80F700FA5C
:10B9480007F6B1FA81F701FA07F6C7F120071EBF1B
:10B9580020FA07FC46EA0C062037B6FBFBFC7F1BE7
:10B96800103F07F01F04C4F120060CFA04F42CFA67
:10B9780006F644BF34460026202FA4BF26460024DE
:10B9880054EA060C08BF012418EB040849EB060921
:10B99800A4FB027CC01B06FB02CC04FB03CC71EBAE
:10B9A8000C01904271EB030CC5D20B460246494686
:10B9B8004046BDE8F08BB2FBF3F200007F2805D8C3
:10B9C800034B185C034B5B5C1840704700207047C2
:10B9D8009CD002001CD10200A0F16103192B98BF72
:10B9E80020387047A0F14103192B98BF20307047C9
:10B9F8007F2805D8034B185C034B5B5C18407047E5
:10BA0800002070479CD002001CD10200A0F1610305
:10BA1800192B98BF20387047A0F14103192B98BF04
:10BA2800203070477F299ABF017001206FF02E00E7
:10BA380070475AB10A787F2A0AD800B102600021FB
:10BA480019605960501A18BF0120704700207047CC
:10BA58006FF02E00704738B504460846A26842B118
:10BA6800236861685D1C8D4208BF00208B4208D2A4
:10BA7800D054E3682BB121686268914201D2214613
:10BA8800984723680133236038BD70B54C1E09D42C
:10BA98001646C5B229463046FFF7DDFF013CB4F132
:10BAA800FF3FF7D170BD10F0100F09D108B500F4B1
:10BAB8000070002814BF30202020FFF7E6FF08BDE3
:10BAC8007047000008B5034B5B689B681B68984784
