:020000022000DC
:106000000000042079630200616302006363020000
:10601000656302006763020069630200000000001C
:106020000000000000000000000000006B630200A0
:106030006D630200000000006F63020071630200E4
:106040007363020073630200ED7602007363020063
:1060500073630200736302007363020073630200E0
:1060600073630200736302007363020073630200D0
:1060700073630200736302007363020073630200C0
:1060800073630200736302007363020073630200B0
:106090007363020073630200998402007363020059
:1060A0007363020073630200736302007363020090
:1060B0007363020073630200000000000000000030
:1060C0007363020073630200736302007363020070
:1060D0007363020073630200736302007363020060
:1060E0007363020073630200736302000000000028
:1060F00000000000736302000000000073630200F0
:10610000000000000000000000000000000000008F
:10611000000000000000000000000000000000007F
:10612000000000000000000000000000000000006F
:10613000000000000000000000000000000000005F
:10614000000000000000000000000000000000004F
:10615000000000000000000000000000000000003F
:10616000000000000000000000000000000000002F
:10617000000000000000000000000000000000001F
:10618000000000000000000000000000000000000F
:1061900000000000000000000000000000000000FF
:1061A00000000000000000000000000000000000EF
:1061B00000000000000000000000000000000000DF
:1061C00000000000000000000000000000000000CF
:1061D00000000000000000000000000000000000BF
:1061E00000000000000000000000000000000000AF
:1061F000000000000000000000000000000000009F
:10620000364937480A1A02D0072291438D4635494C
:1062100035480A1A06D00722914381F309880222E1
:1062200082F3148831483249324A00F045F8324846
:106230003249334A00F040F832483349334A00F0DB
:106240003BF833483349344A00F036F83348344990
:10625000344A00F031F834483449354A00F02CF81B
:1062600034483549354A00F027F835483549002289
:1062700000F02DF834483549002200F028F8344861
:106280003449091A082903DB002202600430016046
:10629000314A90471F482049884205D0026804309F
:1062A00003B4904703BCF7E700208646EC46002085
:1062B00000212A4A9047FEE7884207D0521A05D0AB
:1062C000037801300B700131013AF9D170478842EF
:1062D00002D002700130FAE770470000000004208D
:1062E00000E00320000004200000042040A502007C
:1062F000B8570020F0570020D8630200D86302008E
:106300000C9E020040A50200B8570020B85700209C
:10631000689E0200689E0200689E0200689E02005D
:10632000689E0200689E0200689E0200689E02004D
:1063300040A5020078A50200F0570020F057002089
:10634000F0570020386100203861002038610020BB
:106350003861002038810020A163020055800200CE
:10636000FEE7FEE7FEE7FEE7FEE7FEE7FEE7FEE705
:10637000FEE7FEE7704700BF1048804710484FF027
:106380000701884385460F4880470F48016841F45C
:1063900070010160BFF34F8FBFF36F8FFFF730BF06
:1063A0000A480B490B4A884207D0521A05D0037895
:1063B00001300B700131013AF9D170477563020069
:1063C00000000420B982020088ED00E0689E02000F
:0863D000B8570020B857002067
:1063D800F0B595B01C46164608460D4601F065F81E
:1063E8001A9B0D93CDE9086400242346082205A9C9
:1063F80028460A948DF82C400C9401F074F8079BF9
:106408000293BDF81830ADF80C30BDF81A30ADF86D
:106418000E309DF814308DF8114003F00302012A64
:106428001DD1BDF81440059EC3F3C203C4F3831401
:106438008DF81030A20008230EA9284601F053F861
:10644800C6F3952608AB0093224602AB0EA9304648
:1064580000F0FAFB284601F02CF815B0F0BD022A2E
:10646800F8D1BDF81640C3F3C203A4098DF8103063
:106478000827082C264628BF08263B4632460EA980
:10648800284601F030F8A41B08AB02AA31460EA832
:10649800374400F03DFC002CEBD1DBE770470000EF
:1064A80007B5044B0093044A4023FFF791FF03B05C
:1064B8005DF804FB05650200F157002030B50C4D6E
:1064C8000FCD89B06C460FC495E80F0084E80F0023
:1064D80008A9062341F8203D0022064801F0C4F827
:1064E80008B100F06BFC044B00221A7009B030BDF3
:1064F800689E0200B8570020F057002038B50D4BB1
:106508000D4D002018700D4804782D5DD2B21C4640
:1065180065B1043001F056FD08B100F04FFC084B9E
:106528001A7812B12378002BFBD038BD0C3001F05B
:1065380027FBF1E731580020DC5D0020B857002028
:10654800F057002008B50848084A0378D35C33B1EF
:10655800043001F0E1FCBDE80840FFF7AFBF0C30A4
:1065680001F0B8FAF7E700BFB8570020DC5D00205B
:10657800FFF7A4BF08B5FFF7FBFF0421034800F0AD
:10658800D1FA034B01225A7108BD00BF449E020094
:10659800CC570020037813F0040216D003F003034D
:1065A800012B03D0022B09D0012070470A6800880C
:1065B8000232C0F3831002440A60F5E70B68428890
:1065C800023303EB92130B60EEE7104670470000AE
:1065D8002DE9F04F89B00546861C08A8484C019261
:1065E80000230F4600F8113D00F02EFC23683B60A5
:1065F800D4E901231344226801339B1A04F21C478F
:1066080004F5836A04F21448B3421AD3019A0023AA
:10661800002A6DD0012262F3010343F0040365F3FD
:1066280089132168A2689DF80F000A4003320E44BE
:1066380044F82230266000F02BFC012009B0BDE8A8
:10664800F08F0121384600F06FFC504600F085FCC1
:10665800404600F082FC0DF120096068D4F808B0CB
:1066680049F8100D00EA0B00033004EB800049469E
:10667800FFF790FF049BB0B90BEA030204EB820218
:10668800D16805919A1C013303EA0B0B04EB8B0CC0
:1066980001F00303012B0492DCF80CB020D0022B8C
:1066A80004D083460BE00BEA0300DDE7BDF81630A3
:1066B8009B0903334FEA1B4B02EB930304934046B9
:1066C80000F04EFC08B1049B63605946384600F060
:1066D8002BFCD4E901231344226801339B1A93E766
:1066E800BDF81430C3F383134FEA1B4B1344E5E79B
:1066F800022262F3010343F0040365F39F5390E71A
:10670800045900200B4B0C48FF2210B59A60002258
:10671800C3F81824C3E90022C3F81424012283F81B
:10672800202400F07BFE044610B9044800F0E6FE81
:10673800204610BD04590020549E0200A89E020065
:1067480030B50A4C71B10A4A0A49121BD208002313
:106758009A4201D1002030BD31F82350854202D041
:106768000133F5E7034654F83300F4E7149E0200BA
:10677800449E0200B8570020094B013903EBC000C2
:10678800032909D8DFE801F00A020406042070474B
:1067980000797047407970470020704702207047A1
:1067A800149E0200164B93F8203437B504460BB9F3
:1067B80018B90024204603B030BD02F0B6FA02AA88
:1067C800013042F8080D012301A90E4800F09FFE90
:1067D80005460028EDD12146009A019802F07CFA7E
:1067E800DDE900231344074803F8015C009900F031
:1067F800C8FE0099034800F0DBFE019CDAE700BF01
:1068080004590020A89E0200034BD3E90030C31AA4
:1068180058425841704700BF045900202DE9F04301
:1068280087B0FFF7F1FF0646002840F0FC807F4D57
:10683800C5F81804BFF34F8F6868AC6806AF47F80F
:10684800100D2040033005EB80003946FFF7A2FE0B
:10685800029B18B1D5F81824002A5FD004EA030275
:10686800991C013305EB8202234005EB8303D268B0
:10687800DB68049302F00303022B0392029162D1B6
:10688800BDF80E306A484FEA9318B8F1500FC14668
:1068980028BF4FF0500969F38F1309F10801ADF8CB
:1068A8000E3000F0D3FD0746002800F0A78000F066
:1068B800FCFD03A900230822384600F009FE0299CE
:1068C80024EA01060136B600B14535D95FFA89F9DF
:1068D8007EB3F6B2A9EB0609214003315FFA89F4C9
:1068E800B146544E05EB810108234A46384600F06C
:1068F800EFFD36B109F1080322463146384600F06B
:10690800E7FD029B08F1030803EB98030293D5F80F
:106918001834002B4BD1D5F810445BE02A689A4212
:1069280004D86A60304607B0BDE8F08304EA030083
:1069380088E740493446D7E72140033108234A46CF
:1069480005EB8101DAE7012B58D1BDF80C30384846
:10695800C3F38311062928BF062161F38913023185
:106968008900ADF80C3000F071FD0746002845D0CD
:1069780000F09BFD0023082203A9384600F0A8FD7B
:106988000026BDF80C20C2F38312B31C96424FEACE
:106998008303BCD202994A1C21400331029205EBC1
:1069A80081010422384600F093FD0136E9E73846B4
:1069B80000F07FFDFFF728FF80F00100C6B2B1E7C5
:1069C800E3685B7923B1236839461B6820469847FA
:1069D800E3681C68002CF3D1384600F06AFD06A86D
:1069E80000F8114D00F030FAD5F818340BB9029BB5
:1069F8006B609DF8070000F04BFADBE7D5F8104410
:106A080054B90D4B0D480E49C01AC008000440F097
:106A1800020000F06FF8CDE7236820469B6898478E
:106A2800E3681C68ECE700267CE700BF04590020F7
:106A3800549E020010590020149E02002C9E020051
:106A4800B49E02002DE9F74F284C80460F46924627
:106A580001A9012218469B46D4F80890FFF7B8FD13
:106A680088B3019D0026A91C5E4506EB010234D1BE
:106A780000211F4800F022FA80F310006A1C02EA85
:106A8800090204EB8202000405EA0903033340EA21
:106A98001840D06014F8232068F3C50204F82320B6
:106AA80034F8232066F3891224F8232054F823208D
:106AB800012167F39F2244F8232061F301026FF359
:106AC800820204F8232094F820341BB1FFF7A6FEB5
:106AD8000028FBD103B0BDE8F08F09EA020204EBFD
:106AE80082025AF82630D3600136BDE704590020E7
:106AF800205D002000231A46FFF7A4BF13B502AC9F
:106B0800012344F8042D2246FFF79CFF02B010BD74
:106B180007B5CDE9002302236A46FFF793FF03B0C8
:106B28005DF804FB30B50F49D1F810240023144652
:106B38003CB9C468237152B9C1F8100422601846E0
:106B480030BDE46825799D4206D02468F0E7D26814
:106B5800116821601060F2E701330A2BE7D14FF08A
:106B6800FF33ECE704590020094A38B50123D2F86D
:106B7800104482F820341D4604B938BDE3685D71BD
:106B8800236820465B689847E3681C68F4E700BF01
:106B980004590020037A052B10B50C460FD0437A10
:106BA80023B1084A0849204600F03EFA0749204622
:106BB80000F03AFA2046BDE8104000F02ABA002A50
:106BC800F8D0F3E7FF9E0200049F02002AA002000B
:106BD800C38873B504460D4633B1144A009214496C
:106BE800144A284600F020FA217A05291CD0637A35
:106BF8004BB1A088FFF7C0FD0F4B104953F8202078
:106C0800284600F011FA227A0D4BA08853F822602A
:106C18000021FFF795FD0B4903463246284602B08E
:106C2800BDE8704000F000BA02B070BDFF9E0200DF
:106C38000F9F0200079F0200CC9E0200049F0200E3
:106C4800349F0200279F02002DE9F04385B01F46BC
:106C58000C9D002306460C46904695F80C902B7325
:106C680029463846FFF7B4FFB8F1060F09D8DFE820
:106C780008F00412181F283340003146284600F057
:106C8800D3F9002229463846FFF784FF85F80C908F
:106C980005B0BDE8F08322683146284600F0C4F903
:106CA800EFE7D4E900233146284600F0BDF9E8E7CC
:106CB800A36800933146D4E90023284600F0B4F9CC
:106CC800DFE7E3680193A36800933146D4E9002322
:106CD800284600F0A9F9D4E723690293E3680193F1
:106CE800A36800933146D4E90023284600F09CF9B4
:106CF800C7E76369039323690293E3680193A36871
:106D080000933146D4E90023284600F08DF9B8E70E
:106D180008292DE9F84F80460E4617461C4636D8F6
:106D2800002593F80C901D7319461046FFF750FF85
:106D3800DFF87CA0DFF87CB0AE422AD918F805202D
:106D48005946204600F070F90135082DF4D116494E
:106D5800DFF864B0204600F067F90025AE421DD97F
:106D680018F805A0504601F0A1FF002814BF5246AC
:106D78002E225946204600F057F90135082DEDD14D
:106D8800012221463846FFF705FF84F80C90BDE83C
:106D9800F88F5146204600F047F9D5E703492046C9
:106DA80000F042F9E9E700BFFA9E0200F89E0200EF
:106DB800F69E0200F09E0200FC9E02001FB5002114
:106DC800039001AA44F20100CDE9011100F004F892
:106DD80005B05DF804FB000010B572B6FFF7C4FEFD
:106DE800FFF71CFD0028FBD1104B114C1149E41A88
:106DF800E408240444F00100FFF77CFE0E4B1B68F6
:106E0800DB0700D500BE0D4944F00200FFF772FE13
:106E1800BFF34F8F0A490B4BCA6802F4E062134371
:106E2800CB60BFF34F8F00BFFDE700BF149E020089
:106E38002C9E0200939F0200F0ED00E09F9F02004D
:106E480000ED00E00400FA0570B5EFF3108672B6A5
:106E58000C4A946801239CB993600B4B0B4DD3F8F3
:106E6800801029401160C3F88050D3F88410516015
:106E78004FF0FF32C3F88420047006B962B670BDC3
:106E88000370FAE7C05D002000E100E0FC06FFBDEA
:106E9800084B9A6810B55AB150B9EFF3108272B620
:106EA80005491C680C605C684C60986002B962B661
:106EB80010BD00BFC05D002000E100E050E8002FD9
:106EC8000B4640E8003C9CF0000FF7D11046704795
:106ED80050E8002F42EA010340E8003C9CF0000F14
:106EE800F6D11046704750E8003F43EA010240E8F7
:106EF800002C9CF0000FF6D11046704750E8002F88
:106F080002EA010340E8003C9CF0000FF6D110466D
:106F1800704750E8003F03EA010240E8002C9CF06B
:106F2800000FF6D11046704750E8003F03EB01020E
:106F380040E8002C9CF0000FF6D11046704750E84E
:106F4800003FA3EB010240E8002C9CF0000FF6D1B3
:106F5800104670470121FFF7BBBF0121FFF7C3BFF0
:106F68000021FFF7CBBF0021FFF7D3BF10B590B1C9
:106F7800D0E9012301689B1ADBB20A60013BDBB24E
:106F8800FF2B026802D10020107110BD11684C1C43
:106F980014600B70F2E70E20F7E737B5054602A834
:106FA800002400F8014DFFF74FFF2A686B6811684D
:106FB80099420ED9481E106011F8014CEB68298AD5
:106FC80001FB0434AB6811791B1ADBB2994238BF54
:106FD80013719DF80700FFF75BFF204603B030BD33
:106FE80037B5054602A8002300F8013D0C46FFF717
:106FF8002BFF2A681368591C1160E968641A298AEA
:10700800B4FBF1F41C709DF80700FFF741FF03B0D3
:1070180030BD826810B504462AB143690168006929
:1070280098470023A36010BD0EB403B5039929B196
:1070380002AA04AB42F8043D00F06AF802B05DF819
:1070480004EB03B07047826830B40468551C85604F
:10705800A154D0E901329A4202D330BCFFF7D9BF1C
:1070680030BC70472DE9F84F9946DDE90A431746C9
:10707800824688460A460126BA420FD24E4538BF94
:107088004E4613F0010B01D164B900240125B9F172
:10709800010F1AD909F1FF397D43F8E7B2FBF7F27E
:1070A8000136E9E79B070ED5B9F1000F0CBF302573
:1070B8002025A642EAD2013C29465046FFF7C3FFE5
:1070C800002CF6D1E1E72025F3E7B8FBF5F39F4262
:1070D800E2D9DFF83890B8FBF5F3504619F80310F9
:1070E80005FB1388FFF7AFFFB5FBF7F5002DF2D1CD
:1070F800BBF1000F02D00CB1A64201D3BDE8F88F56
:1071080020215046013CFFF79EFFF4E7AC9F0200A8
:107118002DE9F74F054690460E46002900F03A81C2
:1071280016F8011B002958D0252940F0D1800027E6
:1071380002E047F001071646324612F8013B2D2BB4
:10714800F7D0302B04D02B2B05D147F00407F2E7FA
:1071580047F00207EFE700242A2B06F101021BD1B2
:10716800D8F80030191D1B68C8F800101C441646D2
:1071780033782E2B1CD101364FF0000A314611F816
:10718800012BA2F13000092814D80A2303FB0A2393
:10719800A3F1300A0E46F1E712F8013CA3F13001E1
:1071A8000929E5D80A2101FB0434303C1646D3E707
:1071B8004FF0000A324612F8011B01F0FB00682864
:1071C8001646F8D0692916D054D8582970D00ED848
:1071D80025297DD03378002BA2D12B7B002B00F002
:1071E800D980284603B0BDE8F04FFFF712BF6329E6
:1071F80068D06429EED1D8F80020D2F80090111D8B
:1072080089EAE972C8F80010A2EBE9724FF0010BA5
:10721800092A61DCD34538BFD3462CB1B9F1000F38
:1072280001DB790700D5013CBA0702D5BAF1000F96
:1072380004D0FB0702D4002C54D10024B9F1000F6C
:1072480058DAC9F100092D212846FFF7FCFE07F09E
:107258000302022A05D1BAF1000F02D1002C4DD148
:107268000024CDE9004753460A2249462846FFF73D
:10727800F9FEAFE7732954D016D87029AAD1D8F8E7
:1072880000301A1DC8F80020302128461C68FFF776
:10729800DAFE78212846FFF7D6FE00220823CDE93A
:1072A800003221461022E1E775292FD0782991D1A3
:1072B800D8F800100A1DC8F80020CDE90047534649
:1072C80010222CE0D8F800301A1D1978C8F80020D0
:1072D8002846FFF7B8FE7DE70A230BF1010B92FB66
:1072E800F3F295E7A345A9D220212846013CFFF7F0
:1072F800AAFEA0E77807AAD52B21A5E7A345B0D217
:1073080030212846013CFFF79EFEA7E7D8F8001079
:10731800CDE900470A1DC8F8002053460A2209682B
:10732800A4E7D8F800301A1DC8F80020F907D3F8E8
:10733800009012D54F46A7EB090B17F8011B41B96E
:10734800A345BFF447AF20212846013CFFF77BFE49
:10735800F6E72846FFF777FEEDE7B9F1000F17D0FB
:10736800484601F0E2FC0746BC4200D954B909F18D
:10737800FF3919F8011F00293FF42CAF2846FFF701
:1073880062FEF6E720212846013CFFF75CFEEBE7AA
:107398004F46E9E703B0BDE8F08F2DE9F047B0F8B4
:1073A80006904479D2F800A09DF8208009FB04F4E7
:1073B800043C06460AEB0300A0420F4688BFA4EB34
:1073C800030A191DC2F800A0B1FBF9F509FB151154
:1073D8004DB9A9EB0104544528BF5446BAF1000F32
:1073E80004D1BDE8F0873668013DF1E704317B1927
:1073F80070182246B8F1000F0ED001461846AAEBC5
:10740800040A01F069FCD145254436684C464FF022
:10741800000128BF5446E1E71946F0E7FFF7A6BD8B
:10742800F8B546790146721E0546002393422D6839
:1074380003D30024A64202D8F8BD0133F6E70F684B
:107448002846FFF7CDFD01343946F3E72DE9F84327
:10745800068ACD1C0746FFF7A0FD043E35440446C6
:10746800B5FBF6F5F0B14FF48073EDB28380C680BA
:10747800013D076081464FF00008A84512D2384602
:10748800FFF78BFD064648B163790133637108F154
:107498000108C9F8000007608146EEE72046FFF7BB
:1074A800BFFF34462046BDE8F88301210430FFF7CA
:1074B8003BBD10B5012104460430FFF740FD10F034
:1074C800FF0F04D12046BDE81040FFF7A9BF10BD4B
:1074D8001FB504AC44F8042D002200922246FFF7A1
:1074E8005CFF04B010BD1FB504AC44F8042D0122A4
:1074F80000922246FFF751FF04B010BD83680022B6
:107508005A609A60C3E90422DA601A6070472DE96C
:10751800F04106460F4690461D468BB9B068736821
:10752800D0E9031403F1010C0A1B62450FD10024B2
:10753800C8F800401DB3FFF716FD0020BDE8F08134
:107548008068FFF707FD0028E8D01120F6E701EA78
:10755800030223409A4238BF6444D8F800302CBF55
:10756800ACEB0204641A9C4228BF1C463368C8F876
:10757800004013443B60C3681C44C460DDE72846F0
:10758800DCE782684368106910B5013394680344E6
:107598001B1B8B420AD32144C2E902111046FFF794
:1075A800DFFC00280CBF0820002010BD0420FCE7E9
:1075B800806808B582680369D21A8A4207D31944D9
:1075C800C0E904110430FFF7CEFC002008BD0420F8
:1075D800FCE70B684A684360934208BF00230160D8
:1075E80008BF43607047436843B1026891685268B6
:1075F8000B449342436004BF00234360704700007C
:107608001FB503788DF8003043680193037A8DF82D
:107618000830C3680393054A054B684653F8213080
:1076280052F82110984705B05DF804FBCC5D0020A6
:10763800D45D00201FB503788DF8003043680193AE
:1076480083688DF80830C3680393054A054B68467C
:1076580053F8213052F82110984705B05DF804FB23
:10766800CC5D0020D45D0020F0B5194B0678DFF81A
:1076780070E043F82620174B94460A6943F8262001
:107688004B7F0EF806300C4607460FCC89B06D4686
:107698000FC594E80F0085E80F001EF80630049621
:1076A80053B1BCF1000F0C4A694608BF0022381DCF
:1076B80000F050FB09B0F0BDBCF1000F074A694665
:1076C80008BF002207F10C0000F02AF9F2E700BF1A
:1076D800D45D0020CC5D0020097602003D760200D2
:1076E800DC5D0020014B1B68184700BFE05D0020EF
:1076F8000D4B984237B50D4610D102A8002300F86B
:10770800013DFFF7A1FB094B1C7914B901221D604B
:107718001A719DF80700FFF7BBFB14B9002003B0EE
:1077280030BD1120FBE700BF00200040E05D0020D5
:10773800034B984201BF034B00221A601A7170472D
:1077480000200040E05D00200023435082B04358F1
:107758000193019B02B070470A4610B54FF48E7131
:10776800FFF7F2FF136A9168C95C136A0133136269
:10777800C0F81C1510BD8B690A4610B54FF484710A
:1077880023B9FFF7E1FFD0F8183510BDFFF7DCFF8C
:10779800536AD168D0F81805C854536A0133536244
:1077A800F3E700001FB501238DF80030044BCDE945
:1077B8000110D3E900126846904705B05DF804FB54
:1077C800E85D002030B54C4AD2F8043313F4007F4A
:1077D80085B015464FD0D2F82431002B4BD04FF44A
:1077E80092711046FFF7B0FF4FF40173C2F80833E7
:1077F800424B93F8291009B9012151603E490222F0
:107808008DF80020D1F88024C1F8802403929A6969
:107818000292DA6801920022C3E906226846D3E997
:10782800001290473448D0F81C315BB133490A6ADA
:107838004B699A420A464BD291F82830002B47D11F
:10784800FFF78AFF2C4AD2F8443193B14FF4A27162
:107858001046FFF779FF294B93F8291009B1012148
:1078680011609A692AB100229A61586AD968FFF7AB
:1078780099FF05B030BDD5F804335B07D2D5D5F8EC
:107888000831002BCED01D4C1B482146FFF773FF53
:10789800636AA2699A422346C4D1E269E1684AB19F
:1078A8002369E3600023606AA261E3616362FFF712
:1078B80079FFB7E794F829200AB901226A600E4ACD
:1078C8004FF40170C2F8080300229A61586AEEE783
:1078D8004FF48E710848FFF737FF51690029B1D07E
:1078E8000023029191688DF8003001915361684638
:1078F800D2E900139847A5E700200040E85D002082
:107908001F2886BF00F01F00044B4FF0A04300F56E
:10791800E070022243F82020704700BF00030050A7
:107928002DE9F843664B047991462C2202FB043278
:10793800064692F82A200D469846002A40F0BC8058
:1079480060490068FFF7D4FE0746002840F0B6807B
:1079580029684A1C10D01F2987BF01F01F035A4A03
:107968000B464FF0A0420120984003F5E073C2F89F
:107978000805032042F823006868431C0DD01F281F
:107988008BBF00F01F0303464F4A4FF0A04203F598
:10799800E0734FF00C0C42F823C03368AA6995F8DD
:1079A80014C0C3F824256A7DBCF1010F4CEA020219
:1079B800C3F86C25C3F81405C3F80C152BD1A968B6
:1079C800481C0DD01F298BBF01F01F020A463E48F4
:1079D8004FF0A04002F5E0724FF0000C40F822C0D2
:1079E800E868421C13D01F2887BF00F01F0C364AD6
:1079F80084464FF0A0424FF0010E0EFA0CFE0CF533
:107A0800E07CC2F808E54FF0030E42F82CE0C3F81A
:107A18000805C3F810152C23634308EB0302C2F8CA
:107A280004902A6948F80320B9F1000F31D04FF4C7
:107A38008E7130682D7FFFF787FE30684FF4A27192
:107A4800FFF782FE3268214BC2F80433120B53B29F
:107A5800002BA8BF03F160404FEA53134FEA4511CA
:107A6800BABF1B4802F00F0500F561404FEA8303D7
:107A7800C9B203F16043B4BF415580F8001303F560
:107A8800614302F01F02012101FA02F2C3F88021CA
:107A98001A6033680422C3F800252C2303FB0483EF
:107AA8000022C3E9062283F829205A61012283F8BB
:107AB8002A203846BDE8F8830827FAE71127F8E7AF
:107AC800E85D0020CD77020000030050800002002E
:107AD80014ED00E02DE9F04103680479254D0022FA
:107AE800C3F800252C2202FB04520646526872B1E4
:107AF800214AC3F80823190B4AB20120520901F0A0
:107B08001F0100FA01F120321C4840F82210D3F876
:107B18000C05D3F81485D3F80815D3F810754FF071
:107B2800FF329042C3F81425C3F80C25C3F8082582
:107B3800C3F8102501D0FFF7E3FEB8F1FF3F02D0EC
:107B48004046FFF7DDFE7A1C02D03846FFF7D8FE24
:107B58004B1C02D00846FFF7D3FE3068FFF7E8FD5C
:107B68002C2303FB0454002384F82A306360BDE807
:107B7800F08100BFE85D00208402020000E100E01F
:107B88002DE9F843224F06794FF02C0909FB0674BA
:107B980080466569002D37D16261A16025624FF486
:107BA8008E71006884F82850FFF7CEFDD8F80000E1
:107BB800012383602146FFF7CFFD6368A1462BBBF5
:107BC800D8F80050226A63699A4212D3D8F8003074
:107BD800D3F81C21002AFBD00122DA6000202C23D4
:107BE80003FB067600237361BDE8F88394F8283018
:107BF80043B9D5F81C31002BF8D049462846FFF781
:107C0800ABFDDFE70F20EAE71120EDE72846EBE7B9
:107C1800E85D00200023435082B043580193019B44
:107C280002B070471FB501238DF80030054B8DF861
:107C3800080001916846D3E90012904705B05DF845
:107C480004FB00BF145E00207FB5384AD2F82461D7
:107C5800002E49D010464FF49271FFF7DBFF022344
:107C68008DF80030D2F88034C2F880340393D2F80B
:107C78003C358DF808302E4BDA6801920022C3E9B2
:107C880006226846D3E900129047284AD2F84431C0
:107C980073B14FF4A2711046FFF7BCFF244B9969EA
:107CA80031B100219961D2F83C05D968FFF7BAFFD4
:107CB8001E4AD2F82031ABB14FF490711046FFF74D
:107CC800A9FF1B4B596969B1D2F84C158DF80810FA
:107CD800002299688DF8002001915A616846D3E91D
:107CE8000012904704B070BDD2F81031002BCCD0F0
:107CF8004FF488711046FFF78DFF0D4BD2F83C0505
:107D080099698842C1D1DC69D96864B1D2F8005256
:107D180025F02005C2F800521A699C61DA60DE611C
:107D2800FFF780FFB1E79C61FAE700BF0020004041
:107D3800145E00201F2886BF00F01F00044B4FF080
:107D4800A04300F5E070022243F82020704700BFEE
:107D5800000300502DE9F8436A4B06799146242226
:107D680002FB0632044692F820200D469846002A67
:107D780040F0C48064490068FFF7BAFC0746002851
:107D880040F0BE802868421C10D01F2887BF00F032
:107D98001F035E4A03464FF0A0420121994003F5B4
:107DA800E073C2F80815032142F8231069684B1CD8
:107DB8000DD01F298BBF01F01F030B46534A4FF00C
:107DC800A04203F5E0734FF0000C42F823C023688B
:107DD800AA6995F814C0C3F824256A7DBCF1010F7F
:107DE8004CEA0202C3F86C25C3F80C05C3F8141555
:107DF8002BD1A968481C0DD01F298BBF01F01F0289
:107E08000A4642484FF0A04002F5E0724FF0000CDD
:107E180040F822C0E868421C13D01F2887BF00F032
:107E28001F0C3A4A84464FF0A0424FF0010E0EFA5A
:107E38000CFE0CF5E07CC2F808E54FF0030E42F8A2
:107E48002CE0C3F80805C3F810152423734308EB86
:107E58000302C2F804902A6948F80320B9F1000F18
:107E68003BD04FF4887120682D7FFFF7D3FE4FF485
:107E780090712068FFF7CEFE4FF492712068FFF7EB
:107E8800C9FE20684FF4A271FFF7C4FE2268204B98
:107E9800C2F80433120B53B2002BA8BF03F16040A1
:107EA8004FEA53134FEA4511BABF1A4802F00F05BB
:107EB80000F561404FEA8303C9B203F16043B4BFE0
:107EC800415580F8001303F5614302F01F020121B8
:107ED80001FA02F2C3F880211A6023680822C3F865
:107EE8000025242303FB06830022C3E906225A61E6
:107EF800012283F820203846BDE8F8830827FAE7EE
:107F08001127F8E7145E0020517C0200000300509E
:107F18001003020014ED00E02DE9F0410368047934
:107F2800254D0022C3F80025242202FB04520646F0
:107F3800526872B1214AC3F80823190B4AB20120CA
:107F4800520901F01F0100FA01F120321C4840F8E3
:107F58002210D3F80C05D3F81485D3F80815D3F8F4
:107F680010754FF0FF329042C3F80C25C3F8142562
:107F7800C3F80825C3F8102501D0FFF7DBFEB8F1D8
:107F8800FF3F02D04046FFF7D5FE7A1C02D03846A4
:107F9800FFF7D0FE4B1C02D00846FFF7CBFE306837
:107FA800FFF7C6FB242303FB0454002384F8203086
:107FB8006360BDE8F08100BF145E0020100302007A
:107FC80000E100E001F06043B3F1005F2DE9F0410A
:107FD800074632D11C4B0679242505FB0635984601
:107FE8006C6964BB6A61A96000684FF49071FFF71F
:107FF80011FE4FF4AC713868FFF70CFE3B686A69F4
:10800800A968C3F84415C3F8482501229A606A682C
:10801800BAB9D3F82011D3F8582149B9002AF8D0B1
:108028000F20242303FB068600237361BDE8F0813B
:10803800002A14BF0F200020F3E71020F6E71120D4
:10804800F4E72046F2E700BF145E00202DE9F04F68
:108058002DED068B002183B0084600AFFEF752FBDA
:1080680008B1FEF7ABFEFEF785FA764C764B7749FA
:10807800DFF818A2DFF804B2E41AE408240444F094
:10808800030044F00504FEF735FD71492046FEF76C
:1080980031FD002500F010FE6E4AB0FBF2F303FB41
:1080A800120007EE900A9FED6C7A9FED6C9A6C4E69
:1080B8009FED6CAADFED6C9AF8EEE77A85F0010582
:1080C80087EE878A4FF000094FF06408F0EE478A80
:1080D80028EE099A4FEA590307EE903AF8EEE77A44
:1080E80067EE897AC7EE8A7A17EE900A00F019FAD5
:1080F80041EC100B00F0A0FC51EC100B00F02DFA35
:1081080046F8040C8DB100F0D7FD90FBF8F303FBA3
:10811800180007EE900AF8EEE77A87EEA87A56ED8F
:10812800017A67EE877A46ED017A19EE903A09F1FD
:108138000209B9F1800F46F8083BCBD10123002290
:1081480051464A4801F0BAF940225946504601F0D2
:108158002FFA474A474B4849BCEEC88A002D08BF4A
:10816800134618EE102A204692B2FEF7D1FCE946D3
:108178003B1D92B03A464021584600F007FEE846BB
:108188001426013E07EE906AF8EEE76AB3EE047A29
:10819800C6EE877A394900237C2097ED007A67EE8E
:1081A800877AB1EC017AF4EEC77AF1EE10FA4CBF97
:1081B8000246202208F803200133402BF1D1002386
:1081C80088F840304046FEF7EDFA2D490246204631
:1081D800FEF794FCFEF722FB0028FBD1002ED0D13D
:1081E80092B068460DF1FF330DF13F022D2103F8DF
:1081F800011F9342FBD1002380F84030FEF7D2FAEA
:108208001F4902462046FEF779FCCD46FEF706FBDD
:108218000028FBD1F1EE103A23F09F03E1EE103A6B
:10822800F1EE103A174B4022C3F88421164B4FF455
:108238007A7643F001084FF47A40C047013EFAD1FC
:1082480028E700BF2C9E0200149E0200D69F020061
:10825800EF9F020080841E000000C842DB0FC94067
:108268003C5E002000442C4700000000C0A2020031
:1082780031A002002DA0020034A0020038600020C6
:10828800229F020000E100E0D09F0200385E00203B
:10829800054B1B68082B01BF044B1868B0FA80F027
:1082A800400918BF00207047300100103401001049
:1082B80008B54FF080430022C3F80C21C3F8102101
:1082C800C3F838254FF0805203F54043D2F8041420
:1082D800C3F82015D2F80814C3F82415D2F80C14E2
:1082E800C3F82815D2F81014C3F82C15D2F81414B2
:1082F800C3F83015D2F81814C3F83415D2F81C1482
:10830800C3F84015D2F82014C3F84415D2F8241441
:10831800C3F84815D2F82814C3F84C15D2F82C1411
:10832800C3F85015D2F83014C3F85415D2F83414E1
:10833800C3F86015D2F83814C3F86415D2F83C14A1
:10834800C3F86815D2F84014C3F86C15D2F8442461
:10835800C3F87025FFF79CFF10B1384B384A1A60F4
:10836800FFF796FF18B1374BFB22C3F81825FFF724
:108378008FFF48B13449354B0A681B6822F00F0259
:1083880003F00F0313430B60FFF782FF18B1304B64
:108398004FF400721A604FF08043D3F80024D207DC
:1083A80044BF6FF00102C3F800242A4AD2F888308B
:1083B80043F47003C2F88830BFF34F8FBFF36F8F59
:1083C8004FF01023D3F80022002A03DBD3F804323D
:1083D800002B2FDA204B0122C3F80425D3F8002400
:1083E800002AFBD04FF010221221C2F80012D3F855
:1083F8000024002AFBD04FF010231222C3F80422D5
:10840800154B1A46D3F800140029FBD00021C3F8F5
:108418000415D2F80034002BFBD0BFF34F8F0D4961
:108428000E4BCA6802F4E0621343CB60BFF34F8F70
:1084380000BFFDE70A4B0B4A1A6008BD8C56004086
:108448004881030000F00040E40E0040580200108C
:108458004096024000ED00E000E001400400FA050B
:10846800D45700200090D00307B508496846FFF7A5
:10847800B0F8019B13B903B05DF804FBD3E9002001
:1084880090476846FFF7AFF8F3E700BF54A0020033
:10849800FFF7EABF4BDF70471FB50D4C01A8FFF788
:1084A800F9FF70B9214602A8FFF793F8039B002B48
:1084B800F4D00198D3E90021904702A8FFF793F878
:1084C800F4E7052801D0FEF779FC04B010BD00BF21
:1084D80068A00200004204BF014670474FF4806262
:1084E80042F01D02B0FA80F18840521AC30A4005D2
:1084F80003EB025170474A000ED2520DA2F54072AA
:10850800FF3A09D4D2F11F0208D4C90241EA5050F7
:1085180040F00040D0407047002070476FF00000E6
:108528007047C0F3C751094208BF00F0004042003D
:108538004FEA40704FEA121118BF01F1605128BF8D
:1085480081F000414FF08073D34238BF704701F18A
:10855800605118BF41F4002170474FF4001313EB2A
:10856800410F24D24FEA4102B2F1E04324BFB3F5F0
:10857800001CDCF1FE5C0DD901F000414FEAC0029D
:1085880041EA5070B2F1004F40EB830008BF20F081
:108598000100704711F0804F04BF01F000407047A0
:1085A80001F0004040F0FE4040F40000704701D167
:1085B8000042F5D049004FEAC10141EA10704FEA84
:1085C800300040F48000704781F0004183F00043A0
:1085D80083F00043F0B491EA030F00F18E80841A0F
:1085E80071EB030603D212197341001BB1414FF01E
:1085F8007F4646F4600616EA410F08BF62E0B6EB14
:10860800410F98BF69E04FEA1154A4EB1357B143E7
:1086180041F4801116EA430F07BF00230022B34339
:1086280043F48013D7F1200634D303FA06F5401932
:1086380041F1000122FA07F5401923FA07F541EB49
:10864800050102FA06F211F4001F19D121F4801174
:1086580001EB0451F0BCB2F1004F08BF10EA500F13
:1086680050F1000041F100014FF07F4343F46003F3
:10867800B3EB410F88BF7047090D0905002070470B
:1086880049085FEA30005FEA320228BF42F001027F
:108698000134DBE7203F402F19D223FA07F54019B0
:1086A80041F10001C7F12006124218BF012203FA66
:1086B80006F52A43C7E711EA560F04BF0020002138
:1086C800F0BC704701F000410020F0BC704721F475
:1086D800801101EB0451F0BC7047004218BF41F013
:1086E8000101B6EB410F04BFF0BC70474FF0FE41EB
:1086F80041F478010020F0BC704783F00043841AED
:1087080071EB030705D287F00047001BB941121926
:108718007B415FF07F4656F4600616EA430FCAD0E5
:10872800B6EB410F40F28C800C0DA4EB1357C90235
:1087380041EA5051C00241F00041DB0243EA525382
:10874800D20243F00043D7F120065AD302FA06FCBE
:10875800FA4003FA06F52A43FB401CEA0C0F18BF3F
:1087680042F00102801A9941E30A6405640D11F090
:10877800404F2ED427D1002902BF01460020203CBB
:1087880000295BD0B1F5803F3FBF103C090441EAA6
:1087980010410004B1F1807F3FBF083C090241EA63
:1087A80010610002B1F1805F3FBF043C090141EA5A
:1087B8001071000111F0404F01BF023C890041EAED
:1087C8009071800009425FBF013C490041EAD071C5
:1087D8004000002C11DD420521F00041C00A40EAAA
:1087E8004150C90A41EAC371460872F1004250F18A
:1087F800000051EB0451F0BC70470020D907F0BCD1
:108808007047A7F12007202F0CD2C7F1200603FAE2
:1088180006F5FB402A4318BF43F00103C01A61F173
:108828000001A1E721F00041C00A40EA4150C90A0D
:1088380001EB0451F0BC704700200021F0BC7047E8
:10884800004218BF41F00101B6EB410F7FF44EAF73
:10885800B6EB430F3FF44AAFF0BC7047F0B5574F43
:1088680081EA030517EA010E1EBF9EEA070F17EA01
:10887800030494EA070F64D04EEAD57EA64421EAA1
:10888800470141F4801123EA470343F48013A1FB15
:108898000247A0FB036536197D41A1FB034747F159
:1088A8000003A0FB0217F619654153F100030942C2
:1088B80018BF46F001061427B3F5007F47F10007FB
:1088C80034BF3F4A3F4ABEEB020E31D4C7F1200401
:1088D80003FA04F105FA04F025FA07F2114326FA1F
:1088E80007F2104316FA04F421F480114FEA5E07E8
:1088F80041EA47010AD0B4F1004F50F1000041F1BC
:108908000001B4F1004F08BF20F001002B4F1EEA10
:10891800070F10D041EACE71BE453CBFBDE8F0401C
:1089280070472649002041EACE71BDE8F040704703
:108938001EEB020EF5D44FEACE710020BDE8F040E0
:108948007047394204BF01F000410020004218BFBF
:1089580041F001013B4204BF03F0004300221242F0
:1089680018BF43F0010307EA0304BC4218BF9EEA9C
:10897800070F05D005F000410020BDE8F040704722
:1089880021F0004123F00043B9420FD8BB420DD873
:10899800002918BF002B09D005F0004141F0FE4125
:1089A80041F470010020BDE8F04070474FF0FE41EF
:1089B80041F478010020BDE8F04070470000F07FE6
:1089C8000000F03F0000E03F4FF4001C1CEB410F9B
:1089D80098BF1CEB430F11D851EA030C50EA4C0C1A
:1089E8005CEA020C0AD004D290429941804140428C
:1089F800704782428B418041404270470020704757
:108A08004FF4001C1CEB410F98BF1CEB430F11D80F
:108A180051EA030C50EA4C0C5CEA020C0AD004D26E
:108A280082428B4180414042704790429941804147
:108A380040427047002070472DE9F84359EC108BED
:108A48000022002310EE100A4946FFF7BDFF002858
:108A580040F09980064629F000454046294661A322
:108A6800D3E9002344465FFA86F8FFF7C9FF60B3ED
:108A78005EA3D3E9002320462946FFF7EFFE002234
:108A8800574BFFF7A7FDFFF736FD00F00106FFF78C
:108A980021FD3FA3D3E900230F4686EA08080646CE
:108AA800FFF7DCFE22462B46FFF794FD3AA3D3E9F5
:108AB800002304460D4630463946FFF7CFFE2246CE
:108AC8002B46FFF787FD04460D4622462B462046D7
:108AD8002946FFF7C3FE32A3D3E9002306460F4613
:108AE800FFF7BCFE30A3D3E90023FFF771FD324640
:108AF8003B46FFF7B3FE2EA3D3E90023FFF76AFD39
:108B080032463B46FFF7AAFE2BA3D3E90023FFF723
:108B18005FFD32463B46FFF7A1FE29A3D3E90023B8
:108B2800FFF758FD32463B46FFF798FE26A3D3E9E8
:108B38000023FFF74DFD32463B46FFF78FFE24A387
:108B4800D3E90023FFF746FD32463B46FFF786FE92
:108B580021A3D3E90023FFF73BFD32463B46FFF74D
:108B68007DFE22462B46FFF779FE22462B46FFF76D
:108B780031FDB8F1000F02D001F10043194641EC74
:108B8800100BBDE8F8834FF0010664E7AFF30080EF
:108B980000000000002209C09EE59E4BEFAEE23EB9
:108BA80095DF9369FF80E83C9C4908DC20E46A3D36
:108BB80030D46A683C12E63DABC05D4B45E65A3E90
:108BC80063F024A5E31DC73E1A3E011AA0012A3FFF
:108BD800B01011111111813F555555555555C53FC7
:108BE8000000E03F4AD8124DFB21F93F83C8C96D08
:108BF800305FD43FB1EEC00A704700007F2805D827
:108C0800034B185C034B5B5C1840704700207047AF
:108C180080A0020000A10200A0F16103192B98BFF7
:108C280020387047A0F14103192B98BF20307047B6
:108C38007F2805D8034B185C034B5B5C18407047D2
:108C48000020704780A0020000A10200A0F161038B
:108C5800192B98BF20387047A0F14103192B98BFF2
:108C6800203070477F299ABF017001206FF02E00D5
:108C780070475AB10A787F2A0AD800B102600021E9
:108C880019605960501A18BF0120704700207047BA
:108C98006FF02E007047000008B5034B5B689B68B7
:108CA8001B68984708BD00BFD857002008B50921A0
:108CB800FFF7F2FF08BD0000054B1868054943F2AD
:108CC800390201FB00201860C0F30E40704700BF56
:108CD800EC5700206D4EC641844640EA010313F06C
:108CE800030F18D18446202A0BD32DE9F007B1E8E9
:108CF800F807A0E8F807A2F12002202AF7D2BDE879
:108D0800F007042A07D351F8043B40F8043BA2F1CA
:108D18000402042AF7D2002A05D011F8013B00F812
:108D2800013B013AF9D16046704700F1010110F0AA
:108D3800030F11D010F8012B002A23D010F0030FD5
:108D48000AD010F8012B002A1CD010F0030F03D012
:108D580010F8012B002A15D02DE970004FF00132D0
:108D68004FF0803350F8044BA4EB020525EA0405C4
:108D78001D4000D1F6E7A0F1040070BC10F8012BEB
:108D8800002AFBD1A0EB0100704700002DE9F0415B
:108D98004F1E5FEA970800F1040ED0ED007A58D014
:108DA8001430C4460426002410ED046A50ED036A0A
:108DB80010ED027A50ED015AB4EEE76AF1EE10FABE
:108DC800C8BFF0EE467AA6F10305F4EEE67AC8BF0E
:108DD8002C46F1EE10FA48BFF0EE667AA6F10205CD
:108DE800F4EEC77A48BF2C46F1EE10FA48BFF0EE11
:108DF800477A06F1FF35F4EEE57A48BF2C46F1EEE6
:108E080010FA48BF344648BFF0EE657ABCF1010C51
:108E180006F1040600F11000C6D10EEB081E17F08B
:108E2800030018D0081ABEEC017AB4EEE77AF1EE26
:108E380010FAC8BF044600F10100D8BFB0EE677A47
:108E48008842F0EE477AEED182ED007A1C60BDE8E8
:108E5800F0814446E3E7B0EE677AF5E72DE9F041A3
:108E68002DED088BB0F800E042684FEA5E0C01EB8C
:108E78008E085FEADE0E07464FEA8C0300F0AF80EB
:108E88001033CE181032434401F1100508F11004D4
:108E980054ED041A13ED044A53ED033A53ED025A04
:108EA80013ED015A54ED036A14ED020A16ED042A73
:108EB80056ED032A15ED036A15ED017A15ED043A0E
:108EC80054ED017A56ED020A16ED011A55ED024AE3
:108ED80073EE21BA36EE26BA37EE27AA72EE049A56
:108EE80032EEA39A31EE058A74EE80AA70EEA58A56
:108EF80045ED04BA05ED03BA45ED02AA05ED01AA50
:108F080006ED018A46ED049A06ED039A46ED028ABB
:108F180076EE666A73EEE23A12ED036A52ED042ABF
:108F280033EE613A34EE424A26EE868A24EE062A69
:108F380063EE221A24EE224A23EE063A66EEA26A6D
:108F480023EE866A63EEA23A36EE046A76EEC36AC8
:108F580072EE633A71EE882A44ED036A44ED042AFE
:108F680043ED043A03ED036A77EE677A75EEE06A3B
:108F780012ED017A52ED025A35EE416A74EEC04A9A
:108F880067EE873A26EE875A24EEA54A67EEA57A59
:108F980064EE874A66EEA56A26EE077A26EE256A0B
:108FA80077EEE47A74EE235A35EE466A37EE267A7F
:108FB800BEF1010E44ED025A05F1100544ED017AA7
:108FC80006F1100603ED026A03ED017A02F11002C0
:108FD80004F1100403F110037FF45AAF7A681FFA02
:108FE8008CF408460223214600F02AFCBDEC088BCD
:108FF800404621467A680223BDE8F04100F020BCD3
:109008002DE9F04F2DED0A8B028891ED006A8FB0A3
:109018000F46520893000C900391416897ED017A2E
:1090280038461844064609901844D0ED006AD6ED33
:10903800003AD6ED012AD0ED017A0A9076EE265A4A
:10904800044625461C4494ED004A94ED015A0194C7
:1090580075EEA34A304674EE244A3E4614EE90EA72
:1090680076EE666A46F808EB37EE276AD0ED014AD5
:10907800049677EE677A019E32EEA63A96ED012ABB
:1090880036EE247A75EEE35A77EEE34A36EE626AF4
:1090980077EEA37A76EEE26A73EE453A044636EE48
:1090A800456A75EE266AA34637EE027A34EE845A8C
:1090B80013EE908AA44675EEC45A87ED017A4BF8F0
:1090C800088BACF104078CED015A01F1080C2C4611
:1090D800CDF814C015EE90CA44F808CB079401F1F6
:1090E800100485ED016A520802942C4601F1180516
:1090F8000B92B246069577EEC47A023A16EE905A6B
:10910800B646304652084AF8085BA0F10406CEED90
:10911800017A089200F030819146039ADDF80880C0
:10912800CDF834A0083B02F1100501F1200CA4F1A0
:109138000C0201F1300E334410345046594655EDB7
:10914800023A14ED025A91ED007AD0ED007A15ED4D
:10915800014A54ED015AD0ED016A91ED016A33EEEE
:10916800858A34EE250A78EE074A74EE655A77EE5A
:10917800A44A33EEC55A45ED024AD1ED014A90EDB5
:10918800014A70EE244A76EE05AA74EE844A35EE5A
:10919800C7AA45ED014AD6ED001AD7ED000A92EDAF
:1091A800024AD3ED023A93ED012A16ED011AD2EDE7
:1091B800012A57ED019A70EEA14A39EE813A74EE10
:1091C800848A70EEE11A73EEA88A7AEEE6AA18EE9F
:1091D80090AA47F808A9D2ED018A93ED019A73EE97
:1091E800288A3AEE27AA78EE898A74EE630AC7EDD0
:1091F800018A18ED02BA58ED018A39EEC11A6AEEF1
:1092080028BA2AEE8BCA71EEE29A30EE819A79EE8C
:10921800829A3CEE2BCA6AEEA8AA69EEA8BA2AEE90
:109228000BAA69EE8B9A69EE288A29EE0BBA1CEE16
:1092380010AA78EEA98A41F808AB3AEE6AAA3BEE82
:10924800CBBA34EEC44A33EE623A01ED01AAC2ED5C
:10925800018A82ED02BA5CED044A74EE633A38EE94
:10926800478A1CED034A30EE460A33EE423A38EE9E
:10927800678A30EE660A23EEE49A63EE048A28EEE3
:1092880024AA60EE049A28EE048A20EE240A63EEEB
:10929800843A39EE684A7AEE299A14EE10AA30EE2A
:1092A800480A63EE244A44ED029A73EEE43A04ED68
:1092B800010A46F808A935EE466A35EE877AC6ED02
:1092C800013A76EE866A77EE677A1EED056A1EED3C
:1092D800067A67EE865A26EE875A72EE622A30EED2
:1092E800C11A72EEE12A75EE255A62EE860A66EE1A
:1092F800866A67EE877A21EE066A62EE872A21EE91
:10930800071A15EE90AA77EEE67A40F808AB30EE29
:10931800C11A76EE222AB9F1010940ED017A05F168
:10932800080583ED021AC3ED012A08F10808A2F125
:1093380008020CF1100C04F108040EF1180EA3F148
:1093480008037FF4FCAE08990298DDF834A0CB003E
:1093580001EB410200EB01110291049919440491B7
:1093680005991944059107999B4419449A44069B09
:10937800079103EBC2030693049A0798D2ED003ACB
:1093880090ED004ADBED007A9AED003AD2ED014A01
:1093980090ED017A9BED012ADAED015ABDF82C40D7
:1093A8000C9E73EE846A34EE876A36EEA75A34EE62
:1093B800C77A33EE055A33EEC44A82ED005A9BED64
:1093C800015ADAED014A36EE055A72EE043A35EEE4
:1093D800245A77EE674A82ED015A059A34EE835A89
:1093E800D2ED001AD2ED012A029A73EEE53A36EE72
:1093F800426A63EEA14A63EEA23A65EE222A25EE9E
:10940800215A74EEA22A35EE635A76EEE76ACBED5E
:10941800002A8BED015AD2ED013A92ED005A069AD4
:1094280076EEC36A36EE656A66EE854A26EE055A1A
:1094380066EEA36A26EE236A75EE666A34EE866ADD
:1094480034EE424A37EE277AC0ED016A80ED006AB1
:1094580092ED016A039877EE437A75EE845A92ED9D
:10946800007A65EE876A27EE877A65EE865A67EE98
:10947800867A77EE655A76EEA77ACAED015ACAED72
:10948800007A72682146042300F0DAF909987268B4
:109498002146042300F0D4F90A987268214604236F
:1094A80000F0CEF901987268214604230FB0BDEC94
:1094B8000A8BBDE8F04F00F0C3B900BF2DE9F041B9
:1094C800012A064617460C469846058854D0B5F535
:1094D800807F4CD016D9B5F5806F1AD05CD9B5F518
:1094E800006F44D0B5F5805F05D1204629467268E3
:1094F800012300F0A5F9B8F1000F11D1012F16D002
:10950800BDE8F081202D32D04AD9402DEDD0802DF4
:10951800F1D130462146FFF7A1FCB8F1000FEDD09C
:109528002046B189B26800F02BF9012FE8D107EE87
:10953800905AF8EE676AF7EE007AC7EEA66A002D31
:10954800DED004F10801002301339D4201F1080136
:1095580011ED047A51ED037A27EE267A67EEE67A62
:1095680001ED047A41ED037AEED1BDE8F081304691
:109578002146FFF745FDBEE7ADB101F10C0300221E
:1095880053ED027A0132F1EE677A954243ED027AA1
:1095980003F10803F4D19AE7B5F5007FA5D0AAE74F
:1095A800102DB6D0A7E7B5F5807F94D8AAE700BFFD
:1095B8002DE9F0415FEA920884B07FD0002700F1DE
:1095C800200401F1100546465AE0B1EEE70AB4EE70
:1095D800400AF1EE10FA40F0A48005ED040A54EDBB
:1095E800067A14ED050A67EEA77A20EE000A77EEF0
:1095F800807AF5EEC07AF1EE10FAC0F28F80B1EE03
:10960800E70AB4EE400AF1EE10FA40F0AF8005ED3B
:10961800030A54ED047A14ED030A67EEA77A20EEE4
:10962800000A77EE807AF5EEC07AF1EE10FA72DB76
:10963800B1EEE70AB4EE400AF1EE10FA40F08C8081
:1096480005ED020A54ED027A14ED010A67EEA77AD5
:1096580020EE000A77EE807AF5EEC07AF1EE10FA85
:1096680020DBB1EEE70AB4EE400AF1EE10FA69D158
:10967800013E05ED010A04F1200405F1100519D099
:1096880054ED087A14ED070A67EEA77A20EE000A6F
:1096980077EE807AF5EEC07AF1EE10FA95DA45F8B1
:1096A800107C9CE7013E45F8047C04F1200405F198
:1096B8001005E5D100EB481001EB081112F0030585
:1096C80026D0002600F108040CE0B1EEE70AB4EE5B
:1096D800400AF1EE10FA2ED1013D01ED010A04F124
:1096E800080415D054ED027A14ED010A67EEA77A42
:1096F80020EE000A043177EE807AF5EEC07AF1EEBA
:1097080010FAE2DA013D41F8046C04F10804E9D1E9
:1097180004B0BDE8F08145F8087C93E745F80C7C77
:1097280077E7B0EE670A039202910190FFF762FAB9
:1097380001A807C851E7B0EE670A0191FFF75AFA86
:109748000199C9E7B0EE670A039202910190FFF709
:1097580051FA01A807C88BE7B0EE670A0392029195
:109768000190FFF747FA01A807C869E7B0EE670A52
:10977800039202910190FFF73DFA01A807C846E756
:109788004B1C012B98BF70472DE9F003911C9B08D7
:10979800B1F80480B1F802900A8831F802CC80440C
:1097A800814402448444D9F80070D8F800601568F0
:1097B800DCF80040C9F80060C8F80070CCF8005028
:1097C8001460D9F80470D8F804605568DCF80440CF
:1097D800C9F80460C8F80470CCF804505460083123
:1097E800013BD5D1BDE8F00370474B1C012B98BF56
:1097F80070472DE9F003911C9B08B1F80480B1F87B
:1098080002900A8831F802CC00EB580800EB59099D
:1098180000EB520200EB5C0CD9F80070D8F800603D
:109828001568DCF80040C9F80060C8F80070CCF88A
:10983800005014600831013BDFD1BDE8F0037047E8
:109848002DE9F04F2DED108B9DB01C469FEDC8BA49
:109858001A92031D824689468B461B9300949E46A6
:109868004FEADB035A00D618F51803925A19D01894
:10987800DF0019183C46019757440C930AEBC202C3
:109888001B010AEBC10107EB040C009C02930AEBD5
:10989800C6060AEBC505043204310AEBC0004FEADC
:1098A800CB034FF00008DCED007AD7ED006AD6ED67
:1098B800003A5EED01AAD5ED004A90ED002A12EDBE
:1098C800017A51ED010A77EE828A33EEA04A76EEEC
:1098D800871A3AEEA43A31EE846A33EE285A36EE05
:1098E800C77A75EE066A35EE465A4EED016A85ED81
:1098F800005A96ED011AD7ED015A92ED00AA91EDA2
:10990800006A9EED009A95ED015ADCED016AD0EDF2
:10991800019A73EEE00A71EE462A75EECA3A37EEFE
:10992800600A33EEA28A37EE207A73EEE22A37EE27
:10993800C22A79EE053A60EE0B0A39EE455A7AEEFC
:10994800E44A36EEA99A75EE8A5A31EE066A76EE40
:10995800E96A28EE0B8A62EE8B2A67EE0B7A33EE01
:10996800683A36EE880A75EE868A36EEC87A71EE5F
:10997800C41A75EE626A33EEC94A35EEC66A33EE2A
:10998800891A74EEE05A74EEA03A75EE224A32EE65
:10999800275A72EE677A33EE068A75EE872A31EE19
:1099A800289A33EE466A74EE610A33EE802A35EE61
:1099B800C77A34EEC53A76EEE75A31EE681A34EED5
:1099C800214A73EEC03A74EE854A76EEA76AD84407
:1099D800C1458EED009A85ED011A9E448CED008AF2
:1099E8001D4480ED006ACCED010A80ED014A9C44DB
:1099F80087ED002A184441ED013A42ED012A86ED2F
:109A0800007A87ED013AC1ED004A1F44C2ED005AC1
:109A18001944C6ED016A1A441E443FF644AF0C9936
:109A28000729204640F2E98104EB44073E1935191D
:109A3800039C00902246013202EB8102009928180B
:109A480000EB010E0C990A4404EB010C4FEACE041A
:109A58000AEBC20E009A0F94ED001195D5000D95F2
:109A6800019D08351695029D0835140117950F9A22
:109A78001A9D0E94C0001090AA180792109A0C9C78
:109A8800AA180892119AAA18099201EB81010EF1FD
:109A980004020A92C9000D9A0C31F6004FEACC0074
:109AA8001491A9180E9A1296FF00AE1908304FEAC1
:109AB8000C1C06961990AA186401EE190CF10C00FA
:109AC8001397049615900391059204F108021892D1
:109AD8004FF00108002202F108010F460B91189976
:109AE8008E1816998D1817998C1819998818149921
:109AF80001EB020C15990A440399D1ED00FA059976
:109B080091ED00FA0499D1ED00EA069991ED00EA89
:109B18000999D1ED00DA089991ED00DA0799D1EDAC
:109B280000CA039991ED01CA0599D1ED01BA0499CA
:109B3800D1ED01AA069991ED01AA0999D1ED017A11
:109B48000899CDED007AD1ED017A0799CDED017A2A
:109B5800D1ED017A0AEB070E0A9FCDED027A0CEBE4
:109B68000A0156445544544450445244C44601E002
:109B7800F304353F96ED005A52ED019A11ED016A52
:109B8800D0ED007A17ED017ADEED003A94ED003A57
:109B980095ED002A9EED010A33EE858A32EE061A0B
:109BA80033EE294A77EE874A78EE041A71EE246A72
:109BB80032EE462A31EEA66A77EEC77A8EED006A53
:109BC800D0ED018A95ED019AD1ED002A97ED007A42
:109BD800D4ED010A96ED016AD2ED005A73EEC53A4A
:109BE80033EE693A39EE625A78EEC79A38EE444A4B
:109BF80038EE877A30EEA58A79EE222A75EE698AE0
:109C080032EE279A35EE295A72EE677A30EE062A36
:109C180069EE0B9A70EEE55A32EE089A68EE8B8A76
:109C280032EE482A71EE644A25EE0B5A32EE871A54
:109C380067EE8B7A72EEC72A30EE466A73EE290A0F
:109C480036EE280A33EE693A32EE647A73EEA79A52
:109C580036EE686A73EEE77A75EE858A74EE223A14
:109C680035EEC55A71EEE66A79EE411A39EEA88AE0
:109C780076EE435A74EE622A72EE244A30EE604A57
:109C880079EEE88A30EE200A77EE859A36EE036A96
:109C980077EEC57A2EEE212A2EEE265A6FEE230A8B
:109CA8002AEE213A39EE011A6AEE266A2BEE879AD5
:109CB8006BEEA33A2FEE077A6FEE841A35EE033A6D
:109CC80072EE666A2CEE045A2FEE882A9DED024A3F
:109CD8008EED011A77EE633A2CEE088A9DED017A33
:109CE80086ED003A30EE899A32EE052A6DEE220AA8
:109CF80031EEC88A67EE222A64EE001A27EE247A2B
:109D08002CEEA85A6DEE244A64EE288A9DED004A8E
:109D1800C6ED016A74EEE22A6DEEA94A64EE299A4C
:109D280024EE254A30EE877A74EE844A6EEEA70A4E
:109D38002AEE864A2CEE800A6DEEA55A6AEEA77ABC
:109D48002EEE866A75EE211A30EE680A75EEE99AEB
:109D580070EE840A36EE676ADC44E14584ED009AC9
:109D6800C4ED013A9E4402ED017AC2ED002A1E4478
:109D780085ED002A85ED018A1C4447ED011A87ED1F
:109D8800000A1A4441ED014AC1ED009A1D44C0ED94
:109D9800000A1F4480ED016A194418443FF6EAAEF0
:109DA800039A0D990A4403920E99059A0A4405925A
:109DB8001399049A0A4404921299069A0A4406923C
:109DC8001199099A0A4409921099089A0A44089222
:109DD8000F99079A0A4407920C990A9A08F1010800
:109DE800083288450A920B9A7FF475AEBDF8343074
:109DF8000093C346DDF86CE032E51DB0BDEC108B76
:049E0800BDE8F08F32
:089E0C00A18402000000000027
:109E1400BC9F020000000000C09F02000000000080
:109E2400C59F020000000000C59E0200000003035D
:109E340060A002000000030374A0020000000303FA
:109E4400889E020000000000949E0200CC5700206F
:109E540034580020FC580020045900203C580020AD
:049E640018000000E2
:109E6800FFFFFFFFFFFFFFFFFFFFFFFFFFFFFFFFFA
:109E780000000000000000000000D60106010000FC
:109E8800A96402004D650200A56402007561727440
:109E98005F6C6F675F6261636B656E6400000000F2
:109EA800285D00207F000000A85D00204261636BF0
:109EB800656E647320666C757368656400617070A4
:109EC80000000000FF9E0200489F0200079F02005A
:109ED800509F0200589F0200609F0200689F020086
:109EE800709F0200789F02002025303278002020E1
:109EF80020007C002563001B5B306D002573001B70
:109F08005B313B33316D0025734C6F67732064728E
:109F18006F70706564202825642925730D0A003C3C
:109F280025733E2025733A20000000000000000041
:109F3800999F0200809F0200889F02008D9F020067
:109F48001B5B313B33306D001B5B313B33326D00A3
:109F58001B5B313B33336D001B5B313B33346D008E
:109F68001B5B313B33356D001B5B313B33366D007A
:109F78001B5B313B33376D007761726E696E67002A
:109F8800696E666F00646562756700466174616C2E
:109F9800206572726F720053797374656D207265F3
:109FA80073657400303132333435363738394142CD
:109FB800434445465052530055415254005541526E
:109FC80054450000000000000338FDD87047465093
:109FD8005520464654206578616D706C6520737411
:109FE80061727465642E0054686973206973204631
:109FF8005055207573616765206578616D706C6573
:10A008002077697468204646542063616C63756CD8
:10A018006174696F6E20616E642064726177696E25
:10A02800672E0D0A00796573006E6F00496E7075B2
:10A03800743A2073696E65202575487A2C206E6FF6
:10A048006973653A2025732E0D0A00000C9E0200E4
:10A05800149E0200080000006E72665F7364680058
:10A068000C9E02000C9E0200080000006E72665FE3
:10A078007364685F736F63002020202020202020F5
:10A088002068282828282020202020202020202060
:10A098002020202020202020481010101010101000
:10A0A8001010101010101010848484848484848408
:10A0B8008484101010101010108181818181810119
:10A0C8000101010101010101010101010101010178
:10A0D8000101011010101010108282828282820207
:10A0E8000202020202020202020202020202020248
:10A0F80002020210101010200007032004170201AA
:10A108000857104080000000B4A2020078A10200A5
:10A118008CA2020053756E004D6F6E005475650079
:10A12800576564005468750046726900536174008D
:10A13800000000004A616E00466562004D617200D1
:10A14800417072004D6179004A756E004A756C0065
:10A1580041756700536570004F6374004E6F760059
:10A168004465630000000000414D00504D000000B0
:10A17800B0A20200ACA20200ACA20200ACA2020093
:10A18800ACA20200ACA20200ACA20200ACA2020087
:10A19800ACA20200ACA20200FFFFFFFFFFFFFFFF1F
:10A1A800FFFFFFFFFFFF0000ECA102001CA102005F
:10A1B80028A202003CA1020070A10200D0A1020066
:10A1C80080A20200DCA10200256D2F25642F2579CD
:10A1D80000000000256120256220256520255420E7
:10A1E8002559000053756E646179004D6F6E646186
:10A1F800790054756573646179005765646E657399
:10A208006461790054687572736461790046726993
:10A2180064617900536174757264617900000000AB
:10A228004A616E756172790046656272756172790C
:10A23800004D6172636800417072696C004D61790C
:10A24800004A756E65004A756C79004175677573CB
:10A25800740053657074656D626572004F63746F46
:10A26800626572004E6F76656D6265720044656363
:10A27800656D62657200000025483A254D3A255300
:10A2880000000000058C0200218C02002D8C0200C9
:10A29800398C0200558C0200618C02006D8C020022
:10A2A8007B8C0200000000002E000000430000002C
:10A2B800504F5349580000004000000040A30200DE
:10A2C800D0A2020038000000080040001000800002
:10A2D8001800C00020000001280040013000800163
:10A2E8003800C001500088005800C800600008010C
:10A2F80068004801700088017800C8019800D00003
:10A30800A0001001A8005001B0009001B800D001D1
:10A31800E0001801E8005801F0009801F800D801A1
:10A32800280160013001A0013801E0017001A80195
:10A338007801E801B801F0010000803F000000004A
:10A348006DC47E3F36BDC83DBE147B3FC2C5473E87
:10A358000BFA743F31A0943E5E836C3F15EFC33E09
:10A3680098C5613FEA5AF13E31DB543FDA390E3F76
:10A3780003E4453F9967223FF304353FF304353F33
:10A388009967223F03E4453FDA390E3F31DB543FFA
:10A39800EA5AF13E98C5613F15EFC33E5E836C3FB4
:10A3A80031A0943E0BFA743FC2C5473EBE147B3FB2
:10A3B80036BDC83D6DC47E3F000000000000803FF0
:10A3C80036BDC8BD6DC47E3FC2C547BEBE147B3F07
:10A3D80031A094BE0BFA743F15EFC3BE5E836C3F89
:10A3E800EA5AF1BE98C5613FDA390EBF31DB543FF6
:10A3F800996722BF03E4453FF30435BFF304353FB3
:10A4080003E445BF9967223F31DB54BFDA390E3F79
:10A4180098C561BFEA5AF13E5E836CBF15EFC33E33
:10A428000BFA74BF31A0943EBE147BBFC2C5473E31
:10A438006DC47EBF36BDC83D000080BF000000006F
:10A448006DC47EBF36BDC8BDBE147BBFC2C547BE86
:10A458000BFA74BF31A094BE5E836CBF15EFC3BE08
:10A4680098C561BFEA5AF1BE31DB54BFDA390EBF75
:10A4780003E445BF996722BFF30435BFF30435BF32
:10A48800996722BF03E445BFDA390EBF31DB54BFF9
:10A49800EA5AF1BE98C561BF15EFC3BE5E836CBFB3
:10A4A80031A094BE0BFA74BFC2C547BEBE147BBFB1
:10A4B80036BDC8BD6DC47EBF00000080000080BFEF
:10A4C80036BDC83D6DC47EBFC2C5473EBE147BBF06
:10A4D80031A0943E0BFA74BF15EFC33E5E836CBF88
:10A4E800EA5AF13E98C561BFDA390E3F31DB54BFF5
:10A4F8009967223F03E445BFF304353FF30435BFB2
:10A5080003E4453F996722BF31DB543FDA390EBF78
:10A5180098C5613FEA5AF1BE5E836C3F15EFC3BE32
:10A528000BFA743F31A094BEBE147B3FC2C547BE30
:08A538006DC47E3F36BDC8BDB5
:10A54000000000000020004000000000002000404B
:10A550000000000000000000FF0000000090D00399
:10A5600010A1020010A1020010A1020010A102001F
:08A5700010A10200010000002F
:0400000320006379FD
:00000001FF
