:100000000000042079030000610300006303000086
:1000100065030000670300006903000000000000A2
:100020000000000000000000000000006B03000062
:100030006D030000000000006F030000710300006A
:1000400073030000730300007303000073030000D8
:1000500073030000730300007303000073030000C8
:1000600073030000730300007303000073030000B8
:1000700073030000730300007303000073030000A8
:100080007303000073030000730300007303000098
:100090007303000073030000730300007303000088
:1000A0007303000073030000730300007303000078
:1000B0007303000073030000000000000000000054
:1000C0007303000073030000730300007303000058
:1000D0007303000073030000730300007303000048
:1000E00073030000730300007303000000000000AE
:1000F0000000000073030000000000007303000014
:1001000000000000000000000000000000000000EF
:1001100000000000000000000000000000000000DF
:1001200000000000000000000000000000000000CF
:1001300000000000000000000000000000000000BF
:1001400000000000000000000000000000000000AF
:10015000000000000000000000000000000000009F
:10016000000000000000000000000000000000008F
:10017000000000000000000000000000000000007F
:10018000000000000000000000000000000000006F
:10019000000000000000000000000000000000005F
:1001A000000000000000000000000000000000004F
:1001B000000000000000000000000000000000003F
:1001C000000000000000000000000000000000002F
:1001D000000000000000000000000000000000001F
:1001E000000000000000000000000000000000000F
:1001F00000000000000000000000000000000000FF
:10020000364937480A1A02D0072291438D463549AC
:1002100035480A1A06D00722914381F30988022241
:1002200082F3148831483249324A00F045F83248A6
:100230003249334A00F040F832483349334A00F03B
:100240003BF833483349344A00F036F833483449F0
:10025000344A00F031F834483449354A00F02CF87B
:1002600034483549354A00F027F8354835490022E9
:1002700000F02DF834483549002200F028F83448C1
:100280003449091A082903DB0022026004300160A6
:10029000314A90471F482049884205D002680430FF
:1002A00003B4904703BCF7E700208646EC460020E5
:1002B00000212A4A9047FEE7884207D0521A05D00B
:1002C000037801300B700131013AF9D1704788424F
:1002D00002D002700130FAE77047000000000420ED
:1002E00000E003200000042000000420AC06000011
:1002F0000000002004000020D8030000D803000004
:100300009C060000AC060000000000200000002059
:100310009C0600009C0600009C0600009C06000055
:100320009C0600009C0600009C0600009C06000045
:10033000AA060000B006000004000020040000200F
:10034000040000200400002004000020040000201D
:100350000400002004200020A1030000D9030000B5
:10036000FEE7FEE7FEE7FEE7FEE7FEE7FEE7FEE765
:10037000FEE7FEE7704700BF1048804710484FF087
:100380000701884385460F4880470F48016841F4BC
:1003900070010160BFF34F8FBFF36F8FFFF730BF66
:1003A0000A480B490B4A884207D0521A05D00378F5
:1003B00001300B700131013AF9D17047750300002B
:1003C00000000420E504000088ED00E09C06000029
:0803D0000000002000000020E5
:1003D80070B50120094D00F051F845F001050024E1
:1003E800204600F031F84FF4FA764FF47A40A847E7
:1003F800013EFAD10134042CF2D1F0E7A006000046
:10040800074B1B5C1F2B86BF03F01F0305494FF0EA
:10041800A041012202FA03F3C1F80835704700BF72
:10042800A60600000003005008B50020FFF7E8FF0B
:100438000120FFF7E5FF0220FFF7E2FF0320BDE8F8
:100448000840FFF7DDBF00000A4B185C1F288ABF71
:10045800094B4FF0A04300F01F00D3F804250121F9
:10046800814021EA02000A40C3F80805C3F80C25B8
:10047800704700BFA606000000030050C20710B571
:1004880004460CD54FF0A0430322C3F83427C3F821
:100498003827C3F83C27C3F84027FFF7C5FFA30751
:1004A8000AD54FF0A0430C22C3F82C27C3F83027F5
:1004B800C3F86027C3F8642710BD0000054B1B680C
:1004C800082B01BF044B1868B0FA80F0400918BF28
:1004D80000207047300100103401001008B54FF0BB
:1004E80080430022C3F80C21C3F81021C3F8382533
:1004F8004FF0805203F54043D2F80414C3F8201596
:10050800D2F80814C3F82415D2F80C14C3F8281527
:10051800D2F81014C3F82C15D2F81414C3F83015F7
:10052800D2F81814C3F83415D2F81C14C3F84015BF
:10053800D2F82014C3F84415D2F82414C3F8481587
:10054800D2F82814C3F84C15D2F82C14C3F8501557
:10055800D2F83014C3F85415D2F83414C3F860151F
:10056800D2F83814C3F86415D2F83C14C3F86815E7
:10057800D2F84014C3F86C15D2F84424C3F8702597
:10058800FFF79CFF10B1384B384A1A60FFF796FF07
:1005980018B1374BFB22C3F81825FFF78FFF48B176
:1005A8003449354B0A681B6822F00F0203F00F0329
:1005B80013430B60FFF782FF18B1304B4FF4007202
:1005C8001A604FF08043D3F80024D20744BF6FF07D
:1005D8000102C3F800242A4AD2F8883043F4700391
:1005E800C2F88830BFF34F8FBFF36F8F4FF01023DF
:1005F800D3F80022002A03DBD3F80432002B2FDAC9
:10060800204B0122C3F80425D3F80024002AFBD08C
:100618004FF010221221C2F80012D3F80024002A49
:10062800FBD04FF010231222C3F80422154B1A46B0
:10063800D3F800140029FBD00021C3F80415D2F820
:100648000034002BFBD0BFF34F8F0D490E4BCA6807
:1006580002F4E0621343CB60BFF34F8F00BFFDE7A6
:100668000A4B0B4A1A6008BD8C56004048810300AB
:1006780000F00040E40E004058020010409602408E
:1006880000ED00E000E001400400FA050000002051
:040698000090D003FB
:0E069C00000000000338FDD870470D0E0F104F
:0406AC000090D003E7
:04000003000003797D
:00000001FF
