:10000000000004207903000061030000B513000024
:1000100065030000670300006903000000000000A2
:100020000000000000000000000000006B03000062
:100030006D030000000000006F030000710300006A
:10004000D132000073030000E132000073030000AE
:100050007303000073030000B12B00007303000062
:1000600073030000730300007303000073030000B8
:1000700073030000730300007303000073030000A8
:1000800073030000391100007303000073030000C4
:100090007911000073030000730300007303000074
:1000A0007303000073030000730300007303000078
:1000B0007303000073030000000000000000000054
:1000C0007303000073030000730300007303000058
:1000D0007303000073030000730300007303000048
:1000E00073030000730300007303000000000000AE
:1000F0000000000073030000000000007303000014
:1001000000000000000000000000000000000000EF
:1001100000000000000000000000000000000000DF
:1001200000000000000000000000000000000000CF
:1001300000000000000000000000000000000000BF
:1001400000000000000000000000000000000000AF
:10015000000000000000000000000000000000009F
:10016000000000000000000000000000000000008F
:10017000000000000000000000000000000000007F
:10018000000000000000000000000000000000006F
:10019000000000000000000000000000000000005F
:1001A000000000000000000000000000000000004F
:1001B000000000000000000000000000000000003F
:1001C000000000000000000000000000000000002F
:1001D000000000000000000000000000000000001F
:1001E000000000000000000000000000000000000F
:1001F00000000000000000000000000000000000FF
:10020000364937480A1A02D0072291438D463549AC
:1002100035480A1A06D00722914381F30988022241
:1002200082F3148831483249324A00F045F83248A6
:100230003249334A00F040F832483349334A00F03B
:100240003BF833483349344A00F036F833483449F0
:10025000344A00F031F834483449354A00F02CF87B
:1002600034483549354A00F027F8354835490022E9
:1002700000F02DF834483549002200F028F83448C1
:100280003449091A082903DB0022026004300160A6
:10029000314A90471F482049884205D002680430FF
:1002A00003B4904703BCF7E700208646EC460020E5
:1002B00000212A4A9047FEE7884207D0521A05D00B
:1002C000037801300B700131013AF9D1704788424F
:1002D00002D002700130FAE77047000000000420ED
:1002E00000E003200000042000000420105B000058
:1002F0000000002018000020D8030000D8030000F0
:100300008E530000105B0000000000200000002061
:10031000B8530000B8530000B8530000B8530000B1
:10032000B8530000B8530000B8530000B8530000A1
:100330000D5B0000285B0000180000201800002062
:1003400018000020200300202003002020030020AC
:100350002003002020230020A1030000F14C000016
:10036000FEE7FEE7FEE7FEE7FEE7FEE7FEE7FEE765
:10037000FEE7FEE7704700BF1048804710484FF087
:100380000701884385460F4880470F48016841F4BC
:1003900070010160BFF34F8FBFF36F8FFFF730BF66
:1003A0000A480B490B4A884207D0521A05D00378F5
:1003B00001300B700131013AF9D17047750300002B
:1003C00000000420154E000088ED00E0B853000046
:0803D0000000002000000020E5
:1003D80000B583B00190019B1B682F2B04D90B49F2
:1003E8004FF4E87001F048F8019B1B681F2B02D8F6
:1003F8004FF0A04306E0019B1B6803F01F02019B1E
:100408001A60034B184603B05DF804FBB8530000AC
:100418000003005000B585B00190084611461A4601
:1004280003468DF803300B468DF8023013468DF8DD
:10043800013001AB1846FFF7CBFF03909DF803206E
:100448009DF802305B001A439DF801309B001A4367
:100458009DF818301B0242EA03019DF81C301B046A
:10046800019A1943039B02F5E07243F8221000BF7A
:1004780005B05DF804FB00B585B003900023019337
:10048800002300930023012201210398FFF7C2FFF4
:1004980000BF05B05DF804FB00B585B003900B46BE
:1004A8008DF80B309DF80B20002301930023009357
:1004B8001346002200210398FFF7ACFF00BF05B0E8
:1004C8005DF804FB00B585B0019001AB1846FFF755
:1004D8007FFF0390019B012202FA03F31946039858
:1004E80000F02AF800BF05B05DF804FB00B585B040
:1004F800019001AB1846FFF76BFF0390019B0122A7
:1005080002FA03F31946039800F020F800BF05B07B
:100518005DF804FB00B583B001900091009B002BAF
:1005280003D10198FFF7E2FF02E00198FFF7CAFF45
:1005380000BF03B05DF804FB82B001900091019BFD
:10054800009AC3F8082500BF02B0704782B0019036
:100558000091019B009AC3F80C2500BF02B07047B8
:1005680000B583B00190019B032B03D907494720AD
:1005780000F082FF064A019B13441B7801211846AC
:10058800FFF7C8FF00BF03B05DF804FBE8530000A5
:100598003454000000B583B00023019305E00198AE
:1005A800FFF7DEFF019B01330193019B032BF6D973
:1005B80000BF03B05DF804FB00B583B000230193CE
:1005C80009E0094A019B13441B781846FFF753FFBB
:1005D800019B01330193019B032BF2D9FFF7DAFF4B
:1005E80000BF03B05DF804FB3454000000B583B0CD
:1005F800002301930AE0094A019B13441B78032155
:100608001846FFF749FF019B01330193019B032B18
:10061800F1D900BF03B05DF804FB00BF38540000F7
:1006280000B583B00190019B03F00103002B01D0BA
:10063800FFF7C2FF019B03F00203002B01D0FFF775
:10064800D5FF00BF03B05DF804FB000086B003903F
:100658000291019201238DF817309DF817301F4A37
:10066800039B13601D4A029B53601C4A019B9360C5
:10067800039B44F20102934212D044F202029342D5
:1006880021D1019B154AD360144BDB681B881A469D
:10069800124B9A61114BDB685B68104AD36112E018
:1006A800019B0E4A13610D4B1B699B680B4A5361F2
:1006B8000A4B1B691B68094A9361084B1B695B68F5
:1006C800064AD36100BF72B600BF9DF81730DBB28F
:1006D800002BFAD162B600BF06B0704718000020A0
:1006E80000B583B002900091019244F20100714676
:1006F8006A4600F003F803B000BD00BF00B587B03C
:1007080003900291019272B6039B44F20102934254
:1007180007D044F20202934200D005E0019B059302
:1007280002E0019B049300BF074B1B6803F0010321
:10073800002B00D000BE019A02990398FFF786FFAC
:1007480000BF07B05DF804FBF0ED00E082B003469F
:100758008DF807309DF8073003F01F0205499DF911
:1007680007305B09012000FA02F241F8232000BF9C
:1007780002B0704700E100E082B003468DF8073010
:100788009DF8073003F01F0206499DF907305B0901
:10079800012000FA02F2203341F8232000BF02B002
:1007A800704700BF00E100E082B003468DF80730D3
:1007B8009DF8073003F01F0206499DF907305B09D1
:1007C800012000FA02F2403341F8232000BF02B0B2
:1007D800704700BF00E100E082B003468DF80730A3
:1007E8009DF8073003F01F0206499DF907305B09A1
:1007F800012000FA02F2603341F8232000BF02B062
:10080800704700BF00E100E082B0034600918DF818
:1008180007309DF90730002B0CDA009BDAB20C493F
:100828009DF8073003F00F03043B5201D2B20B448A
:100838001A7609E0009BDAB206499DF907305201A1
:10084800D2B20B4483F8002300BF02B0704700BF48
:1008580000ED00E000E100E000B585B00190019BEB
:10086800002B0AD0074B43F001030393019B9B0124
:100878000293039B0298984700E000BF05B05DF81B
:1008880004FB00BF4054000000B583B00190064A45
:10089800019BC2F8083506211120FFF7B5FF00BFFC
:1008A80003B05DF804FB00BF0010014008B50D4B14
:1008B8004FF48032C3F844230A4B4FF48032C3F814
:1008C80004231120FFF788FF1120FFF73FFF054B96
:1008D80001221A602F20FFF7BFFF034B01221A7075
:1008E80000BF08BD001001405601002008B51120C6
:1008F800FFF742FF0E4B4FF48032C3F848230C4BEE
:100908004FF48032C3F80823094B01225A602F2084
:10091800FFF7A2FF064B01229A60064B00221A60DD
:100928002F20FFF799FF044B00221A7000BF08BD63
:10093800001001404801002056010020024BD3F866
:1009480004351846704700BF0010014082B001907E
:100958000091019A009BD31A23F07F43184602B0F6
:100968007047000082B00190034A019BC2F84035ED
:1009780000BF02B0704700BF0010014086B0019070
:10098800284B1B68002B03D1264A019B136045E0C6
:10099800019B1A68234B1B681B689A4210D8214B8D
:1009A8001B681968019B1A681E4B1B688A1A1A6013
:1009B8001C4B1A68019BDA611A4A019B13602DE0EF
:1009C800019B1B680393174B1B680593154B1B680A
:1009D800049309E0049B1B68039AD31A0393049BAE
:1009E8000593049BDB690493049B002B04D0049BB0
:1009F8001B68039A9A42EDD8049B002B05D0049BF0
:100A08001A68039BD21A049B1A60019B039A1A6006
:100A1800019B049ADA61059B019ADA6100BF06B06E
:100A2800704700BF4401002000B587B001902A4BF1
:100A38001B680393284B1B680593059B049308E0E8
:100A4800049A019B9A4208D0049B0593049BDB6996
:100A58000493049B002BF3D100E000BF049B002B00
:100A680001D1002333E0059A049B9A4214D11A4B12
:100A78001B68DB69184A1360174B1B68002B0BD1E6
:100A8800164B01229A60164B00221A60154B012260
:100A98001A702F20FFF7E0FE049B1B680293049B4B
:100AA800DA69059BDA61059BDB690493049B002BDB
:100AB80005D0049B1A68029B1A44049B1A60064BD3
:100AC8001B68039A9A4214BF01230023DBB218461D
:100AD80007B05DF804FB00BF44010020001001408E
:100AE800480100205701002008B51120FFF75CFEDF
:100AF80000BF08BD08B51420FFF756FE00BF08BDAB
:100B080000B583B00190019B5B69019A9269104618
:100B1800984700BF03B05DF804FB000000B585B03E
:100B28002B4B1B68002B4ED000230193FFF706FFC9
:100B38000246284B1B6819461046FFF707FF02902C
:100B4800234B1B6803931DE0039B1B68029A9A4280
:100B58001CD3039B1B68029AD31A0293039B1B683E
:100B6800019A13440193039B0093039BDB6903934E
:100B7800009B1B7C002B05D0009B00221A74009858
:100B8800FFF7BEFF039B002BDED100E000BF124B36
:100B98001A78124B1B789A420CD1104B1B780133F0
:100BA800DAB20E4B1A700D4B1B78022B02D10B4B8D
:100BB80000221A70094B1B781946094A019B42F812
:100BC8002130FFF797FF00BF05B05DF804FB00BFB9
:100BD8004401002048010020540100205501002054
:100BE8004C01002082B00190184B1A78184B1B78E2
:100BF8009A4223D0154B1B780133DAB2134B1A7083
:100C0800124B1B78022B02D1104B00221A700F4B8B
:100C18001B781A460F4B53F82220019B1A60019B40
:100C28001A680D4B1B6813440B4A13600A4B1B6868
:100C380023F07F43084A1360012303E0019B00224D
:100C48001A600023184602B0704700BF5401002004
:100C5800550100204C0100204801002088B0039075
:100C6800029101920023079338E0204B1B680693FA
:100C7800069B1B68039A9A4206D2069B1A68039B36
:100C8800D21A069B1A602DE0069B1B68039AD31A9A
:100C98000393069B1B68079A13440793069B00223D
:100CA8001A60124B1B680593069BDB690F4A136099
:100CB800069BDB68002B11D0029A079B134423F094
:100CC8007F42069B5A60069BDA68069B9A60019BE6
:100CD8001A68069BDA61019B059A1A60034B1B6828
:100CE800002BC2D100BF08B0704700BF44010020EC
:100CF80000B589B0019000238DF81F30664B1B6842
:100D08000593AAE0019B002B05D0019B0693069B47
:100D1800DB69019361E0614B1B781A4613465B005F
:100D28001344DB005D4A1344043304935B4B1B7884
:100D38000133DAB2594B1A70584B1A78574B9B78D3
:100D48009A4202D1554B00221A70049B5B680693A5
:100D5800049B1B78022B04D0032B1BD0012B1FD024
:100D68001DE0049B5B681846FFF75EFE0346002BF8
:100D780002D001238DF81F30069B00221A746CE004
:100D8800454B1B680393039B00221A74039BDB6982
:100D9800414A1360404B1B68002BF1D15DE05CE0D9
:100DA80000BF069B1B7C002B00D056E0049B9A6872
:100DB800069B5A60049BDA68069B9A60049B1A6932
:100DC800069BDA60049B5A69069B9A61344B1B7830
:100DD800002B02D0069B00225A60069B5A68314BB2
:100DE8001B68D31A23F07F432F4A93420ED8069BE1
:100DF8005A682C4B1B6819461046FFF7A7FD024698
:100E0800069B9B681A44069B1A6017E0254B1A68D4
:100E1800069B5B6819461046FFF798FD0290069BF3
:100E28009B68029A9A4206D2069B9A68029BD21A3B
:100E3800069B1A6002E0069B00221A60069B0022AD
:100E48005A60069B00229A60069B01221A74069B30
:100E58000022DA610698FFF791FD019B002B7FF4D1
:100E680051AF0E4B1A780D4B5B789A427FF44AAF1C
:100E78009DF81F30002B04D1074B1B68059A9A4236
:100E880001D0012300E0002303F00103DBB2184680
:100E980009B05DF804FB00BF4401002038000020C1
:100EA8005701002048010020FEFF7F0010B588B0E0
:100EB8000190274B1B68002B44D0254B1B681B68EF
:100EC8000793FFF73BFD0690224B1B680593059996
:100ED8000698FFF73BFD0346033304931E4B1B782C
:100EE80083F00103DBB2002B01D0FFF7DFFC049A8B
:100EF800079B934238BF1346059A13440593059BF5
:100F080023F07F4305930598FFF72CFDFFF716FDA7
:100F1800039006990398FFF719FD0346DC1C069910
:100F28000598FFF713FD03469C420DD9FFF706FD10
:100F380003461846FFF716FD2F20FFF78DFCFFF735
:100F4800D3FD01E0FFF7D2FC00BF08B010BD00BF21
:100F580044010020480100205601002000B587B058
:100F68000023019300238DF81730194B1B68049355
:100F7800184B1B6803936B461846FFF733FE03466E
:100F88008DF80B309DF80B30002B08D0009B01AA80
:100F980004991846FFF762FE01238DF81730019B6C
:100FA8001846FFF7A5FE0346002B02D001238DF853
:100FB80017309DF81730002B02D00398FFF776FF03
:100FC800054B00221A7000BF07B05DF804FB00BF94
:100FD80048010020440100205701002082B0034648
:100FE8008DF80730034A9DF80730537000BF02B0F0
:100FF800704700BF3800002084B00190144B5B7824
:1010080001338DF80F30124B9B789DF80F209A42D0
:1010180002D100238DF80F300D4B1B789DF80F205F
:101028009A4201D100230FE0019B9DF80F201A700E
:10103800074B5B781A4613465B001344DB00044AEF
:10104800134404330293029B184604B0704700BF50
:101058003800002000B589B00390029101920093F6
:1010680000230793002000F059F90DF117031846E3
:10107800FFF7C2FF0690069B002B02D104230793BB
:1010880018E0069B01221A70069B039A5A60FFF724
:1010980055FC0246069B9A60069B029ADA60069BFC
:1010A800019A1A61069B009A5A619DF817301846F2
:1010B800FFF794FF002000F045F9079B002B01D1B2
:1010C800FFF718FD079B184609B05DF804FB00B54B
:1010D80087B001900B468DF803300023059300205C
:1010E80000F01CF90DF10F031846FFF785FF049077
:1010F800049B002B02D1042305930BE0049B9DF86D
:1011080003201A70049B019A5A609DF80F30184604
:10111800FFF764FF002000F015F9059B002B01D1B3
:10112800FFF7E8FC059B184607B05DF804FB0000D4
:1011380008B50E4B0022C3F840210C4B0022C3F81F
:1011480044210A4B0022C3F84821084B0022C3F867
:101158004C21064B0022C3F80021044B0022C3F89F
:101168000421FFF7DBFC00BF08BD00BF00100140F1
:1011780008B5FFF7F3FE00BF08BD000008B5FFF78C
:10118800B5FB134B00221A70114B00225A70104BFA
:101198000B229A700F4B00221A600F4B00221A7014
:1011A8000E4B00221A701420FFF716FB062114209C
:1011B800FFF72AFB1420FFF7C9FA0020FFF764FBAA
:1011C800FFF7BCFB0246064B1A600023184608BD11
:1011D800380000204401002054010020550100205F
:1011E8004801002086B003900B4601928DF80B3021
:1011F800134B9B78002B01D108231EE0019B002B89
:1012080001D1072319E0039B002B01D1072314E028
:10121800039B1B681B7C002B01D008230DE0039B5C
:101228001B680593059B00221A74059B9DF80B20EB
:101238005A74059B019A5A610023184606B07047F4
:101248003800002000B587B0039002910192039BFB
:101258000593144B9B78002B01D108231EE0039BB8
:10126800002B01D1082319E0029B042B01D8072386
:1012780014E0059B5B69002B01D108230EE0059B58
:101288005B7C012B01D1029B00E000230493019BAE
:10129800049A02990598FFF7DDFE0346184607B041
:1012A8005DF804FB3800002000B585B00190019B73
:1012B80003930D4B9B78002B01D1082310E0019B71
:1012C800002B03D0039B5B69002B01D1082307E0A7
:1012D800039B00221A7402210398FFF7F8FE0346C5
:1012E800184605B05DF804FB3800002072B6034BC1
:1012F8001B680133014A136000BF70475801002082
:10130800054B1B68013B044A1360034B1B68002B09
:1013180000D162B600BF70475801002000B583B005
:10132800019000F025F80346012B03D0044943201F
:1013380000F0A2F8FFF7DAFF00BF03B05DF804FB86
:101348004854000000B583B003468DF8073000F01C
:101358000FF80346012B03D00449512000F08CF804
:10136800FFF7CEFF00BF03B05DF804FB4854000050
:1013780084B0EFF305830193019BC3F30803039340
:10138800039B002B0DD1EFF314830093009B029372
:10139800029B03F00103002B0CBF01230023DBB2E7
:1013A80000E00123184604B0704700001EF0040F47
:1013B8001CBFEFF309800AE0EFF308800549064AED
:1013C800884201D8904202D88D464FF00000034B66
:1013D800184700000000042000E003202514000046
:1013E80000BF00BFBFF34F8F054BDB6803F4E0621B
:1013F8000349044B1343CB60BFF34F8F00BFFDE796
:1014080000ED00E00400FA0500B583B00190FFF795
:10141800E9FF00BF03B05DF804FB000000B587B02A
:101428000190019B0493124B9B6A0393104BDB6A58
:10143800002305930AE00122059B02FA03F31A46EA
:10144800039B1340002B059B01330593059B192B28
:10145800F1D9084B1B6803F00103002B00D000BE34
:101468000198FFF7D1FF00BF07B05DF804FB00BF8C
:1014780000ED00E0F0ED00E000B585B00346009116
:10148800ADF80630BDF80630ADF80830009B039380
:1014980002AB1A46002144F20200FFF72FF900BF01
:1014A80005B05DF804FB10B487B001900091019B72
:1014B800009A53E8004F104643E8000191F0000FEE
:1014C800F7D1059404900391059B184607B05DF881
:1014D800044B704700B583B001900091019B002B2D
:1014E80003D108497720FFF7C7FF019B9B68009A43
:1014F8009A4202D2009B013300E00023184603B051
:101508005DF804FBA854000084B00190019B1B689F
:101518001B680393019B1B685B680293029A039BF9
:101528009A4203D3029A039BD31A06E0019B9A6856
:10153800039BD21A029B13440133184604B0704728
:1015480010B58AB0039002910192039800F0B6F9A1
:101558000990039B9A68039B1B685B68D31A013345
:101568000893039B5B681946039B1B685B68039A97
:10157800D26802FB03F30B440793019A089B9A4233
:101588001DD8039BDB68019A02FB03F31A460299F4
:10159800079803F06CFE039B1B685A68019B1A446A
:1015A800039B9B689A4205D8039B1B685A68019B5A
:1015B800134400E00023039A126853602FE0039B52
:1015C800DA68089B02FB03F30693069A02990798C8
:1015D80003F04DFE019A089BD31A0593039B5868A4
:1015E800029A069B13441946039BDB68059A02FB83
:1015F80003F31A4603F03BFE039B1B68059A5A60E7
:10160800099A019B9A420AD2039B1B685A68039B5A
:101618001C6811460398FFF75DFF03462360039893
:10162800FFF772FF0490039B1B689B68049A9A4219
:1016380003D9039B1B68049A9A6000BF0AB010BDC7
:1016480000B587B0039002910192039B002B04D14F
:101658001C494FF4B470FFF70FFF029B002B04D115
:10166800184940F26910FFF707FF019B0593019B9A
:10167800002B01D1002321E00020FFF74FFE039B40
:101688001B7C002B07D1039B9B68019A934228BFC0
:101698001346019309E0039800F010F90490019AA9
:1016A800049B934228BF13460193019A0299039819
:1016B800FFF746FF0020FFF745FE019B184607B0DD
:1016C8005DF804FBA854000000B58BB003900291AC
:1016D8000192039B1B681B680993039B1B685B684B
:1016E8000893099A089B9A4203D8089A099BD31A27
:1016F80004E0039B9A68099BD31A01330793039B61
:101708005B681946039BDB68099A02FB03F30B44E9
:101718000693019A079B9A4219D8039BDB68019AA2
:1017280002FB03F31A460699029803F0A0FD099AF2
:10173800019B1A44039B9B689A4203D8099A019B10
:10174800134400E00023039A1268136020E0039B0F
:10175800DA68079B02FB03F30593059A069902983A
:1017680003F085FD019A079BD31A0493029A059BFF
:1017780013441846039B5968039BDB68049A02FBD1
:1017880003F31A4603F073FD039B1B68049A1A605F
:1017980000BF0BB05DF804FB00B587B00390029161
:1017A8000192039B002B04D1164940F2D510FFF794
:1017B80063FE029B002B04D112494FF4EB70FFF734
:1017C8005BFE019B0593019B002B01D1002315E0D3
:1017D8000020FFF7A3FD0398FFF796FE0490019AF7
:1017E800049B934228BF13460193019A02990398D8
:1017F800FFF76AFF0020FFF7A5FD019B184607B019
:101808005DF804FBA854000000B583B00190019B6B
:10181800002B04D10A4940F2EF10FFF72DFE0020FB
:10182800FFF77CFD019B1B680C220021184603F082
:1018380047FD0020FFF786FD00BF03B05DF804FBFD
:10184800A854000000B585B00190019B002B04D17D
:10185800094940F2FD10FFF70FFE0020FFF75EFD7B
:101868000198FFF751FE03900020FFF76BFD039BE3
:10187800184605B05DF804FBA854000000B585B013
:101888000190019B002B04D10B4940F20A20FFF77D
:10189800F3FD019B1B681B680393019B1B685B6836
:1018A8000293039A029B9A420CBF01230023DBB2E6
:1018B800184605B05DF804FBA854000010B582B0C6
:1018C8000190019B002B04D1074940F21220FFF739
:1018D800D3FD019B9C680198FFF7B4FF0346E31A08
:1018E800184602B010BD00BFA854000082B0019095
:1018F800019B03F06043B3F1005F0CBF0123002399
:10190800DBB2184602B0704700B587B00390029169
:1019180013468DF8073000230593039B1B781A465E
:10192800114B9B5C002B09D0039B04339DF80720C7
:101938000299184602F0D0FE05900FE0039B1B7831
:101948001A46094B9B5C002B08D1039B0C339DF86E
:1019580007200299184602F053F80590059B18468F
:1019680007B05DF804FB00BF8401002000B585B016
:10197800019000238DF80F30019B1B781A46114BFC
:101988009B5C002B08D0019B0433184602F04EFFE5
:1019980003468DF80F300EE0019B1B781A46094B61
:1019A8009B5C002B07D1019B0C33184602F0B0F862
:1019B80003468DF80F309DF80F30184605B05DF8D6
:1019C80004FB00BF8401002000B587B0039002919A
:1019D80013468DF8073000230593039B1B781A469E
:1019E800114B9B5C002B09D0039B04339DF8072007
:1019F8000299184602F032FF05900FE0039B1B780E
:101A08001A46094B9B5C002B08D1039B0C339DF8AD
:101A180007200299184602F0D3F80590059B18464E
:101A280007B05DF804FB00BF8401002000B583B057
:101A38000190019B1B781A460C4B9B5C002B05D030
:101A48000B4940F25A20FFF717FD0BE0019B1B786A
:101A58001A46064B9B5C002B04D1019B0C3318469D
:101A680002F0BCF900BF03B05DF804FB840100205C
:101A78000055000000B583B00190019B002B03D1F5
:101A880006497220FFF7F8FC019B00221A60BFF399
:101A98005F8F00BF03B05DF804FB00BF3C5500003A
:101AA80000B585B00190019B002B03D10A49852020
:101AB800FFF7E2FC01210198FFF7F5FC0390BFF363
:101AC8005F8F039B002B0CBF01230023DBB218465A
:101AD80005B05DF804FB00BF3C55000000B583B0BD
:101AE8000190019B002B03D10A499220FFF7C4FC07
:101AF800019B1B68012B03D006499320FFF7BCFC10
:101B0800BFF35F8F019B00221A6000BF03B05DF82E
:101B180004FB00BF3C55000000B583B001900B46A4
:101B28008DF80330019B5B691B68DB68002B08D0CC
:101B3800019B5B691B68DB689DF8032011460198CF
:101B4800984700BF03B05DF804FB00B583B001906F
:101B5800019B5B691B681B78002B0BD0019B5B69A1
:101B68001B681B69002B06D0019B5B691B681B69FE
:101B7800984700E000BF03B05DF804FB00B58DB0E6
:101B880003900291019200230B93039B5B691B68EE
:101B98001B78002B15D1019BFF2B28BFFF230B932C
:101BA800039B0B9AD2B202991846FFF7ADFE059037
:101BB800059B002B03D022496920FFF75DFC0B9B96
:101BC8003AE0039B5B691B685B685B680A93039B4D
:101BD8005B691B689B680993019A02990A98FFF749
:101BE8002FFD0890039B1846FFF7C0FE0346002B05
:101BF80001D0089B20E0099B1968099B1B7A1A46AB
:101C08000A98FFF7C9FD0790079B002B03D10C49E1
:101C18007820FFF731FC0398099B1B68079AD2B21A
:101C28001946FFF771FE0690069B002B03D0044966
:101C38007A20FFF721FC089B18460DB05DF804FBDD
:101C48007455000000B58BB001900091009B09937A
:101C5800019B1B78012B04D0022B36D0002B39D0E6
:101C680069E0099B5B691B685B681B680893019BBB
:101C78005968019B1B7A1A460898FFF7E1FC079000
:101C8800019B1B7A1A46079B934204D203210998A9
:101C9800FFF742FF4FE001210998FFF73DFF099B3D
:101CA8005B691B689B6806930998069B5968069BA5
:101CB8005B7A1A46FFF788FE0590059B002B35D006
:101CC8001F499B20FFF7D8FB30E002210998FFF756
:101CD80023FF30E0099B5B691B685B685B680493C2
:101CE800099B5B691B689B68039300210998FFF7B0
:101CF80013FF039B1968039B1B7A1A460498FFF786
:101D08004BFD0290029B002B12D00998039B1B6885
:101D1800029AD2B21946FFF7F7FD0590059B002BF2
:101D280008D00749B220FFF7A7FB03E000BF02E095
:101D380000BF00E000BF00BF0BB05DF804FB00BFB0
:101D48007455000000B58FB0039002910192039B77
:101D5800002B05D0029B002B02D0019B002B03D146
:101D68005449BF20FFF788FB039B5B691B68002B66
:101D780001D0852399E0019B1B78002B0BD0019B98
:101D88005B68002B03D0019B9B68002B03D149495A
:101D9800C920FFF771FB05AB20220299184603F012
:101DA80066FA039B0993019B1B78022B0CBF012346
:101DB8000023DBB28DF831300398019B1B78002B90
:101DC80001D03D4A00E0002205AB194600F070FB47
:101DD8000D900D9B002B01D00D9B66E0039B5B696A
:101DE800019A1A60039B5B691B685B68002B0FD024
:101DF800039B5B691B685B685B681846FFF704FD1B
:101E0800039B5B691B685B681B681846FFF7FCFC53
:101E1800039B5B6908331846FFF72CFE039B5B693D
:101E280004331846FFF726FE039B5B6903221A73E7
:101E3800059BB3F1FF3F08D1039B5B691A7B039BAA
:101E48005B6922F00202D2B21A73069BB3F1FF3F1C
:101E58000AD1039B5B691A7B039B5B6922F0010231
:101E6800D2B21A73002320E0039B5B691B681B78BE
:101E7800022B0BD0039B1846FFF7D8FD039B5B6929
:101E88001B681B78002B01D100230EE00398039BED
:101E98005B691B689B685968039B5B691B689B6847
:101EA8005B7A1A46FFF790FD034618460FB05DF8B7
:101EB80004FB00BF745500004D1C000084B0019065
:101EC800019B0393039B01221A7000BF04B0704763
:101ED80010B586B00390029101920093019B1946B8
:101EE8004FF000024FF000034FF00004D40344EA1F
:101EF8005144CB0313F5FA7044F100014FF47A72A0
:101F08004FF0000303F04CF903460C460593059B7C
:101F1800042B04D8009B01221A70002312E00B4AFC
:101F280000210298FFF75EF90490049B002B01D072
:101F3800049B07E0029B1B68009A05991846FFF767
:101F480081F90346184606B010BD00BFC51E000043
:101F580000B58BB00390029101920093039B002B74
:101F680004D152494FF4A670FFF786FA039B5B69C8
:101F78001B68002B01D1802393E0039B5B691B7BCB
:101F880003F00203002B01D108238AE0019B002BF8
:101F980001D1002385E00298FFF7A8FC034683F0EF
:101FA8000103DBB2002B07D0039B5B691B681B781E
:101FB800022B01D1102374E0039B5B69043318469C
:101FC800FFF76EFD034683F00103DBB2002B01D05F
:101FD800112366E000238DF814300C9BB3F1FF3F0A
:101FE80012D0039B996905AB0C9A0398FFF770FF11
:101FF8000790079B002B07D0039B5B6904331846A7
:10200800FFF76CFD079B4CE0019B0993029B08932B
:10201800099A08990398FFF7B1FD0690099A069B5B
:10202800D31A0993089A069B13440893099B002B1B
:102038000BD00398FFF789FD9DF81430DBB283F0CD
:102048000103DBB2002BE3D100E000BF009B002BB3
:1020580004D0019A099BD21A009B1A609DF814308B
:10206800DBB283F00103DBB2002B09D00C9BB3F188
:10207800FF3F05D0039B9B691B681846FFF714F9BF
:10208800039B5B6904331846FFF728FD099B002B67
:1020980006D09DF81430DBB2002B01D00D2300E0F0
:1020A800002318460BB05DF804FB00BF7455000010
:1020B80000B585B001900091019B002B04D15049D7
:1020C8004FF4FD70FFF7D8F9019B5B691B68002B83
:1020D80001D1802390E0019B5B691B7B03F0020325
:1020E800002B01D1082387E0019B5B691B681B78E3
:1020F800002B01D100237FE0019B5B690433184664
:10210800FFF7CEFC034683F00103DBB2002B01D0BE
:10211800112371E000238DF80830009BB3F1FF3FD5
:1021280012D0019B996902AB009A0198FFF7D0FE83
:102138000390039B002B07D0019B5B69043318466F
:10214800FFF7CCFC039B57E0019B5B691B685B684E
:102158005B681846FFF792FB0346002B0BD0019BE8
:102168001846FFF703FC034683F00103DBB2002B9C
:1021780001D0012300E000238DF80B309DF80B30CF
:1021880003F001038DF80B309DF80B30002B0BD1B9
:102198000198FFF7DAFC9DF80830DBB283F0010301
:1021A800DBB2002BD0D100E000BF9DF80830DBB2D5
:1021B80083F00103DBB2002B09D0009BB3F1FF3F92
:1021C80005D0019B9B691B681846FFF76DF8019BBA
:1021D8005B6904331846FFF781FC9DF80B3083F0E8
:1021E8000103DBB2002B06D09DF80830DBB2002BD0
:1021F80001D00D2300E00023184605B05DF804FB6C
:102208007455000000B583B000230193104B1B7870
:10221800002B02D08523019314E00D4B00229A6015
:102228000B4B00225A600A4B00221A61084B00220D
:10223800DA60084800F0C6FA019000F0E9FA044BA9
:1022480001221A70019B184603B05DF804FB00BF19
:102258005C010020A123000084B001900091019B43
:102268001B68039306E0039A009B9A420DD0039BD8
:102278001B680393039B002BF5D1019B1A68009BF5
:102288001A60019B009A1A6000E000BF04B0704712
:1022980084B00190019B1B680393039B002B03D020
:1022A800039B1A68019B1A60039B184604B0704789
:1022B80000B583B00190224B1B78002B03D1214934
:1022C800E920FFF7D9F81E4B9B78DBB2002B12D020
:1022D800019B002B03D0019B5B68012098470020DD
:1022E800FFF71CF8164BDB680133154AD360002052
:1022F800FFF728F817E00020FFF710F8019B002BE4
:1023080003D001991048FFF7A7FF0D4BDB68002B9E
:1023180001D100F097FA0A4BDB680133084AD36011
:102328000020FFF70FF8064BDB68002B04D10549A6
:1023380040F20510FFF7A0F800BF03B05DF804FBFA
:102348005C010020CC5500006C01002000B585B070
:1023580003468DF807309DF80730002B02D10C4B4F
:10236800039301E00B4B03930398FFF791FF02904F
:10237800029B002B06D0029B5B689DF80720104645
:102388009847F1E700BF00BF05B05DF804FB00BF48
:10239800640100206C01002000B583B003468DF86D
:1023A80007309DF80730002B05D10A4B01225A70DF
:1023B8000020FFF7CBFF9DF80730012B05D1054B17
:1023C80001229A700120FFF7C1FF00BF03B05DF83A
:1023D80004FB00BF5C01002000B585B00190019BA3
:1023E800002B01D1084B0193019800F099FE03904E
:1023F800039B002B02D1054B01221A70039B184640
:1024080005B05DF804FB00BF2456000070010020F1
:1024180000B589B001900091009B0793019B1B7840
:102428008DF80C30019B5B680493019B1B7A8DF837
:102438001430019BDB680693074A079B52F8233048
:102448000649079A51F8221003AA1046984700BF78
:1024580009B05DF804FB00BF740100207C01002076
:1024680000B589B001900091009B0793019B1B78F0
:102478008DF80C30019B5B680493019B9B68DBB271
:102488008DF81430019BDB680693074A079B52F8C6
:1024980023300649079A51F8221003AA1046984794
:1024A80000BF09B05DF804FB740100207C01002026
:1024B80030B58FB0039002910192039B1B780C9367
:1024C8002C490C9B019A41F82320029B1A692A493E
:1024D8000C9B41F823200C9B012B07D1029B5B7FAF
:1024E800002B03D125497620FEF7C6FF029B5B7FB0
:1024F8001946234A0C9B13440A461A70029B04ACE3
:102508001D460FCD0FC495E80F0084E80F000C9B03
:10251800089300230D93039B1B781A46184B9B5C6A
:10252800002B0DD0039B181D019B002B01D0154AD1
:1025380000E0002204AB194602F068F80D9014E0A0
:10254800039B1B781A460E4B9B5C002B0DD1039BFB
:1025580003F10C00019B002B01D00B4A00E0002284
:1025680004AB194601F09AF90D900D9B18460FB06F
:1025780030BD00BF740100207C01002028560000F7
:1025880084010020192400006924000082B0034659
:102598008DF807309DF8073003F01F0205499DF9B3
:1025A80007305B09012000FA02F241F8232000BF3E
:1025B80002B0704700E100E082B003468DF80730B2
:1025C8009DF8073003F01F0206499DF907305B09A3
:1025D800012000FA02F2603341F8232000BF02B064
:1025E800704700BF00E100E082B0034600918DF81B
:1025F80007309DF90730002B0CDA009BDAB20C4942
:102608009DF8073003F00F03043B5201D2B20B448C
:102618001A7609E0009BDAB206499DF907305201A3
:10262800D2B20B4483F8002300BF02B0704700BF4A
:1026380000ED00E000E100E000B583B003460A4683
:102648008DF8073013468DF806309DF80630072BB5
:1026580003D908496B20FEF70FFF9DF806209DF966
:10266800073011461846FFF7BFFF00BF03B05DF8FB
:1026780004FB00BF8056000000B583B003468DF808
:1026880007309DF907301846FFF796FF9DF9073088
:102698001846FFF77BFF00BF03B05DF804FB00009E
:1026A80082B003468DF807300F4A9DF90730002B9A
:1026B80000DA1F335B115BB252F823209DF9073013
:1026C800594203F01F0301F01F0158BF4B425BB290
:1026D80022FA03F303F00103002B14BF01230023A4
:1026E800DBB2184602B0704700E100E082B001900A
:1026F8004FF08042019BC2F8043300BF02B070471C
:1027080082B001904FF08042019BC2F8083300BFAD
:1027180002B0704782B003468DF807309DF8073045
:1027280003F1804301221A6000BF02B0704784B0F1
:102738000346ADF80630BDF8063003F180430022A9
:102748001A60BDF8063003F180431B680393039BAE
:1027580000BF04B0704782B00346ADF80630BDF83C
:10276800063003F180431B68002B14BF01230023AC
:10277800DBB2184602B0704782B001904FF0804239
:10278800019BC2F8183500BF02B0704700B583B08E
:1027980006238DF807300020FFF782FF034683F0F9
:1027A8000103DBB2002B08D09DF807301946002042
:1027B800FFF742FF0020FFF75FFF00BF03B05DF89F
:1027C80004FB000000B585B00190019B002B03D1EC
:1027D8000D49A220FEF750FE002303930B4B1B79F3
:1027E800002B02D08523039308E0084A019B13605D
:1027F800064B01221A71054B00225A71039B184699
:1028080005B05DF804FB00BFB05600008801002049
:1028180008B5094B1B79002B03D10849BB20FEF7EB
:102828002BFEFFF7B3FF0120FFF7A6FF044B0122A1
:102838001A7000BF08BD00BF88010020B056000014
:102848009001002008B50A4B1B79002B03D10949D8
:10285800E520FEF711FE4FF48270FFF768FF0220B3
:10286800FFF744FF0820FFF755FF00BF08BD00BF72
:1028780088010020B056000008B54FF48070FFF7BB
:102888006AFF0346002B14D04FF48070FFF74FFF08
:102898000120FFF735FF114B5B7983F00103DBB2B1
:1028A800002B06D00D4B01225A710C4B1B680020DF
:1028B80098474FF48270FFF74EFF0346002B0AD06B
:1028C8004FF48270FFF733FF0220FFF719FF034B25
:1028D8001B680120984700BF08BD00BF8801002081
:1028E80000B583B00346ADF80630BDF8063018468B
:1028F80000F026F803461B68012B0CBF01230023B8
:10290800DBB2184603B05DF804FB00B585B003469A
:10291800ADF80630BDF80630184600F011F8034649
:102928001A4600231360BDF80630184600F008F870
:1029380003461B680393039B00BF05B05DF804FBC7
:1029480082B00346ADF80630BDF8063003F1804387
:1029580003F5C043184602B07047000082B00190EA
:10296800034BD3F80423019B1340184602B0704769
:102978000060004082B00190054A019B03F5A273F4
:1029880052F823301B0A03F03F03184602B0704781
:102998000060004082B00190064A019B03F5A273D3
:1029A80052F823301B0C03F00303DBB2184602B0C5
:1029B800704700BF0060004000B583B00190019BE4
:1029C8001B682F2B04D90B494FF4E870FEF754FD10
:1029D800019B1B681F2B02D84FF0A04306E0019B08
:1029E8001B6803F01F02019B1A60034B184603B0D3
:1029F8005DF804FB385700000003005000B585B0AF
:102A080001900B468DF8033001AB1846FFF7D4FF51
:102A18000390019A039B02F5E07253F82230019A61
:102A280023F44031039B02F5E07243F82210019A27
:102A3800039B02F5E07253F822309DF8032012043C
:102A48001146019A1943039B02F5E07243F82210DC
:102A580000BF05B05DF804FB00B585B0019001AB7F
:102A68001846FFF7A9FF0390019A039B02F5E0724D
:102A780053F822301B0C03F00303DBB2184605B0F1
:102A88005DF804FB82B00190019BD3F8103518461D
:102A980002B0704700B589B0039002910192174ABD
:102AA80005AB92E8030083E80300039A029B1344F2
:102AB800022B04D9124940F2F120FEF7DDFC039BFA
:102AC800079311E0079B9B0008AA134453F80C3C9A
:102AD8001846FFF7D7FF0246019B1A60019B043393
:102AE8000193079B01330793039A029B1344079AA8
:102AF8009A42E7D300BF09B05DF804FB68570000AD
:102B08003857000084B001900091009B0393019B0B
:102B1800DB080293019B03F0070301930122019B49
:102B280002FA03F30399029A0A44127813401846EA
:102B380004B0704784B001900091009B0393019BFF
:102B4800DB080293019B03F007030193039A029B9E
:102B580013441B785AB20121019B01FA03F35BB2BB
:102B6800134359B2039A029B1344CAB21A7000BFA6
:102B780004B0704782B00190044A019B134430337B
:102B880093F90030184602B0704700BF9401002046
:102B980082B00190034A019B52F82330184602B0D4
:102BA800704700BF9401002000B599B00023179327
:102BB80006AB00221A605A604FF48073ADF85630A5
:102BC800012314930023169321E0BDF856301846CC
:102BD800FFF786FE0346002B0ED01498FFF7BEFEC3
:102BE8000346002B08D0BDF856301846FFF78DFE77
:102BF800179A149B13431793149B5B001493BDF807
:102C080056300433ADF85630169B01331693169B95
:102C1800072BDAD94FF4BE70FFF762FE0346002B8C
:102C28000DD04FF4BE70FFF770FE179B43F00043C2
:102C3800179306AB1A4602210020FFF72BFF179BBC
:102C4800DBB2002B29D0012314930023169321E033
:102C5800149A179B1340002B16D01698FFF78AFE7C
:102C680011901698FFF796FE03468DF84330169894
:102C7800FFF78EFF0F900F9B002B05D09DF8432088
:102C88000F9B114611989847149B5B001493169B51
:102C980001331693169B072BDAD9179B002B80F26A
:102CA800F08000238DF84B3004AB00221A605A6084
:102CB800002313930AE0139B9B0018AA13444FF0B8
:102CC800FF3243F8582C139B01331393139B012BAA
:102CD800F1D900238DF84B300023169378E06B4A26
:102CE800169B1344603393F900308DF83B309DF800
:102CF8003B3023F0C0030D93644A169B13446033A2
:102D080093F90030B3F1FF3F5FD002AB19460D983D
:102D1800FFF7F8FE0346002B57D09DF83B309B0980
:102D28008DF833300D98FFF725FF03461846FFF757
:102D38002FFF0B900B9B002B03D19DF83330032BF7
:102D480043D19DF83330032B04D104AB19460D98B9
:102D5800FFF7F0FE0D98FFF77FFE03468DF82B3046
:102D680006AB19460D98FFF7CDFE0990099B002B7D
:102D780003D09DF82B30022B06D0099B002B24D1C1
:102D88009DF82B30032B20D19DF83330032B13D122
:102D98009DF82B30022B01D1032300E002238DF88C
:102DA80023309DF8233019460D98FFF727FE9DF82C
:102DB8004B3001338DF84B300B9B002B05D09DF821
:102DC80033200B9B11460D989847169B0133169399
:102DD800169B032B83D99DF84B30002B4CD0012335
:102DE8008DF84A306B461A4602210020FFF752FE42
:102DF8000023139314E0139B9B0018AA134453F861
:102E0800602C139B9B0018A90B4453F8483C9A422A
:102E180003D000238DF84A3005E0139B0133139348
:102E2800139B012BE7D99DF84A30002B03D00023D0
:102E38008DF84B3020E0002313931AE0139B9B007E
:102E480018AA134453F8602C139B9B0018A90B4431
:102E580043F8482C139B9B0018AA134453F8502C92
:102E6800139B9B0018A90B4443F8582C139B013360
:102E78001393139B012BE1D99DF84B30002B7FF462
:102E880028AF00BF19B05DF804FB00BF9401002013
:102E980082B003468DF807309DF8073003F01F0213
:102EA80005499DF907305B09012000FA02F241F853
:102EB800232000BF02B0704700E100E082B0034663
:102EC8008DF807309DF8073003F01F0206499DF979
:102ED80007305B09012000FA02F2603341F8232031
:102EE80000BF02B0704700BF00E100E082B00346B7
:102EF80000918DF807309DF90730002B0CDA009B04
:102F0800DAB20C499DF8073003F00F03043B520175
:102F1800D2B20B441A7609E0009BDAB206499DF951
:102F280007305201D2B20B4483F8002300BF02B02D
:102F3800704700BF00ED00E000E100E000B583B09D
:102F480003460A468DF8073013468DF806309DF87B
:102F58000630072B03D908496B20FEF78DFA9DF838
:102F680006209DF9073011461846FFF7BFFF00BF3E
:102F780003B05DF804FB00BFC857000000B583B07C
:102F880003468DF807309DF907301846FFF796FF7E
:102F98009DF907301846FFF77BFF00BF03B05DF8C7
:102FA80004FB000082B003468DF807300F4A9DF9F4
:102FB8000730002B00DA1F335B115BB252F8232075
:102FC8009DF90730594203F01F0301F01F0158BF54
:102FD8004B425BB222FA03F303F00103002B14BF48
:102FE80001230023DBB2184602B0704700E100E07D
:102FF80082B00190019B03F18043184602B07047EC
:1030080082B00190019B03F18043184602B07047DB
:1030180000B583B00346ADF80630BDF80630184653
:10302800FFF7E6FF02460023136000BF03B05DF818
:1030380004FB00B583B00346ADF80630BDF8063092
:103048001846FFF7DDFF03461B68002B14BF01235A
:103058000023DBB2184603B05DF804FB00B585B069
:103068000346ADF80630BDF806301846FFF7E1FF15
:1030780003468DF80F309DF80F30002B04D0BDF8B3
:1030880006301846FFF7C4FF9DF80F30184605B004
:103098005DF804FB4FF08043D3F8043318467047BB
:1030A80082B003468DF807309DF80730002B01D019
:1030B800012300E000234FF08042C2F8783500BFBA
:1030C80002B0704782B003468DF807309DF807308C
:1030D800002B01D0012300E000234FF08042C2F80A
:1030E800803500BF02B0704700B583B006238DF865
:1030F80007300020FFF756FF034683F00103DBB2D9
:10310800002B08D09DF8073019460020FFF716FF5E
:103118000020FFF733FF00BF03B05DF804FB000099
:1031280000B583B00190019B002B03D111496C209D
:10313800FEF7A2F9104B1B78002B01D0852315E070
:10314800019B1B78C3F34003DBB21846FFF7BAFFB5
:10315800019B1B78C3F30003DBB21846FFF7A0FFFF
:10316800FFF7C2FF044B01221A700023184603B070
:103178005DF804FB285800000002002000B583B069
:10318800FFF788FF0190019B03F00403002B12D086
:103198004FF48470FFF762FF0346002B0BD0464BB9
:1031A8001B68002B04D145494FF48370FEF764F97E
:1031B800414B1B689847019B03F02003002B13D059
:1031C8004FF48A70FFF74AFF0346002B0CD03C4BA4
:1031D8001B68002B04D139494FF48770FEF74CF96E
:1031E800374B1B6800209847019B03F04003002BD6
:1031F80013D04FF48C70FFF731FF0346002B0CD02F
:103208002F4B1B68002B04D12C4940F21510FEF7F8
:1032180033F92B4B1B6801209847019B03F080036F
:10322800002B13D04FF48E70FFF718FF0346002BC6
:103238000CD0244B1B68002B04D120494FF48F700D
:10324800FEF71AF91F4B1B6800209847019B03F4EF
:103258008073002B13D04FF49070FFF7FFFE0346E6
:10326800002B0CD0174B1B68002B04D1134940F2DC
:103278002510FEF701F9134B1B6801209847019BA5
:1032880003F40073002B13D04FF49270FFF7E6FE9F
:103298000346002B0CD00B4B1B68002B04D10749AD
:1032A8004FF49670FEF7E8F8064B1B680220984723
:1032B80000BF03B05DF804FB04020020285800009A
:1032C800080200200C02002008B5FFF757FFFFF79F
:1032D800D3FA00BF08BD000008B5064B1B68002BD9
:1032E80003D105495120FEF7C7F8024B1B689847E0
:1032F80000BF08BD100200208058000082B0019075
:10330800019B044A934201D1034B00E00023184675
:1033180002B07047002000401002002000B587B0BE
:1033280001900091019B002B03D118497720FEF7EB
:10333800A3F80198FFF7E2FF0490049B002B1ED02E
:1033480000238DF817300020FDF7E8FF049B1B7958
:10335800002B03D001238DF8173005E0049B009A59
:103368001A60049B01221A710020FDF7EBFF9DF8FB
:103378001730002B03D011230393039B02E0002393
:103388000393039B184607B05DF804FB80580000C0
:1033980082B003468DF807309DF8073003F01F020E
:1033A80005499DF907305B09012000FA02F241F84E
:1033B800232000BF02B0704700E100E082B003465E
:1033C8008DF807309DF8073003F01F0206499DF974
:1033D80007305B09012000FA02F2603341F823202C
:1033E80000BF02B0704700BF00E100E082B00346B2
:1033F80000918DF807309DF90730002B0CDA009BFF
:10340800DAB20C499DF8073003F00F03043B520170
:10341800D2B20B441A7609E0009BDAB206499DF94C
:1034280007305201D2B20B4483F8002300BF02B028
:10343800704700BF00ED00E000E100E082B00190BD
:10344800019B1B0B5BB2184602B0704700B583B0F6
:1034580003460A468DF8073013468DF806309DF866
:103468000630072B03D908496B20FEF705F89DF8AD
:1034780006209DF9073011461846FFF7B7FF00BF31
:1034880003B05DF804FB00BFD858000000B583B056
:1034980003468DF807309DF907301846FFF78EFF71
:1034A8009DF907301846FFF773FF00BF03B05DF8BA
:1034B80004FB84B001900B46ADF80230BDF8023031
:1034C800019A134400221A60BDF80230019A13448D
:1034D8001B680393039B00BF04B0704782B0019040
:1034E8000B46ADF80230BDF80230019A13441B6850
:1034F800002B14BF01230023DBB2184602B070472B
:1035080082B001900091019B009AC3F8042300BF88
:1035180002B0704782B001900091019BD3F8042358
:10352800009B1340002B14BF01230023DBB2184675
:1035380002B0704782B001900091019B009AC3F8D5
:10354800082300BF02B0704784B00190019BD3F8F4
:1035580080340393019B039AC3F88024039B184685
:1035680004B0704782B00190019B0422C3F8002583
:1035780000BF02B0704784B0039002910192039B90
:10358800019AC3F81425039B029AC3F80C2500BFBF
:1035980004B0704784B0039002910192039B029A91
:1035A800C3F80825039B019AC3F8102500BF04B08F
:1035B800704782B00190019BD3F81835DBB21846EA
:1035C80002B0704782B001900B468DF803309DF829
:1035D8000320019BC3F81C2500BF02B0704782B0CE
:1035E80001900B468DF803309DF80330019A13447F
:1035F80001221A6000BF02B0704782B001900B46EA
:103608008DF8033013468DF802309DF803209DF89D
:1036180002301343DBB21A46019BC3F86C2500BF86
:1036280002B0704782B001900091019B009AC3F8E4
:10363800242500BF02B0704700B583B00190019BFC
:103648001B682F2B04D90B494FF4E870FDF714FFC2
:10365800019B1B681F2B02D84FF0A04306E0019B7B
:103668001B6803F01F02019B1A60034B184603B046
:103678005DF804FB085900000003005000B585B050
:103688000190084611461A4603468DF803300B464A
:103698008DF8023013468DF8013001AB1846FFF75C
:1036A800CBFF03909DF803209DF802305B001A437E
:1036B8009DF801309B001A439DF818301B0242EA1E
:1036C80003019DF81C301B04019A1943039B02F562
:1036D800E07243F8221000BF05B05DF804FB00B5A6
:1036E80085B0039000230193002300930023012257
:1036F80001210398FFF7C2FF00BF05B05DF804FB86
:1037080000B585B003900B468DF80B309DF80B2063
:1037180000230193002300931346002200210398FD
:10372800FFF7ACFF00BF05B05DF804FB00B585B03E
:10373800019001AB1846FFF77FFF0390019B012220
:1037480002FA03F31946039800F004F800BF05B025
:103758005DF804FB82B001900091019B009AC3F8C8
:10376800082500BF02B0704700B583B001900091F2
:10377800009B1B68B3F1FF3F09D0009B1B681846EC
:10378800FFF7D4FF009B1B681846FFF7A8FF009BB4
:103798005B68B3F1FF3F05D0009B5B6803211846C7
:1037A800FFF7AEFF019B1A68009B9B6919461046FC
:1037B800FFF738FF019B1868009B597D009B1B7D14
:1037C8001A46FFF71AFF019B1868009B1968009BAF
:1037D8005B681A46FFF7CFFE009B1B7D012B22D1A9
:1037E800009B9B68B3F1FF3F05D0009B9B680021BD
:1037F8001846FFF785FF009BDB68B3F1FF3F09D050
:10380800009BDB681846FFF791FF009BDB681846B2
:10381800FFF765FF019B1868009BD968009B9B68B0
:103828001A46FFF7B7FE00BF03B05DF804FB0000BF
:1038380000B583B001900B468DF80330019B1B68DF
:103848004FF48E711846FFF734FE019B1B684FF446
:10385800A2711846FFF72DFE019B1B680E491846FA
:10386800FFF74EFE019B1B681846FFF7E7FD03466E
:103878001A469DF8033019461046FFF7E7FD019BED
:103888001B681846FFF7DAFD03461846FFF7FEFDEA
:1038980000BF03B05DF804FB8000020000B587B0EC
:1038A800039002910192029B002B03D12D49AA207B
:1038B800FDF7E2FD039B1B791A462C2303FB02F359
:1038C800294A1344059300230493059B93F82A304F
:1038D800002B03D008230493049B3EE0039B1A6843
:1038E800039B1B791946214B53F821301946104682
:1038F800FFF714FD0346002B03D011230493049B08
:103908002BE002990398FFF72FFF059B019A5A6055
:10391800029B1A69059B1A60059B5B68002B05D002
:10392800029B1B7F19460398FFF782FF039B1B68C6
:103938001846FFF717FE059B00229A61059B002297
:10394800DA61059B002283F82920059B00225A6131
:10395800059B012283F82A20049B184607B05DF8CE
:1039680004FB00BF38590000180200208C590000E1
:1039780000B585B0019000914FF48E710198FFF762
:1039880098FD009B9A68009B1B6A13441B788DF86E
:103998000F30009B1B6A5A1C009B1A629DF80F305F
:1039A80019460198FFF70EFE00BF05B05DF804FB4D
:1039B80000B583B00190009116E0009B93F8283081
:1039C800DBB2002B01D0002315E04FF48E71019873
:1039D800FFF784FD034683F00103DBB2002BECD133
:1039E80000990198FFF7C4FF009B1A6A009B5B6966
:1039F8009A42EAD30123184603B05DF804FB00009D
:103A080000B587B0039002910192039B1B791A4677
:103A18002C2303FB02F33C4A13440493049B93F8BE
:103A28002A30012B04D0394940F21510FDF724FD46
:103A3800029B002B04D135494FF48B70FDF71CFD18
:103A4800019B002B04D1314940F21710FDF714FDFA
:103A5800039800F05DF80346002B03D0112305936B
:103A6800059B4CE0049B019A5A61049B029A9A6058
:103A7800049B00221A62049B002283F8282000235A
:103A88000593039B1B684FF48E711846FFF711FDD1
:103A9800039B1B6808211846FFF7A1FD039B1B68C1
:103AA80004991846FFF764FF049B5B68002B25D137
:103AB800039B1B6804991846FFF77AFF034683F0B7
:103AC8000103DBB2002B02D00F23059313E000BFE4
:103AD800039B1B684FF48E711846FFF7FFFC0346E3
:103AE80083F00103DBB2002BF2D1039B1B680C218E
:103AF8001846FFF774FD049B00225A61059B18467F
:103B080007B05DF804FB00BF180200203859000018
:103B180082B00190019B1B791946074A2C2303FBAD
:103B280001F3134414331B68002B14BF0123002333
:103B3800DBB2184602B070471802002000B583B007
:103B48000190019B1B684FF492711846FFF7B1FC76
:103B5800019B1B684FF484711846FFF7AAFC019B70
:103B68001B6800211846FFF73AFD00BF03B05DF857
:103B780004FB10B582B001900091009B9B69002B5B
:103B880008D14FF484710198FFF793FC0198FFF76F
:103B980010FD13E04FF484710198FFF78AFC009B35
:103BA800DA68009B5B6AD4180198FFF702FD0346A8
:103BB8002370009B5B6A5A1C009B5A6202B010BDBE
:103BC80000B589B0039002910192039B1B791A46B4
:103BD8002C2303FB02F37F4A13440693039B1B79B0
:103BE80019467C4A2C2303FB01F313442A331B7820
:103BF800012B04D0784940F26910FDF73DFC029B87
:103C0800002B04D174494FF4B570FDF735FC019BC6
:103C1800002B04D1704940F26B10FDF72DFC0023F6
:103C28008DF81F30069B5B68002B06D0039B1B6832
:103C38004FF401711846FFF77DFC069B9B69002B2A
:103C480015D0069BDB69002B0ED0069B5B68002B0A
:103C580006D0039B1B684FF401711846FFF750FC10
:103C680011230593059BB0E001238DF81F309DF8C3
:103C78001F3083F00103DBB2002B0CD0069B019AA6
:103C88009A61069B029ADA60069B00225A62069B9A
:103C98000022DA6105E0069B029A1A61069B019AE6
:103CA800DA61069B93F8293083F00103DBB2002B1D
:103CB80009D09DF81F3083F00103DBB2002B02D03E
:103CC8000398FFF73BFF069B5B68002B73D1039BB0
:103CD8001B684FF4A2711846FFF7EBFB039B1B68A8
:103CE8004FF492711846FFF7F9FB03468DF813302D
:103CF800039B1B684FF484711846FFF7EFFB0346DC
:103D08008DF81230039B1B684FF4A2711846FFF719
:103D1800E5FB03468DF811309DF8123083F001035E
:103D2800DBB2002B0DD09DF8113083F00103DBB21C
:103D3800002B06D09DF8133083F00103DBB2002B73
:103D4800CCD19DF81330002B0FD19DF81130002BEA
:103D58000BD1039B1B6806991846FFF70AFF069BC1
:103D68009A69069B5B6A9A42B8D8069B00229A61B8
:103D78009DF81330002B03D003230593059B24E003
:103D88009DF81130002B03D00F230593059B1CE0F1
:103D9800069B93F82930002B06D0039B1B68002153
:103DA8001846FFF71CFC0DE0039B1B68042118460E
:103DB800FFF715FC06E0039B1B684FF401711846DA
:103DC800FFF79EFB00230593059B184609B05DF895
:103DD80004FB00BF180200203859000000B583B06A
:103DE8000190019B1B7919460E4A2C2303FB01F312
:103DF800134429331B7883F00103DBB2002B0DD069
:103E08000198FFF79BFE019B1B791946054A2C2355
:103E180003FB01F31344293301221A7000BF03B0D6
:103E28005DF804FB1802002000B589B003900291E8
:103E3800019201238DF81030029B0693019B059394
:103E4800039B5B68039A116804AA1046984700BF51
:103E580009B05DF804FB00B587B00190009100231C
:103E68008DF80830009B0493019B9B680393019B8A
:103E780000225A61019B5B68019A116802AA1046E8
:103E8800984700BF07B05DF804FB00B589B0019002
:103E980000914FF400710198FFF73CFB0346002B9B
:103EA80039D04FF492710198FFF718FB0346002BA5
:103EB80031D04FF492710198FFF7FBFA4FF401717A
:103EC8000198FFF737FB009B93F8293083F0010333
:103ED800DBB2002B03D004210198FFF780FB0223FB
:103EE8008DF808300198FFF72FFB03460593009BD8
:103EF8009B690493009BDB680393009B00229A61F3
:103F0800009B0022DA61009B5B68009A116802AA94
:103F18001046984752E004210198FFF7FBFA034640
:103F2800002B4BD04FF484710198FFF7D7FA034662
:103F3800002B43D000990198FFF71BFE009B9A695C
:103F4800009B5B6A9A4239D1009BDB69002B19D030
:103F5800009BDB680793009B5B6A0693009BDA690A
:103F6800009B9A61009B1A69009BDA60009B002203
:103F7800DA61009B00225A62079A06990098FFF7B7
:103F880053FF1BE0009B93F8293083F00103DBB259
:103F9800002B03D004210198FFF721FB4FF4017196
:103FA8000198FFF7C7FA009B00229A61009B596AA3
:103FB800009BDB681A460098FFF736FF4FF48E71B6
:103FC8000198FFF78BFA0346002B22D0009B1A6A50
:103FD800009B5B699A420DD2009B93F82830DBB2B4
:103FE80083F00103DBB2002B04D000990198FFF79E
:103FF800BFFC0EE04FF48E710198FFF75AFA009B50
:104008005B69002B05D0009B5B6919460098FFF798
:1040180022FF4FF4A2710198FFF760FA0346002BC4
:104028001CD04FF4A2710198FFF743FA009B93F854
:104038002930002B03D000210198FFF7D0FA009B0C
:104048009B69002B0AD0009B00229A61009B596A49
:10405800009BDB681A460098FFF7E6FE00BF09B030
:104068005DF804FB08B503490348FFF70EFF00BFDE
:1040780008BD00BF180200200020004082B003469F
:104088008DF807309DF8073003F01F0205499DF9A8
:1040980007305B09012000FA02F241F8232000BF33
:1040A80002B0704700E100E082B003468DF80730A7
:1040B8009DF8073003F01F0206499DF907305B0998
:1040C800012000FA02F2603341F8232000BF02B059
:1040D800704700BF00E100E082B0034600918DF810
:1040E80007309DF90730002B0CDA009BDAB20C4937
:1040F8009DF8073003F00F03043B5201D2B20B4482
:104108001A7609E0009BDAB206499DF90730520198
:10411800D2B20B4483F8002300BF02B0704700BF3F
:1041280000ED00E000E100E082B00190019B03F0A7
:104138006043B3F1005F0CBF01230023DBB21846D4
:1041480002B0704782B00190019B1B0B5BB218460E
:1041580002B0704700B583B003460A468DF80730B1
:1041680013468DF806309DF80630072B03D9084909
:104178006B20FDF781F99DF806209DF9073011465F
:104188001846FFF7A9FF00BF03B05DF804FB00BFA6
:104198009059000000B583B003468DF807309DF9AB
:1041A80007301846FFF780FF9DF907301846FFF7DC
:1041B80065FF00BF03B05DF804FB84B001900B46B7
:1041C800ADF80230BDF80230019A134400221A609B
:1041D800BDF80230019A13441B680393039B00BF88
:1041E80004B0704782B001900B46ADF80230BDF8BC
:1041F8000230019A13441B68002B14BF01230023CB
:10420800DBB2184602B0704782B001900091019B62
:10421800D3F80022009B1A43019BC3F8002200BF79
:1042280002B0704782B001900091019BD3F8002240
:10423800009BDB431A40019BC3F8002200BF02B079
:10424800704782B001900091019B009AC3F8042343
:1042580000BF02B0704782B001900091019B009AA4
:10426800C3F8082300BF02B0704784B00190019BD7
:10427800D3F880340393019B039AC3F88024039BEB
:10428800184604B0704782B00190019B0822C3F819
:10429800002500BF02B0704784B0039002910192DC
:1042A800039B029AC3F80C25039B019AC3F81425B3
:1042B80000BF04B0704784B0039002910192039B41
:1042C800029AC3F80825039B019AC3F8102500BF7A
:1042D80004B0704782B001900B468DF803309DF80A
:1042E8000330019A134401221A6000BF02B07047DC
:1042F80082B001900B468DF8033013468DF80230DA
:104308009DF803209DF802301343DBB21A46019B47
:10431800C3F86C2500BF02B0704782B001900091CD
:10432800019B009AC3F8242500BF02B0704784B0EF
:10433800039002910192029A039BC3F84425039BC0
:10434800019AC3F8482500BF04B0704782B00190B5
:10435800019BD3F84C35184602B0704784B00390DF
:1043680002910192029A039BC3F83425039B019A98
:10437800C3F8382500BF04B0704782B00190019B94
:10438800D3F83C35184602B07047000000B583B03A
:104398000190019B1B682F2B04D90B494FF4E8703F
:1043A800FDF76AF8019B1B681F2B02D84FF0A0434A
:1043B80006E0019B1B6803F01F02019B1A60034B78
:1043C800184603B05DF804FBC05900000003005014
:1043D80000B585B00190084611461A4603468DF887
:1043E80003300B468DF8023013468DF8013001ABCF
:1043F8001846FFF7CBFF03909DF803209DF8023085
:104408005B001A439DF801309B001A439DF8183051
:104418001B0242EA03019DF81C301B04019A194350
:10442800039B02F5E07243F8221000BF05B05DF867
:1044380004FB00B585B0039000230193002300938B
:104448000023012201210398FFF7C2FF00BF05B036
:104458005DF804FB00B585B003900B468DF80B3072
:104468009DF80B200023019300230093134600229C
:1044780000210398FFF7ACFF00BF05B05DF804FB0F
:1044880000B585B0019001AB1846FFF77FFF039098
:10449800019B012202FA03F31946039800F004F87D
:1044A80000BF05B05DF804FB82B001900091019B4C
:1044B800009AC3F8082500BF02B0704700B583B062
:1044C80001900091009B1B68B3F1FF3F09D0009B4E
:1044D8001B681846FFF7D4FF009B1B681846FFF7B8
:1044E800A8FF009B5B68B3F1FF3F05D0009B5B68AA
:1044F80000211846FFF7AEFF019B1A68009B9B69D5
:1045080019461046FFF709FF019B1868009B597D63
:10451800009B1B7D1A46FFF7EBFE019B1868009B6A
:104528001968009B5B681A46FFF7B6FE009B1B7D67
:10453800012B22D1009B9B68B3F1FF3F05D0009B64
:104548009B6800211846FFF785FF009BDB68B3F1E5
:10455800FF3F09D0009BDB681846FFF791FF009BDF
:10456800DB681846FFF765FF019B1868009BD96850
:10457800009B9B681A46FFF79EFE00BF03B05DF8DC
:1045880004FB000000B583B001900B468DF80330A2
:10459800019B1B684FF488711846FFF70EFE019BBC
:1045A8001B684FF490711846FFF707FE019B1B68C4
:1045B8004FF492711846FFF700FE019B1B684FF4F9
:1045C800A2711846FFF7F9FD019B1B680E491846B2
:1045D800FFF737FE019B1B681846FFF7B3FD03463C
:1045E8001A469DF8033019461046FFF7B3FD019BA4
:1045F8001B681846FFF7A6FD03461846FFF7CAFDD5
:1046080000BF03B05DF804FB1003020000B587B0DB
:10461800039002910192029B002B03D12B49BC20ED
:10462800FCF72AFF039B1B791A461346DB00134449
:104638009B00274A1344059300230493059B93F892
:104648002030002B03D008230493049B3AE0039BFB
:104658001A68039B1B7919461E4B53F821301946DB
:104668001046FEF75BFE0346002B03D0112304938C
:10467800049B27E002990398FFF720FF059B019A06
:104688005A60029B1A69059B1A60059B5B68002BA0
:1046980005D0029B1B7F19460398FFF773FF039B06
:1046A8001B681846FFF7EFFD059B00229A61059BE2
:1046B8000022DA61059B00225A61059B012283F8DA
:1046C8002020049B184607B05DF804FBF059000051
:1046D80044020020485A000000B589B003900291B6
:1046E8000192039B1B791A461346DB0013449B0077
:1046F8004C4A13440693069B93F82030012B04D0B0
:10470800494940F20D10FCF7B7FE029B002B04D17B
:1047180045494FF48770FCF7AFFE019B002B04D18D
:10472800414940F20F10FCF7A7FE039B1B79002BB1
:1047380003D1019BB3F5803F04D33B494FF4887004
:10474800FCF79AFE0298FFF7EFFC034683F001039B
:10475800DBB2002B03D010230793079B5EE003987E
:1047680000F064F80346002B03D011230793079B3E
:1047780054E0069B019A5A61069B029A9A600023AC
:104788000793039B1B684FF490711846FFF715FDBC
:10479800039B1B684FF4AC711846FFF70EFD039B93
:1047A8001868069B9968069B5B691A46FFF7BFFD68
:1047B800039B1B6808211846FFF78CFD069B5B6866
:1047C800002B2AD1039B1B684FF490711846FFF702
:1047D80009FD03468DF81730039B1B684FF4AC7135
:1047E8001846FFF7FFFC03468DF816309DF8173082
:1047F80083F00103DBB2002B06D09DF8163083F05E
:104808000103DBB2002BDDD19DF81630002B01D05F
:104818000F230793069B00225A61079B184609B08D
:104828005DF804FB44020020F059000082B00190BA
:10483800019B1B791946084A0B46DB000B449B0079
:10484800134414331B68002B14BF01230023DBB26D
:10485800184602B0704700BF4402002000B589B076
:10486800039002910192039B1B791A461346DB00C1
:1048780013449B00864A13440593039B1B791946EE
:10488800834A0B46DB000B449B00134420331B7800
:10489800012B04D07F4940F25710FCF7EDFD029B35
:1048A800002B04D17B494FF4AC70FCF7E5FD019B6C
:1048B800002B04D1774940F25910FCF7DDFD039B2A
:1048C8001B79002B03D1019BB3F5803F04D37149B9
:1048D8004FF4AD70FCF7D0FD0298FFF725FC0346B6
:1048E80083F00103DBB2002B03D010230793079B4F
:1048F800CAE000238DF81B30059B5B68002B06D0AF
:10490800039B1B684FF404711846FFF7A4FC059B32
:104918009B69002B15D0059BDB69002B0ED0059BEE
:104928005B68002B06D0039B1B684FF40471184684
:10493800FFF787FC11230793079BA5E001238DF858
:104948001B309DF81B3083F00103DBB2002B09D02C
:10495800059B019A9A61059B029ADA60059B0022E1
:10496800DA6105E0059B029A1A61059B019ADA61F2
:1049780000230793039B1B684FF488711846FFF7C1
:104988001CFC039B1B684FF4A2711846FFF715FC2B
:10499800039B1B68019A02991846FFF7DFFC9DF8F4
:1049A8001B3083F00103DBB2002B06D0039B1B688E
:1049B80000211846FFF78EFC05E0039B1B682021A9
:1049C8001846FFF721FC039B1B791946304A0B4612
:1049D800DB000B449B00134404331B68002B4BD1B2
:1049E800039B1B684FF488711846FFF7FBFB0346CF
:1049F8008DF81330039B1B684FF4A2711846FFF71C
:104A0800F1FB03468DF81230039B1B684FF492713B
:104A18001846FFF7E7FB03468DF811309DF8133071
:104A280083F00103DBB2002B0DD09DF8123083F028
:104A38000103DBB2002B06D09DF8113083F001038F
:104A4800DBB2002BCCD1039B1B791946104A0B46CD
:104A5800DB000B449B001344183300221A609DF8B6
:104A68001130002B01D0032307939DF81230002B3F
:104A780009D00F23079306E0039B1B684FF40471CA
:104A88001846FFF7DEFB079B184609B05DF804FBE4
:104A980044020020F059000000B589B0039002914B
:104AA800019201238DF81030029BDBB28DF818308B
:104AB800019B0593039B5B68039A116804AA10463F
:104AC800984700BF09B05DF804FB00B587B00190B6
:104AD800009100238DF80830009BDBB28DF8103070
:104AE800019B9B680393019B00225A61019B5B68B1
:104AF800019A116802AA1046984700BF07B05DF8EE
:104B080004FB00B589B0019000914FF492710198AF
:104B1800FFF768FB0346002B24D04FF492710198ED
:104B2800FFF74BFB02238DF808300198FFF79DFB38
:104B3800034605930198FFF720FC0346DBB28DF886
:104B48001030009BDB680393009B00229A61009B56
:104B58000022DA61009B5B68009A116802AA10467D
:104B680098473BE04FF488710198FFF73BFB0346F9
:104B7800002B33D04FF488710198FFF71EFB019882
:104B8800FFF7FBFB0790009B9B69079A9A4225D188
:104B9800009BDB69002B17D0009BDB680693202164
:104BA8000198FFF73FFB009BDA69009B9A61009B25
:104BB8001A69009BDA60009B0022DA61069A07995D
:104BC8000098FFF769FF09E0009B00229A61009BAB
:104BD800DB681A4607990098FFF75EFF4FF4A27149
:104BE8000198FFF7FFFA0346002B15D04FF4A27186
:104BF8000198FFF7E2FA009B9B69002B0CD0009B01
:104C080000229A610198FFF7B8FB0146009BDB6818
:104C18001A460098FFF740FF4FF490710198FFF78C
:104C2800E1FA0346002B10D04FF490710198FFF77A
:104C3800C4FA009B5B69002B07D00198FFF786FB3D
:104C4800034619460098FFF740FF00BF09B05DF81A
:104C580004FB000008B503490348FFF752FF00BFF3
:104C680008BD00BF4402002000200040BFF34F8F62
:104C7800054BDB6803F4E0620349044B1343CB6044
:104C8800BFF34F8F00BFFDE700ED00E00400FA0519
:104C980020BF40BF20BF00BF7047000008B54FF0DD
:104CA8001023D3F80433052B1AD00E4B0122C3F876
:104CB800042500BF0B4BD3F80034002BFAD04FF07B
:104CC80010230522C3F80423064B0022C3F8042549
:104CD80000BF044BD3F80034002BFAD0FFF7C6FF0F
:104CE80000BF08BD00E0014000B589B0FFF7D6FF5E
:104CF800FDF788FA0790079B0693069B002B04D0C4
:104D08002F4A78210698FBF7EBFC0020FDF764FB9F
:104D18000790079B0593059B002B04D0284A7A210E
:104D28000598FBF7DDFC0020FDF7C2FAFCF726FA30
:104D38000790079B0493049B002B04D0204A7E21F4
:104D48000498FBF7CDFC0320FBF76AFC1D4A1E49BB
:104D58001E48FCF7F7FF0790079B0393039B002B64
:104D680004D0174A84210398FBF7BAFC184800F0CE
:104D7800DAFA02464FF0FF33009300231449134830
:104D8800FDF7E6F80790079B0293029B002B04D0DF
:104D98000B4A8D210298FBF7A3FC0D4800F0C3FADB
:104DA80002464FF0FF330093002309490748FDF7F7
:104DB800CFF8079000210548FDF77AF9EDE700BF25
:104DC800BC5A0000805A00004C5A00009C5A00004F
:104DD80000000020BFF34F8F054BDB6803F4E0624F
:104DE8000349044B1343CB60BFF34F8F00BFFDE76C
:104DF80000ED00E00400FA05024B034A1A6000BF08
:104E0800704700BF140000200090D00308B500F0E0
:104E180025F90346002B0ED04FF080430022C3F83B
:104E28000C214FF080430022C3F810214FF080433B
:104E38000022C3F8382500F02FF90346002B76D05E
:104E48004FF080537C4AD3F80434C2F820354FF031
:104E58008053794AD3F80834C2F824354FF0805388
:104E6800754AD3F80C34C2F828354FF08053724A8B
:104E7800D3F81034C2F82C354FF080536E4AD3F86B
:104E88001434C2F830354FF080536B4AD3F81834D5
:104E9800C2F834354FF08053674AD3F81C34C2F84F
:104EA80040354FF08053644AD3F82034C2F8443573
:104EB8004FF08053604AD3F82434C2F848354FF095
:104EC80080535D4AD3F82834C2F84C354FF08053EC
:104ED800594AD3F82C34C2F850354FF08053564A0B
:104EE800D3F83034C2F854354FF08053524AD3F8CF
:104EF8003434C2F860354FF080534F4AD3F8383411
:104F0800C2F864354FF080534B4AD3F83C34C2F8AA
:104F180068354FF08053484AD3F84034C2F86C35AE
:104F28004FF08053444AD3F84434C2F8703500F047
:104F3800D1F80346002B02D0404B414A1A6000F0DA
:104F4800DBF80346002B03D03E4BFB22C3F81825A1
:104F580000F0E4F80346002B0AD03B4B1B6823F013
:104F68000F023A4B1B6803F00F03374913430B60DA
:104F780000F0E6F80346002B03D0354B4FF40072DF
:104F88001A6000F0EFF80346002B0DD04FF0804375
:104F9800D3F8003403F00103002B05D04FF0804311
:104FA8006FF00102C3F800242A4BD3F88830294A4D
:104FB80043F47003C2F88830BFF34F8FBFF36F8F8D
:104FC8004FF01023D3F80032002B05DB4FF01023ED
:104FD800D3F80432002B2BDA1F4B0122C3F8042527
:104FE80000BF1D4BD3F80034002BFAD04FF010232C
:104FF8001222C3F8002200BF174BD3F80034002B4D
:10500800FAD04FF010231222C3F8042200BF124B2B
:10501800D3F80034002BFAD00F4B0022C3F8042534
:1050280000BF0D4BD3F80034002BFAD0FFF7D2FEA7
:10503800FFF7E2FE00BF08BD00C000408C560040EC
:105048004881030000F00040E40E004058020010C0
:105058004096024000ED00E000E001400C4B1B6868
:10506800082B11D10B4B1B68002B01D101230CE03D
:10507800084B1B68012B01D1012306E0054B1B6877
:10508800022B01D1012300E001231846704700BF1D
:1050980030010010340100100C4B1B68082B11D193
:1050A8000B4B1B68002B01D101230CE0084B1B683C
:1050B800012B01D1012306E0054B1B68022B01D10E
:1050C800012300E001231846704700BF300100109B
:1050D80034010010064B1B68082B05D1054B1B68D3
:1050E800002B01D1012300E000231846704700BFC0
:1050F8003001001034010010064B1B68082B05D145
:10510800054B1B68002B01D1012300E00023184642
:10511800704700BF3001001034010010064B1B68B7
:10512800082B05D1054B1B68002B01D1012300E09A
:1051380000231846704700BF3001001034010010EA
:10514800064B1B68082B05D1054B1B68002B01D1AA
:10515800012300E000231846704700BF300100100B
:10516800340100100C4B1B68082B11D10B4B1B682A
:10517800002B01D101230CE0084B1B68012B01D146
:10518800012306E0054B1B68022B01D1012300E037
:1051980001231846704700BF300100103401001089
:1051A80053EA020C61D02DE9F04BB3FA83F51E00E7
:1051B80007BFB2FA82F502FA05F403FA05F41646B7
:1051C800C5F120051EBF22FA05F73C43203556EAF3
:1051D800044C4FEA144418BF0134A3464FF00009A9
:1051E800C846904271EB030C39D3094207BFB0FAA5
:1051F80080F700FA07F6B1FA81F701FA07F6C7F166
:1052080020071EBF20FA07FC46EA0C062037B6FB2B
:10521800FBFC7F1B103F07F01F04C4F120060CFAAB
:1052280004F42CFA06F644BF34460026202FA4BF07
:105238002646002454EA060C08BF012418EB04088B
:1052480049EB0609A4FB027CC01B06FB02CC04FB4D
:1052580003CC71EB0C01904271EB030CC5D20B46E9
:10526800024649464046BDE8F08BB2FBF3F284465D
:1052780040EA010313F0030F18D18446202A0BD308
:105288002DE9F007B1E8F807A0E8F807A2F1200235
:10529800202AF7D2BDE8F007042A07D351F8043BC7
:1052A80040F8043BA2F10402042AF7D2002A05D0F0
:1052B80011F8013B00F8013B013AF9D1604670470B
:1052C8008446002A2DD010F0030F04D000F8011BEB
:1052D800013A26D0F7E7C9B241EA012141EA014182
:1052E800202A12D3A2F120022DE9F0030B460C4626
:1052F8000D460E460F4688468946A0E8FA03203A2E
:10530800FBD2BDE8F00320320BD0042A05D340F8C5
:10531800041B043A05D0042AF9D200F8011B013A0B
:10532800FBD16046704700F1010110F0030F11D066
:1053380010F8012B002A23D010F0030F0AD010F820
:10534800012B002A1CD010F0030F03D010F8012BFA
:10535800002A15D02DE970004FF001324FF080334C
:1053680050F8044BA4EB020525EA04051D4000D1C2
:10537800F6E7A0F1040070BC10F8012B002AFBD15D
:06538800A0EB01007047DC
:105390008C020020680200202000000001000000B4
:1053A00001000000BC020020980200202000000044
:0853B0000100000001000000F3
:1053B8002E2E2F2E2E2F2E2E2F2E2E2F2E2E2F2E00
:1053C8002E2F6D6F64756C65732F6E7266782F68FB
:1053D800616C2F6E72665F6770696F2E68000000DF
:1053E8002F686F6D652F6368656E6762616E672FE2
:1053F8004769746875622F6E5246355F53444B5F38
:1054080031352E322E305F393431326239362F63DE
:105418006F6D706F6E656E74732F626F61726473F7
:105428002F626F617264732E630000000D0E0F10FF
:105438000B0C1819000000000338FDD87047000055
:105448002F686F6D652F6368656E6762616E672F81
:105458004769746875622F6E5246355F53444B5FD7
:1054680031352E322E305F393431326239362F637E
:105478006F6D706F6E656E74732F6C696272617296
:105488006965732F7574696C2F6170705F757469C5
:105498006C5F706C6174666F726D2E630000000043
:1054A8002F686F6D652F6368656E6762616E672F21
:1054B8004769746875622F6E5246355F53444B5F77
:1054C80031352E322E305F393431326239362F631E
:1054D8006F6D706F6E656E74732F6C696272617236
:1054E8006965732F71756575652F6E72665F717565
:1054F8006575652E630000002E2E2F2E2E2F2E2E62
:105508002F2E2E2F2E2E2F2E2E2F696E746567723A
:105518006174696F6E2F6E7266782F6C6567616350
:10552800792F6E72665F6472765F756172742E6829
:10553800000000002E2E2F2E2E2F2E2E2F2E2E2F37
:105548002E2E2F2E2E2F636F6D706F6E656E7473F7
:105558002F6C69627261726965732F6D75746578F5
:105568002F6E72665F6D74782E6800002F686F6DFD
:10557800652F6368656E6762616E672F4769746837
:1055880075622F6E5246355F53444B5F31352E326C
:105598002E305F393431326239362F636F6D706F58
:1055A8006E656E74732F6C69627261726965732FB0
:1055B80073657269616C2F6E72665F73657269617B
:1055C8006C2E63002F686F6D652F6368656E676268
:1055D800616E672F4769746875622F6E5246355F32
:1055E80053444B5F31352E322E305F3934313262BD
:1055F80039362F696E746567726174696F6E2F6EC4
:105608007266782F6C65676163792F6E72665F6466
:1056180072765F636C6F636B2E630000000000009E
:105628002F686F6D652F6368656E6762616E672F9F
:105638004769746875622F6E5246355F53444B5FF5
:1056480031352E322E305F393431326239362F6996
:105658006E746567726174696F6E2F6E7266782FEB
:105668006C65676163792F6E72665F6472765F75C9
:105678006172742E630000002E2E2F2E2E2F2E2ED8
:105688002F2E2E2F2E2E2F2E2E2F696E74656772B9
:105698006174696F6E2F6E7266782F6E7266785FAE
:1056A800676C75652E6800002F686F6D652F6368DD
:1056B800656E6762616E672F4769746875622F6EE1
:1056C8005246355F53444B5F31352E322E305F39A9
:1056D8003431326239362F6D6F64756C65732F6E95
:1056E8007266782F647269766572732F7372632F8E
:1056F8006E7266785F636C6F636B2E6300000000E8
:105708002E2E2F2E2E2F2E2E2F2E2E2F2E2E2F2EAC
:105718002E2F696E746567726174696F6E2F6E7271
:1057280066782F6E7266785F676C75652E68000004
:105738002E2E2F2E2E2F2E2E2F2E2E2F2E2E2F2E7C
:105748002E2F6D6F64756C65732F6E7266782F6877
:10575800616C2F6E72665F6770696F2E680000005B
:1057680000000050000300502F686F6D652F6368BC
:10577800656E6762616E672F4769746875622F6E20
:105788005246355F53444B5F31352E322E305F39E8
:105798003431326239362F6D6F64756C65732F6ED4
:1057A8007266782F647269766572732F7372632FCD
:1057B8006E7266785F6770696F74652E63000000AB
:1057C8002E2E2F2E2E2F2E2E2F2E2E2F2E2E2F2EEC
:1057D8002E2F696E746567726174696F6E2F6E72B1
:1057E80066782F6E7266785F676C75652E68000044
:1057F8002E2E2F2E2E2F2E2E2F2E2E2F2E2E2F2EBC
:105808002E2F6D6F64756C65732F6E7266782F68B6
:10581800616C2F6E72665F706F7765722E6800001C
:105828002F686F6D652F6368656E6762616E672F9D
:105838004769746875622F6E5246355F53444B5FF3
:1058480031352E322E305F393431326239362F6D90
:105858006F64756C65732F6E7266782F64726976E3
:105868006572732F7372632F6E7266785F706F77CD
:1058780065722E63000000002F686F6D652F6368E6
:10588800656E6762616E672F4769746875622F6E0F
:105898005246355F53444B5F31352E322E305F39D7
:1058A8003431326239362F6D6F64756C65732F6EC3
:1058B8007266782F647269766572732F7372632FBC
:1058C8007072732F6E7266785F7072732E63000049
:1058D8002E2E2F2E2E2F2E2E2F2E2E2F2E2E2F2EDB
:1058E8002E2F696E746567726174696F6E2F6E72A0
:1058F80066782F6E7266785F676C75652E68000033
:105908002E2E2F2E2E2F2E2E2F2E2E2F2E2E2F2EAA
:105918002E2F6D6F64756C65732F6E7266782F68A5
:10592800616C2F6E72665F6770696F2E6800000089
:105938002F686F6D652F6368656E6762616E672F8C
:105948004769746875622F6E5246355F53444B5FE2
:1059580031352E322E305F393431326239362F6D7F
:105968006F64756C65732F6E7266782F64726976D2
:105978006572732F7372632F6E7266785F756172CA
:10598800742E63006D4000002E2E2F2E2E2F2E2EEB
:105998002F2E2E2F2E2E2F2E2E2F696E74656772A6
:1059A8006174696F6E2F6E7266782F6E7266785F9B
:1059B800676C75652E6800002E2E2F2E2E2F2E2E2A
:1059C8002F2E2E2F2E2E2F2E2E2F6D6F64756C6579
:1059D800732F6E7266782F68616C2F6E72665F67C0
:1059E80070696F2E680000002F686F6D652F6368FF
:1059F800656E6762616E672F4769746875622F6E9E
:105A08005246355F53444B5F31352E322E305F3965
:105A18003431326239362F6D6F64756C65732F6E51
:105A28007266782F647269766572732F7372632F4A
:105A38006E7266785F75617274652E63000000008F
:105A48005D4C0000220000002A0000000700000052
:105A580005000000000000000000000000502700C2
:105A68000600000090530000A4530000C802002064
:105A7800CC02002001010000010000006C5A000067
:105A8800745A000000000000994C0000D002002069
:105A9800F00200200000000000200040000000008C
:105AA800002000400000000010030020985A000069
:105AB800945A00002F686F6D652F6368656E676282
:105AC800616E672F4769746875622F6E5246355F3D
