:100000000000012079030000610300006303000089
:1000100065030000670300006903000000000000A2
:100020000000000000000000000000006B03000062
:100030006D030000000000006F030000710300006A
:1000400073030000730300006908000073030000DD
:1000500073030000730300007303000073030000C8
:1000600073030000730300007303000073030000B8
:1000700073030000730300007303000073030000A8
:100080007303000073030000730300007303000098
:100090007303000073030000730300007303000088
:1000A0007303000073030000730300007303000078
:1000B0007303000073030000000000000000000054
:1000C0007303000073030000730300007303000058
:1000D00073030000730300007303000000000000BE
:1000E0000000000000000000000000000000000010
:1000F0000000000000000000000000000000000000
:1001000000000000000000000000000000000000EF
:1001100000000000000000000000000000000000DF
:1001200000000000000000000000000000000000CF
:1001300000000000000000000000000000000000BF
:1001400000000000000000000000000000000000AF
:10015000000000000000000000000000000000009F
:10016000000000000000000000000000000000008F
:10017000000000000000000000000000000000007F
:10018000000000000000000000000000000000006F
:10019000000000000000000000000000000000005F
:1001A000000000000000000000000000000000004F
:1001B000000000000000000000000000000000003F
:1001C000000000000000000000000000000000002F
:1001D000000000000000000000000000000000001F
:1001E000000000000000000000000000000000000F
:1001F00000000000000000000000000000000000FF
:10020000364937480A1A02D0072291438D463549AC
:1002100035480A1A06D00722914381F30988022241
:1002200082F3148831483249324A00F045F83248A6
:100230003249334A00F040F832483349334A00F03B
:100240003BF833483349344A00F036F833483449F0
:10025000344A00F031F834483449354A00F02CF87B
:1002600034483549354A00F027F8354835490022E9
:1002700000F02DF834483549002200F028F83448C1
:100280003449091A082903DB0022026004300160A6
:10029000314A90471F482049884205D002680430FF
:1002A00003B4904703BCF7E700208646EC460020E5
:1002B00000212A4A9047FEE7884207D0521A05D00B
:1002C000037801300B700131013AF9D1704788424F
:1002D00002D002700130FAE77047000000000120F0
:1002E00000E000200000012000000120381E000076
:1002F0000000002018000020D8030000D8030000F0
:10030000B01D0000381E000000000020000000208A
:10031000B01D0000B01D0000B01D0000B01D0000A9
:10032000B01D0000B01D0000B01D0000B01D000099
:10033000381E0000501E0000180000201800002089
:1003400018000020BC020020BC020020BC020020DB
:10035000BC020020BC220020A10300000512000006
:10036000FEE7FEE7FEE7FEE7FEE7FEE7FEE7FEE765
:10037000FEE7FEE7704700BF1048804710484FF087
:100380000701884385460F4880470F48016841F4BC
:1003900070010160BFF34F8FBFF36F8FFFF730BF66
:1003A0000A480B490B4A884207D0521A05D00378F5
:1003B00001300B700131013AF9D17047750300002B
:1003C00000000120F512000088ED00E0B01D0000E3
:0803D0000000002000000020E5
:1003D800044B1A5C012393404FF0A042C2F8083541
:1003E800704700BFB01D000008B50020FFF7F0FF00
:1003F8000120FFF7EDFF0220FFF7EAFF0320BDE829
:100408000840FFF7E5BF0000074A4FF0A041105C25
:10041800D1F804350122824022EA03001340C1F8D2
:100428000805C1F80C357047B01D0000C20708B5B3
:1004380001460CD54FF0A0430322C3F84427C3F864
:100448004827C3F84C27C3F85027FFF7CDFF8B0781
:100458000AD54FF0A0430C22C3F83427C3F8382735
:10046800C3F83C27C3F8402708BD1FB500210390F7
:1004780001AA44F20100CDE9011100F003F805B02A
:100488005DF804FB72B6094B1B68DB0700D500BE9C
:10049800BFF34F8F0649074BCA6802F4E062134363
:1004A800CB60BFF34F8F00BFFDE700BFF0ED00E06A
:1004B80000ED00E00400FA0549B152B1531E1A409C
:1004C80007D1826001608380C260104670470E20A9
:1004D80070470920704710B58468C2688388121B6A
:1004E800934208D3C26813400268D154C3680133E9
:1004F800C360002010BD0420FCE78268C3689A42EC
:100508000AD08268838813400268D35C0B708368C2
:100518000133836000207047052070470648074A6A
:1005280003780749D35C012213B1043000F0D8BD29
:100538000C3000F0B7BB00BF0000002050000020C6
:10054800400000200648074A03780749D35C012287
:1005580013B1043000F074BD0C3000F04DBB00BF87
:1005680000000020500000204100002037B5057829
:10057800012D04D035D3022D28D003B030BD4368F7
:100588001F4C19782046FFF7A6FF78B11D4B019044
:100598008DF800501B6868469847A168E368A288F0
:1005A8005B1A9A420ED3FFF7B9FFE6E7A268E36841
:1005B8009A42F2D002AB134A03F8080D12681846A3
:1005C8009047EAE7104B01221A70D6E7C3680193F7
:1005D8008DF80050FFF7A2FF0A4B1B686846984742
:1005E800CBE70A490A48FFF788FF10B9FFF7AAFFC7
:1005F800C3E702A8032300F8083D024B1B68EEE797
:100608001C000020180000202C00002041000020C1
:1006180030000020F0B51F46234B89B006461A600B
:100628000C4600293DD08A8820480968FFF744FF16
:10063800002834D1A289A1681D48FFF73DFF002892
:100648002DD11C4D0FCD6C460FC495E80F0084E8E2
:100658000F0073690693337C174A18488DF81C708D
:10066800003318BF01238DF81430737C002B14BF9E
:100678000E2300238DF81530F3680293B3680393B3
:100688003368019369467368009300F0ABF830B99A
:100698000B4B18703368013301D0FFF73FFF09B0E7
:1006A800F0BD0720FBE700BF180000201C00002059
:1006B80030000020B41D0000750500000000002077
:1006C8002C00002070B5084C014608482678FFF732
:1006D80014FF054636B100232370FFF71FFF08B14A
:1006E800FFF7C3FE284670BD2C0000201C00002028
:1006F80010B501460E48FFF7EEFE0446A8B90D48AE
:100708000D4A0378D35C63B1043000F0DDFC60B9B6
:100718000A490748FFF7F1FE38B9BDE81040FFF76E
:1007280011BF0C3000F0B2FAF1E7204610BD00BF4F
:100738003000002000000020500000204100002070
:1007480072B6024A136801331360704744000020F0
:10075800034A1368013B136003B962B6704700BFD0
:1007680044000020FFF7ECBFFFF7F2BF10B50446C6
:10077800C0B2FFF7BDFF204610BD00001FB50378CB
:100788008DF8003043680193037A8DF80830C36808
:100798000393054A054B684653F8213052F8211057
:1007A800984705B05DF804FB480000204C00002085
:1007B8001FB503788DF800304368019383688DF87E
:1007C8000830C3680393054A054B684653F821303F
:1007D80052F82110984705B05DF804FB4800002046
:1007E8004C000020F0B5194B067891F81DE043F84D
:1007F8002620174B94460A6943F82620154B03F820
:1008080006E00C4607460FCC89B06D460FC594E844
:100818000F0085E80F000496BEF1000F0AD0BCF166
:10082800000F0D4A694608BF0022381D00F040FB42
:1008380009B0F0BDBCF1000F084A694608BF0022A4
:1008480007F10C0000F018F9F2E700BF4C00002097
:10085800480000205000002085070000B90700006C
:10086800014B1B68184700BF5400002038B50A4BDD
:1008780098420D460CD10020FFF774FF074B1C79F6
:1008880014B901221D601A710020FFF76DFF0CB921
:10089800002038BD1120FCE7002000405400002053
:1008A8000023435082B043580193019B02B0704724
:1008B8000A4610B54FF48E71FFF7F2FF136A91687C
:1008C800C95C136A01331362C0F81C1510BD0246D7
:1008D80008B54FF492710068FFF7E2FF4FF4847196
:1008E8001068FFF7DDFF136801221A6008BD8B69E5
:1008F8000A4610B54FF4847123B9FFF7D1FFD0F839
:10090800183510BDFFF7CCFF536AD168D0F8180529
:10091800C854536A01335362F3E700001FB501233B
:100928008DF80030044BCDE90110D3E90012684678
:10093800904705B05DF804FB5C00002030B54C4AD8
:10094800D2F8043313F4007F85B015464FD0D2F89F
:100958002431002B4BD04FF492711046FFF7A0FFC3
:100968004FF40173C2F80833424B93F8291009B9C0
:10097800012151603E4902228DF80020D1F88024DF
:10098800C1F8802403929A690292DA6801920022DF
:10099800C3E906226846D3E9001290473448D0F8E4
:1009A8001C315BB133490A6A4B699A420A464BD2F9
:1009B80091F82830002B47D1FFF77AFF2C4AD2F85C
:1009C800443193B14FF4A2711046FFF769FF294BE8
:1009D80093F8291009B1012111609A692AB10022FE
:1009E8009A61586AD968FFF799FF05B030BDD5F804
:1009F80004335B07D2D5D5F80831002BCED01D4C77
:100A08001B482146FFF773FF636AA2699A4223468F
:100A1800C4D1E269E1684AB12369E3600023606AEE
:100A2800A261E3616362FFF779FFB7E794F82920D1
:100A38000AB901226A600E4A4FF40170C2F808032D
:100A480000229A61586AEEE74FF48E710848FFF762
:100A580027FF51690029B1D00023029191688DF8D0
:100A68000030019153616846D2E900139847A5E721
:100A7800002000405C0000202DE9F8435A4B04791F
:100A880091462C2202FB0432064692F82A200D4693
:100A98009846002A40F0A38054490068FFF7E6FE14
:100AA8000746002840F09D8029683368481C0BD011
:100AB8004FF0A04001228A40C0F8082501F5E072F5
:100AC8004FF0030C40F822C06868421C1FBF00F5B5
:100AD800E0724FF0A04C4FF00C0E4CF822E0AA69DF
:100AE80095F814C0C3F824256A7DBCF1010F4CEABF
:100AF8000202C3F86C25C3F81405C3F80C151DD100
:100B0800AA68511C1FBF02F5E0714FF0A0404FF0DA
:100B1800000C40F821C0E968481C0BD04FF0A04CED
:100B280001208840CCF8080501F5E0704FF0030E6D
:100B38004CF820E0C3F80815C3F810252C236343AC
:100B480008EB0302C2F804902A6948F80320B9F1B7
:100B5800000F31D04FF48E7130682D7FFFF7A0FE63
:100B680030684FF4A271FFF79BFE3268204BC2F841
:100B78000433120B53B2002BA8BF03F160404FEAB5
:100B880053134FEA4511BABF1A4802F00F0500F592
:100B980061404FEA8303C9B203F16043B4BF4155D2
:100BA80080F8001303F5614302F01F02012101FAE6
:100BB80002F2C3F880211A6033680422C3F80025C2
:100BC8002C2303FB04830022C3E9062283F829208F
:100BD8005A61012283F82A203846BDE8F88308279D
:100BE800FAE71127F8E700BF5C000020450900007C
:100BF8008000020014ED00E02DE9F843224F067949
:100C08004FF02C0909FB067480466569002D37D121
:100C18006261A16025624FF48E71006884F82850E3
:100C2800FFF73EFED8F80000012383602146FFF756
:100C38003FFE6368A1462BBBD8F80050226A63695F
:100C48009A4212D3D8F80030D3F81C21002AFBD0DE
:100C58000122DA6000202C2303FB0676002373614F
:100C6800BDE8F88394F8283043B9D5F81C31002B37
:100C7800F8D049462846FFF71BFEDFE70F20EAE7D2
:100C88001120EDE72846EBE75C0000200379044AD1
:100C98002C2101FB03235869003018BF012070473D
:100CA8005C0000202DE9F843384E05792C2303FB1E
:100CB800056307465C6824B103684FF40170C3F804
:100CC80008032C2303FB0563986950B1D8690028F1
:100CD8003ED024B13B684FF40172C3F804231120BD
:100CE80034E09A61D9605862D8612C2303FB05630C
:100CF80093F829301BB910B93846FFF7E8FD4FF0D3
:100D08002C0909FB05683868D8F80430002B34D161
:100D18004FF4A271FFF7C4FDC1463868D0F82431FA
:100D2800D0F80821D0F84441B2B90CB9002BF4D05E
:100D38002C2202FB05650022AA611BBB24BB95F887
:100D480029103B680122B1B11A600020BDE8F88380
:100D58001961DA610120C8E7002BE9D1002CE7D13D
:100D68004946FFF7C4FDD8F82430D8F818209A422D
:100D7800D3D82346DCE75A60E7E74FF40173C0F89D
:100D88000433E2E70320E1E70F20DFE75C000020FF
:100D98000023435082B043580193019B02B070472F
:100DA8001FB501238DF80030054B8DF8080001911F
:100DB8006846D3E90012904705B05DF804FB00BF10
:100DC800880000207FB5384AD2F82461002E49D027
:100DD80010464FF49271FFF7DBFF02238DF80030C5
:100DE800D2F88034C2F880340393D2F83C358DF8B9
:100DF80008302E4BDA6801920022C3E906226846C1
:100E0800D3E900129047284AD2F8443173B14FF41D
:100E1800A2711046FFF7BCFF244B996931B100213C
:100E28009961D2F83C05D968FFF7BAFF1E4AD2F893
:100E38002031ABB14FF490711046FFF7A9FF1B4B5F
:100E4800596969B1D2F84C158DF8081000229968D3
:100E58008DF8002001915A616846D3E90012904745
:100E680004B070BDD2F81031002BCCD04FF488718B
:100E78001046FFF78DFF0D4BD2F83C059969884263
:100E8800C1D1DC69D96864B1D2F8005225F02005D7
:100E9800C2F800521A699C61DA60DE61FFF780FFD0
:100EA800B1E79C61FAE700BF0020004088000020FD
:100EB8002DE9F8435E4B06799146242202FB06325F
:100EC800044692F820200D469846002A40F0AB8050
:100ED80058490068FFF7CAFC0746002840F0A5807B
:100EE80029682368481C0BD04FF0A04001228A4093
:100EF800C0F8082501F5E0724FF0030C40F822C055
:100F08006868421C1FBF00F5E0724FF0A04C4FF01C
:100F1800000E4CF822E0AA6995F814C0C3F82425FD
:100F28006A7DBCF1010F4CEA0202C3F86C25C3F8D4
:100F38000C15C3F814051DD1AA68511C1FBF02F572
:100F4800E0714FF0A0404FF0000C40F821C0E96874
:100F5800481C0BD04FF0A04C01208840CCF8080565
:100F680001F5E0704FF0030E4CF820E0C3F80815C7
:100F7800C3F810252423734308EB0302C2F8049036
:100F88002A6948F80320B9F1000F3BD04FF4887163
:100F980020682D7FFFF7FCFE4FF490712068FFF763
:100FA800F7FE4FF492712068FFF7F2FE20684FF4C5
:100FB800A271FFF7EDFE22681F4BC2F80433120B33
:100FC80053B2002BA8BF03F160404FEA53134FEA16
:100FD8004511BABF194802F00F0500F561404FEA04
:100FE8008303C9B203F16043B4BF415580F80013CD
:100FF80003F5614302F01F02012101FA02F2C3F86E
:1010080080211A6023680822C3F80025242303FBE3
:1010180006830022C3E906225A61012283F82020B0
:101028003846BDE8F8830827FAE71127F8E700BF34
:1010380088000020CD0D00001003020014ED00E030
:1010480001F06043B3F1005F2DE9F041074632D16A
:101058001C4B0679242505FB063598466C6964BB4C
:101068006A61A96000684FF49071FFF791FE4FF430
:10107800AC713868FFF78CFE3B686A69A968C3F8E9
:101088004415C3F8482501229A606A68BAB9D3F8AA
:101098002011D3F8582149B9002AF8D00F20242369
:1010A80003FB068600237361BDE8F081002A14BFA4
:1010B8000F200020F3E71020F6E71120F4E7204680
:1010C800F2E700BF880000200379044A242101FBCD
:1010D80003235869003018BF01207047880000209A
:1010E800F8B501F06043B3F1005F04460F465ED1E6
:1010F8000379304D242101FB0351486820B1216850
:101108004FF40476C1F80863242101FB03539E6958
:1011180056B1D969002939D020B123684FF4047237
:10112800C3F80423112030E09A61DF60DE614FF4D8
:1011380088712068FFF72CFE4FF4A2712068FFF732
:1011480027FE2368C3F83475C3F8382516BB012277
:101158001A602279242101FB0251496809BBD3F89E
:101168001041D3F84411D3F8240114B909B900285F
:10117800F5D0242303FB02550023984214BF032013
:1011880018469942AB6118BF0F20F8BD1F61DA619C
:101198000126CCE7D3F8002242F02002C3F800224F
:1011A800D7E74FF40472C3F804230020EDE71020BA
:1011B800EBE700BF8800002038B50478022C04D182
:1011C8004068BDE83840FFF750B9012CF8D07CB929
:1011D800084D09482B781844FFF774FA2046FFF7A2
:1011E80013F92B780133DBB2092B94BF2B702C70C9
:1011F80038BD00BFAC000020AD00002030B5184D50
:101208008BB00120FFF712F90FCD04AC0FC495E89D
:101218000300144B144A00934FF4807384E80300CE
:10122800CDE902230193114A0723694604A8FFF771
:10123800F1F908B1FFF719F90D480E4C00F0BAF9A9
:1012480044F001040120FFF753FA4FF47A754FF484
:101258007A40A047013DFAD10220FFF7D5F8F1E71F
:10126800D41D0000B7000020B7010020C111000004
:10127800F61D0000F01D00000C4B1B78062B10D14A
:101288000B4B1B681A070CD10A4B186800F0F003C7
:10129800302B08D000F0E000A0F14003584258413C
:1012A8007047002070470120704700BFE00F00F032
:1012B800E40F00F0E80F00F0094B1B78062B0CD167
:1012C800084B1B681A0708D1074B186800F0F00094
:1012D800A0F130035842584170470020704700BFC2
:1012E800E00F00F0E40F00F0E80F00F008B5FFF79A
:1012F800C3FF28B17D4B7E4A1B68C3F304231360E8
:10130800FFF7DAFF10B17B4B7B4A1A60FFF7B4FF97
:1013180028B17A4B7A4A1B68C3F342331360FFF74C
:10132800CBFF20B1774AD36823F08073D360FFF7EF
:10133800A3FF40B14FF080430022C3F80C21C3F84B
:101348001021C3F83825FFF7B7FF10B16E4B032201
:101358001A60FFF7B1FF40B16C4B05221A600122F9
:101368009A6700229A603F225A60694B1B78062BC5
:1013780050D1684B1B6819074CD1674B1B6803F0A9
:10138800F003502B46D14FF08052644BD2F804142E
:10139800C3F82015D2F80814C3F82415D2F80C1491
:1013A800C3F82815D2F81014C3F82C15D2F8141461
:1013B800C3F83015D2F81814C3F83415D2F81C1431
:1013C800C3F84015D2F82014C3F84415D2F82414F1
:1013D800C3F84815D2F82814C3F84C15D2F82C14C1
:1013E800C3F85015D2F83014C3F85415D2F8341491
:1013F800C3F86015D2F83814C3F86415D2F83C1451
:10140800C3F86815D2F84014C3F86C15D2F8442410
:10141800C3F87025FFF730FF28B1414B414A1B68DC
:1014280003F04F031360FFF727FF48B14FF08043E5
:10143800D3F80024D20744BF6FF00102C3F8002498
:10144800394B1B68062B08D1384B1B68062B01BF8C
:10145800374A136843F480631360364AD2F88830F9
:1014680043F47003C2F88830BFF34F8FBFF36F8F18
:101478004FF01023D3F80022002A03DBD3F80432FC
:10148800002B2FDA2C4B0122C3F80425D3F80024B3
:10149800002AFBD04FF010221521C2F80012D3F811
:1014A8000024002AFBD04FF010231522C3F8042291
:1014B800214B1A46D3F800140029FBD00021C3F8A9
:1014C8000415D2F80034002BFBD0BFF34F8F194915
:1014D8001A4BCA6802F4E0621343CB60BFF34F8F24
:1014E80000BFFDE7164B174A1A6008BD2403001019
:1014F8004035014074C007400DF0ADBA44020010F9
:101508003C050040F0ED00E0A0050040105600400A
:10151800E00F00F0E40F00F0E80F00F000C000401A
:1015280058020010E40E0040300100103401001091
:101538003C17004000ED00E000E001400400FA051F
:10154800140000200090D00338B504460846A2686D
:1015580042B1236861685D1C8D4208BF00208B4240
:1015680008D2D054E3682BB121686268914201D255
:101578002146984723680133236038BD70B54C1E57
:1015880009D41646C5B229463046FFF7DDFF013CAF
:10159800B4F1FF3FF7D170BD10F0100F09D108B5B5
:1015A80000F40070002814BF30202020FFF7E6FF69
:1015B80008BD70470FB410B586B008AB53F8044B9C
:1015C8000593002303936FF000430293084B0493A1
:1015D80000F050F8059A214601A800F04DF804469D
:1015E80000F049F8204606B0BDE8104004B0704746
:1015F8007507000003784BB151B10144034613F855
:10160800012F0AB18B42FAD1181A70470346FBE73B
:101618000346F9E700F1010110F0030F11D010F8AB
:10162800012B002A23D010F0030F0AD010F8012B49
:10163800002A1CD010F0030F03D010F8012B002A49
:1016480015D02DE970004FF001324FF0803350F87B
:10165800044BA4EB020525EA04051D4000D1F6E77A
:10166800A0F1040070BC10F8012B002AFBD1A0EBFC
:1016780001007047704770472DE9F04F89B08046E8
:101688000F46039200230360DFF81CA680E30025C1
:1016980002E045F040052646344614F8010BA0F157
:1016A80020033E2B00F2948001A252F823F000BFE1
:1016B8009B160000D9170000D9170000B5170000C5
:1016C800D9170000D9170000D9170000BB17000070
:1016D800D9170000D9170000D9170000C717000054
:1016E800D9170000CD170000D9170000D91700003E
:1016F800D3170000D9170000D9170000D917000028
:10170800D9170000D9170000D9170000D917000011
:10171800D9170000D9170000D9170000D917000001
:10172800D9170000D9170000D9170000D9170000F1
:10173800D9170000D9170000D9170000D9170000E1
:10174800D9170000D9170000D9170000D9170000D1
:10175800D9170000D9170000D9170000D9170000C1
:10176800D9170000D9170000D9170000D9170000B1
:10177800D9170000D9170000D9170000D9170000A1
:10178800D9170000D9170000D9170000D917000091
:10179800D9170000D9170000D9170000D917000081
:1017A800D9170000D9170000C117000045F08005BF
:1017B80071E745F400456EE745F480556BE745F061
:1017C800200568E745F0100565E745F4007562E710
:1017D8002A2814D0A0F13003DBB2092B0DD8002140
:1017E80001EB8101303800EB410114F8010BA0F145
:1017F8003003DBB2092BF3D90CE000210AE0039B8C
:101808001A1D039219680029BCBF494245F010050A
:10181800B41C707821EAE1762E280FD000217428B4
:1018280030D07A282ED06C2800F0AC804C2800F0FC
:10183800AE80682800F0BB80274625E020782A285B
:1018480015D00134A0F13003DBB2092B0DD80021EB
:1018580001EB8101303800EB410114F8010BA0F1D4
:101868003003DBB2092BF3D907E0002107E0039B23
:101878001A1D03921968607802340029CFDB45F4F9
:101888008075CCE7671C2078782800F29C80DFE818
:1018980010F05C029A009A009A009A009A009A0046
:1018A8009A009A009A009A009A009A009A009A0060
:1018B8009A009A009A009A009A009A009A009A0050
:1018C8009A009A009A009A009A009A009A009A0040
:1018D8009A009A009A009A009A009A009C009A002E
:1018E8009A009A009A009A009A009A009A009A0020
:1018F8009A009A009A009A009A009A009A009A0010
:101908009A009A009A009A009A009A009A009A00FF
:101918009A009A009A009A009A009A009A009A00EF
:101928009A009A009A009A009A009A009A009A00DF
:101938009A009A009A009A009A009A009A009A00CF
:101948009A000A019A009A009A009A009A009A004E
:101958009A009A009A009A00A10047019A009A00FA
:101968009A009A0047019A009A009A009A00BA00D1
:101978003401F3009A009A00CD009A0040019A00C1
:101988009A000C01671C207845F001057CE745F0BA
:101998000105C14B1F68002F00F0C58103AB0193FF
:1019A800009133462A464146B8472746F0E1207859
:1019B800682803D0671C45F0040565E745F008056D
:1019C800A71C607860E73C46E3E725214046FFF71F
:1019D800BBFDDDE1039B1A1D03921C78013E4246C4
:1019E80031462846FFF7D8FD21464046FFF7ACFDB3
:1019F800A94619F0100F00F0CB814246314620204D
:101A0800FFF7BCFDC4E115F0080F07D0D8F8002097
:101A1800039B191D03911B681A70B9E1039B1A1DDA
:101A280003921B68D8F800201A60B1E1039B1A1DC5
:101A380003921868994B002808BF1846044625F4F5
:101A4800007915F4807F13D0FFF7D4FD0546761B87
:101A5800424631464846FFF79FFD002DC9D0254430
:101A680014F8011B4046FFF76FFDA542F8D1C0E707
:101A7800FFF7D0FD0546EAE7039B1A1D03921B6892
:101A880005F08002002A0CBF0024232445F4807549
:101A98000821002B00F02D814FF0000905F40050BB
:101AA80005AA8E46D4E045F4005515F0800F22D0E3
:101AB80043F2780443F25803782818BF1C4615F4FB
:101AC800807F01D025F4007515F4804F36D0039B34
:101AD8001A1D03921B6815F0040F27D01BB2002BA8
:101AE80029DB15F0200F40F0868005F04002002A1F
:101AF80018BF20242AE00024E1E705F08003002B2A
:101B08000CBF0024302415F4807FDDD025F4007547
:101B1800DAE715F4807F07D025F400750024D3E7B1
:101B280045F480450024CFE70024CDE715F0080FE1
:101B380018BFDBB2D3E75B422D2407E0039B1A1DD5
:101B480003921B6815F0040F50D09BB215F4807FE8
:101B580014BF25F4007501215838202800F2C680EA
:101B680001A252F820F000BF9B1A0000F51C0000EB
:101B7800F51C0000F51C0000F51C0000F51C000019
:101B8800F51C0000F51C0000F51C0000F51C000009
:101B9800F51C0000F51C0000251C0000F51C0000C9
:101BA800F51C0000F51C0000F51C0000251C0000B9
:101BB800F51C0000F51C0000F51C0000F51C0000D9
:101BC800F51C0000031C00009B1A0000F51C000017
:101BD800F51C0000F51C0000F51C0000251C000089
:101BE800F51C0000F51C00009B1A000015F0080FFA
:101BF800ACD0DBB2AAE72B24A8E763B105A84FF065
:101C0800000903F00702303200F8012B09F101093D
:101C1800DB08F6D127E04FF0000924E053B14FF07C
:101C2800000905F4004C4FF02C0E9B4663468C4689
:101C380019464CE04FF0000915E003F00F0C184965
:101C480011F80CC009F802C009F101091B0909D0F3
:101C58000028F2D003F00F0C124911F80CC009F853
:101C680002C0F1E77146A1EB090B2BEAEB7BA6EB6F
:101C78000B06A6EB0906FF2C88BF06F1FF36002CE1
:101C880066D0013E15F4007F36D0FF2C3ED8E1B275
:101C98004046FFF759FC5EE0B8020020301E000005
:101CA800101E0000201E0000CDCCCCCC08AB03EBEE
:101CB8000900AAFB0B32D20802EB8203ABEB430309
:101CC800303300F80C3C09F10109934662B1002950
:101CD800ECD009F00303032BE8D108AB4B4403F81D
:101CE8000CEC09F10109E1E76146BCE74FF0000996
:101CF800B9E74FF00009B6E7424631462846FFF7F4
:101D08004BFCFF2C01D8002605E00026C4F3072170
:101D18004046FFF719FCF4B1B9E7424631462020A6
:101D2800FFF72CFC34E0274632E0D8F808303BB106
:101D3800D8F80020D8F804108A423CBF00219954F2
:101D4800D8F8000009B0BDE8F08F4FF0FF30F9E790
:101D580015F4007FD0D0424631462846FFF71CFCD8
:101D6800424659463020FFF709FCB9F1010F0CD45F
:101D780008AB9944A9F10D090DF1130419F80119DB
:101D88004046FFF7E1FB4C45F8D115F0100FC4D1E0
:101D98007E1C39780029C8D025293FF478AC404604
:081DA800FFF7D2FB3746F3E719
:101DB00011121314FFFFFFFFFFFFFFFFFFFFFFFFE5
:101DC000FFFFFFFF00000000000000000000D60140
:101DD000060100000D0000000E000000FFFFFFFFE5
:101DE000FFFFFFFF00000000005027000000000080
:101DF0000338FDD870470D0A55415254206578616B
:101E00006D706C6520737461727465642E0D0A00C8
:101E10003031323334353637383961626364656660
:101E20003031323334353637383941424344454610
:081E3000286E756C6C2900009E
:101E380000000000002000400000000000200040DA
:081E4800000000000090D0032F
:04000003000003797D
:00000001FF
