:020000022000DC
:106000000000042079630200616302006363020000
:10601000656302006763020069630200000000001C
:106020000000000000000000000000006B630200A0
:106030006D630200000000006F63020071630200E4
:106040005197020073630200119C02007363020007
:1060500073630200736302006D9A020073630200AF
:1060600073630200736302007363020073630200D0
:1060700073630200736302007363020073630200C0
:106080007363020011710200736302007363020004
:10609000AD7102007363020091E8020073630200B5
:1060A0007363020073630200736302007363020090
:1060B0007363020073630200000000000000000030
:1060C0007363020073630200736302007363020070
:1060D0007363020073630200736302007363020060
:1060E0007363020073630200736302000000000028
:1060F00000000000736302000000000073630200F0
:10610000000000000000000000000000000000008F
:10611000000000000000000000000000000000007F
:10612000000000000000000000000000000000006F
:10613000000000000000000000000000000000005F
:10614000000000000000000000000000000000004F
:10615000000000000000000000000000000000003F
:10616000000000000000000000000000000000002F
:10617000000000000000000000000000000000001F
:10618000000000000000000000000000000000000F
:1061900000000000000000000000000000000000FF
:1061A00000000000000000000000000000000000EF
:1061B00000000000000000000000000000000000DF
:1061C00000000000000000000000000000000000CF
:1061D00000000000000000000000000000000000BF
:1061E00000000000000000000000000000000000AF
:1061F000000000000000000000000000000000009F
:10620000364937480A1A02D0072291438D4635494C
:1062100035480A1A06D00722914381F309880222E1
:1062200082F3148831483249324A00F045F8324846
:106230003249334A00F040F832483349334A00F0DB
:106240003BF833483349344A00F036F83348344990
:10625000344A00F031F834483449354A00F02CF81B
:1062600034483549354A00F027F835483549002289
:1062700000F02DF834483549002200F028F8344861
:106280003449091A082903DB002202600430016046
:10629000314A90471F482049884205D0026804309F
:1062A00003B4904703BCF7E700208646EC46002085
:1062B00000212A4A9047FEE7884207D0521A05D0AB
:1062C000037801300B700131013AF9D170478842EF
:1062D00002D002700130FAE770470000000004208D
:1062E00000E003200000042000000420D812030076
:1062F0002422002064220020D8630200D863020018
:106300007AEE0200D812030024220020242200206A
:10631000E4EF0200E4EF0200E4EF0200E4EF020029
:10632000E4EF0200E4EF0200E4EF0200E4EF020019
:10633000D8120300181303006422002064220020F6
:1063400064220020A0350020A0350020A0350020C8
:10635000A0350020A0550020A163020051A3020037
:10636000FEE7FEE7FEE7FEE7FEE7FEE7FEE7FEE705
:10637000FEE7FEE7704700BF1048804710484FF027
:106380000701884385460F4880470F48016841F45C
:1063900070010160BFF34F8FBFF36F8FFFF730BF06
:1063A0000A480B490B4A884207D0521A05D0037895
:1063B00001300B700131013AF9D170477563020069
:1063C000000004209192020088ED00E0D0EF02006E
:0863D00010220020242200200D
:1063D8007047000007B5044B0093044A402300F0BF
:1063E80032F803B05DF804FBF9630200652200206F
:1063F8002DE9F84389461446B2B10F4B0F4E0325D9
:10640800002743F00108224609EB0701002004F0A9
:1064180047F90744241A48B933782BB14FF47A4026
:10642800C047013D02D13570BDE8F88301233370C0
:10643800002CE8D1F8E700BFF0EF0200642200204A
:10644800704704F061B9F0B595B01C461646084689
:106458000D4602F059FE1A9B0D93CDE908640024FD
:106468002346082205A928460A948DF82C400C9446
:1064780002F068FE079B0293BDF81830ADF80C30A7
:10648800BDF81A30ADF80E309DF814308DF8114073
:1064980003F00302012A1DD1BDF81440059EC3F381
:1064A800C203C4F383148DF81030A20008230EA988
:1064B800284602F047FEC6F3952608AB009322460D
:1064C80002AB0EA9304600F077FB284602F020FE0A
:1064D80015B0F0BD022AF8D1BDF81640C3F3C203C7
:1064E800A4098DF810300827082C264628BF08264E
:1064F8003B4632460EA9284602F024FEA41B08ABF0
:1065080002AA31460EA8374400F0BAFB002CEBD1A2
:10651800DBE7000008B5FFF794FF0421034800F00B
:10652800B9FA034B01225A7108BD00BFC0EF02003F
:1065380024220020037813F0040216D003F003038A
:10654800012B03D0022B09D0012070470A6800886C
:106558000232C0F3831002440A60F5E70B684288F0
:10656800023303EB92130B60EEE71046704700000E
:106578002DE9F04F89B00546861C08A8484C0192C1
:1065880000230F4600F8113D00F0F8FF23683B6038
:10659800D4E901231344226801339B1A04F21C47EF
:1065A80004F5836A04F21448B3421AD3019A00230B
:1065B800002A6DD0012262F3010343F0040365F35E
:1065C80089132168A2689DF80F000A4003320E441F
:1065D80044F82230266000F0F5FF012009B0BDE83C
:1065E800F08F0121384602F011F8504602F027F8E2
:1065F800404602F024F80DF120096068D4F808B08C
:1066080049F8100D00EA0B00033004EB80004946FE
:10661800FFF790FF049BB0B90BEA030204EB820278
:10662800D16805919A1C013303EA0B0B04EB8B0C20
:1066380001F00303012B0492DCF80CB020D0022BEC
:1066480004D083460BE00BEA0300DDE7BDF8163003
:106658009B0903334FEA1B4B02EB93030493404619
:1066680001F0F0FF08B1049B63605946384601F019
:10667800CDFFD4E901231344226801339B1A93E721
:10668800BDF81430C3F383134FEA1B4B1344E5E7FB
:10669800022262F3010343F0040365F39F5390E77A
:1066A800782300200B4B0C48FF2210B59A6000227B
:1066B800C3F81824C3E90022C3F8142483F820245B
:1066C80002F0DBFC044610B9044802F085FD2046C0
:1066D80010BD00BF78230020FCEE020014F0020079
:1066E80030B50A4C71B10A4A0A49121BD208002374
:1066F8009A4201D1002030BD31F82350854202D0A2
:106708000133F5E7034654F83300F4E710EF0200CD
:10671800C0EF020024220020094B013903EBC0001E
:10672800032909D8DFE801F00A02040604207047AB
:106738000079704740797047002070470220704701
:1067480010EF0200034BD3E90030C31A58425841F6
:10675800704700BF782300202DE9F04387B0FFF78A
:10676800F1FF0646002840F0FC807F4DC5F818046C
:10677800BFF34F8F6868AC6806AF47F8100D20402C
:10678800033005EB80003946FFF7D4FE029B18B1B1
:10679800D5F81824002A5FD004EA0302991C0133B3
:1067A80005EB8202234005EB8303D268DB68049380
:1067B80002F00303022B0392029162D1BDF80E305E
:1067C8006A484FEA9318B8F1500FC14628BF4FF0F6
:1067D800500969F38F1309F10801ADF80E3002F082
:1067E80064FC0746002800F0A78002F08DFC03A98E
:1067F80000230822384602F09AFC029924EA01068E
:106808000136B600B14535D95FFA89F97EB3F6B2DB
:10681800A9EB0609214003315FFA89F4B146544EC9
:1068280005EB810108234A46384602F080FC36B160
:1068380009F1080322463146384602F078FC029BEB
:1068480008F1030803EB98030293D5F81834002BDA
:106858004BD1D5F810445BE02A689A4204D86A60A4
:10686800304607B0BDE8F08304EA030088E74049F2
:106878003446D7E72140033108234A4605EB810116
:10688800DAE7012B58D1BDF80C303848C3F383112F
:10689800062928BF062161F3891302318900ADF862
:1068A8000C3002F002FC0746002845D002F02CFC10
:1068B8000023082203A9384602F039FC0026BDF857
:1068C8000C20C2F38312B31C96424FEA8303BCD256
:1068D80002994A1C21400331029205EB81010422EE
:1068E800384602F024FC0136E9E7384602F010FC8D
:1068F800FFF728FF80F00100C6B2B1E7E3685B79D3
:1069080023B1236839461B6820469847E3681C680A
:10691800002CF3D1384602F0FBFB06A800F8114D15
:1069280000F02CFED5F818340BB9029B6B609DF86B
:10693800070000F047FEDBE7D5F8104454B90D4BCB
:106948000D480E49C01AC008000440F0020000F0CB
:106958006FF8CDE7236820469B689847E3681C6872
:10696800ECE700267CE700BF78230020FCEE02005D
:106978008423002010EF020038EF020020F002000C
:106988002DE9F74F284C80460F46924601A901226F
:1069980018469B46D4F80890FFF7EAFD88B3019D96
:1069A8000026A91C5E4506EB010234D100211F48D0
:1069B80001F0EBFD80F310006A1C02EA090204EB07
:1069C8008202000405EA0903033340EA1840D06054
:1069D80014F8232068F3C50204F8232034F8232090
:1069E80066F3891224F8232054F82320012167F341
:1069F8009F2244F8232061F301026FF3820204F816
:106A0800232094F820341BB1FFF7A6FE0028FBD101
:106A180003B0BDE8F08F09EA020204EB82025AF8DB
:106A28002630D3600136BDE7782300209427002064
:106A380000231A46FFF7A4BF13B502AC012344F89C
:106A4800042D2246FFF79CFF02B010BD07B5CDE923
:106A5800002302236A46FFF793FF03B05DF804FBA7
:106A68001FB5CDE90123069B039301AA0323FFF772
:106A780087FF05B05DF804FB1FB5CDE90023069B31
:106A88000293079B03936A460423FFF779FF05B037
:106A98005DF804FB30B50F49D1F8102400231446E3
:106AA8003CB9C468237152B9C1F810042260184671
:106AB80030BDE46825799D4206D02468F0E7D268A5
:106AC800116821601060F2E701330A2BE7D14FF01B
:106AD800FF33ECE778230020094A38B50123D2F8C0
:106AE800104482F820341D4604B938BDE3685D714E
:106AF800236820465B689847E3681C68F4E700BF92
:106B080078230020037A052B10B50C460FD0437A62
:106B180023B1084A0849204601F0F5FD07492046F7
:106B280001F0F1FD2046BDE8104001F0E1BD002A6A
:106B3800F8D0F3E76BF002000F0703008DF00200B6
:106B4800C38873B504460D4633B1144A00921449FC
:106B5800144A284601F0D7FD217A05291CD0637A0A
:106B68004BB1A088FFF7D8FD0F4B104953F82020F0
:106B7800284601F0C8FD227A0D4BA08853F8226000
:106B88000021FFF7ADFD0B4903463246284602B007
:106B9800BDE8704001F0B7BD02B070BD6BF00200F7
:106BA80078F0020070F0020038F002000F070300CE
:106BB8009CF0020090F002002DE9F04385B01F46DA
:106BC8000C9D002306460C46904695F80C902B73B6
:106BD80029463846FFF7B4FFB8F1060F09D8DFE8B1
:106BE80008F00412181F283340003146284601F0E7
:106BF8008AFD002229463846FFF784FF85F80C9065
:106C080005B0BDE8F08322683146284601F07BFDD7
:106C1800EFE7D4E900233146284601F074FDE8E7A0
:106C2800A36800933146D4E90023284601F06BFDA0
:106C3800DFE7E3680193A36800933146D4E90023B2
:106C4800284601F060FDD4E723690293E3680193C5
:106C5800A36800933146D4E90023284601F053FD88
:106C6800C7E76369039323690293E3680193A36801
:106C780000933146D4E90023284601F044FDB8E7E3
:106C880008292DE9F84F80460E4617461C4636D887
:106C9800002593F80C901D7319461046FFF750FF16
:106CA800DFF87CA0DFF87CB0AE422AD918F80520BE
:106CB8005946204601F027FD0135082DF4D1164923
:106CC800DFF864B0204601F01EFD0025AE421DD954
:106CD80018F805A0504607F0E3FF002814BF5246F5
:106CE8002E225946204601F00EFD0135082DEDD122
:106CF800012221463846FFF705FF84F80C90BDE8CD
:106D0800F88F5146204601F0FEFCD5E7034920469E
:106D180001F0F9FCE9E700BF66F0020064F0020048
:106D280062F002005CF0020068F002002DE9F04F0A
:106D38003B4F89B000263B4B1B78F5B2AB4202D8DB
:106D480009B0BDE8F08F384B196811F835000124F7
:106D5800A0F12002C0F1200304FA02F924FA03F397
:106D680049EA0309D7E9002304FA00F8CDE9042326
:106D780002EA080203EA0903134301EBC50B4CD0EE
:106D8800DDE9042322EA080223EA0903C7E900230C
:106D9800079102F057FE0799844611F83500A0F1D3
:106DA8002002C0F1200324FA03F304FA02F21A4382
:106DB80004FA00F300931D4B0192DDE90045D3E985
:106DC800002314401D4022462B465FFA8CF4002510
:106DD800CDE90445049CA0F12005AC400394049C33
:106DE800C0F1200124FA01F1039C0C430499039497
:106DF80081400291DDE90245AB4208BFA2420CD1B5
:106E08009BF801104B1E59425941A1EB0C02DBF8CB
:106E180004305142514103B1984701368BE700BF16
:106E280068280020342800207028002060280020CE
:106E38002DE9F84F0646244800F090FB002841D180
:106E48000123A6F12001C6F1200203FA01FB23FA6F
:106E580002F203FA06FA1D4BD3E900014BEA020BD2
:106E680000EA0A0801EA0B0958EA09021F4623D179
:106E7800304602F0E7FD164BB8B1D3E9000140EA0D
:106E88000A0441EA0B05C3E90045D7E900234BEAA8
:106E98000305104B0C4819684AEA0204C7E9004583
:106EA8000022BDE8F84F00F015BBD3E9000120EA45
:106EB8000A0421EA0B05E6E720EA0A0421EA0B05A1
:106EC800C3E90045BDE8F88F3C2800206828002069
:106ED8006028002038280020042A2DE9F3410546BF
:106EE8000C4616463AD902F0D3FCD8B11C4B1D49C2
:106EF8001D601D4BDFF884801C701C4B00221E6037
:106F08000023C1E900231A49C1E90023013CE4B286
:106F180000260327FF2C0CD1164A1748002100F041
:106F2800C7FA03E002F07CFC0028DFD002B0BDE81D
:106F3800F08123B205EBC30201A992788DF80520F0
:106F480015F833008DF8066042468DF8047002F09B
:106F5800A9FC013CE4B20028DCD0E7E70720E5E71C
:106F680070280020602800203428002038280020BD
:106F780068280020356D0200FCF00200396E02001E
:106F880070B5084D084E00242B789C4201D3002090
:106F980070BD3368012113F8340002F009FD013493
:106FA800F2E700BF34280020702800201FB5002118
:106FB800039001AA44F20100CDE9011100F004F8A0
:106FC80005B05DF804FB000010B572B6FFF784FD4C
:106FD800FFF7C2FB0028FBD1104B114C1149E41AF2
:106FE800E408240444F00100FFF722FD0E4B1B685F
:106FF800DB0700D500BE0D4944F00200FFF718FD7D
:10700800BFF34F8F0A490B4BCA6802F4E06213437F
:10701800CB60BFF34F8F00BFFDE700BF10EF02004A
:1070280038EF020000F10200F0ED00E00CF1020080
:1070380000ED00E00400FA05094A5378917801331D
:10704800DBB2994208BF0023117899421FBF037031
:107058005078182303FB002014BF04300020704729
:107068007428002073B5054602A8002400F8014DD5
:107078000E4600F083FA0DF10600FFF7DDFF90B130
:1070880006700A4B9DF8062045605A709DF8070067
:1070980000F098FA24B9064B4FF48012C3F8002187
:1070A800204602B070BD0424F0E700BF7428002019
:1070B80000E100E0024B4FF43C6043F00103184745
:1070C80020F1020038B50C4B0C4C4FF40032C3F8D9
:1070D800802001254FF48033C4F84833C4F80833BE
:1070E8006560FFF7E7FF064BA56000241C60FFF70B
:1070F800E1FF044B1C7038BD00E100E000100140C6
:107108009029002081290020F8B51F4B1F491B68D2
:107118000025C1F84051C1F84451C1F84851C1F89F
:107128004C51C1F80051C1F804514BB3D1F8044592
:1071380017490968641A24F07F442F461A68A24246
:1071480009D8A41A15441A7CDE691AB11F74D3E948
:1071580005209047AEB90F4B0F4A197813788B4228
:1071680005D10133DBB2022B08BF0023137012785C
:107178000A4B43F822500A4B4FF48012C3F80021FF
:10718800F8BD3346DAE700BF94290020001001401B
:10719800902900208C2900208D2900208429002096
:1071A80000E100E02DE9F74F9E4A9F4913780978DE
:1071B8009E4D99423CD00133DBB2022B08BF00231D
:1071C80013709B4912789B4B0F6853F822003B18A9
:1071D80023F07F4300220B602B6816461446944622
:1071E80013B942B12B6006E0196881420ED902B189
:1071F8002B60091A19604FF001082B68DFF83CA2D0
:1072080000930027BEB9DFF83CB260E0401A0C4496
:10721800D968C3F800C0D3F81CE031B13A1922F09C
:107228007F42C3E90121DE611E4601227346D7E78A
:107238000026B046E1E73446F6697D4A636812687D
:10724800DFF804C2A068991A21F07F41614500F275
:10725800A58001442160012222742A680023C4E920
:107268000133E361002A40F0A2802C60CAE75A1C6F
:107278009BF80210D2B291428BF8002004BF002282
:107288008BF80020182202FB03B32A6819799C683E
:10729800022974D003297ED0012918D1217CB1B9E3
:1072A800DA6862601A69A2605A699B69A361624BD5
:1072B800E2601B78002BC0D06160BEE79C4200F002
:1072C80093809946DB69002BF8D1002323749BF83F
:1072D80000309BF801209A42C9D12B682FB9009A37
:1072E800934202D1B8F1000F43D0002B79D0D3F8E4
:1072F80000A0524D4E4BD5F804751C68DFF84C8140
:107308003E1B98F8003026F07F4603369BB94FF4B1
:107318008033C5F84433C5F80433494B4FF4003281
:107328004FF00109C3F880211A60C5F80090FFF7F3
:10733800C1FE88F80090B2452CBF5444A41924F02B
:107348007F44C5F84045D5F80435DB1B23F07F435F
:10735800E41B033324F07F44A3420AD9D5F804354B
:10736800C5F84035FFF7A6FE354B4FF40032C3F899
:107378000021314B00221A7003B0BDE8F08F13468C
:107388009146A0E71174D2690123002AFAD1002B93
:107398009DD02A609BE700231946F6E7D31A23F00D
:1073A8007F43834234BFC31A0023236053E7216815
:1073B8001368994213D8591A1160E26155E7091AFE
:1073C800D8691A4638B1034618688842F7D3401A74
:1073D8001860184613462160E061DC6112E7134625
:1073E800F2E7FFF76FFEC4E74C450DD1D3692B6078
:1073F80053B90F4801920121CAF8081003600E4BD7
:107408001970FFF757FE019AE1692368C9F81C1043
:1074180011B1086803440B602B689A4218BF012712
:1074280053E700BF8C2900208D29002094290020D3
:107438009029002084290020802900200010014084
:1074480000E100E074280020FEFF7F008129002071
:1074580008B5FFF737FE104B00200B2218809A70F2
:107468000E4B18600E4B18700E4B18700E4B4FF4E5
:107478008012C021C3F8802183F814131A6002F126
:107488008042A2F56F22C2F8080583F81113074B52
:10749800D2F804251A6008BD742800209429002019
:1074A8008C2900208D29002000E100E0902900208F
:1074B800074B9B784BB132B128B10368187C20B9CF
:1074C80059745A617047072070470820704700BFF9
:1074D800742800202DE9F7431D4FBB7805460E465A
:1074E80090469BB390B304292ED9436973B3437C68
:1074F80002A80024012B00F8014D0CBF8946A146C3
:1075080000F03CF80DF10600FFF796FDD0B101231D
:107518000370104B4560D3F80435C0E90498C0E9FE
:1075280002369DF806307B709DF8070000F04AF897
:1075380024B9094B4FF48012C3F80021204603B048
:10754800BDE8F0830424EFE70724F7E70824F5E70C
:10755800742800200010014000E100E0064A9278FB
:107568003AB130B1426922B1002202740221FFF718
:1075780079BD0820704700BF7428002070B5EFF36C
:10758800108672B60C4A946801239CB993600B4B21
:107598000B4DD3F8801029401160C3F88050D3F800
:1075A800841051604FF0FF32C3F88420047006B98C
:1075B80062B670BD0370FAE79829002000E100E088
:1075C800FC06FFBD084B9A6810B55AB150B9EFF3E5
:1075D800108272B605491C680C605C684C60986043
:1075E80002B962B610BD00BF9829002000E100E092
:1075F80070B5064E0546002456F824300BB12846CF
:1076080098470134042CF7D170BD00BFB029002081
:10761800033080B240F2FD33984230B51FD8124B88
:107628001A783AB91C895D892C440444A4B2B4F58B
:10763800806F0AD31A7DA2B99A8BDC8B224402444C
:1076480092B2B2F5806F0CD201220A80144614223D
:1076580002FB04335A8910445881002030BD0920A8
:10766800FCE70720FAE700BFE42900200B4A0C4B8F
:107678005188142000FB0131CB6833B904204968D4
:1076880010700122074801F0C3BA05230649137098
:1076980002238B80012200230968F3E7C829002010
:1076A800E429002010220020AC2A002007B500237E
:1076B80005490093054A09680548082301F012FAAC
:1076C80003B05DF804FB00BFAC2A002034F10200CF
:1076D8001022002007B50023009301460823034A1F
:1076E800034801F0FFF903B05DF804FB2CF1020038
:1076F8001022002013B500230C46009301460423F2
:10770800074A084801F0EEF938B9074B142202FB82
:1077180004340123237402B010BD0E20FBE700BF20
:1077280028F1020010220020E429002037B50A4879
:107738000A4B42689C8819685388032503330570EF
:107748009BB2002000909B0001EB8401044801F0EB
:10775800C9F903B030BD00BFC8290020AC2A0020F9
:107768001022002010B50146044800F042FE1C22F9
:107778000446002107F0F8FA204610BD982A002098
:107788004388033300EB8303994209D382884FF679
:10779800FF739A4206D00088B0FA80F0400970471B
:1077A80002207047012070472DE9F8430223DFF8D3
:1077B80060800B800D46174600F5805600F10804DE
:1077C8004FF00109B4420FD2236801330CD031467F
:1077D8002046FFF7D5FF48B10FB187F8009002287F
:1077E8000BD14FF480632B80BDE8F883A368D8F8E9
:1077F8000020934201D9C8F800302B8862880333EF
:1078080013442B806388033304EB8304DAE700BF57
:10781800DC290020144A142303FB002070B50B68F0
:1078280044680D4604F580569BB15C88033403EB2D
:107838008404B4420BD22368013308D03146204671
:10784800FFF79EFF012809D005D30228F1D10020B7
:1078580003E00834EDE72C60012070BD6388033332
:1078680004EB8304E5E700BFE4290020436873B50F
:1078780005460C466BB3254AD1688B4229D3126959
:10788800934226D813F0030223D12149008909899C
:1078980088421ED12868996888421AD11D494868CB
:1078A800834203D900F5805083420ED38A699342FC
:1078B8000DD902F58052934209D20123238000207A
:1078C800B0FA80F0400902B070BD1346F6E70A200E
:1078D800F6E7002323801E462388012B01D90020C8
:1078E800F1E7019601A92088FFF794FF18B92388CA
:1078F80001332380F0E7019B2A6899689142F1D10E
:107908006B60034B1B892B81DDE700BF1022002031
:10791800C8290020E42900202DE9F8431C461E4B05
:107928001B7806460F461546002B30D0002A30D06B
:107938007CB3DFF86C804FF01409A388012B01D9C0
:107948000A201AE009FB03F318F80330BBB1A38837
:107958000133A380F1E723681EB1998832889142E8
:107968000DD11FB119883A88914208D19A68C5E9A2
:1079780000230A4B1B892B810020BDE8F883214690
:10798800A088FFF747FF0028E5D12060DFE7022045
:10799800F3E70520F1E700BFC0290020C82900202F
:1079A800E429002008B5074B191D5888FFF732FF56
:1079B80018B1BDE80840FFF7B9BEBDE80840FFF7B9
:1079C80055BE00BFC82900202DE9F04FA04FDFF8B1
:1079D800A49289B00646B8463B6823B949469D48F3
:1079E80000F041FD3860D8F8005029784B1E052B6F
:1079F80000F21281DFE813F0060076007600060137
:107A080006015D0126B1944B00225A60012424E04E
:107A18002B79032B1DD8DFE803F01502424D8F495F
:107A28000B78022B084631D00B7D022B4FF0010357
:107A38002ED114225343C2180020C8545068FFF7AF
:107A480049FE03E001232B71FFF730FE002800F008
:107A5800D380814B00225A600E241422002103A8EF
:107A680007F082F941F61D539C4208BF0024D8F85C
:107A7800003004941A78023A042A00F2D381DFE82D
:107A880012F0B401C001E301EB01F2010023D0E7D9
:107A9800714A13700023536041F61D54DDE77049A5
:107AA8007048002302222B718A800122096801F0A4
:107AB800AFF8CBE76A4C00262E712068674DFFF7B8
:107AC80009FE694BD4F800C05A8814235343EA18B6
:107AD800EE5451682160A188C2F804C011810222C5
:107AE800A280B3E7B5F814A0AA7DDFF870B1AEB1F3
:107AF800022AEB8806D9142101FB0AB1DA1C08898D
:107B080002440A81142202FB0ABAC3F57F43BAF879
:107B18000A20FD331344AAF80A3077E7142303FB3D
:107B28000AB318895C6804EB8004062A05D8DFE8E4
:107B380002F0264C34421C5866000F24AA7DEB88BC
:107B4800022A06D9142101FB0AB1DA1C0889024469
:107B58000A81142202FB0ABAC3F57F43BAF80A2045
:107B6800FD331344AAF80A3077E740484049002318
:107B78004360AB690360FFF779FE00285AD00223FF
:107B8800AB75002300930423EA182146354800F01A
:107B9800A9FF002830D00E24D0E72B69002B0CBF9A
:107BA80001230323AB750023009305F10C02042382
:107BB80004F10801EAE70123AB750022EB88009283
:107BC8009B002A6904F10C01E0E7032914BF06238E
:107BD8000523AB7500230093042305F10802E1187F
:107BE800D4E70623AB75224B1988204B5868FFF75A
:107BF80081FD04460028A1D109B0BDE8F08F41F607
:107C08001D549BE7002E7FF401AF2B79012B33D055
:107C180004D3022B3FF440AF0F241EE702232B713D
:107C28000DF10A01EB68039303A8CDE90466FFF799
:107C38001DFE08B90A2410E70498BDF80A108388C5
:107C4800EB8003882B81FFF755FD044627E000BF32
:107C5800E0290020982A0020C0290020E4290020DB
:107C6800AC2A002010220020C8290020A4290020C6
:107C7800B82A0020D8290020DFF808A203AA534612
:107C88003146A81DFFF748FE044660B9BAF804104B
:107C98000498FFF72FFD04460A2C3FF4FDAE002C94
:107CA8007FF4DBAEA8E708223146504607F05CF8BF
:107CB800F2E7002E7FF4AAAE6D4B1A7BB2B11E73A9
:107CC8001A78013A062AA7D801A151F822F000BF74
:107CD8007F7D0200A57D0200C37D0200C97D0200F0
:107CE800217C0200CF7D0200E57D02001A78072A78
:107CF800E6D801A151F822F0217D0200C97C0200DA
:107D0800C97C0200477D02005B7D02007B7D02008A
:107D18007B7D0200437D02001A89564901321A818F
:107D280000225A801A730A78B2FA82F252099A72B9
:107D38000A7DB2FA82F25209DA72012207E04E494C
:107D480058688A884088033202448A8002221A705E
:107D5800B6E7484C5A884849142505FB024208688A
:107D6800546850608888108102228A800C6006223C
:107D7800EDE70722EBE79A7A32B9DA7A8AB9002274
:107D88001A705A805A6087E63A4900229A72CA687D
:107D9800002AF2D1097C0029EFD05A80FFF702FEB1
:107DA80053E70022DA72334A116A0029E7D192F8C0
:107DB8002420002AE3D00122EFE7FFF7B7FC44E7CD
:107DC800FFF754FC41E706221A702A4A5B881421FF
:107DD80001FB03235868FFF77DFC36E707221A707A
:107DE80000225A60FFF762FC2FE701228DF80C2071
:107DF8001A89ADF818209A88DB68ADF81A2005931F
:107E080010E002228DF80C201A89ADF818209A8803
:107E1800ADF81A20DA689B7D05929A1F53425341A8
:107E28008DF81C3003A8FFF7E3FB002649461348EA
:107E3800C8F8006000F042FB0121114800F0F1FB96
:107E480000287FF4C9ADD7E603228DF80C20DA8824
:107E5800ADF818201A89CFE70422DB888DF80C20AA
:107E6800ADF81830DEE705238DF80C30DAE700BFEF
:107E7800C8290020E4290020AC2A0020982A0020E4
:107E8800A82A0020BC2A00204068FFF79DBD0000FA
:107E980008B50121044800F0AEFB18B9BDE8084058
:107EA800FFF792BD08BD00BFA82A00202DE9F341C5
:107EB8009846354B1B7806460D46002B5BD00029AB
:107EC8005BD009884FF6FF73994258D06B88002B16
:107ED80055D06B689B0754D14AB92F890DF102011F
:107EE8003846FFF795FB30B102B0BDE8F081138842
:107EF8005788ADF8023001A8FFF734FC044658B99A
:107F0800BDF80230214A142101FB032358890338A4
:107F1800C01B58810820E7E700238375BDF80230AD
:107F280083826B68036180F800800121184800F0A3
:107F38006DFB2B882381B8F1030F6B88A38004BFE6
:107F48000423A3754FF0000508BF3368E06008BF3D
:107F5800A361E780658101A90E4800F074FA36B183
:107F6800E36833600C4B75601B89B5723381FFF78A
:107F78008FFF0020B8E70220B6E70520B4E7042009
:107F8800B2E70320B0E700BFC0290020E4290020A1
:107F9800DC290020982A0020C829002008B5084BB1
:107FA8001A68042A09D01968064A42F821000121F2
:107FB800184600F02BFB002008BD0C20FCE700BF92
:107FC800B42A0020B02900202DE9F04F89B01422EE
:107FD800002103A806F0C8FE7B4A137803F0FF01CE
:107FE800009190463BB103A8FFF702FB00263046FC
:107FF80009B0BDE8F08F101D00F01EFB05460028F3
:10800800F4D14FF010234FF080525B691169526927
:10801800DFF8DCA1581C08BF02FB01F3CAF81030D6
:108028000022A3F540536949CAF80C30504600F0C5
:1080380025FD06460028DAD11C238C2264496548B0
:1080480000F0A2F93746B3464FF003093446CDF89D
:1080580004A0019BD9680BEB010002465BF80110F4
:10806800002835D05C4B994232D141685B4B99422C
:1080780015D0013399422BD1009BDFF86CA1002B5E
:1080880059D100225649CAF80000FFF78DFBBAF80B
:108098000420022A14BF0822042217433AE0514957
:1080A8004FF0140C0CFB04FC01EB0C024FF0000E1B
:1080B80001F80CE050600CF110020CF1080C0A44B5
:1080C8006144FFF771FB47F002070134A4B221E0D5
:1080D80000F5805C1168013167D104329445F9D10B
:1080E800414A116829B90221012310609180009347
:1080F8000EE0142262433B4B4FF0020E991803F82E
:1081080002E03A4A486054800134A1F808E0A4B279
:1081180047F001070BF5805BBBF5405F99D1B9F1DA
:10812800010F88BF3D46EDB2022D02D0062D12D0B8
:10813800DDB90B265BE72B4B1422624399184FF0ED
:10814800020C03F802C00134DAF800204A60A1F8F2
:1081580008C0A4B295E7012388F8003003A80023DB
:10816800C8F80430FFF744FA41E702A8FFF7FAFA23
:10817800C8B10123013D03700A2D09D8DFE805F0D5
:1081880006080608070807080F110F0000230371E7
:1081980002A9104800F057F9FFF77AFE27E70323F2
:1081A800F5E70223F3E7082621E70E491422624384
:1081B80001EB020C09F1FF39CCF8040003201FFA87
:1081C80089F9885481E700BFC029002028F30200FC
:1081D8000C2A0020982A0020DEC0ADDEFE011EF128
:1081E800B02A0020E4290020AC2A0020C829002059
:1081F8001022002073B50D460446C8B1C1B10DF177
:108208000601FFF733FBA8B10B4BBDF80600666803
:10821800142202FB003001210C3000F0F7F96368EA
:108228002E600C336B600123A372002002B070BD76
:108238000520FBE70A20F9E7E429002013B50446E6
:10824800A8B10DF10601FFF711FB90B10B4ABDF87B
:108258000630142101FB0323DA6862B1A27A52B115
:10826800DA680020013ADA60A07202B010BD052079
:10827800FBE70A20F9E70620F7E700BFE42900201A
:1082880002230022FFF712BE18B103230022FFF7D2
:108298000DBE052070470000104B1B7813B504462F
:1082A800ABB14FF6FF73984213D001A8FFF75AFA03
:1082B80088B10523037001230371C48001A908480C
:1082C80000F0C1F8FFF7E4FD002002B010BD022065
:1082D800FBE70420F9E70820F7E700BFC0290020E2
:1082E800982A00200E4B1B7807B5A3B101A8FFF709
:1082F80039FA90B10623037001A90A4800F0A3F8DF
:10830800094B1A780AB101221A73FFF7C1FD002040
:1083180003B05DF804FB0220FAE70820F8E700BF85
:10832800C0290020982A0020C829002007B5ADF8E8
:10833800060002A820F8041D01460DF10600FFF70B
:10834800EBFA03B05DF804FB13B502AC134624F84E
:10835800020D0A4600202146FFF7DEFA02B010BDE2
:1083680013B502AC134624F8020D0A462046002134
:10837800FFF7D2FA02B010BD20B119B103680B6043
:10838800002070470520704710B561B1B2FBF3F4C7
:1083980003FB1424A4B244B9C0E9001484608281A8
:1083A800C381204610BD0E20FCE70920FAE782B001
:1083B80050E8022FC188B2EB324F4FF0000317BFCD
:1083C80092B241EA014142EA014104E04268B2EB5B
:1083D800324F08BF012340E80212002AE8D18DF885
:1083E80007309DF80730002B0CBF1120002002B089
:1083F800704737B550E8013F9DB2C4892544848948
:10840800A54228BF2D1B0489A54202BFBFF32F8FA9
:10841800002207E0C5EA030540E80154002CE9D131
:108428004FF001028DF803200193019B9DF8032072
:108438000B6002F0FF0322B10B880068184403B0F8
:1084480030BD1846FBE70A884B889A4209D150E8A4
:10845800012FC2EA024240E80123002BF7D1012094
:1084680070470020704737B550E8023F1FFAA3F560
:10847800C488A54202BFBFF32F8F00220DE0C48934
:1084880025448489A54228BF2D1BC3EA054540E839
:108498000254002CE8D14FF001028DF8032001931B
:1084A800019B9DF803200B6002F0FF0322B14B886B
:1084B8000068184403B030BD1846FBE70A884B88AB
:1084C8009A4209D150E8022FC2EA224240E8022328
:1084D800002BF7D1012070470020704701F01F02E0
:1084E8004B090121914000EB830000F063B84B0970
:1084F80010B501F01F040121A14000EB830000F03A
:108508004EF8E04000F0010010BD01F01F03012209
:108518009A404B0900EB8300D14300F061B84B0946
:1085280001F01F0150F82300C84000F00100704717
:108538002DE9F0474E1E760980460F460136002584
:1085480058F8254008EB850AE44394FAA4F4B4FAF1
:1085580084F44FEA4519202C06D10135AE42EFD8F4
:108568003C462046BDE8F0874C44A742F5D9214651
:108578004046FFF7BCFF0028F3D0DAF80040E44398
:1085880094FAA4F4B4FA84F4E5E750E8002F0B4613
:1085980040E8003C9CF0000FF7D11046704750E8C7
:1085A800002F42EA010340E8003C9CF0000FF6D19E
:1085B8001046704750E8003F43EA010240E8002CAB
:1085C8009CF0000FF6D11046704750E8002F02EAE1
:1085D800010340E8003C9CF0000FF6D110467047BC
:1085E80050E8003F03EA010240E8002C9CF0000F2D
:1085F800F6D11046704750E8002F02EB010340E81F
:10860800003C9CF0000FF6D11046704750E8003F40
:1086180003EB010240E8002C9CF0000FF6D1104655
:10862800704750E8003FA3EB010240E8002C9CF0A3
:10863800000FF6D1104670470121FFF7B0BF0121A6
:10864800FFF7B8BF0021FFF7C0BF10B590B1D0E960
:10865800012301689B1ADBB20A60013BDBB2FF2BE6
:10866800026802D10020107110BD11684C1C146002
:108678000B70F2E70E20F7E737B5054602A800248D
:1086880000F8014DFEF77AFF2A686B681168994275
:108698000ED9481E106011F8014CEB68298A01FBBD
:1086A8000434AB6811791B1ADBB2994238BF1371D5
:1086B8009DF80700FEF786FF204603B030BD37B5AA
:1086C800054602A8002300F8013D0C46FEF756FFB8
:1086D8002A681368591C1160E968641A298AB4FB6E
:1086E800F1F41C709DF80700FEF76CFF03B030BD75
:1086F800826810B504462AB1436901680069984741
:108708000023A36010BD0EB403B5039929B102AAD2
:1087180004AB42F8043D00F06BF802B05DF804EBDE
:1087280003B07047826830B40468551C8560A15452
:10873800D0E901329A4202D330BCFFF7D9BF30BC2E
:10874800704700002DE9F84F9946DDE90A431746BE
:10875800824688460A460126BA420FD24E4538BF9D
:108768004E4613F0010B01D164B900240125B9F17B
:10877800010F1AD909F1FF397D43F8E7B2FBF7F287
:108788000136E9E79B070ED5B9F1000F0CBF30257C
:108798002025A642EAD2013C29465046FFF7C2FFEF
:1087A800002CF6D1E1E72025F3E7B8FBF5F39F426B
:1087B800E2D9DFF83890B8FBF5F3504619F8031002
:1087C80005FB1388FFF7AEFFB5FBF7F5002DF2D1D7
:1087D800BBF1000F02D00CB1A64201D3BDE8F88F5F
:1087E80020215046013CFFF79DFFF4E73CF10200D1
:1087F8002DE9F74F054690460E46002900F03A81CC
:1088080016F8011B002958D0252940F0D1800027EF
:1088180002E047F001071646324612F8013B2D2BBD
:10882800F7D0302B04D02B2B05D147F00407F2E703
:1088380047F00207EFE700242A2B06F101021BD1BB
:10884800D8F80030191D1B68C8F800101C441646DB
:1088580033782E2B1CD101364FF0000A314611F81F
:10886800012BA2F13000092814D80A2303FB0A239C
:10887800A3F1300A0E46F1E712F8013CA3F13001EA
:108888000929E5D80A2101FB0434303C1646D3E710
:108898004FF0000A324612F8011B01F0FB0068286D
:1088A8001646F8D0692916D054D8582970D00ED851
:1088B80025297DD03378002BA2D12B7B002B00F00B
:1088C800D980284603B0BDE8F04FFFF711BF6329F0
:1088D80068D06429EED1D8F80020D2F80090111D94
:1088E80089EAE972C8F80010A2EBE9724FF0010BAF
:1088F800092A61DCD34538BFD3462CB1B9F1000F42
:1089080001DB790700D5013CBA0702D5BAF1000F9F
:1089180004D0FB0702D4002C54D10024B9F1000F75
:1089280058DAC9F100092D212846FFF7FBFE07F0A8
:108938000302022A05D1BAF1000F02D1002C4DD151
:108948000024CDE9004753460A2249462846FFF746
:10895800F9FEAFE7732954D016D87029AAD1D8F8F0
:1089680000301A1DC8F80020302128461C68FFF77F
:10897800D9FE78212846FFF7D5FE00220823CDE945
:10898800003221461022E1E775292FD0782991D1AC
:10899800D8F800100A1DC8F80020CDE90047534652
:1089A80010222CE0D8F800301A1D1978C8F80020D9
:1089B8002846FFF7B7FE7DE70A230BF1010B92FB70
:1089C800F3F295E7A345A9D220212846013CFFF7F9
:1089D800A9FEA0E77807AAD52B21A5E7A345B0D221
:1089E80030212846013CFFF79DFEA7E7D8F8001084
:1089F800CDE900470A1DC8F8002053460A22096835
:108A0800A4E7D8F800301A1DC8F80020F907D3F8F1
:108A1800009012D54F46A7EB090B17F8011B41B977
:108A2800A345BFF447AF20212846013CFFF77AFE53
:108A3800F6E72846FFF776FEEDE7B9F1000F17D005
:108A4800484606F0E6F90746BC4200D954B909F190
:108A5800FF3919F8011F00293FF42CAF2846FFF70A
:108A680061FEF6E720212846013CFFF75BFEEBE7B5
:108A78004F46E9E703B0BDE8F08F000007B50B46A5
:108A880088B9124B1248134AC01A0E23C008009323
:108A9800114B0004114940F00100FDF7E1FF0E20E1
:108AA80003B05DF804FB4BB9084B09480C4AC01ADF
:108AB800C0080E2300930004074BEBE703601B6814
:108AC800114603B05DF804EB184700BF10EF020031
:108AD80050EF0200F9F102004CF10200FEF1020031
:108AE80075F202002DE9F34188B93D4B3D483E4AF5
:108AF800C01AC0080E243D4B009400043C4940F0C5
:108B08000100FDF7ADFF204602B0BDE8F0814AB98B
:108B1800334B3448374AC01AC0080E240004009466
:108B2800324BEBE7D0F800C0BCF1000F09D12C4B59
:108B38002C48314AC01AC0080824000400942B4B62
:108B4800DCE74BB9264B27482C4AC01AC008092431
:108B580000040094254BD1E74768D7F80480B3FB9D
:108B6800F8F708FB17374FB11D4B1E48244AC01AA7
:108B7800C0080924000400941C4BBFE78F0709D0E4
:108B8800174B18481F4AC01AC00810240004009444
:108B9800164BB3E712F0030F09D0114B11481A4ACC
:108BA800C01AC008102400040094104BA6E7C76838
:108BB800B9420BD34C1E05691C44AC4206D8DCF8FC
:108BC8000C40A44602B0BDE8F0416047044B05489C
:108BD8000E4AC01AC008102400040094034B8DE705
:108BE80010EF020050EF0200F9F102005EF10200FE
:108BF800FEF102007BF202006FF202002EF2020088
:108C080081F20200ABF20200C3F20200E6F20200B7
:108C1800F7B580B92A4B2B482B4AC01AC0080E2436
:108C28002A4B009400042A4940F00100FDF718FF80
:108C3800204603B0F0BDD0F800C0BCF1000F09D148
:108C48001F4B2048234AC01AC00808240004009477
:108C58001E4BE8E74AB91A4B1A481F4AC01AC008FF
:108C6800092400040094194BDDE74768D7F800E0B1
:108C78000EF1FF370F4209D0114B1248174AC01A9C
:108C8800C008102400040094104BCCE7C768B94210
:108C98000CD34C1E05690EFB0244AC4206D8DCF826
:108CA8001040A44603B0BDE8F0406047044B0548B7
:108CB8000B4AC01AC008102400040094034BB2E702
:108CC80010EF020050EF0200F9F1020071F102000A
:108CD800FEF102006FF202002EF2020084F102009F
:108CE800AAF1020029DF704728DF704770B50368D2
:108CF8009D6886B004460E466DB114220021684670
:108D080006F032F8A3680593237901962BB1012B5D
:108D18000DD06846A84706B070BD01238DF8003015
:108D280023690293E368039363690493F1E70223D9
:108D38008DF80030E3681B030293F5E70846704797
:108D480000207047024B187A003018BF0120704786
:108D5800602B0020034B187A0122B0FA80F05A7475
:108D680040097047602B002008B510461A4605F0E8
:108D7800D2FF002008BD000008B5142200210448D5
:108D880005F0F2FF0348FFF712FB002008BD00BF03
:108D9800602B0020502B002010B5094C094B436074
:108DA8002046FFF749FC40B905F054FD1C23207408
:108DB8008C2205490548FFF7E7FA002010BD00BFDF
:108DC800602B00201CF30200C42A0020502B002036
:108DD80070B5244D244E2B7A2C463BB923492448A0
:108DE800FFF741FB306008B9686070BD0223237249
:108DF80033681A7972B1012A24D018460321FFF783
:108E080075FF00232372636018491948BDE8704054
:108E1800FFF754BBD3E90520121AB2F5805F28BFCB
:108E28004FF48052D3E903159208012A014438BF50
:108E380001222844FFF756FF50B11128DDD1012344
:108E48002372D2E7D3E903021044FFF74DFFF3E79B
:108E5800237C002BC9D10146BDE87040022000F0F8
:108E680009B800BF602B0020782B0020742B00204D
:108E7800502B002038B5831E012B45D8234C237A6C
:108E8800002B41D0022B09D1032830D0204B1B687E
:108E98000022E2601A793AB1012A22D0637C7BBBB6
:108EA800BDE83840FFF794BFD3E905128D1AB5F530
:108EB800805F94BF521902F580529A619142EDD1B8
:108EC80002284FF0000308BF19462372104B18BF41
:108ED8000D211868FFF70AFF0E490F48FFF7EEFA51
:108EE800DCE71A6901321A615B699A42E7E7E368CD
:108EF8000133082B01D8E360D0E70023E360DFE704
:108F0800BDE8384005F096BC38BD00BF602B002096
:108F1800782B0020742B0020502B002000F0FD033C
:108F2800012B08D1044B00225A74421E5042504172
:108F38001874FFF74DBF7047602B002010B5064C22
:108F4800201DFFF779FB28B9637C1BB9BDE81040E9
:108F5800FFF73EBF10BD00BF602B00202DE9F34195
:108F680080460D460F4801A916461F46FFF741FAED
:108F78000446A8B11C22002105F0F6FE2D0B0123A2
:108F8800237101A9C4F80080A760E56066610548FF
:108F9800FFF759FAFFF7D2FF002002B0BDE8F081D1
:108FA8000420FAE7502B00202DE9F7438146884634
:108FB800104801A917461E46FFF71BFA0446B0B130
:108FC8001C22002105F0D0FE00250A9BA36001A900
:108FD8002571C4F80090C4E9037866610548FFF775
:108FE80032FAFFF7ABFF284603B0BDE8F083042050
:108FF800FAE700BF502B00202DE9F047B0F80690A3
:109008004479D2F800A09DF8208009FB04F4043CC0
:1090180006460AEB0300A0420F4688BFA4EB030AEA
:10902800191DC2F800A0B1FBF9F509FB15114DB9DE
:10903800A9EB0104544528BF5446BAF1000F04D1E6
:10904800BDE8F0873668013DF1E704317B197018F7
:109058002246B8F1000F0ED001461846AAEB040AC2
:1090680005F059FED145254436684C464FF00001BD
:1090780028BF5446E1E71946F0E7FFF7E6BAF8B526
:1090880046790146721E0546002393422D6803D394
:109098000024A64202D8F8BD0133F6E70F68284637
:1090A800FFF70DFB01343946F3E72DE9F843068A4B
:1090B800CD1C0746FFF7E0FA043E35440446B5FBED
:1090C800F6F5F0B14FF48073EDB28380C680013DB0
:1090D800076081464FF00008A84512D23846FFF7CE
:1090E800CBFA064648B163790133637108F1010888
:1090F800C9F8000007608146EEE72046FFF7BFFF8A
:1091080034462046BDE8F88301210430FFF77EBAD3
:1091180010B5012104460430FFF783FA10F0FF0F61
:1091280004D12046BDE81040FFF7A9BF10BD1FB508
:1091380004AC44F8042D002200922246FFF75CFF9D
:1091480004B010BD1FB504AC44F8042D01220092F0
:109158002246FFF751FF04B010BD41DF7047000001
:10916800064B10B500241C70054B1C60BFF35F8FC5
:109178000449054800F039F8204610BD842B00202A
:10918800882B002048F302007C2B002007B502A89A
:10919800002300F8013DFEF7F1F9F1EE103A23F053
:1091A8009F03E1EE103ABFF35F8F0A4B4022C3F8EA
:1091B80084219DF80700FEF705FA05F04BFB20B166
:1091C800FFF7CBFF03B05DF804FB20BF40BF20BF13
:1091D800F8E700BF00E100E0836800225A609A6067
:1091E800C3E90422DA601A6070470B684A68436072
:1091F800934208BF0023016008BF4360704743687B
:1092080043B10268916852680B449342436004BFBB
:1092180000234360704700000D4930B5A1F59472F2
:109228000225914201D800200EE08B1ADB1093FB37
:10923800F5F302EBC30452F83330834205D802D267
:1092480004F10802EDE7606830BD2146E9E700BF98
:1092580098F4020008B5FFF7DFFF024B002808BFAB
:10926800184608BD5DF30200054B1B68082B01BFBB
:10927800044B1868B0FA80F0400918BF0020704706
:10928800300100103401001008B54FF0804300226F
:10929800C3F80C21C3F81021C3F838254FF08052C9
:1092A80003F54043D2F80414C3F82015D2F8081483
:1092B800C3F82415D2F80C14C3F82815D2F81014E2
:1092C800C3F82C15D2F81414C3F83015D2F81814B2
:1092D800C3F83415D2F81C14C3F84015D2F820147A
:1092E800C3F84415D2F82414C3F84815D2F8281442
:1092F800C3F84C15D2F82C14C3F85015D2F8301412
:10930800C3F85415D2F83414C3F86015D2F83814D9
:10931800C3F86415D2F83C14C3F86815D2F84014A1
:10932800C3F86C15D2F84424C3F87025FFF79CFFE6
:1093380010B1384B384A1A60FFF796FF18B1374B0F
:10934800FB22C3F81825FFF78FFF48B13449354B86
:109358000A681B6822F00F0203F00F0313430B6027
:10936800FFF782FF18B1304B4FF400721A604FF0CC
:109378008043D3F80024D20744BF6FF00102C3F83A
:1093880000242A4AD2F8883043F47003C2F888309F
:10939800BFF34F8FBFF36F8F4FF01023D3F8002226
:1093A800002A03DBD3F80432002B2FDA204B0122EA
:1093B800C3F80425D3F80024002AFBD04FF010226C
:1093C8001221C2F80012D3F80024002AFBD04FF073
:1093D80010231222C3F80422154B1A46D3F800149E
:1093E8000029FBD00021C3F80415D2F80034002B63
:1093F800FBD0BFF34F8F0D490E4BCA6802F4E062F1
:109408001343CB60BFF34F8F00BFFDE70A4B0B4AF6
:109418001A6008BD8C5600404881030000F00040E7
:10942800E40E0040580200104096024000ED00E0B3
:1094380000E001400400FA052C2200200090D0032F
:10944800074B1B5C1F2B8ABF064A4FF0A04203F054
:109458001F03D2F80405D840C04300F0010070474C
:1094680056F8020000030050074B1B5C1F2B86BFF9
:1094780003F01F0305494FF0A041012202FA03F34C
:10948800C1F80C35704700BF56F8020000030050C1
:10949800074B1B5C1F2B86BF03F01F0305494FF0CA
:1094A800A041012202FA03F3C1F80835704700BF52
:1094B80056F802000003005008B50020FFF7E8FF47
:1094C8000120FFF7E5FF0220FFF7E2FF0320BDE8D8
:1094D8000840FFF7DDBF08B50020FFF7C5FF0120F2
:1094E800FFF7C2FF0220FFF7BFFF0320BDE80840D7
:1094F800FFF7BABF0A4B185C1F288ABF094B4FF009
:10950800A04300F01F00D3F804250121814021EA7F
:1095180002000A40C3F80805C3F80C25704700BFCD
:1095280056F8020000030050074B1B5C1F2B8ABF34
:10953800064A4FF0A04203F01F03D2F81005D840A6
:10954800C04300F00100704752F8020000030050C9
:109558000B2809D00C2809D0182809D019280CBFC5
:1095680003204FF0FF3070470020704701207047FC
:1095780002207047014B185C704700BF52F8020088
:10958800C20710B504460CD54FF0A0430322C3F818
:109598003427C3F83827C3F83C27C3F84027FFF718
:1095A8008BFFA3070AD54FF0A0430C22C3F82C2742
:1095B800C3F83027C3F86027C3F8642710BD00003C
:1095C80038B5084C04F108030546002818BF1C46A6
:1095D80023682BB11A6822605B6828469847F7E72A
:1095E80038BD00BF942B002020B9054B01225A70CA
:1095F800FFF7E6BF012802D1014A9070F8E77047EB
:109608008C2B002020B9034B01225A70FFF7D8BFDA
:10961800704700BF8C2B002038B50B4C237883B9DA
:109628000A486360A3602361E36000F05FF80546C1
:1096380005F010F908B900F067F8012323702846EF
:1096480038BD8525FBE700BF8C2B0020F195020073
:1096580037B502A80023094C00F8013DFDF78EFF3D
:10966800E368013BE360E56815B900F061F8A570AF
:109678009DF80700FDF7A6FF03B030BD8C2B002036
:10968800012813B509D003D303281BD002B010BD9D
:109698000F4B0122C3F88020F8E702A800230D4CE5
:1096A80000F8013DFDF76AFF23780BB9FFF7B4FF17
:1096B800E3689DF807000133E3600123A370FDF719
:1096C80081FFE3E700F020F8FFF7C2FFDEE700BF05
:1096D80000E100E08C2B002000F18040002382B0E4
:1096E800036003680193019B02B07047054A137930
:1096F8002BB90121106011715371184670478520EC
:10970800704700BFA02B0020084B1A68D20706D468
:10971800C02283F800230122C3F880211A604FF089
:1097280080430122C3F81825704700BF00E100E01C
:10973800044B01221A604FF08042D2F81834DB0340
:10974800FBD470470C000040124B1B6810B573B176
:109758004FF48070FFF7C0FF4FF080430122C3F839
:1097680008230D4B587910B95A711B6898470B4B51
:109778001B6873B14FF48270FFF7AEFF4FF0804360
:109788000222C3F80823044B01201B68BDE81040DF
:10979800184710BD00010040A02B00200401004024
:1097A80000F1804000F5C040002382B003600368E8
:1097B8000193019B02B0704703681F2B83BF03F01E
:1097C8001F03036001484FF0A0407047000300509A
:1097D80007B502AB43F8040D1846FFF7EDFF019BF0
:1097E80000EB8300D0F8003723F44033C0F800378B
:1097F800D0F8003743EA0141C0F8001703B05DF81C
:1098080004FB0000054B4FF0FF32072843F82020E7
:1098180084BF1B1883F85820704700BFA82B00206E
:1098280010B5174C94F86A3043BBFF21E218013396
:10983800302B82F83010F9D10021C8B2FFF7E2FFCF
:1098480001310C29F9D1062200210E4805F08CFAC5
:109858000D4BC02283F806234022C3F880214FF421
:10986800BE701A60FFF79CFF084B4FF00042C3F828
:109878000423012384F86A30002010BD0820FCE787
:10988800A82B00200C2C002000E100E00060004024
:10989800034B93F86A00003018BF0120704700BFDF
:1098A800A82B0020F7B5404F3B18044693F93030F9
:1098B800002B944675DA8B78C3F34003002B15BF51
:1098C8000025082508200C20854202D1042003B079
:1098D800F0BD57F8252001324FEA850649D13819DD
:1098E80047F825C080F8305013B97B1983F85840E1
:1098F8008B785A071BD4D8073DD502A840F8084DE5
:10990800FFF75AFF009B00EB8300D0F8003723F0E5
:109918000203C0F800372548E20804F0070C0123C9
:1099280003FA0CF310F802C043EA0C038354887856
:1099380091F800C010F002002AD006F1804303F528
:10994800C0432402D3F8102522F44F3222F4407287
:10995800C3F810254FEA0C4CD3F8102504F47C54B6
:109968000CF4403C44EA0C041443C3F810450020AE
:10997800ADE70135A8E702A84A7840F8044DFFF79B
:109988001BFF019B03F5E073920040F82320C2E718
:10999800083D3D4495F8604044EA8C1C85F860C059
:1099A80095E7082093E700BFA82B00200C2C002087
:1099B80073B5224C2518064695F93020072A1ADD7A
:1099C800224492F858309B09032B10D102A840F882
:1099D800046DFFF7F1FE019AD0F81035D340DB078C
:1099E80007D402213046FFF7F3FE02B070BD012B09
:1099F800F7D00321F6E7D3B2072BF6D8930003F18B
:109A0800804303F5C043D3F8100540F00100C3F8C4
:109A1800100502F14000800080B2FFF7C1FE002966
:109A2800E3D095F9303054F82330002BDDD00123F2
:109A380003FA02F2024BC3F80423D6E7A82B00204E
:109A48000060004007B502AB43F8040D1846FFF765
:109A5800B3FE019BD0F81005D84000F0010003B018
:109A68005DF804FB2DE9F04F002489B0CDE90244EC
:109A78005F4A604E604D01211368A2F5C040012B7A
:109A880080B206D1D6F804330B4202D0FFF788FE25
:109A98000C430432AA424FEA4101EDD1574B1B68EF
:109AA800012B0ED14FF4BE70FFF77AFE4FF0A043A2
:109AB80044F00044D3F810350293514BD3F81035D5
:109AC800039314F0FF0F1AD04E4F0025012634429D
:109AD80010D0AB0003F1804303F5C043D3F8100561
:109AE800D3F8101557F82530C0F30520C1F301410C
:109AF80003B198470135082D4FEA4606E7D1002CF7
:109B080072DA04AE0023049373604FF0FF33CDE99B
:109B180006333C4F4FF0010800252C467B1993F97A
:109B28006020531C47D0D2B222F0C00908A84FEADF
:109B3800D90300EB030B02F007011BF8080C08FA25
:109B480001F1084237D007EB0900920990F930007B
:109B580057F820A0BAF1000F05D1032A2BD1F05CE9
:109B68000843F05401E0032AF9D001A8CDF8049085
:109B7800FFF722FE019B03F5E07350F823301BF832
:109B8800180C0842C3F3014305D0022B13D1032A52
:109B98000BD1114604E0032B0DD1032A05D1022174
:109BA8004846FFF715FE0134E4B2BAF1000F02D0BF
:109BB80011464846D0470135042DAFD1A4B14FF026
:109BC800A0430299D3F8102503F540739142D3F8C6
:109BD800103502D10399994206D002920393049A50
:109BE800059B0692079397E709B0BDE8F08F00BF81
:109BF8000061004000600040206100407C6100403E
:109C080000030050A82B0020014B1B68184700BF19
:109C1800142C00201F288ABF094B4FF0A04300F0E6
:109C28001F0003EB8000D0F8003723F44033C0F85E
:109C38000037D0F8003743EA0141C0F800177047F1
:109C4800000300500220FFF755BC00002DE9F04743
:109C580081460D46FFF77CFC0328044604D8012DF5
:109C680004D024D3022D2FD0BDE8F087194D47002A
:109C78003A18A918AE5C4A7852B1DFF868801648DD
:109C880042464FF40041FDF725FC08B988F80090DA
:109C98003B192B449A78114B1A55002EE4D0104BDF
:109CA8001B68002BE0D03046BDE8F04718470A484B
:109CB800FDF754FC074B04EB440213449E78074B12
:109CC8001B5DB342D0D1E8E7024B00EB40041C44D3
:109CD8006678E2E7802C0020402C0020992C002098
:109CE800942C00201C2C002002210078FFF7AEBF26
:109CF80008B5094B1B7853B10020FFF7C9FB0120B9
:109D0800FFF7C6FB0320BDE80840FFF7C1BBBDE86D
:109D18000840FFF7D1BB00BF1D2C0020F8B57B4CD5
:109D2800237805461BB100232370FFF7E1FF172DA9
:109D380000F28880DFE805F00C1717435465768039
:109D4800888D888D959A9A9A9A9AC4C9D1D9E4E44B
:109D5800FFF7CEFF6E48FDF701FC6E4B002204466C
:109D68001A702046F8BD0020FFF76AFBF8B1002002
:109D7800FFF78EFB022D0CBF4FF4E1614FF47A61BF
:109D8800644B1D704FF400404FF4FA740025E0FB5B
:109D980001454FF47A7200232046294604F0C0FE9C
:109DA800002201465A48BDE8F840FDF793BBFFF78B
:109DB8005BFB022D0CBFC8214FF4C871E0E70020FF
:109DC800FFF73EFB40B10020FFF762FB4FF44871FC
:109DD800504B03221A70D5E7FFF746FBC821F7E777
:109DE8000020FFF72DFB38B10020FFF751FB4FF49F
:109DF8007A61484B0422EDE7FFF736FB4FF4C87150
:109E0800F7E70020FFF71CFB48B10020FFF740FBF5
:109E1800404B05221A7041F69A110022C2E7FFF75B
:109E280023FBF5E70020FFF765FB3A4B06221A7083
:109E3800002240F6CD41B5E70020FFF715FB354B72
:109E480007221A7000248CE701202070FFF752FBCC
:109E5800EEE701202070FFF74DFB00224FF4804110
:109E6800A0E7FFF738FB2B4B0C22EAE72A482B4EDA
:109E7800FDF774FBD5F1110504461CD0D8B9012DA6
:109E880013D0C8235D434FF400474FF4FA70002104
:109E98004FF47A720023C7FB050104F041FE224605
:109EA80001461D48FDF716FB04460220FFF7DCFAC1
:109EB8000123337055E70220FFF7EAFA0023F8E799
:109EC800FFF716FF134B1222BBE7FFF711FF002025
:109ED800FFF7CAFA0F4B1322B3E7FFF709FF012078
:109EE800FFF7C2FA0B4B1422ABE7FFF701FF002084
:109EF800FFF7BAFA0120FFF7B7FA064B1522A0E7D9
:109F0800FFF7E9FA034B1D709CE700BF902C002077
:109F1800602C0020982C0020202C00201D2C0020D4
:109F2800044B1B68DB0703D5034B1878FFF7F6BE15
:109F3800704700BF8C2C0020982C0020032801D8E3
:109F4800FFF7F2BA00207047044B1B6813F00103B7
:109F580001D0FFF7E3BE1846704700BF8C2C0020E5
:109F680038B51C4B18601C4B10F0020405461960EC
:109F78001AD01A4B1A480E221A700F22DA701022C1
:109F88009A7111225A72042140F26662FCF7A4FF0A
:109F9800044648B9FCF7F4FF044628B90146114ABB
:109FA8001148FDF785FA0446EB0711D50120FFF7A4
:109FB800E7FA6CB921460D4A0D48FDF779FA0446CF
:109FC80030B90C4A0C480121BDE83840FDF770BA99
:109FD800204638BD8C2C0020942C0020802C00209A
:109FE8007CF80200F19C0200A0F80200299F020000
:109FF800A4F802004D9C02009CF80200032812D825
:10A00800012A0BD1012908D100F10E02D2B200EBCE
:10A0180040000C4B1A540020704700220129F6D04A
:10A0280009D3022901D007207047064B00EB4000F6
:10A0380018444270EFE7034B00EB4000184482706D
:10A04800E9E700BF802C0020032808B506D8FFF7F1
:10A0580091FA0321FFF7DEFD002008BD0620FCE78A
:10A0680008B5012202210020FFF7C8FF08B1072820
:10A0780010D1072202210120FFF7C0FF08B10728ED
:10A0880008D100210A220846FFF7B8FF10B10728B7
:10A0980008BF002008BD00000388102B10B502D0AF
:10A0A800112B1ED010BD1A4C2168B1B901220846E7
:10A0B800FFF7A4FF08B1072824D1072202210120B5
:10A0C800FFF79CFF08B107281CD1042202210020B9
:10A0D800FFF794FF08B1072814D1236801332360E0
:10A0E800E0E70B4A1368013B1360002BDAD1FFF756
:10A0F800B7FF0028D6D0074B1B68002BD2D0BDE88D
:10A1080010401847034B1B68002BE6D09847E4E73C
:10A11800A42C0020A02C002008B50020FFF794FFF5
:10A1280008B1062806D10120FFF78EFF10B10628D6
:10A1380008BF002008BD00000D4B10B518600C4684
:10A1480029B10120FFF7FAFE40B102232370094B21
:10A158001B6853B9BDE81040FFF782BFFFF7EEFE5A
:10A1680008B10B23F2E72070F1E7002010BD00BF13
:10A17800A02C0020A42C002076DF70477ADF7047DF
:10A188007CDF70478FDF704733DF7047FCF70EBF07
:10A1980008B50020FFF7D8FE08B1FCF707FFFFF766
:10A1A800BBFF08B1FCF702FFFFF7EEFF18B1BDE8EF
:10A1B8000840FCF7FBBE08BD0388212B13B50446F5
:10A1C80035D005D8102B17D0112B0AD002B010BDEE
:10A1D8003B2B01D0562BF9D11321A088FFF7CCFFD8
:10A1E80020E0174B17481849C01AC008000440F06F
:10A1F8000300FCF71DFCE9E7114B12481349C01A8C
:10A20800C008000440F00300FCF712FC0720FFF729
:10A218009BFE08B1FCF7CAFE0D4BA1880D481980BA
:10A2280002F0D8F80028D1D0FCF7C0FECEE702A98A
:10A23800002321F8043D8088FFF7A4FFF2E700BF60
:10A2480010EF020038EF0200A8F80200B6F802008A
:10A2580034220020142F002008B503784BB9054B91
:10A268003B211888FFF788FF18B1BDE80840FCF7C4
:10A278009DBE08BD34220020072808B513D00A283F
:10A288000DD0042819D10D4B13211888FFF774FF3E
:10A2980030F0080311D0BDE80840FCF787BEBDE8E0
:10A2A8000840FFF775BF054B1A884FF6FF739A42AF
:10A2B80003D1034800F070FEEAE708BD342200200D
:10A2C800A82C002008B598B1032815D10B4B0C48D1
:10A2D8000C49C01AC008000440F00300FCF7A8FBB2
:10A2E8000220FFF731FE38B1BDE80840FCF75EBE3A
:10A2F800BDE80840FFF74CBF08BD00BF10EF0200E3
:10A3080038EF020001F9020008B50321044800F003
:10A31800FCFC18B1BDE80840FCF748BE08BD00BF0A
:10A32800A82C002010B5044603F056FB204603F085
:10A3380079F923780C2B03D1BDE81040FFF7E4BF6F
:10A3480010BDFCF733BE000000B54FF40041ADB0BE
:10A358000020FCF7A7F908B1FCF728FEFCF7DAF8AB
:10A36800FDF776F808B1FCF721FE7A490320FFF7DC
:10A37800F7FD08B1FCF71AFE01A90020FFF7DCFE83
:10A3880008B1FCF713FE9DF80450FEF7E9FE08B18A
:10A39800FCF70CFE04F0E2F908B1FCF707FE002315
:10A3A80001A90120019304F09FFA08B1FCF7FEFD12
:10A3B80001A804F04BFB08B1FCF7F8FD2CAC112305
:10A3C80004F8B03D644804F024FD634982B2204695
:10A3D800FFF7D6FE08B1FCF7E9FD0021082201A825
:10A3E80004F0C2FC5D494FF0C87301A8CDE9011320
:10A3F800FFF7C4FE08B1FCF7D9FD0021584801F069
:10A40800D7FE08B1FCF7D2FDAC22002101A804F068
:10A41800ABFC022306228DF804308DF807200123B7
:10A42800504A8DF80630ADF8143006928DF8803019
:10A438004FF4967244F25063CDE9232301A94A4BA5
:10A448004A482A9300F0EAFB08B1FCF7AFFD012166
:10A45800464800F0E0FB464B4648019301A901F04D
:10A46800A7FF08B1FCF7A2FD1C22002101A804F0F7
:10A478007BFC00234FF42032CDE90132ADF81230D5
:10A488004FF470228DF814303B4B0392069303224D
:10A498003A4B8DF8102001A8079300F09DFE08B1F3
:10A4A800FCF784FD02F066FD08B1FCF77FFD05228C
:10A4B800002101A804F058FC9DF8043043F0010382
:10A4C800032203F0F10362F306136FF3C7138DF849
:10A4D800043007238DF8053010238DF806309DF8D9
:10A4E800073013438DF807309DF8083001A813434F
:10A4F8008DF8083002F0D8FD08B1FCF757FD204868
:10A5080002F0BAFD08B1FCF751FD1E4B1E4C1F4965
:10A51800E41AE408240444F003042046FCF788FA0B
:10A52800022D14D11A492046FCF782FA02F014FED3
:10A5380008B1FCF73BFD174D29462046FCF778FA91
:10A54800FCF70AF90028F7D1FEF720FEF4E7FFF739
:10A55800DBFEF0E781A20200C1F802005000A00073
:10A56800002F002030220020CDA20200A82C0020BD
:10A5780095A10200142F002061A202004BA3020043
:10A588002DA3020010EF020038EF0200D1F80200FC
:10A59800EBF80200F8F802000369C1688B429DBF1E
:10A5A8008268D21802F1FF3203F1FF3394BF501AC8
:10A5B800581A70472DE9F041D0E902670446F61BA6
:10A5C8004068964288461546384405D904F0A3FBEE
:10A5D8003D44E560BDE8F0813246AD1B04F09BFBCD
:10A5E8002A4608EB0601606804F095FBF1E72DE9BF
:10A5F800F843C5680646894617464FF0000834698F
:10A60800B3687068A54228BFE418013C621B5C1B54
:10A61800BC4228BF3C46944228BF144649462844B9
:10A62800224604F078FBB3682544AB4208BF0025F6
:10A638003F1BA044A144F560E1D14046BDE8F88342
:10A6480010B5114C114AA2610223C4E90433104B1E
:10A65800E361A2644FF400730E4A2362E2640023AC
:10A6680010220D49A362E01D6362E362A36563657E
:10A67800E365226504F0ABFB0849204604F0A7FB1C
:10A688002023A37110BD00BF202F002013F9020062
:10A69800A82F0020982F00201CF9020020F90200A2
:10A6A800F8B5184C182300FB033503FB004025447C
:10A6B800C46A012C0F46164611D003D3022C1BD0B6
:10A6C80000240AE02846FFF767FF864205D832468D
:10A6D80039462846FFF76EFF34462046F8BD28461F
:10A6E800FFF75AFF8642344628BF044622463946B9
:10A6F8002846FFF75FFFF0E72846BDE8F840FFF778
:10A7080076BF00BF202F0020FFF79ABF6DDF70478C
:10A7180079DF70477DDF704764DF70472DE9F74FB9
:10A728000C9CBDF834B02788002580468A4691469F
:10A738002E46B8F80020B2420BDC35B12288013A27
:10A74800D21B92B2FF2A39D8DA55002003B0BDE8EF
:10A75800F08FD8F8042052F82600019000220DF15D
:10A76800030101A8FFF7D8FF0028EFD19DF80320C7
:10A778004A4521D12288002D14BF0020022002EB77
:10A7880009010144594519DC3DB9013292B22280D0
:10A7980003F802A022880132228022880DF10301E9
:10A7A8001A4401A8FFF7B8FF0028CFD121889DF8E7
:10A7B80003200A44228001250136BAE70C20C5E7A8
:10A7C8002DE9F341089CBDF824501746CDE9004512
:10A7D80002220646FFF7A2FF48B910223946304642
:10A7E800CDE9084502B0BDE8F041FFF797BF02B0D8
:10A7F800BDE8F0812DE9F04F00231688138090F80A
:10A808002D3085B007460D46144653B3082E01D89F
:10A818000C2026E102A8FFF779FF002840F02181EB
:10A8280013880822CA54238801339BB21B22238031
:10A83800CA542088013080B2208006220DF1090117
:10A84800284404F068FA23889DF8082006339BB250
:10A8580012F0FE0218BF01222380EA542388013334
:10A868002380BB78FBB123880433B342D0D802A835
:10A87800FFF74EFF002840F0F48023880322EA54B3
:10A88800238801339BB219222380EA542388BDF818
:10A89800082001339BB2E9182380EA54120A4A704F
:10A8A800238802332380FA789AB12388D91CB142CD
:10A8B800AED80221E954238801339BB201212380B9
:10A8C800E95423880B449BB22380EA5423880B4421
:10A8D80023807A68AAB12388D91CB14298D802216A
:10A8E80092F90020E954238801339BB20A2123807E
:10A8F800E954238801339BB22380EA542388013327
:10A9080023803B89002B40F0A0803B8A5BB1CDE9D6
:10A9180000462B460722032107F11000FFF750FFDE
:10A92800002840F09E803B8B5BB1CDE900462B466A
:10A938001522142107F11800FFF742FF002840F004
:10A9480090803A6A002A40F08F80D7F82480B8F1C6
:10A95800000F30D0B8F804302188981C8A1C0244B3
:10A96800B2423FF655AFFE283FF652AF03336B5461
:10A97800238801339BB2FF222380EA5423880133C2
:10A988009BB22380B8F80020EA54E918120A4A70EA
:10A998002088023080B22080B8F804205AB1D8F854
:10A9A800081000296AD0284404F0B5F92388B8F8BB
:10A9B80004201344238097F82C30002B40F0998012
:10A9C800387800284DD03B88012B57D021888A1C25
:10A9D800B2423FF61DAF012805D17B7802330B4404
:10A9E8009E42FFF415AF023E761A04A9B6B221F8CA
:10A9F800086DA818FFF78EFE98BB3978BDF80820B7
:10AA0800022900F0BB807B78934202D3B24240F225
:10AA1800B380012940F0B4809BB29E42C0F0B08060
:10AA2800ADF808300821BDF80830FE2B3FF6F0AE2F
:10AA380022880133AB542288013292B22280A95471
:10AA480022881344238000200BE0CDE900462B46E2
:10AA58000622022107F10800FFF7B2FE00283FF4A2
:10AA680054AF05B0BDE8F08FB4F800C00CF1060390
:10AA7800B3423FF6CDAE1188052901D80720F0E78B
:10AA88006FF4486E01EB0E039BB24FF27D3E7345A7
:10AA9800F4D95388052BF1D96FF44860181880B29F
:10AAA8007045EBD94FF6FF70814203D0834201D045
:10AAB8009942E3D8052305F80C30238801339BB26B
:10AAC80012212380E954238801339BB22380118803
:10AAD800E954E818090A4170238802339BB223809D
:10AAE8005288EA54E918120A4A70238802332380EC
:10AAF8002BE7BB6A002BC1D04FF000094FF00C0ABE
:10AB08004FF0160B97F82C305FFA89F293427FF6D4
:10AB180057AFB96A0AFB02F201EB0208B8F8043031
:10AB2800981CFE283FF674AE208803332B542388E4
:10AB380001339BB2238005F803B0238801339BB20D
:10AB480023808A5AEA54E918120A4A702088023087
:10AB580080B22080B8F804205AB1D8F8081000292B
:10AB68008CD0284404F0D7F82388B8F8042013447C
:10AB7800238009F10109C5E7092154E7B242FBD94D
:10AB8800ADF808604EE770B5C0B14AB11688002428
:10AB9800B44203D305196D789D4208D0A14201D86B
:10ABA80000200BE0055D01352C44A4B2F0E7A1427A
:10ABB800F6D9A31C1380005D013880B270BD37B58B
:10ABC80002AC002324F8023D134622460546FFF74F
:10ABD800DAFF10B1BDF80600284403B030BD72DFBB
:10ABE800704773DF704774DF704738B50122044639
:10ABF8000D46B0F83812D0F83402FFF7E0FF00B184
:10AC0800057004F13C0204F50D7104F15400BDE82F
:10AC18003840FFF7E4BF80F830107047F8B50446B5
:10AC28000F4600296DD000286BD091F87A301BB1FF
:10AC380091F89830002B66D107F178060FCE4FF0C7
:10AC4800000C251D84F802C00FC50FCE0FC596E86D
:10AC5800070085E8070084F830C0D7F8A43063639C
:10AC6800D7F8A830A3634FF6FF7504F50D73C4F841
:10AC78004432A4F848520722614604F24A2004F0FC
:10AC880073F823780BB984F8545094F8243004F1FD
:10AC98005501C4F8341283B3EE23A4F8383204F50E
:10ACA8000E723846FFF7A6FD30BB94F8243004F244
:10ACB800431107F13C00C4F83C1203B3EE23A4F897
:10ACC800403204F51072FFF795FDA8B9A269A4F8FF
:10ACD800482001236269206484F8500062640146B8
:10ACE80084F8513084F83C3004F13C0204F15400FB
:10ACF800FFF775FF00B92370F8BD1F23CDE71F23A9
:10AD0800DDE70E20F8E70720F6E7F8B507780446F0
:10AD18000D46002F00F0088100F24A26A170072294
:10AD28000021304604F020F8E38813B1A378012B02
:10AD380004D0E3794BB1A378022B06D1636B9BB1A6
:10AD4800012284F8512208209847324604F51471EC
:10AD580012F8013F5BB99142FAD16A1E032A52D810
:10AD6800DFE802F0070D111484F85132EDE73B4695
:10AD7800F3E7A2791AB194F8242002B95BB9E27911
:10AD88000AB1002B41D1237A002B40D1637A002BE2
:10AD98000CBF00250425636BA570002B39D0033D3B
:10ADA800012D36D86279A2B394F852228ABB84F86E
:10ADB8005422012284F853220720984704F13C05C5
:10ADC80018220021284603F0CFFFE36A0122591E0A
:10ADD800914284F83C2020D9042B1ED084F85120BD
:10ADE800002794F824201AB1D7B1A36A84F8523006
:10ADF800A178002384F85030042920D8DFE801F036
:10AE08007C12273A5E000025C5E70225C3E7032523
:10AE1800C1E7002384F85332D0E784F85130E0E7E3
:10AE28000123E3E7C4F84432C4E910630223012292
:10AE380084F83C30802384F83120A4F84830A37883
:10AE4800002B5CD1636B002B6AD1002067E00223E2
:10AE580084F8313062B1072384F83C302369A4F8C0
:10AE680048300023C4F84432E36826646364E6E7A4
:10AE78000323F1E763696364A369A4F8483012B156
:10AE8800062384F83C306379B3B194F852329BB905
:10AE980094F8543283B1022384F8503004212046B8
:10AEA800FFF7A3FE0028CAD1052384F8313004F542
:10AEB8000D73C4F84432C2E70323F6E7E369636419
:10AEC800236AA4F8483012B1062384F83C30637929
:10AED80083B194F852326BB994F8543253B10223C7
:10AEE80084F8503004212046FFF77FFE0028A6D1C1
:10AEF8000623DAE70423D8E784F831309FE72A46A7
:10AF0800D4F8441204F15400FFF769FE38B994F8F4
:10AF1800301094F85400FFF764FE002892D0F8BD72
:10AF280094F83100984790E70820F8E70388112B38
:10AF380010B50C460AD0262B1FD0102B05D1C37B89
:10AF4800012B02D18388A1F8483210BD00228388E2
:10AF580081F85222B1F848229A42F6D10B79002B97
:10AF6800F3D101212046FFF7D0FE0028EDD0A36BD6
:10AF7800002BEAD0BDE810401847037A013B012BAB
:10AF8800E3D889780523013191FBF3F303EB8303BD
:10AF9800C91AC9B2E6E7704738B5044690F85400B4
:10AFA800FFF721FE012384F85232002384F854323B
:10AFB80084F8503006212046FFF717FE054638B9B9
:10AFC800A1782046FFF7A1FE10B1A36B03B1984703
:10AFD800284638BD75DF704776DF70477ADF7047DF
:10AFE8007BDF7047034B1A8882420CBF184600204B
:10AFF800704700BFC4310020024B9B6903B118475A
:10B00800704700BFA831002037B585B22846FFF742
:10B01800E9FF034670B1164C017A227B91420BD2AC
:10B0280000F10A012846FFF7D5FFE8B1112801D041
:10B03800FFF7E2FF03B030BD237C0022027243B168
:10B048003B212846FFF7C8FF30F0080301D0FFF77F
:10B05800D3FF6369002BEDD000228DF80420ADF8F2
:10B06800065001A89847E5E71A7A01321A72E1E713
:10B07800A831002013B50B46497A0F4C024669B92E
:10B08800D4E901101C7A002C18BF01465868FCF757
:10B0980021FA08B1FFF7B0FF02B010BD0021197204
:10B0A8006369002BF8D00121ADF806008DF8041073
:10B0B80001A89847F0E700BFA83100208388B3F5BE
:10B0C800FA7F28BF6FF4F97230B528BF9C1805883D
:10B0D8004A8838BF002495420CD84088904209D34A
:10B0E8008A88A24206D303F2F310904234BF0020AC
:10B0F800012030BD0020FCE70388112B70B5014604
:10B1080048D002D8102B1ED070BD122B52D0502B15
:10B11800FAD12F4BC288DB899A42F5D1038A022BD8
:10B12800F2D186883046FFF75DFF05460028EBD050
:10B1380001F1120000F0C6F930BB6868FCF70EFA9E
:10B148000028E1D009E0C37B012BDDD14FF6FF7069
:10B15800FFF748FF054620B90420BDE87040FFF717
:10B168004BBF1C4A8E880680002303721368C5F8FB
:10B178000A300A30536843601031FFF79FFF144BC1
:10B188006872DB89002BBFD129463046BDE8704084
:10B19800FFF770BF8088FFF725FF04460028B3D06B
:10B1A8004068FCF7DBF908B1FFF726FF4FF6FF739D
:10B1B8002380A9E786883046FFF714FF0546002854
:10B1C800A2D008310A30FFF779FF6872DCE700BFC8
:10B1D800A8310020D8310020F8B5064650B30546FE
:10B1E8000FCD154F3C460FC495E8070084E80700CB
:10B1F8003068124B3B60B8B1FFF7F0FEC8B9316850
:10B208000A681A604A685A600D480E4A4FF6FF737A
:10B2180003800D4B40F8043F0021FCF749F9002852
:10B2280014BF0320002004E01846FFF7D9FE0028C9
:10B23800EAD0F8BD0E20FCE7A8310020D831002064
:10B24800C431002011B00200E0310020F7B51746E4
:10B2580001900E4691B1019C6CB100252C462946FF
:10B2680001A8FDF75CF918B13946A8B2B047013416
:10B278000135142DF3D1204603B0F0BD0C46FAE792
:10B2880073B50191019C06466CB100252C462946F0
:10B2980001A8FDF744F918B106EB440301349D8079
:10B2A8000135142DF3D13046346002B070BD000072
:10B2B8002DE9F04303888488112B8DB0064640D0D1
:10B2C8001A2B43D0102B16D1294DAB680CA8DB43A1
:10B2D80040F8303D55F8041FFDF782F9009901A8A0
:10B2E800FFF7CEFF0027019B9F4207D3132C18D9E5
:10B2F8000420FBF75BFE0DB0BDE8F08301AB03EB68
:10B3080047034FF00008B3F8049005EB08004946DE
:10B3180008F10408FDF7F9F8B8F1740FF5D1013711
:10B32800E1E721461348FDF7D9F821461248FDF711
:10B33800D5F8F37B012BDED010482146FDF7CEF877
:10B34800D9E70C482146FDF7E0F8D4E7057A0C4820
:10B358002D09012D214606D9FDF7C0F8022D2146F9
:10B368000848F0D0EAE7FDF7D0F821460548EAE7B3
:10B378000032002008320020043200200C32002065
:10B3880010320020143200201328014602D8024847
:10B39800FDF7C5B8002070470432002010B50446F8
:10B3A800FFF7F2FF38B121460348FDF7B8F8002847
:10B3B80014BF0220012010BD0C32002010B5044635
:10B3C800FFF7E2FF38B121460348FDF7A8F8002847
:10B3D80014BF0220012010BD0832002010B5044619
:10B3E800FFF7D2FF28B121460248BDE81040FDF71B
:10B3F80096B810BD1032002010B50446FFF7C4FF00
:10B4080028B121460248BDE81040FDF788B810BDB4
:10B418001432002008B518210248FDF789F8C0B297
:10B4280008BD00BF0032002070B50A4D0646284608
:10B438000C46FDF774F858B13046FFF7A5FF38B150
:10B44800A01D314605EB8000BDE87040FDF767B8E8
:10B45800002070BD00320020F8B50D4C054620468E
:10B468000E461746FDF75BF880B12846FFF78CFFBC
:10B4780060B1B01D04EB800029461FB1BDE8F8405B
:10B48800FDF72CB8BDE8F840FDF73FB8F8BD00BFA0
:10B4980000320020F8B50A4C05460E460146204603
:10B4A8001746FDF73CF848B1043504EB85043A46E5
:10B4B800A0683146BDE8F840FFF7C8BEF8BD00BF38
:10B4C80000320020007800F001007047A0DF7047CC
:10B4D80010B50446408800F0C1FCA0802046BDE8B5
:10B4E800104001F043BD30B587B005460C46182220
:10B4F8000021684603F038FC072368468DF80030C1
:10B50800ADF802500294FFF7E3FF07B030BD00002A
:10B5180070B586B0054618220021684603F024FC61
:10B528004FF6FF739D42ADF8025029D0284600F02F
:10B5380083FB0B2804462CD014D818B32046FDF7FB
:10B5480089FE1B4E1B4B1C49F61AF60836040246A8
:10B558002B4646F00100FBF779FA21462846FFF70B
:10B56800C2FF05E0112805D043F202039842E5D155
:10B57800002200E00122114B28461978FFF76CFFE2
:10B5880006B070BD0E238DF800306846FFF7A0FFA7
:10B59800EEE70F238DF800300548064B0849C01A1E
:10B5A800C00800042A4640F00200FBF745FAECE721
:10B5B80078EF020010EF020043FB02007D3200200A
:10B5C800C3FA0200FFF7A4BF024B03491878002210
:10B5D800FFF760BF7F32002019B6020013B50422BE
:10B5E80004460021684603F0BFFB42F6A623ADF8E7
:10B5F800003001238DF80230044B1868019001AA2D
:10B6080069462046FFF762FF02B010BD28F9020024
:10B618002DE9F0412D4D86B029780446FFF704FF47
:10B62800A8460746002849D1204600F069FB0828AB
:10B63800054632D016D808B306282ED02846FDF77E
:10B6480009FE234E234B2449F61AF608360402460F
:10B65800234646F00100FBF7F9F929462046FFF793
:10B6680042FF09E043F20203984205D043F2014346
:10B67800984226D01128E1D1012214E03946182237
:10B68800684603F071FB102368468DF80030ADF86A
:10B6980002400127FFF71CFFEEE7204600F0DEFB23
:10B6A80000F05AFB00220D4B20461978FFF7D4FE14
:10B6B8003A4698F800102046FFF7CEFE06B0BDE8DF
:10B6C800F0812046FFF724FFD6E700BF8032002034
:10B6D80078EF020010EF020094FB02007F32002096
:10B6E80013B5044600F0BAFB00236A46092101F0AD
:10B6F8000FF8052805D1044B012219782046FFF7D9
:10B70800ABFE02B010BD00BF7C32002008B5084B6C
:10B71800084918780022FFF7BDFE024630B9064BEB
:10B7280006491878BDE80840FFF7B4BE08BD00BF59
:10B738007E32002049B702007C320020E5B50200C5
:10B7480070B5012186B006462A48FCF71EFF04465C
:10B75800BFF35F8F80BB304600F012FA1128054610
:10B768002CD015D8E0B12846FDF774FD224C234BA8
:10B778002349E41AE40824040246334644F001004D
:10B78800FBF764F929463046FFF7ADFE002405E0D3
:10B79800862815D043F202039842E4D1224601E0FC
:10B7A80001240246174B30461978FFF755FE1CB99D
:10B7B800BFF35F8F0F4B1C6006B070BD0122F1E72D
:10B7C80021461822684603F0CFFA06238DF8003088
:10B7D80009480A4B0C49ADF80260C01AC0080004B9
:10B7E800324640F00200FBF727F96846FFF770FE83
:10B7F800D4E700BF7832002078EF020010EF020093
:10B8080069F902007E32002034F9020038B5037865
:10B818000446A3B94088FFF77BFE6588284600F0F8
:10B828005DFA28B1064B012219782846FFF714FE65
:10B838006088FFF755FFBDE83840FFF767BF38BDA0
:10B848007F3200200378082B37B5044630D1427A7E
:10B8580072BB057A072D1BD0082D2DD0012D27D1BD
:10B868006A462946808801F0D5F908BB019B1B78F8
:10B87800F3B1A08800F020FB4FF6FF73984217D071
:10B88800114B2A461978FFF7E7FDFFF79DFE0FE0F9
:10B89800808800F011FB4FF6FF739842044607D0EA
:10B8A8000A4B01221978FFF7D7FD2046FFF718FF4A
:10B8B800FFF72CFF03B030BD054B19680129F7D1FC
:10B8C800BFF35F8F1A60F3E77F3200207E320020DB
:10B8D80078320020F8B5FFF79DFD194F194E3870E2
:10B8E800FFF798FD3070FFF795FD174D174C28703E
:10B8F800FFF790FD2070FFF78DFD154B18703B7812
:10B90800182B0AD03378182B07D02B78182B04D093
:10B918002378182B01D018280BD10E4B0E480F494D
:10B92800C01AC008000440F00100FBF781F80320AA
:10B93800F8BD0B4B00201860BFF35F8FF8E700BF1E
:10B948007E3200207D3200207F32002080320020AD
:10B958007C32002010EF020078EF020054FA020057
:10B968007832002013B501230024ADF800300923F4
:10B97800104AADF802408DF802300F4BA14214BFB7
:10B9880019461146019100F069FA2246694600F00D
:10B998002BFF60B1FDF75EFC084A094B09499B1A69
:10B9A800DB081B04024643F00200FBF745F802B02F
:10B9B80010BD00BF2CF9020030F9020010EF0200A0
:10B9C80078EF0200D4FB020030B503888588502B3D
:10B9D80087B0044635D00BD8352B45D03D4B3E4972
:10B9E80018780022FFF756FDFFF7EEFD07B030BDCF
:10B9F800522B22D0542BF1D118220021684603F093
:10BA0800B3F9112328468DF80030ADF8025000F044
:10BA180025FAADF8040000F09FF9304B2846197854
:10BA28000022FFF719FD2E4B284600221978FFF750
:10BA380013FD6846FFF74CFDD0E72846FFF768FD81
:10BA4800CCE7037B012BC9D1827A012AC6D10189AF
:10BA580042F602139942C1D1224B28461978FFF7C2
:10BA6800FBFCFFF753FEB9E71F4B00221978284665
:10BA7800FFF7F2FCE288B2F5857F0AD05AB11B487D
:10BA88001B4B1C49C01AC008000440F00200FAF71A
:10BA9800D3FF00211AE06289012A09D01348144B08
:10BAA8001549C01AC008000440F00200FAF7C4FFA4
:10BAB800A289012A06D00D480D4B1049C01AC008AA
:10BAC8000004E2E7A17B003118BF01212846FFF7F7
